{
	"solidity_learn_remix/call.sol": {
		"Receiver": {
			"abi": [
				{
					"anonymous": false,
					"inputs": [
						{
							"indexed": false,
							"internalType": "address",
							"name": "caller",
							"type": "address"
						},
						{
							"indexed": false,
							"internalType": "uint256",
							"name": "amount",
							"type": "uint256"
						},
						{
							"indexed": false,
							"internalType": "string",
							"name": "message",
							"type": "string"
						}
					],
					"name": "Received",
					"type": "event"
				},
				{
					"stateMutability": "payable",
					"type": "fallback"
				},
				{
					"inputs": [
						{
							"internalType": "string",
							"name": "_message",
							"type": "string"
						},
						{
							"internalType": "uint256",
							"name": "_x",
							"type": "uint256"
						}
					],
					"name": "foo",
					"outputs": [
						{
							"internalType": "uint256",
							"name": "",
							"type": "uint256"
						}
					],
					"stateMutability": "payable",
					"type": "function"
				},
				{
					"stateMutability": "payable",
					"type": "receive"
				}
			],
			"devdoc": {
				"kind": "dev",
				"methods": {},
				"version": 1
			},
			"evm": {
				"assembly": "    /* \"solidity_learn_remix/call.sol\":61:478  contract Receiver {... */\n  mstore(0x40, 0x80)\n  callvalue\n  dup1\n  iszero\n  tag_1\n  jumpi\n  0x00\n  dup1\n  revert\ntag_1:\n  pop\n  dataSize(sub_0)\n  dup1\n  dataOffset(sub_0)\n  0x00\n  codecopy\n  0x00\n  return\nstop\n\nsub_0: assembly {\n        /* \"solidity_learn_remix/call.sol\":61:478  contract Receiver {... */\n      mstore(0x40, 0x80)\n      jumpi(tag_1, lt(calldatasize, 0x04))\n      shr(0xe0, calldataload(0x00))\n      dup1\n      0x24ccab8f\n      eq\n      tag_3\n      jumpi\n      jump(tag_2)\n    tag_1:\n      jumpi(tag_2, calldatasize)\n      stop\n    tag_2:\n        /* \"solidity_learn_remix/call.sol\":236:290  Received(msg.sender, msg.value, \"Fallback was called\") */\n      0x59e04c3f0d44b7caf6e8ef854b61d9a51cf1960d7a88ff6356cc5e946b4b5832\n        /* \"solidity_learn_remix/call.sol\":245:255  msg.sender */\n      caller\n        /* \"solidity_learn_remix/call.sol\":257:266  msg.value */\n      callvalue\n        /* \"solidity_learn_remix/call.sol\":236:290  Received(msg.sender, msg.value, \"Fallback was called\") */\n      mload(0x40)\n      tag_8\n      swap3\n      swap2\n      swap1\n      tag_9\n      jump\t// in\n    tag_8:\n      mload(0x40)\n      dup1\n      swap2\n      sub\n      swap1\n      log1\n        /* \"solidity_learn_remix/call.sol\":61:478  contract Receiver {... */\n      stop\n        /* \"solidity_learn_remix/call.sol\":306:473  function foo(string memory _message, uint _x) public payable returns (uint) {... */\n    tag_3:\n      tag_10\n      0x04\n      dup1\n      calldatasize\n      sub\n      dup2\n      add\n      swap1\n      tag_11\n      swap2\n      swap1\n      tag_12\n      jump\t// in\n    tag_11:\n      tag_13\n      jump\t// in\n    tag_10:\n      mload(0x40)\n      tag_14\n      swap2\n      swap1\n      tag_15\n      jump\t// in\n    tag_14:\n      mload(0x40)\n      dup1\n      swap2\n      sub\n      swap1\n      return\n    tag_13:\n        /* \"solidity_learn_remix/call.sol\":376:380  uint */\n      0x00\n        /* \"solidity_learn_remix/call.sol\":398:439  Received(msg.sender, msg.value, _message) */\n      0x59e04c3f0d44b7caf6e8ef854b61d9a51cf1960d7a88ff6356cc5e946b4b5832\n        /* \"solidity_learn_remix/call.sol\":407:417  msg.sender */\n      caller\n        /* \"solidity_learn_remix/call.sol\":419:428  msg.value */\n      callvalue\n        /* \"solidity_learn_remix/call.sol\":430:438  _message */\n      dup6\n        /* \"solidity_learn_remix/call.sol\":398:439  Received(msg.sender, msg.value, _message) */\n      mload(0x40)\n      tag_17\n      swap4\n      swap3\n      swap2\n      swap1\n      tag_18\n      jump\t// in\n    tag_17:\n      mload(0x40)\n      dup1\n      swap2\n      sub\n      swap1\n      log1\n        /* \"solidity_learn_remix/call.sol\":464:465  1 */\n      0x01\n        /* \"solidity_learn_remix/call.sol\":459:461  _x */\n      dup3\n        /* \"solidity_learn_remix/call.sol\":459:465  _x + 1 */\n      tag_19\n      swap2\n      swap1\n      tag_20\n      jump\t// in\n    tag_19:\n        /* \"solidity_learn_remix/call.sol\":452:465  return _x + 1 */\n      swap1\n      pop\n        /* \"solidity_learn_remix/call.sol\":306:473  function foo(string memory _message, uint _x) public payable returns (uint) {... */\n      swap3\n      swap2\n      pop\n      pop\n      jump\t// out\n        /* \"#utility.yul\":7:133   */\n    tag_21:\n        /* \"#utility.yul\":44:51   */\n      0x00\n        /* \"#utility.yul\":84:126   */\n      0xffffffffffffffffffffffffffffffffffffffff\n        /* \"#utility.yul\":77:82   */\n      dup3\n        /* \"#utility.yul\":73:127   */\n      and\n        /* \"#utility.yul\":62:127   */\n      swap1\n      pop\n        /* \"#utility.yul\":7:133   */\n      swap2\n      swap1\n      pop\n      jump\t// out\n        /* \"#utility.yul\":139:235   */\n    tag_22:\n        /* \"#utility.yul\":176:183   */\n      0x00\n        /* \"#utility.yul\":205:229   */\n      tag_51\n        /* \"#utility.yul\":223:228   */\n      dup3\n        /* \"#utility.yul\":205:229   */\n      tag_21\n      jump\t// in\n    tag_51:\n        /* \"#utility.yul\":194:229   */\n      swap1\n      pop\n        /* \"#utility.yul\":139:235   */\n      swap2\n      swap1\n      pop\n      jump\t// out\n        /* \"#utility.yul\":241:359   */\n    tag_23:\n        /* \"#utility.yul\":328:352   */\n      tag_53\n        /* \"#utility.yul\":346:351   */\n      dup2\n        /* \"#utility.yul\":328:352   */\n      tag_22\n      jump\t// in\n    tag_53:\n        /* \"#utility.yul\":323:326   */\n      dup3\n        /* \"#utility.yul\":316:353   */\n      mstore\n        /* \"#utility.yul\":241:359   */\n      pop\n      pop\n      jump\t// out\n        /* \"#utility.yul\":365:442   */\n    tag_24:\n        /* \"#utility.yul\":402:409   */\n      0x00\n        /* \"#utility.yul\":431:436   */\n      dup2\n        /* \"#utility.yul\":420:436   */\n      swap1\n      pop\n        /* \"#utility.yul\":365:442   */\n      swap2\n      swap1\n      pop\n      jump\t// out\n        /* \"#utility.yul\":448:566   */\n    tag_25:\n        /* \"#utility.yul\":535:559   */\n      tag_56\n        /* \"#utility.yul\":553:558   */\n      dup2\n        /* \"#utility.yul\":535:559   */\n      tag_24\n      jump\t// in\n    tag_56:\n        /* \"#utility.yul\":530:533   */\n      dup3\n        /* \"#utility.yul\":523:560   */\n      mstore\n        /* \"#utility.yul\":448:566   */\n      pop\n      pop\n      jump\t// out\n        /* \"#utility.yul\":572:741   */\n    tag_26:\n        /* \"#utility.yul\":656:667   */\n      0x00\n        /* \"#utility.yul\":690:696   */\n      dup3\n        /* \"#utility.yul\":685:688   */\n      dup3\n        /* \"#utility.yul\":678:697   */\n      mstore\n        /* \"#utility.yul\":730:734   */\n      0x20\n        /* \"#utility.yul\":725:728   */\n      dup3\n        /* \"#utility.yul\":721:735   */\n      add\n        /* \"#utility.yul\":706:735   */\n      swap1\n      pop\n        /* \"#utility.yul\":572:741   */\n      swap3\n      swap2\n      pop\n      pop\n      jump\t// out\n        /* \"#utility.yul\":747:916   */\n    tag_27:\n        /* \"#utility.yul\":887:908   */\n      0x46616c6c6261636b207761732063616c6c656400000000000000000000000000\n        /* \"#utility.yul\":883:884   */\n      0x00\n        /* \"#utility.yul\":875:881   */\n      dup3\n        /* \"#utility.yul\":871:885   */\n      add\n        /* \"#utility.yul\":864:909   */\n      mstore\n        /* \"#utility.yul\":747:916   */\n      pop\n      jump\t// out\n        /* \"#utility.yul\":922:1288   */\n    tag_28:\n        /* \"#utility.yul\":1064:1067   */\n      0x00\n        /* \"#utility.yul\":1085:1152   */\n      tag_60\n        /* \"#utility.yul\":1149:1151   */\n      0x13\n        /* \"#utility.yul\":1144:1147   */\n      dup4\n        /* \"#utility.yul\":1085:1152   */\n      tag_26\n      jump\t// in\n    tag_60:\n        /* \"#utility.yul\":1078:1152   */\n      swap2\n      pop\n        /* \"#utility.yul\":1161:1254   */\n      tag_61\n        /* \"#utility.yul\":1250:1253   */\n      dup3\n        /* \"#utility.yul\":1161:1254   */\n      tag_27\n      jump\t// in\n    tag_61:\n        /* \"#utility.yul\":1279:1281   */\n      0x20\n        /* \"#utility.yul\":1274:1277   */\n      dup3\n        /* \"#utility.yul\":1270:1282   */\n      add\n        /* \"#utility.yul\":1263:1282   */\n      swap1\n      pop\n        /* \"#utility.yul\":922:1288   */\n      swap2\n      swap1\n      pop\n      jump\t// out\n        /* \"#utility.yul\":1294:1933   */\n    tag_9:\n        /* \"#utility.yul\":1516:1520   */\n      0x00\n        /* \"#utility.yul\":1554:1556   */\n      0x60\n        /* \"#utility.yul\":1543:1552   */\n      dup3\n        /* \"#utility.yul\":1539:1557   */\n      add\n        /* \"#utility.yul\":1531:1557   */\n      swap1\n      pop\n        /* \"#utility.yul\":1567:1638   */\n      tag_63\n        /* \"#utility.yul\":1635:1636   */\n      0x00\n        /* \"#utility.yul\":1624:1633   */\n      dup4\n        /* \"#utility.yul\":1620:1637   */\n      add\n        /* \"#utility.yul\":1611:1617   */\n      dup6\n        /* \"#utility.yul\":1567:1638   */\n      tag_23\n      jump\t// in\n    tag_63:\n        /* \"#utility.yul\":1648:1720   */\n      tag_64\n        /* \"#utility.yul\":1716:1718   */\n      0x20\n        /* \"#utility.yul\":1705:1714   */\n      dup4\n        /* \"#utility.yul\":1701:1719   */\n      add\n        /* \"#utility.yul\":1692:1698   */\n      dup5\n        /* \"#utility.yul\":1648:1720   */\n      tag_25\n      jump\t// in\n    tag_64:\n        /* \"#utility.yul\":1767:1776   */\n      dup2\n        /* \"#utility.yul\":1761:1765   */\n      dup2\n        /* \"#utility.yul\":1757:1777   */\n      sub\n        /* \"#utility.yul\":1752:1754   */\n      0x40\n        /* \"#utility.yul\":1741:1750   */\n      dup4\n        /* \"#utility.yul\":1737:1755   */\n      add\n        /* \"#utility.yul\":1730:1778   */\n      mstore\n        /* \"#utility.yul\":1795:1926   */\n      tag_65\n        /* \"#utility.yul\":1921:1925   */\n      dup2\n        /* \"#utility.yul\":1795:1926   */\n      tag_28\n      jump\t// in\n    tag_65:\n        /* \"#utility.yul\":1787:1926   */\n      swap1\n      pop\n        /* \"#utility.yul\":1294:1933   */\n      swap4\n      swap3\n      pop\n      pop\n      pop\n      jump\t// out\n        /* \"#utility.yul\":1939:2014   */\n    tag_29:\n        /* \"#utility.yul\":1972:1978   */\n      0x00\n        /* \"#utility.yul\":2005:2007   */\n      0x40\n        /* \"#utility.yul\":1999:2008   */\n      mload\n        /* \"#utility.yul\":1989:2008   */\n      swap1\n      pop\n        /* \"#utility.yul\":1939:2014   */\n      swap1\n      jump\t// out\n        /* \"#utility.yul\":2020:2137   */\n    tag_30:\n        /* \"#utility.yul\":2129:2130   */\n      0x00\n        /* \"#utility.yul\":2126:2127   */\n      dup1\n        /* \"#utility.yul\":2119:2131   */\n      revert\n        /* \"#utility.yul\":2143:2260   */\n    tag_31:\n        /* \"#utility.yul\":2252:2253   */\n      0x00\n        /* \"#utility.yul\":2249:2250   */\n      dup1\n        /* \"#utility.yul\":2242:2254   */\n      revert\n        /* \"#utility.yul\":2266:2383   */\n    tag_32:\n        /* \"#utility.yul\":2375:2376   */\n      0x00\n        /* \"#utility.yul\":2372:2373   */\n      dup1\n        /* \"#utility.yul\":2365:2377   */\n      revert\n        /* \"#utility.yul\":2389:2506   */\n    tag_33:\n        /* \"#utility.yul\":2498:2499   */\n      0x00\n        /* \"#utility.yul\":2495:2496   */\n      dup1\n        /* \"#utility.yul\":2488:2500   */\n      revert\n        /* \"#utility.yul\":2512:2614   */\n    tag_34:\n        /* \"#utility.yul\":2553:2559   */\n      0x00\n        /* \"#utility.yul\":2604:2606   */\n      0x1f\n        /* \"#utility.yul\":2600:2607   */\n      not\n        /* \"#utility.yul\":2595:2597   */\n      0x1f\n        /* \"#utility.yul\":2588:2593   */\n      dup4\n        /* \"#utility.yul\":2584:2598   */\n      add\n        /* \"#utility.yul\":2580:2608   */\n      and\n        /* \"#utility.yul\":2570:2608   */\n      swap1\n      pop\n        /* \"#utility.yul\":2512:2614   */\n      swap2\n      swap1\n      pop\n      jump\t// out\n        /* \"#utility.yul\":2620:2800   */\n    tag_35:\n        /* \"#utility.yul\":2668:2745   */\n      0x4e487b7100000000000000000000000000000000000000000000000000000000\n        /* \"#utility.yul\":2665:2666   */\n      0x00\n        /* \"#utility.yul\":2658:2746   */\n      mstore\n        /* \"#utility.yul\":2765:2769   */\n      0x41\n        /* \"#utility.yul\":2762:2763   */\n      0x04\n        /* \"#utility.yul\":2755:2770   */\n      mstore\n        /* \"#utility.yul\":2789:2793   */\n      0x24\n        /* \"#utility.yul\":2786:2787   */\n      0x00\n        /* \"#utility.yul\":2779:2794   */\n      revert\n        /* \"#utility.yul\":2806:3087   */\n    tag_36:\n        /* \"#utility.yul\":2889:2916   */\n      tag_74\n        /* \"#utility.yul\":2911:2915   */\n      dup3\n        /* \"#utility.yul\":2889:2916   */\n      tag_34\n      jump\t// in\n    tag_74:\n        /* \"#utility.yul\":2881:2887   */\n      dup2\n        /* \"#utility.yul\":2877:2917   */\n      add\n        /* \"#utility.yul\":3019:3025   */\n      dup2\n        /* \"#utility.yul\":3007:3017   */\n      dup2\n        /* \"#utility.yul\":3004:3026   */\n      lt\n        /* \"#utility.yul\":2983:3001   */\n      0xffffffffffffffff\n        /* \"#utility.yul\":2971:2981   */\n      dup3\n        /* \"#utility.yul\":2968:3002   */\n      gt\n        /* \"#utility.yul\":2965:3027   */\n      or\n        /* \"#utility.yul\":2962:3050   */\n      iszero\n      tag_75\n      jumpi\n        /* \"#utility.yul\":3030:3048   */\n      tag_76\n      tag_35\n      jump\t// in\n    tag_76:\n        /* \"#utility.yul\":2962:3050   */\n    tag_75:\n        /* \"#utility.yul\":3070:3080   */\n      dup1\n        /* \"#utility.yul\":3066:3068   */\n      0x40\n        /* \"#utility.yul\":3059:3081   */\n      mstore\n        /* \"#utility.yul\":2849:3087   */\n      pop\n        /* \"#utility.yul\":2806:3087   */\n      pop\n      pop\n      jump\t// out\n        /* \"#utility.yul\":3093:3222   */\n    tag_37:\n        /* \"#utility.yul\":3127:3133   */\n      0x00\n        /* \"#utility.yul\":3154:3174   */\n      tag_78\n      tag_29\n      jump\t// in\n    tag_78:\n        /* \"#utility.yul\":3144:3174   */\n      swap1\n      pop\n        /* \"#utility.yul\":3183:3216   */\n      tag_79\n        /* \"#utility.yul\":3211:3215   */\n      dup3\n        /* \"#utility.yul\":3203:3209   */\n      dup3\n        /* \"#utility.yul\":3183:3216   */\n      tag_36\n      jump\t// in\n    tag_79:\n        /* \"#utility.yul\":3093:3222   */\n      swap2\n      swap1\n      pop\n      jump\t// out\n        /* \"#utility.yul\":3228:3536   */\n    tag_38:\n        /* \"#utility.yul\":3290:3294   */\n      0x00\n        /* \"#utility.yul\":3380:3398   */\n      0xffffffffffffffff\n        /* \"#utility.yul\":3372:3378   */\n      dup3\n        /* \"#utility.yul\":3369:3399   */\n      gt\n        /* \"#utility.yul\":3366:3422   */\n      iszero\n      tag_81\n      jumpi\n        /* \"#utility.yul\":3402:3420   */\n      tag_82\n      tag_35\n      jump\t// in\n    tag_82:\n        /* \"#utility.yul\":3366:3422   */\n    tag_81:\n        /* \"#utility.yul\":3440:3469   */\n      tag_83\n        /* \"#utility.yul\":3462:3468   */\n      dup3\n        /* \"#utility.yul\":3440:3469   */\n      tag_34\n      jump\t// in\n    tag_83:\n        /* \"#utility.yul\":3432:3469   */\n      swap1\n      pop\n        /* \"#utility.yul\":3524:3528   */\n      0x20\n        /* \"#utility.yul\":3518:3522   */\n      dup2\n        /* \"#utility.yul\":3514:3529   */\n      add\n        /* \"#utility.yul\":3506:3529   */\n      swap1\n      pop\n        /* \"#utility.yul\":3228:3536   */\n      swap2\n      swap1\n      pop\n      jump\t// out\n        /* \"#utility.yul\":3542:3688   */\n    tag_39:\n        /* \"#utility.yul\":3639:3645   */\n      dup3\n        /* \"#utility.yul\":3634:3637   */\n      dup2\n        /* \"#utility.yul\":3629:3632   */\n      dup4\n        /* \"#utility.yul\":3616:3646   */\n      calldatacopy\n        /* \"#utility.yul\":3680:3681   */\n      0x00\n        /* \"#utility.yul\":3671:3677   */\n      dup4\n        /* \"#utility.yul\":3666:3669   */\n      dup4\n        /* \"#utility.yul\":3662:3678   */\n      add\n        /* \"#utility.yul\":3655:3682   */\n      mstore\n        /* \"#utility.yul\":3542:3688   */\n      pop\n      pop\n      pop\n      jump\t// out\n        /* \"#utility.yul\":3694:4119   */\n    tag_40:\n        /* \"#utility.yul\":3772:3777   */\n      0x00\n        /* \"#utility.yul\":3797:3863   */\n      tag_86\n        /* \"#utility.yul\":3813:3862   */\n      tag_87\n        /* \"#utility.yul\":3855:3861   */\n      dup5\n        /* \"#utility.yul\":3813:3862   */\n      tag_38\n      jump\t// in\n    tag_87:\n        /* \"#utility.yul\":3797:3863   */\n      tag_37\n      jump\t// in\n    tag_86:\n        /* \"#utility.yul\":3788:3863   */\n      swap1\n      pop\n        /* \"#utility.yul\":3886:3892   */\n      dup3\n        /* \"#utility.yul\":3879:3884   */\n      dup2\n        /* \"#utility.yul\":3872:3893   */\n      mstore\n        /* \"#utility.yul\":3924:3928   */\n      0x20\n        /* \"#utility.yul\":3917:3922   */\n      dup2\n        /* \"#utility.yul\":3913:3929   */\n      add\n        /* \"#utility.yul\":3962:3965   */\n      dup5\n        /* \"#utility.yul\":3953:3959   */\n      dup5\n        /* \"#utility.yul\":3948:3951   */\n      dup5\n        /* \"#utility.yul\":3944:3960   */\n      add\n        /* \"#utility.yul\":3941:3966   */\n      gt\n        /* \"#utility.yul\":3938:4050   */\n      iszero\n      tag_88\n      jumpi\n        /* \"#utility.yul\":3969:4048   */\n      tag_89\n      tag_33\n      jump\t// in\n    tag_89:\n        /* \"#utility.yul\":3938:4050   */\n    tag_88:\n        /* \"#utility.yul\":4059:4113   */\n      tag_90\n        /* \"#utility.yul\":4106:4112   */\n      dup5\n        /* \"#utility.yul\":4101:4104   */\n      dup3\n        /* \"#utility.yul\":4096:4099   */\n      dup6\n        /* \"#utility.yul\":4059:4113   */\n      tag_39\n      jump\t// in\n    tag_90:\n        /* \"#utility.yul\":3778:4119   */\n      pop\n        /* \"#utility.yul\":3694:4119   */\n      swap4\n      swap3\n      pop\n      pop\n      pop\n      jump\t// out\n        /* \"#utility.yul\":4139:4479   */\n    tag_41:\n        /* \"#utility.yul\":4195:4200   */\n      0x00\n        /* \"#utility.yul\":4244:4247   */\n      dup3\n        /* \"#utility.yul\":4237:4241   */\n      0x1f\n        /* \"#utility.yul\":4229:4235   */\n      dup4\n        /* \"#utility.yul\":4225:4242   */\n      add\n        /* \"#utility.yul\":4221:4248   */\n      slt\n        /* \"#utility.yul\":4211:4333   */\n      tag_92\n      jumpi\n        /* \"#utility.yul\":4252:4331   */\n      tag_93\n      tag_32\n      jump\t// in\n    tag_93:\n        /* \"#utility.yul\":4211:4333   */\n    tag_92:\n        /* \"#utility.yul\":4369:4375   */\n      dup2\n        /* \"#utility.yul\":4356:4376   */\n      calldataload\n        /* \"#utility.yul\":4394:4473   */\n      tag_94\n        /* \"#utility.yul\":4469:4472   */\n      dup5\n        /* \"#utility.yul\":4461:4467   */\n      dup3\n        /* \"#utility.yul\":4454:4458   */\n      0x20\n        /* \"#utility.yul\":4446:4452   */\n      dup7\n        /* \"#utility.yul\":4442:4459   */\n      add\n        /* \"#utility.yul\":4394:4473   */\n      tag_40\n      jump\t// in\n    tag_94:\n        /* \"#utility.yul\":4385:4473   */\n      swap2\n      pop\n        /* \"#utility.yul\":4201:4479   */\n      pop\n        /* \"#utility.yul\":4139:4479   */\n      swap3\n      swap2\n      pop\n      pop\n      jump\t// out\n        /* \"#utility.yul\":4485:4607   */\n    tag_42:\n        /* \"#utility.yul\":4558:4582   */\n      tag_96\n        /* \"#utility.yul\":4576:4581   */\n      dup2\n        /* \"#utility.yul\":4558:4582   */\n      tag_24\n      jump\t// in\n    tag_96:\n        /* \"#utility.yul\":4551:4556   */\n      dup2\n        /* \"#utility.yul\":4548:4583   */\n      eq\n        /* \"#utility.yul\":4538:4601   */\n      tag_97\n      jumpi\n        /* \"#utility.yul\":4597:4598   */\n      0x00\n        /* \"#utility.yul\":4594:4595   */\n      dup1\n        /* \"#utility.yul\":4587:4599   */\n      revert\n        /* \"#utility.yul\":4538:4601   */\n    tag_97:\n        /* \"#utility.yul\":4485:4607   */\n      pop\n      jump\t// out\n        /* \"#utility.yul\":4613:4752   */\n    tag_43:\n        /* \"#utility.yul\":4659:4664   */\n      0x00\n        /* \"#utility.yul\":4697:4703   */\n      dup2\n        /* \"#utility.yul\":4684:4704   */\n      calldataload\n        /* \"#utility.yul\":4675:4704   */\n      swap1\n      pop\n        /* \"#utility.yul\":4713:4746   */\n      tag_99\n        /* \"#utility.yul\":4740:4745   */\n      dup2\n        /* \"#utility.yul\":4713:4746   */\n      tag_42\n      jump\t// in\n    tag_99:\n        /* \"#utility.yul\":4613:4752   */\n      swap3\n      swap2\n      pop\n      pop\n      jump\t// out\n        /* \"#utility.yul\":4758:5412   */\n    tag_12:\n        /* \"#utility.yul\":4836:4842   */\n      0x00\n        /* \"#utility.yul\":4844:4850   */\n      dup1\n        /* \"#utility.yul\":4893:4895   */\n      0x40\n        /* \"#utility.yul\":4881:4890   */\n      dup4\n        /* \"#utility.yul\":4872:4879   */\n      dup6\n        /* \"#utility.yul\":4868:4891   */\n      sub\n        /* \"#utility.yul\":4864:4896   */\n      slt\n        /* \"#utility.yul\":4861:4980   */\n      iszero\n      tag_101\n      jumpi\n        /* \"#utility.yul\":4899:4978   */\n      tag_102\n      tag_30\n      jump\t// in\n    tag_102:\n        /* \"#utility.yul\":4861:4980   */\n    tag_101:\n        /* \"#utility.yul\":5047:5048   */\n      0x00\n        /* \"#utility.yul\":5036:5045   */\n      dup4\n        /* \"#utility.yul\":5032:5049   */\n      add\n        /* \"#utility.yul\":5019:5050   */\n      calldataload\n        /* \"#utility.yul\":5077:5095   */\n      0xffffffffffffffff\n        /* \"#utility.yul\":5069:5075   */\n      dup2\n        /* \"#utility.yul\":5066:5096   */\n      gt\n        /* \"#utility.yul\":5063:5180   */\n      iszero\n      tag_103\n      jumpi\n        /* \"#utility.yul\":5099:5178   */\n      tag_104\n      tag_31\n      jump\t// in\n    tag_104:\n        /* \"#utility.yul\":5063:5180   */\n    tag_103:\n        /* \"#utility.yul\":5204:5267   */\n      tag_105\n        /* \"#utility.yul\":5259:5266   */\n      dup6\n        /* \"#utility.yul\":5250:5256   */\n      dup3\n        /* \"#utility.yul\":5239:5248   */\n      dup7\n        /* \"#utility.yul\":5235:5257   */\n      add\n        /* \"#utility.yul\":5204:5267   */\n      tag_41\n      jump\t// in\n    tag_105:\n        /* \"#utility.yul\":5194:5267   */\n      swap3\n      pop\n        /* \"#utility.yul\":4990:5277   */\n      pop\n        /* \"#utility.yul\":5316:5318   */\n      0x20\n        /* \"#utility.yul\":5342:5395   */\n      tag_106\n        /* \"#utility.yul\":5387:5394   */\n      dup6\n        /* \"#utility.yul\":5378:5384   */\n      dup3\n        /* \"#utility.yul\":5367:5376   */\n      dup7\n        /* \"#utility.yul\":5363:5385   */\n      add\n        /* \"#utility.yul\":5342:5395   */\n      tag_43\n      jump\t// in\n    tag_106:\n        /* \"#utility.yul\":5332:5395   */\n      swap2\n      pop\n        /* \"#utility.yul\":5287:5405   */\n      pop\n        /* \"#utility.yul\":4758:5412   */\n      swap3\n      pop\n      swap3\n      swap1\n      pop\n      jump\t// out\n        /* \"#utility.yul\":5418:5640   */\n    tag_15:\n        /* \"#utility.yul\":5511:5515   */\n      0x00\n        /* \"#utility.yul\":5549:5551   */\n      0x20\n        /* \"#utility.yul\":5538:5547   */\n      dup3\n        /* \"#utility.yul\":5534:5552   */\n      add\n        /* \"#utility.yul\":5526:5552   */\n      swap1\n      pop\n        /* \"#utility.yul\":5562:5633   */\n      tag_108\n        /* \"#utility.yul\":5630:5631   */\n      0x00\n        /* \"#utility.yul\":5619:5628   */\n      dup4\n        /* \"#utility.yul\":5615:5632   */\n      add\n        /* \"#utility.yul\":5606:5612   */\n      dup5\n        /* \"#utility.yul\":5562:5633   */\n      tag_25\n      jump\t// in\n    tag_108:\n        /* \"#utility.yul\":5418:5640   */\n      swap3\n      swap2\n      pop\n      pop\n      jump\t// out\n        /* \"#utility.yul\":5646:5745   */\n    tag_44:\n        /* \"#utility.yul\":5698:5704   */\n      0x00\n        /* \"#utility.yul\":5732:5737   */\n      dup2\n        /* \"#utility.yul\":5726:5738   */\n      mload\n        /* \"#utility.yul\":5716:5738   */\n      swap1\n      pop\n        /* \"#utility.yul\":5646:5745   */\n      swap2\n      swap1\n      pop\n      jump\t// out\n        /* \"#utility.yul\":5751:5997   */\n    tag_45:\n        /* \"#utility.yul\":5832:5833   */\n      0x00\n        /* \"#utility.yul\":5842:5955   */\n    tag_111:\n        /* \"#utility.yul\":5856:5862   */\n      dup4\n        /* \"#utility.yul\":5853:5854   */\n      dup2\n        /* \"#utility.yul\":5850:5863   */\n      lt\n        /* \"#utility.yul\":5842:5955   */\n      iszero\n      tag_113\n      jumpi\n        /* \"#utility.yul\":5941:5942   */\n      dup1\n        /* \"#utility.yul\":5936:5939   */\n      dup3\n        /* \"#utility.yul\":5932:5943   */\n      add\n        /* \"#utility.yul\":5926:5944   */\n      mload\n        /* \"#utility.yul\":5922:5923   */\n      dup2\n        /* \"#utility.yul\":5917:5920   */\n      dup5\n        /* \"#utility.yul\":5913:5924   */\n      add\n        /* \"#utility.yul\":5906:5945   */\n      mstore\n        /* \"#utility.yul\":5878:5880   */\n      0x20\n        /* \"#utility.yul\":5875:5876   */\n      dup2\n        /* \"#utility.yul\":5871:5881   */\n      add\n        /* \"#utility.yul\":5866:5881   */\n      swap1\n      pop\n        /* \"#utility.yul\":5842:5955   */\n      jump(tag_111)\n    tag_113:\n        /* \"#utility.yul\":5989:5990   */\n      0x00\n        /* \"#utility.yul\":5980:5986   */\n      dup5\n        /* \"#utility.yul\":5975:5978   */\n      dup5\n        /* \"#utility.yul\":5971:5987   */\n      add\n        /* \"#utility.yul\":5964:5991   */\n      mstore\n        /* \"#utility.yul\":5813:5997   */\n      pop\n        /* \"#utility.yul\":5751:5997   */\n      pop\n      pop\n      pop\n      jump\t// out\n        /* \"#utility.yul\":6003:6380   */\n    tag_46:\n        /* \"#utility.yul\":6091:6094   */\n      0x00\n        /* \"#utility.yul\":6119:6158   */\n      tag_115\n        /* \"#utility.yul\":6152:6157   */\n      dup3\n        /* \"#utility.yul\":6119:6158   */\n      tag_44\n      jump\t// in\n    tag_115:\n        /* \"#utility.yul\":6174:6245   */\n      tag_116\n        /* \"#utility.yul\":6238:6244   */\n      dup2\n        /* \"#utility.yul\":6233:6236   */\n      dup6\n        /* \"#utility.yul\":6174:6245   */\n      tag_26\n      jump\t// in\n    tag_116:\n        /* \"#utility.yul\":6167:6245   */\n      swap4\n      pop\n        /* \"#utility.yul\":6254:6319   */\n      tag_117\n        /* \"#utility.yul\":6312:6318   */\n      dup2\n        /* \"#utility.yul\":6307:6310   */\n      dup6\n        /* \"#utility.yul\":6300:6304   */\n      0x20\n        /* \"#utility.yul\":6293:6298   */\n      dup7\n        /* \"#utility.yul\":6289:6305   */\n      add\n        /* \"#utility.yul\":6254:6319   */\n      tag_45\n      jump\t// in\n    tag_117:\n        /* \"#utility.yul\":6344:6373   */\n      tag_118\n        /* \"#utility.yul\":6366:6372   */\n      dup2\n        /* \"#utility.yul\":6344:6373   */\n      tag_34\n      jump\t// in\n    tag_118:\n        /* \"#utility.yul\":6339:6342   */\n      dup5\n        /* \"#utility.yul\":6335:6374   */\n      add\n        /* \"#utility.yul\":6328:6374   */\n      swap2\n      pop\n        /* \"#utility.yul\":6095:6380   */\n      pop\n        /* \"#utility.yul\":6003:6380   */\n      swap3\n      swap2\n      pop\n      pop\n      jump\t// out\n        /* \"#utility.yul\":6386:6919   */\n    tag_18:\n        /* \"#utility.yul\":6555:6559   */\n      0x00\n        /* \"#utility.yul\":6593:6595   */\n      0x60\n        /* \"#utility.yul\":6582:6591   */\n      dup3\n        /* \"#utility.yul\":6578:6596   */\n      add\n        /* \"#utility.yul\":6570:6596   */\n      swap1\n      pop\n        /* \"#utility.yul\":6606:6677   */\n      tag_120\n        /* \"#utility.yul\":6674:6675   */\n      0x00\n        /* \"#utility.yul\":6663:6672   */\n      dup4\n        /* \"#utility.yul\":6659:6676   */\n      add\n        /* \"#utility.yul\":6650:6656   */\n      dup7\n        /* \"#utility.yul\":6606:6677   */\n      tag_23\n      jump\t// in\n    tag_120:\n        /* \"#utility.yul\":6687:6759   */\n      tag_121\n        /* \"#utility.yul\":6755:6757   */\n      0x20\n        /* \"#utility.yul\":6744:6753   */\n      dup4\n        /* \"#utility.yul\":6740:6758   */\n      add\n        /* \"#utility.yul\":6731:6737   */\n      dup6\n        /* \"#utility.yul\":6687:6759   */\n      tag_25\n      jump\t// in\n    tag_121:\n        /* \"#utility.yul\":6806:6815   */\n      dup2\n        /* \"#utility.yul\":6800:6804   */\n      dup2\n        /* \"#utility.yul\":6796:6816   */\n      sub\n        /* \"#utility.yul\":6791:6793   */\n      0x40\n        /* \"#utility.yul\":6780:6789   */\n      dup4\n        /* \"#utility.yul\":6776:6794   */\n      add\n        /* \"#utility.yul\":6769:6817   */\n      mstore\n        /* \"#utility.yul\":6834:6912   */\n      tag_122\n        /* \"#utility.yul\":6907:6911   */\n      dup2\n        /* \"#utility.yul\":6898:6904   */\n      dup5\n        /* \"#utility.yul\":6834:6912   */\n      tag_46\n      jump\t// in\n    tag_122:\n        /* \"#utility.yul\":6826:6912   */\n      swap1\n      pop\n        /* \"#utility.yul\":6386:6919   */\n      swap5\n      swap4\n      pop\n      pop\n      pop\n      pop\n      jump\t// out\n        /* \"#utility.yul\":6925:7105   */\n    tag_47:\n        /* \"#utility.yul\":6973:7050   */\n      0x4e487b7100000000000000000000000000000000000000000000000000000000\n        /* \"#utility.yul\":6970:6971   */\n      0x00\n        /* \"#utility.yul\":6963:7051   */\n      mstore\n        /* \"#utility.yul\":7070:7074   */\n      0x11\n        /* \"#utility.yul\":7067:7068   */\n      0x04\n        /* \"#utility.yul\":7060:7075   */\n      mstore\n        /* \"#utility.yul\":7094:7098   */\n      0x24\n        /* \"#utility.yul\":7091:7092   */\n      0x00\n        /* \"#utility.yul\":7084:7099   */\n      revert\n        /* \"#utility.yul\":7111:7302   */\n    tag_20:\n        /* \"#utility.yul\":7151:7154   */\n      0x00\n        /* \"#utility.yul\":7170:7190   */\n      tag_125\n        /* \"#utility.yul\":7188:7189   */\n      dup3\n        /* \"#utility.yul\":7170:7190   */\n      tag_24\n      jump\t// in\n    tag_125:\n        /* \"#utility.yul\":7165:7190   */\n      swap2\n      pop\n        /* \"#utility.yul\":7204:7224   */\n      tag_126\n        /* \"#utility.yul\":7222:7223   */\n      dup4\n        /* \"#utility.yul\":7204:7224   */\n      tag_24\n      jump\t// in\n    tag_126:\n        /* \"#utility.yul\":7199:7224   */\n      swap3\n      pop\n        /* \"#utility.yul\":7247:7248   */\n      dup3\n        /* \"#utility.yul\":7244:7245   */\n      dup3\n        /* \"#utility.yul\":7240:7249   */\n      add\n        /* \"#utility.yul\":7233:7249   */\n      swap1\n      pop\n        /* \"#utility.yul\":7268:7271   */\n      dup1\n        /* \"#utility.yul\":7265:7266   */\n      dup3\n        /* \"#utility.yul\":7262:7272   */\n      gt\n        /* \"#utility.yul\":7259:7295   */\n      iszero\n      tag_127\n      jumpi\n        /* \"#utility.yul\":7275:7293   */\n      tag_128\n      tag_47\n      jump\t// in\n    tag_128:\n        /* \"#utility.yul\":7259:7295   */\n    tag_127:\n        /* \"#utility.yul\":7111:7302   */\n      swap3\n      swap2\n      pop\n      pop\n      jump\t// out\n\n    auxdata: 0xa264697066735822122053d43dc014943f974dfd0fd196d334806579ad9ef808b55b05b169dd855dffd564736f6c63430008120033\n}\n",
				"bytecode": {
					"linkReferences": {},
					"object": "608060405234801561001057600080fd5b5061051b806100206000396000f3fe6080604052600436106100225760003560e01c806324ccab8f1461006457610029565b3661002957005b7f59e04c3f0d44b7caf6e8ef854b61d9a51cf1960d7a88ff6356cc5e946b4b5832333460405161005a92919061019d565b60405180910390a1005b61007e6004803603810190610079919061035f565b610094565b60405161008b91906103bb565b60405180910390f35b60007f59e04c3f0d44b7caf6e8ef854b61d9a51cf1960d7a88ff6356cc5e946b4b58323334856040516100c993929190610444565b60405180910390a16001826100de91906104b1565b905092915050565b600073ffffffffffffffffffffffffffffffffffffffff82169050919050565b6000610111826100e6565b9050919050565b61012181610106565b82525050565b6000819050919050565b61013a81610127565b82525050565b600082825260208201905092915050565b7f46616c6c6261636b207761732063616c6c656400000000000000000000000000600082015250565b6000610187601383610140565b915061019282610151565b602082019050919050565b60006060820190506101b26000830185610118565b6101bf6020830184610131565b81810360408301526101d08161017a565b90509392505050565b6000604051905090565b600080fd5b600080fd5b600080fd5b600080fd5b6000601f19601f8301169050919050565b7f4e487b7100000000000000000000000000000000000000000000000000000000600052604160045260246000fd5b610240826101f7565b810181811067ffffffffffffffff8211171561025f5761025e610208565b5b80604052505050565b60006102726101d9565b905061027e8282610237565b919050565b600067ffffffffffffffff82111561029e5761029d610208565b5b6102a7826101f7565b9050602081019050919050565b82818337600083830152505050565b60006102d66102d184610283565b610268565b9050828152602081018484840111156102f2576102f16101f2565b5b6102fd8482856102b4565b509392505050565b600082601f83011261031a576103196101ed565b5b813561032a8482602086016102c3565b91505092915050565b61033c81610127565b811461034757600080fd5b50565b60008135905061035981610333565b92915050565b60008060408385031215610376576103756101e3565b5b600083013567ffffffffffffffff811115610394576103936101e8565b5b6103a085828601610305565b92505060206103b18582860161034a565b9150509250929050565b60006020820190506103d06000830184610131565b92915050565b600081519050919050565b60005b838110156103ff5780820151818401526020810190506103e4565b60008484015250505050565b6000610416826103d6565b6104208185610140565b93506104308185602086016103e1565b610439816101f7565b840191505092915050565b60006060820190506104596000830186610118565b6104666020830185610131565b8181036040830152610478818461040b565b9050949350505050565b7f4e487b7100000000000000000000000000000000000000000000000000000000600052601160045260246000fd5b60006104bc82610127565b91506104c783610127565b92508282019050808211156104df576104de610482565b5b9291505056fea264697066735822122053d43dc014943f974dfd0fd196d334806579ad9ef808b55b05b169dd855dffd564736f6c63430008120033",
					"opcodes": "PUSH1 0x80 PUSH1 0x40 MSTORE CALLVALUE DUP1 ISZERO PUSH2 0x10 JUMPI PUSH1 0x0 DUP1 REVERT JUMPDEST POP PUSH2 0x51B DUP1 PUSH2 0x20 PUSH1 0x0 CODECOPY PUSH1 0x0 RETURN INVALID PUSH1 0x80 PUSH1 0x40 MSTORE PUSH1 0x4 CALLDATASIZE LT PUSH2 0x22 JUMPI PUSH1 0x0 CALLDATALOAD PUSH1 0xE0 SHR DUP1 PUSH4 0x24CCAB8F EQ PUSH2 0x64 JUMPI PUSH2 0x29 JUMP JUMPDEST CALLDATASIZE PUSH2 0x29 JUMPI STOP JUMPDEST PUSH32 0x59E04C3F0D44B7CAF6E8EF854B61D9A51CF1960D7A88FF6356CC5E946B4B5832 CALLER CALLVALUE PUSH1 0x40 MLOAD PUSH2 0x5A SWAP3 SWAP2 SWAP1 PUSH2 0x19D JUMP JUMPDEST PUSH1 0x40 MLOAD DUP1 SWAP2 SUB SWAP1 LOG1 STOP JUMPDEST PUSH2 0x7E PUSH1 0x4 DUP1 CALLDATASIZE SUB DUP2 ADD SWAP1 PUSH2 0x79 SWAP2 SWAP1 PUSH2 0x35F JUMP JUMPDEST PUSH2 0x94 JUMP JUMPDEST PUSH1 0x40 MLOAD PUSH2 0x8B SWAP2 SWAP1 PUSH2 0x3BB JUMP JUMPDEST PUSH1 0x40 MLOAD DUP1 SWAP2 SUB SWAP1 RETURN JUMPDEST PUSH1 0x0 PUSH32 0x59E04C3F0D44B7CAF6E8EF854B61D9A51CF1960D7A88FF6356CC5E946B4B5832 CALLER CALLVALUE DUP6 PUSH1 0x40 MLOAD PUSH2 0xC9 SWAP4 SWAP3 SWAP2 SWAP1 PUSH2 0x444 JUMP JUMPDEST PUSH1 0x40 MLOAD DUP1 SWAP2 SUB SWAP1 LOG1 PUSH1 0x1 DUP3 PUSH2 0xDE SWAP2 SWAP1 PUSH2 0x4B1 JUMP JUMPDEST SWAP1 POP SWAP3 SWAP2 POP POP JUMP JUMPDEST PUSH1 0x0 PUSH20 0xFFFFFFFFFFFFFFFFFFFFFFFFFFFFFFFFFFFFFFFF DUP3 AND SWAP1 POP SWAP2 SWAP1 POP JUMP JUMPDEST PUSH1 0x0 PUSH2 0x111 DUP3 PUSH2 0xE6 JUMP JUMPDEST SWAP1 POP SWAP2 SWAP1 POP JUMP JUMPDEST PUSH2 0x121 DUP2 PUSH2 0x106 JUMP JUMPDEST DUP3 MSTORE POP POP JUMP JUMPDEST PUSH1 0x0 DUP2 SWAP1 POP SWAP2 SWAP1 POP JUMP JUMPDEST PUSH2 0x13A DUP2 PUSH2 0x127 JUMP JUMPDEST DUP3 MSTORE POP POP JUMP JUMPDEST PUSH1 0x0 DUP3 DUP3 MSTORE PUSH1 0x20 DUP3 ADD SWAP1 POP SWAP3 SWAP2 POP POP JUMP JUMPDEST PUSH32 0x46616C6C6261636B207761732063616C6C656400000000000000000000000000 PUSH1 0x0 DUP3 ADD MSTORE POP JUMP JUMPDEST PUSH1 0x0 PUSH2 0x187 PUSH1 0x13 DUP4 PUSH2 0x140 JUMP JUMPDEST SWAP2 POP PUSH2 0x192 DUP3 PUSH2 0x151 JUMP JUMPDEST PUSH1 0x20 DUP3 ADD SWAP1 POP SWAP2 SWAP1 POP JUMP JUMPDEST PUSH1 0x0 PUSH1 0x60 DUP3 ADD SWAP1 POP PUSH2 0x1B2 PUSH1 0x0 DUP4 ADD DUP6 PUSH2 0x118 JUMP JUMPDEST PUSH2 0x1BF PUSH1 0x20 DUP4 ADD DUP5 PUSH2 0x131 JUMP JUMPDEST DUP2 DUP2 SUB PUSH1 0x40 DUP4 ADD MSTORE PUSH2 0x1D0 DUP2 PUSH2 0x17A JUMP JUMPDEST SWAP1 POP SWAP4 SWAP3 POP POP POP JUMP JUMPDEST PUSH1 0x0 PUSH1 0x40 MLOAD SWAP1 POP SWAP1 JUMP JUMPDEST PUSH1 0x0 DUP1 REVERT JUMPDEST PUSH1 0x0 DUP1 REVERT JUMPDEST PUSH1 0x0 DUP1 REVERT JUMPDEST PUSH1 0x0 DUP1 REVERT JUMPDEST PUSH1 0x0 PUSH1 0x1F NOT PUSH1 0x1F DUP4 ADD AND SWAP1 POP SWAP2 SWAP1 POP JUMP JUMPDEST PUSH32 0x4E487B7100000000000000000000000000000000000000000000000000000000 PUSH1 0x0 MSTORE PUSH1 0x41 PUSH1 0x4 MSTORE PUSH1 0x24 PUSH1 0x0 REVERT JUMPDEST PUSH2 0x240 DUP3 PUSH2 0x1F7 JUMP JUMPDEST DUP2 ADD DUP2 DUP2 LT PUSH8 0xFFFFFFFFFFFFFFFF DUP3 GT OR ISZERO PUSH2 0x25F JUMPI PUSH2 0x25E PUSH2 0x208 JUMP JUMPDEST JUMPDEST DUP1 PUSH1 0x40 MSTORE POP POP POP JUMP JUMPDEST PUSH1 0x0 PUSH2 0x272 PUSH2 0x1D9 JUMP JUMPDEST SWAP1 POP PUSH2 0x27E DUP3 DUP3 PUSH2 0x237 JUMP JUMPDEST SWAP2 SWAP1 POP JUMP JUMPDEST PUSH1 0x0 PUSH8 0xFFFFFFFFFFFFFFFF DUP3 GT ISZERO PUSH2 0x29E JUMPI PUSH2 0x29D PUSH2 0x208 JUMP JUMPDEST JUMPDEST PUSH2 0x2A7 DUP3 PUSH2 0x1F7 JUMP JUMPDEST SWAP1 POP PUSH1 0x20 DUP2 ADD SWAP1 POP SWAP2 SWAP1 POP JUMP JUMPDEST DUP3 DUP2 DUP4 CALLDATACOPY PUSH1 0x0 DUP4 DUP4 ADD MSTORE POP POP POP JUMP JUMPDEST PUSH1 0x0 PUSH2 0x2D6 PUSH2 0x2D1 DUP5 PUSH2 0x283 JUMP JUMPDEST PUSH2 0x268 JUMP JUMPDEST SWAP1 POP DUP3 DUP2 MSTORE PUSH1 0x20 DUP2 ADD DUP5 DUP5 DUP5 ADD GT ISZERO PUSH2 0x2F2 JUMPI PUSH2 0x2F1 PUSH2 0x1F2 JUMP JUMPDEST JUMPDEST PUSH2 0x2FD DUP5 DUP3 DUP6 PUSH2 0x2B4 JUMP JUMPDEST POP SWAP4 SWAP3 POP POP POP JUMP JUMPDEST PUSH1 0x0 DUP3 PUSH1 0x1F DUP4 ADD SLT PUSH2 0x31A JUMPI PUSH2 0x319 PUSH2 0x1ED JUMP JUMPDEST JUMPDEST DUP2 CALLDATALOAD PUSH2 0x32A DUP5 DUP3 PUSH1 0x20 DUP7 ADD PUSH2 0x2C3 JUMP JUMPDEST SWAP2 POP POP SWAP3 SWAP2 POP POP JUMP JUMPDEST PUSH2 0x33C DUP2 PUSH2 0x127 JUMP JUMPDEST DUP2 EQ PUSH2 0x347 JUMPI PUSH1 0x0 DUP1 REVERT JUMPDEST POP JUMP JUMPDEST PUSH1 0x0 DUP2 CALLDATALOAD SWAP1 POP PUSH2 0x359 DUP2 PUSH2 0x333 JUMP JUMPDEST SWAP3 SWAP2 POP POP JUMP JUMPDEST PUSH1 0x0 DUP1 PUSH1 0x40 DUP4 DUP6 SUB SLT ISZERO PUSH2 0x376 JUMPI PUSH2 0x375 PUSH2 0x1E3 JUMP JUMPDEST JUMPDEST PUSH1 0x0 DUP4 ADD CALLDATALOAD PUSH8 0xFFFFFFFFFFFFFFFF DUP2 GT ISZERO PUSH2 0x394 JUMPI PUSH2 0x393 PUSH2 0x1E8 JUMP JUMPDEST JUMPDEST PUSH2 0x3A0 DUP6 DUP3 DUP7 ADD PUSH2 0x305 JUMP JUMPDEST SWAP3 POP POP PUSH1 0x20 PUSH2 0x3B1 DUP6 DUP3 DUP7 ADD PUSH2 0x34A JUMP JUMPDEST SWAP2 POP POP SWAP3 POP SWAP3 SWAP1 POP JUMP JUMPDEST PUSH1 0x0 PUSH1 0x20 DUP3 ADD SWAP1 POP PUSH2 0x3D0 PUSH1 0x0 DUP4 ADD DUP5 PUSH2 0x131 JUMP JUMPDEST SWAP3 SWAP2 POP POP JUMP JUMPDEST PUSH1 0x0 DUP2 MLOAD SWAP1 POP SWAP2 SWAP1 POP JUMP JUMPDEST PUSH1 0x0 JUMPDEST DUP4 DUP2 LT ISZERO PUSH2 0x3FF JUMPI DUP1 DUP3 ADD MLOAD DUP2 DUP5 ADD MSTORE PUSH1 0x20 DUP2 ADD SWAP1 POP PUSH2 0x3E4 JUMP JUMPDEST PUSH1 0x0 DUP5 DUP5 ADD MSTORE POP POP POP POP JUMP JUMPDEST PUSH1 0x0 PUSH2 0x416 DUP3 PUSH2 0x3D6 JUMP JUMPDEST PUSH2 0x420 DUP2 DUP6 PUSH2 0x140 JUMP JUMPDEST SWAP4 POP PUSH2 0x430 DUP2 DUP6 PUSH1 0x20 DUP7 ADD PUSH2 0x3E1 JUMP JUMPDEST PUSH2 0x439 DUP2 PUSH2 0x1F7 JUMP JUMPDEST DUP5 ADD SWAP2 POP POP SWAP3 SWAP2 POP POP JUMP JUMPDEST PUSH1 0x0 PUSH1 0x60 DUP3 ADD SWAP1 POP PUSH2 0x459 PUSH1 0x0 DUP4 ADD DUP7 PUSH2 0x118 JUMP JUMPDEST PUSH2 0x466 PUSH1 0x20 DUP4 ADD DUP6 PUSH2 0x131 JUMP JUMPDEST DUP2 DUP2 SUB PUSH1 0x40 DUP4 ADD MSTORE PUSH2 0x478 DUP2 DUP5 PUSH2 0x40B JUMP JUMPDEST SWAP1 POP SWAP5 SWAP4 POP POP POP POP JUMP JUMPDEST PUSH32 0x4E487B7100000000000000000000000000000000000000000000000000000000 PUSH1 0x0 MSTORE PUSH1 0x11 PUSH1 0x4 MSTORE PUSH1 0x24 PUSH1 0x0 REVERT JUMPDEST PUSH1 0x0 PUSH2 0x4BC DUP3 PUSH2 0x127 JUMP JUMPDEST SWAP2 POP PUSH2 0x4C7 DUP4 PUSH2 0x127 JUMP JUMPDEST SWAP3 POP DUP3 DUP3 ADD SWAP1 POP DUP1 DUP3 GT ISZERO PUSH2 0x4DF JUMPI PUSH2 0x4DE PUSH2 0x482 JUMP JUMPDEST JUMPDEST SWAP3 SWAP2 POP POP JUMP INVALID LOG2 PUSH5 0x6970667358 0x22 SLT KECCAK256 MSTORE8 0xD4 RETURNDATASIZE 0xC0 EQ SWAP5 EXTCODEHASH SWAP8 0x4D REVERT 0xF 0xD1 SWAP7 0xD3 CALLVALUE DUP1 PUSH6 0x79AD9EF808B5 JUMPDEST SDIV 0xB1 PUSH10 0xDD855DFFD564736F6C63 NUMBER STOP ADDMOD SLT STOP CALLER "
				},
				"gasEstimates": {
					"creation": {
						"codeDepositCost": "261400",
						"executionCost": "300",
						"totalCost": "261700"
					},
					"external": {
						"": "2652",
						"foo(string,uint256)": "infinite"
					}
				},
				"methodIdentifiers": {
					"foo(string,uint256)": "24ccab8f"
				}
			},
			"storageLayout": {
				"storage": [],
				"types": null
			},
			"userdoc": {
				"kind": "user",
				"methods": {},
				"version": 1
			}
		}
	}
}