{
	"solidity_learn/test.sol": {
		"test": {
			"abi": [
				{
					"inputs": [],
					"stateMutability": "nonpayable",
					"type": "constructor"
				},
				{
					"inputs": [],
					"name": "exercise",
					"outputs": [
						{
							"internalType": "bytes",
							"name": "",
							"type": "bytes"
						}
					],
					"stateMutability": "pure",
					"type": "function"
				}
			],
			"devdoc": {
				"kind": "dev",
				"methods": {},
				"version": 1
			},
			"evm": {
				"assembly": "    /* \"solidity_learn/test.sol\":68:476  contract test {\r... */\n  mstore(0x40, 0x80)\n    /* \"solidity_learn/test.sol\":126:142  constructor() {} */\n  callvalue\n  dup1\n  iszero\n  tag_1\n  jumpi\n  0x00\n  dup1\n  revert\ntag_1:\n  pop\n    /* \"solidity_learn/test.sol\":68:476  contract test {\r... */\n  dataSize(sub_0)\n  dup1\n  dataOffset(sub_0)\n  0x00\n  codecopy\n  0x00\n  return\nstop\n\nsub_0: assembly {\n        /* \"solidity_learn/test.sol\":68:476  contract test {\r... */\n      mstore(0x40, 0x80)\n      callvalue\n      dup1\n      iszero\n      tag_1\n      jumpi\n      0x00\n      dup1\n      revert\n    tag_1:\n      pop\n      jumpi(tag_2, lt(calldatasize, 0x04))\n      shr(0xe0, calldataload(0x00))\n      dup1\n      0xd32cb0fe\n      eq\n      tag_3\n      jumpi\n    tag_2:\n      0x00\n      dup1\n      revert\n        /* \"solidity_learn/test.sol\":150:471  function exercise() pure public returns (bytes memory) {\r... */\n    tag_3:\n      tag_4\n      tag_5\n      jump\t// in\n    tag_4:\n      mload(0x40)\n      tag_6\n      swap2\n      swap1\n      tag_7\n      jump\t// in\n    tag_6:\n      mload(0x40)\n      dup1\n      swap2\n      sub\n      swap1\n      return\n    tag_5:\n        /* \"solidity_learn/test.sol\":191:203  bytes memory */\n      0x60\n        /* \"solidity_learn/test.sol\":343:353  60 seconds */\n      0x3c\n        /* \"solidity_learn/test.sol\":330:339  1 minutes */\n      dup1\n        /* \"solidity_learn/test.sol\":330:353  1 minutes == 60 seconds */\n      eq\n        /* \"solidity_learn/test.sol\":323:354  assert(1 minutes == 60 seconds) */\n      tag_9\n      jumpi\n      tag_10\n      tag_11\n      jump\t// in\n    tag_10:\n    tag_9:\n        /* \"solidity_learn/test.sol\":384:390  1 days */\n      0x015180\n        /* \"solidity_learn/test.sol\":372:380  24 hours */\n      dup1\n        /* \"solidity_learn/test.sol\":372:390  24 hours == 1 days */\n      eq\n        /* \"solidity_learn/test.sol\":365:391  assert(24 hours == 1 days) */\n      tag_12\n      jumpi\n      tag_13\n      tag_11\n      jump\t// in\n    tag_13:\n    tag_12:\n        /* \"solidity_learn/test.sol\":411:461  abi.encodeWithSignature(\"hahah(string1)\", \"Name1\") */\n      add(0x24, mload(0x40))\n      tag_14\n      swap1\n      tag_15\n      jump\t// in\n    tag_14:\n      mload(0x40)\n      0x20\n      dup2\n      dup4\n      sub\n      sub\n      dup2\n      mstore\n      swap1\n      0x40\n      mstore\n      and(not(0xffffffffffffffffffffffffffffffffffffffffffffffffffffffff), 0x4ade506200000000000000000000000000000000000000000000000000000000)\n      0x20\n      dup3\n      add\n      dup1\n      mload\n      0xffffffffffffffffffffffffffffffffffffffffffffffffffffffff\n      dup4\n      dup2\n      dup4\n      and\n      or\n      dup4\n      mstore\n      pop\n      pop\n      pop\n      pop\n        /* \"solidity_learn/test.sol\":404:461  return abi.encodeWithSignature(\"hahah(string1)\", \"Name1\") */\n      swap1\n      pop\n        /* \"solidity_learn/test.sol\":150:471  function exercise() pure public returns (bytes memory) {\r... */\n      swap1\n      jump\t// out\n        /* \"#utility.yul\":7:367   */\n    tag_17:\n        /* \"#utility.yul\":93:96   */\n      0x00\n        /* \"#utility.yul\":121:159   */\n      tag_19\n        /* \"#utility.yul\":153:158   */\n      dup3\n        /* \"#utility.yul\":121:159   */\n      tag_20\n      jump\t// in\n    tag_19:\n        /* \"#utility.yul\":175:245   */\n      tag_21\n        /* \"#utility.yul\":238:244   */\n      dup2\n        /* \"#utility.yul\":233:236   */\n      dup6\n        /* \"#utility.yul\":175:245   */\n      tag_22\n      jump\t// in\n    tag_21:\n        /* \"#utility.yul\":168:245   */\n      swap4\n      pop\n        /* \"#utility.yul\":254:306   */\n      tag_23\n        /* \"#utility.yul\":299:305   */\n      dup2\n        /* \"#utility.yul\":294:297   */\n      dup6\n        /* \"#utility.yul\":287:291   */\n      0x20\n        /* \"#utility.yul\":280:285   */\n      dup7\n        /* \"#utility.yul\":276:292   */\n      add\n        /* \"#utility.yul\":254:306   */\n      tag_24\n      jump\t// in\n    tag_23:\n        /* \"#utility.yul\":331:360   */\n      tag_25\n        /* \"#utility.yul\":353:359   */\n      dup2\n        /* \"#utility.yul\":331:360   */\n      tag_26\n      jump\t// in\n    tag_25:\n        /* \"#utility.yul\":326:329   */\n      dup5\n        /* \"#utility.yul\":322:361   */\n      add\n        /* \"#utility.yul\":315:361   */\n      swap2\n      pop\n        /* \"#utility.yul\":97:367   */\n      pop\n        /* \"#utility.yul\":7:367   */\n      swap3\n      swap2\n      pop\n      pop\n      jump\t// out\n        /* \"#utility.yul\":373:738   */\n    tag_27:\n        /* \"#utility.yul\":515:518   */\n      0x00\n        /* \"#utility.yul\":536:602   */\n      tag_29\n        /* \"#utility.yul\":600:601   */\n      0x05\n        /* \"#utility.yul\":595:598   */\n      dup4\n        /* \"#utility.yul\":536:602   */\n      tag_30\n      jump\t// in\n    tag_29:\n        /* \"#utility.yul\":529:602   */\n      swap2\n      pop\n        /* \"#utility.yul\":611:704   */\n      tag_31\n        /* \"#utility.yul\":700:703   */\n      dup3\n        /* \"#utility.yul\":611:704   */\n      tag_32\n      jump\t// in\n    tag_31:\n        /* \"#utility.yul\":729:731   */\n      0x20\n        /* \"#utility.yul\":724:727   */\n      dup3\n        /* \"#utility.yul\":720:732   */\n      add\n        /* \"#utility.yul\":713:732   */\n      swap1\n      pop\n        /* \"#utility.yul\":373:738   */\n      swap2\n      swap1\n      pop\n      jump\t// out\n        /* \"#utility.yul\":744:1053   */\n    tag_7:\n        /* \"#utility.yul\":855:859   */\n      0x00\n        /* \"#utility.yul\":893:895   */\n      0x20\n        /* \"#utility.yul\":882:891   */\n      dup3\n        /* \"#utility.yul\":878:896   */\n      add\n        /* \"#utility.yul\":870:896   */\n      swap1\n      pop\n        /* \"#utility.yul\":942:951   */\n      dup2\n        /* \"#utility.yul\":936:940   */\n      dup2\n        /* \"#utility.yul\":932:952   */\n      sub\n        /* \"#utility.yul\":928:929   */\n      0x00\n        /* \"#utility.yul\":917:926   */\n      dup4\n        /* \"#utility.yul\":913:930   */\n      add\n        /* \"#utility.yul\":906:953   */\n      mstore\n        /* \"#utility.yul\":970:1046   */\n      tag_34\n        /* \"#utility.yul\":1041:1045   */\n      dup2\n        /* \"#utility.yul\":1032:1038   */\n      dup5\n        /* \"#utility.yul\":970:1046   */\n      tag_17\n      jump\t// in\n    tag_34:\n        /* \"#utility.yul\":962:1046   */\n      swap1\n      pop\n        /* \"#utility.yul\":744:1053   */\n      swap3\n      swap2\n      pop\n      pop\n      jump\t// out\n        /* \"#utility.yul\":1059:1478   */\n    tag_15:\n        /* \"#utility.yul\":1225:1229   */\n      0x00\n        /* \"#utility.yul\":1263:1265   */\n      0x20\n        /* \"#utility.yul\":1252:1261   */\n      dup3\n        /* \"#utility.yul\":1248:1266   */\n      add\n        /* \"#utility.yul\":1240:1266   */\n      swap1\n      pop\n        /* \"#utility.yul\":1312:1321   */\n      dup2\n        /* \"#utility.yul\":1306:1310   */\n      dup2\n        /* \"#utility.yul\":1302:1322   */\n      sub\n        /* \"#utility.yul\":1298:1299   */\n      0x00\n        /* \"#utility.yul\":1287:1296   */\n      dup4\n        /* \"#utility.yul\":1283:1300   */\n      add\n        /* \"#utility.yul\":1276:1323   */\n      mstore\n        /* \"#utility.yul\":1340:1471   */\n      tag_36\n        /* \"#utility.yul\":1466:1470   */\n      dup2\n        /* \"#utility.yul\":1340:1471   */\n      tag_27\n      jump\t// in\n    tag_36:\n        /* \"#utility.yul\":1332:1471   */\n      swap1\n      pop\n        /* \"#utility.yul\":1059:1478   */\n      swap2\n      swap1\n      pop\n      jump\t// out\n        /* \"#utility.yul\":1484:1582   */\n    tag_20:\n        /* \"#utility.yul\":1535:1541   */\n      0x00\n        /* \"#utility.yul\":1569:1574   */\n      dup2\n        /* \"#utility.yul\":1563:1575   */\n      mload\n        /* \"#utility.yul\":1553:1575   */\n      swap1\n      pop\n        /* \"#utility.yul\":1484:1582   */\n      swap2\n      swap1\n      pop\n      jump\t// out\n        /* \"#utility.yul\":1588:1756   */\n    tag_22:\n        /* \"#utility.yul\":1671:1682   */\n      0x00\n        /* \"#utility.yul\":1705:1711   */\n      dup3\n        /* \"#utility.yul\":1700:1703   */\n      dup3\n        /* \"#utility.yul\":1693:1712   */\n      mstore\n        /* \"#utility.yul\":1745:1749   */\n      0x20\n        /* \"#utility.yul\":1740:1743   */\n      dup3\n        /* \"#utility.yul\":1736:1750   */\n      add\n        /* \"#utility.yul\":1721:1750   */\n      swap1\n      pop\n        /* \"#utility.yul\":1588:1756   */\n      swap3\n      swap2\n      pop\n      pop\n      jump\t// out\n        /* \"#utility.yul\":1762:1931   */\n    tag_30:\n        /* \"#utility.yul\":1846:1857   */\n      0x00\n        /* \"#utility.yul\":1880:1886   */\n      dup3\n        /* \"#utility.yul\":1875:1878   */\n      dup3\n        /* \"#utility.yul\":1868:1887   */\n      mstore\n        /* \"#utility.yul\":1920:1924   */\n      0x20\n        /* \"#utility.yul\":1915:1918   */\n      dup3\n        /* \"#utility.yul\":1911:1925   */\n      add\n        /* \"#utility.yul\":1896:1925   */\n      swap1\n      pop\n        /* \"#utility.yul\":1762:1931   */\n      swap3\n      swap2\n      pop\n      pop\n      jump\t// out\n        /* \"#utility.yul\":1937:2244   */\n    tag_24:\n        /* \"#utility.yul\":2005:2006   */\n      0x00\n        /* \"#utility.yul\":2015:2128   */\n    tag_41:\n        /* \"#utility.yul\":2029:2035   */\n      dup4\n        /* \"#utility.yul\":2026:2027   */\n      dup2\n        /* \"#utility.yul\":2023:2036   */\n      lt\n        /* \"#utility.yul\":2015:2128   */\n      iszero\n      tag_43\n      jumpi\n        /* \"#utility.yul\":2114:2115   */\n      dup1\n        /* \"#utility.yul\":2109:2112   */\n      dup3\n        /* \"#utility.yul\":2105:2116   */\n      add\n        /* \"#utility.yul\":2099:2117   */\n      mload\n        /* \"#utility.yul\":2095:2096   */\n      dup2\n        /* \"#utility.yul\":2090:2093   */\n      dup5\n        /* \"#utility.yul\":2086:2097   */\n      add\n        /* \"#utility.yul\":2079:2118   */\n      mstore\n        /* \"#utility.yul\":2051:2053   */\n      0x20\n        /* \"#utility.yul\":2048:2049   */\n      dup2\n        /* \"#utility.yul\":2044:2054   */\n      add\n        /* \"#utility.yul\":2039:2054   */\n      swap1\n      pop\n        /* \"#utility.yul\":2015:2128   */\n      jump(tag_41)\n    tag_43:\n        /* \"#utility.yul\":2146:2152   */\n      dup4\n        /* \"#utility.yul\":2143:2144   */\n      dup2\n        /* \"#utility.yul\":2140:2153   */\n      gt\n        /* \"#utility.yul\":2137:2238   */\n      iszero\n      tag_44\n      jumpi\n        /* \"#utility.yul\":2226:2227   */\n      0x00\n        /* \"#utility.yul\":2217:2223   */\n      dup5\n        /* \"#utility.yul\":2212:2215   */\n      dup5\n        /* \"#utility.yul\":2208:2224   */\n      add\n        /* \"#utility.yul\":2201:2228   */\n      mstore\n        /* \"#utility.yul\":2137:2238   */\n    tag_44:\n        /* \"#utility.yul\":1986:2244   */\n      pop\n        /* \"#utility.yul\":1937:2244   */\n      pop\n      pop\n      pop\n      jump\t// out\n        /* \"#utility.yul\":2250:2430   */\n    tag_11:\n        /* \"#utility.yul\":2298:2375   */\n      0x4e487b7100000000000000000000000000000000000000000000000000000000\n        /* \"#utility.yul\":2295:2296   */\n      0x00\n        /* \"#utility.yul\":2288:2376   */\n      mstore\n        /* \"#utility.yul\":2395:2399   */\n      0x01\n        /* \"#utility.yul\":2392:2393   */\n      0x04\n        /* \"#utility.yul\":2385:2400   */\n      mstore\n        /* \"#utility.yul\":2419:2423   */\n      0x24\n        /* \"#utility.yul\":2416:2417   */\n      0x00\n        /* \"#utility.yul\":2409:2424   */\n      revert\n        /* \"#utility.yul\":2436:2538   */\n    tag_26:\n        /* \"#utility.yul\":2477:2483   */\n      0x00\n        /* \"#utility.yul\":2528:2530   */\n      0x1f\n        /* \"#utility.yul\":2524:2531   */\n      not\n        /* \"#utility.yul\":2519:2521   */\n      0x1f\n        /* \"#utility.yul\":2512:2517   */\n      dup4\n        /* \"#utility.yul\":2508:2522   */\n      add\n        /* \"#utility.yul\":2504:2532   */\n      and\n        /* \"#utility.yul\":2494:2532   */\n      swap1\n      pop\n        /* \"#utility.yul\":2436:2538   */\n      swap2\n      swap1\n      pop\n      jump\t// out\n        /* \"#utility.yul\":2544:2699   */\n    tag_32:\n        /* \"#utility.yul\":2684:2691   */\n      0x4e616d6531000000000000000000000000000000000000000000000000000000\n        /* \"#utility.yul\":2680:2681   */\n      0x00\n        /* \"#utility.yul\":2672:2678   */\n      dup3\n        /* \"#utility.yul\":2668:2682   */\n      add\n        /* \"#utility.yul\":2661:2692   */\n      mstore\n        /* \"#utility.yul\":2544:2699   */\n      pop\n      jump\t// out\n\n    auxdata: 0xa2646970667358221220212f057ff6403aecc45c3360ae0420b9b8d61e07c671ba932962d330cd58690164736f6c63430008070033\n}\n",
				"bytecode": {
					"linkReferences": {},
					"object": "608060405234801561001057600080fd5b506102a2806100206000396000f3fe608060405234801561001057600080fd5b506004361061002b5760003560e01c8063d32cb0fe14610030575b600080fd5b61003861004e565b6040516100459190610161565b60405180910390f35b6060603c801461006157610060610203565b5b62015180801461007457610073610203565b5b60405160240161008390610183565b6040516020818303038152906040527f4ade5062000000000000000000000000000000000000000000000000000000007bffffffffffffffffffffffffffffffffffffffffffffffffffffffff19166020820180517bffffffffffffffffffffffffffffffffffffffffffffffffffffffff8381831617835250505050905090565b6000610110826101a3565b61011a81856101ae565b935061012a8185602086016101d0565b61013381610232565b840191505092915050565b600061014b6005836101bf565b915061015682610243565b602082019050919050565b6000602082019050818103600083015261017b8184610105565b905092915050565b6000602082019050818103600083015261019c8161013e565b9050919050565b600081519050919050565b600082825260208201905092915050565b600082825260208201905092915050565b60005b838110156101ee5780820151818401526020810190506101d3565b838111156101fd576000848401525b50505050565b7f4e487b7100000000000000000000000000000000000000000000000000000000600052600160045260246000fd5b6000601f19601f8301169050919050565b7f4e616d653100000000000000000000000000000000000000000000000000000060008201525056fea2646970667358221220212f057ff6403aecc45c3360ae0420b9b8d61e07c671ba932962d330cd58690164736f6c63430008070033",
					"opcodes": "PUSH1 0x80 PUSH1 0x40 MSTORE CALLVALUE DUP1 ISZERO PUSH2 0x10 JUMPI PUSH1 0x0 DUP1 REVERT JUMPDEST POP PUSH2 0x2A2 DUP1 PUSH2 0x20 PUSH1 0x0 CODECOPY PUSH1 0x0 RETURN INVALID PUSH1 0x80 PUSH1 0x40 MSTORE CALLVALUE DUP1 ISZERO PUSH2 0x10 JUMPI PUSH1 0x0 DUP1 REVERT JUMPDEST POP PUSH1 0x4 CALLDATASIZE LT PUSH2 0x2B JUMPI PUSH1 0x0 CALLDATALOAD PUSH1 0xE0 SHR DUP1 PUSH4 0xD32CB0FE EQ PUSH2 0x30 JUMPI JUMPDEST PUSH1 0x0 DUP1 REVERT JUMPDEST PUSH2 0x38 PUSH2 0x4E JUMP JUMPDEST PUSH1 0x40 MLOAD PUSH2 0x45 SWAP2 SWAP1 PUSH2 0x161 JUMP JUMPDEST PUSH1 0x40 MLOAD DUP1 SWAP2 SUB SWAP1 RETURN JUMPDEST PUSH1 0x60 PUSH1 0x3C DUP1 EQ PUSH2 0x61 JUMPI PUSH2 0x60 PUSH2 0x203 JUMP JUMPDEST JUMPDEST PUSH3 0x15180 DUP1 EQ PUSH2 0x74 JUMPI PUSH2 0x73 PUSH2 0x203 JUMP JUMPDEST JUMPDEST PUSH1 0x40 MLOAD PUSH1 0x24 ADD PUSH2 0x83 SWAP1 PUSH2 0x183 JUMP JUMPDEST PUSH1 0x40 MLOAD PUSH1 0x20 DUP2 DUP4 SUB SUB DUP2 MSTORE SWAP1 PUSH1 0x40 MSTORE PUSH32 0x4ADE506200000000000000000000000000000000000000000000000000000000 PUSH28 0xFFFFFFFFFFFFFFFFFFFFFFFFFFFFFFFFFFFFFFFFFFFFFFFFFFFFFFFF NOT AND PUSH1 0x20 DUP3 ADD DUP1 MLOAD PUSH28 0xFFFFFFFFFFFFFFFFFFFFFFFFFFFFFFFFFFFFFFFFFFFFFFFFFFFFFFFF DUP4 DUP2 DUP4 AND OR DUP4 MSTORE POP POP POP POP SWAP1 POP SWAP1 JUMP JUMPDEST PUSH1 0x0 PUSH2 0x110 DUP3 PUSH2 0x1A3 JUMP JUMPDEST PUSH2 0x11A DUP2 DUP6 PUSH2 0x1AE JUMP JUMPDEST SWAP4 POP PUSH2 0x12A DUP2 DUP6 PUSH1 0x20 DUP7 ADD PUSH2 0x1D0 JUMP JUMPDEST PUSH2 0x133 DUP2 PUSH2 0x232 JUMP JUMPDEST DUP5 ADD SWAP2 POP POP SWAP3 SWAP2 POP POP JUMP JUMPDEST PUSH1 0x0 PUSH2 0x14B PUSH1 0x5 DUP4 PUSH2 0x1BF JUMP JUMPDEST SWAP2 POP PUSH2 0x156 DUP3 PUSH2 0x243 JUMP JUMPDEST PUSH1 0x20 DUP3 ADD SWAP1 POP SWAP2 SWAP1 POP JUMP JUMPDEST PUSH1 0x0 PUSH1 0x20 DUP3 ADD SWAP1 POP DUP2 DUP2 SUB PUSH1 0x0 DUP4 ADD MSTORE PUSH2 0x17B DUP2 DUP5 PUSH2 0x105 JUMP JUMPDEST SWAP1 POP SWAP3 SWAP2 POP POP JUMP JUMPDEST PUSH1 0x0 PUSH1 0x20 DUP3 ADD SWAP1 POP DUP2 DUP2 SUB PUSH1 0x0 DUP4 ADD MSTORE PUSH2 0x19C DUP2 PUSH2 0x13E JUMP JUMPDEST SWAP1 POP SWAP2 SWAP1 POP JUMP JUMPDEST PUSH1 0x0 DUP2 MLOAD SWAP1 POP SWAP2 SWAP1 POP JUMP JUMPDEST PUSH1 0x0 DUP3 DUP3 MSTORE PUSH1 0x20 DUP3 ADD SWAP1 POP SWAP3 SWAP2 POP POP JUMP JUMPDEST PUSH1 0x0 DUP3 DUP3 MSTORE PUSH1 0x20 DUP3 ADD SWAP1 POP SWAP3 SWAP2 POP POP JUMP JUMPDEST PUSH1 0x0 JUMPDEST DUP4 DUP2 LT ISZERO PUSH2 0x1EE JUMPI DUP1 DUP3 ADD MLOAD DUP2 DUP5 ADD MSTORE PUSH1 0x20 DUP2 ADD SWAP1 POP PUSH2 0x1D3 JUMP JUMPDEST DUP4 DUP2 GT ISZERO PUSH2 0x1FD JUMPI PUSH1 0x0 DUP5 DUP5 ADD MSTORE JUMPDEST POP POP POP POP JUMP JUMPDEST PUSH32 0x4E487B7100000000000000000000000000000000000000000000000000000000 PUSH1 0x0 MSTORE PUSH1 0x1 PUSH1 0x4 MSTORE PUSH1 0x24 PUSH1 0x0 REVERT JUMPDEST PUSH1 0x0 PUSH1 0x1F NOT PUSH1 0x1F DUP4 ADD AND SWAP1 POP SWAP2 SWAP1 POP JUMP JUMPDEST PUSH32 0x4E616D6531000000000000000000000000000000000000000000000000000000 PUSH1 0x0 DUP3 ADD MSTORE POP JUMP INVALID LOG2 PUSH5 0x6970667358 0x22 SLT KECCAK256 0x21 0x2F SDIV PUSH32 0xF6403AECC45C3360AE0420B9B8D61E07C671BA932962D330CD58690164736F6C PUSH4 0x43000807 STOP CALLER "
				},
				"gasEstimates": {
					"creation": {
						"codeDepositCost": "134800",
						"executionCost": "183",
						"totalCost": "134983"
					},
					"external": {
						"exercise()": "infinite"
					}
				},
				"methodIdentifiers": {
					"exercise()": "d32cb0fe"
				}
			},
			"storageLayout": {
				"storage": [
					{
						"astId": 3,
						"contract": "solidity_learn/test.sol:test",
						"label": "a",
						"offset": 0,
						"slot": "0",
						"type": "t_uint16"
					},
					{
						"astId": 5,
						"contract": "solidity_learn/test.sol:test",
						"label": "payload",
						"offset": 0,
						"slot": "1",
						"type": "t_bytes_storage"
					}
				],
				"types": {
					"t_bytes_storage": {
						"encoding": "bytes",
						"label": "bytes",
						"numberOfBytes": "32"
					},
					"t_uint16": {
						"encoding": "inplace",
						"label": "uint16",
						"numberOfBytes": "2"
					}
				}
			},
			"userdoc": {
				"kind": "user",
				"methods": {},
				"version": 1
			}
		}
	}
}