{
	"call-other-contract.sol": {
		"CarFactory": {
			"abi": [
				{
					"inputs": [
						{
							"internalType": "uint256",
							"name": "",
							"type": "uint256"
						}
					],
					"name": "cars",
					"outputs": [
						{
							"internalType": "contract Car",
							"name": "",
							"type": "address"
						}
					],
					"stateMutability": "view",
					"type": "function"
				},
				{
					"inputs": [
						{
							"internalType": "address",
							"name": "_owner",
							"type": "address"
						},
						{
							"internalType": "string",
							"name": "_model",
							"type": "string"
						}
					],
					"name": "create",
					"outputs": [],
					"stateMutability": "nonpayable",
					"type": "function"
				},
				{
					"inputs": [
						{
							"internalType": "address",
							"name": "_owner",
							"type": "address"
						},
						{
							"internalType": "string",
							"name": "_model",
							"type": "string"
						}
					],
					"name": "createAndSendEther",
					"outputs": [],
					"stateMutability": "payable",
					"type": "function"
				},
				{
					"inputs": [
						{
							"internalType": "uint256",
							"name": "_index",
							"type": "uint256"
						}
					],
					"name": "getCar",
					"outputs": [
						{
							"internalType": "address",
							"name": "",
							"type": "address"
						},
						{
							"internalType": "string",
							"name": "",
							"type": "string"
						},
						{
							"internalType": "address",
							"name": "",
							"type": "address"
						},
						{
							"internalType": "uint256",
							"name": "",
							"type": "uint256"
						}
					],
					"stateMutability": "view",
					"type": "function"
				}
			],
			"devdoc": {
				"kind": "dev",
				"methods": {},
				"version": 1
			},
			"evm": {
				"assembly": "    /* \"call-other-contract.sol\":331:1024  contract CarFactory {... */\n  mstore(0x40, 0x80)\n  callvalue\n  dup1\n  iszero\n  tag_1\n  jumpi\n  0x00\n  dup1\n  revert\ntag_1:\n  pop\n  dataSize(sub_0)\n  dup1\n  dataOffset(sub_0)\n  0x00\n  codecopy\n  0x00\n  return\nstop\n\nsub_0: assembly {\n        /* \"call-other-contract.sol\":331:1024  contract CarFactory {... */\n      mstore(0x40, 0x80)\n      jumpi(tag_1, lt(calldatasize, 0x04))\n      shr(0xe0, calldataload(0x00))\n      dup1\n      0x5e8be190\n      eq\n      tag_2\n      jumpi\n      dup1\n      0xa15ab08d\n      eq\n      tag_3\n      jumpi\n      dup1\n      0xc33cd615\n      eq\n      tag_4\n      jumpi\n      dup1\n      0xf7746e36\n      eq\n      tag_5\n      jumpi\n    tag_1:\n      0x00\n      dup1\n      revert\n        /* \"call-other-contract.sol\":718:1021  function getCar(uint _index) public view returns (address, string memory, address, uint256) {... */\n    tag_2:\n      callvalue\n      dup1\n      iszero\n      tag_6\n      jumpi\n      0x00\n      dup1\n      revert\n    tag_6:\n      pop\n      tag_7\n      0x04\n      dup1\n      calldatasize\n      sub\n      dup2\n      add\n      swap1\n      tag_8\n      swap2\n      swap1\n      tag_9\n      jump\t// in\n    tag_8:\n      tag_10\n      jump\t// in\n    tag_7:\n      mload(0x40)\n      tag_11\n      swap5\n      swap4\n      swap3\n      swap2\n      swap1\n      tag_12\n      jump\t// in\n    tag_11:\n      mload(0x40)\n      dup1\n      swap2\n      sub\n      swap1\n      return\n        /* \"call-other-contract.sol\":384:522  function create(address _owner, string memory _model) public {... */\n    tag_3:\n      callvalue\n      dup1\n      iszero\n      tag_13\n      jumpi\n      0x00\n      dup1\n      revert\n    tag_13:\n      pop\n      tag_14\n      0x04\n      dup1\n      calldatasize\n      sub\n      dup2\n      add\n      swap1\n      tag_15\n      swap2\n      swap1\n      tag_16\n      jump\t// in\n    tag_15:\n      tag_17\n      jump\t// in\n    tag_14:\n      stop\n        /* \"call-other-contract.sol\":530:706  function createAndSendEther(address _owner, string memory _model) public payable {... */\n    tag_4:\n      tag_18\n      0x04\n      dup1\n      calldatasize\n      sub\n      dup2\n      add\n      swap1\n      tag_19\n      swap2\n      swap1\n      tag_16\n      jump\t// in\n    tag_19:\n      tag_20\n      jump\t// in\n    tag_18:\n      stop\n        /* \"call-other-contract.sol\":358:375  Car[] public cars */\n    tag_5:\n      callvalue\n      dup1\n      iszero\n      tag_21\n      jumpi\n      0x00\n      dup1\n      revert\n    tag_21:\n      pop\n      tag_22\n      0x04\n      dup1\n      calldatasize\n      sub\n      dup2\n      add\n      swap1\n      tag_23\n      swap2\n      swap1\n      tag_9\n      jump\t// in\n    tag_23:\n      tag_24\n      jump\t// in\n    tag_22:\n      mload(0x40)\n      tag_25\n      swap2\n      swap1\n      tag_26\n      jump\t// in\n    tag_25:\n      mload(0x40)\n      dup1\n      swap2\n      sub\n      swap1\n      return\n        /* \"call-other-contract.sol\":718:1021  function getCar(uint _index) public view returns (address, string memory, address, uint256) {... */\n    tag_10:\n        /* \"call-other-contract.sol\":768:775  address */\n      0x00\n        /* \"call-other-contract.sol\":777:790  string memory */\n      0x60\n        /* \"call-other-contract.sol\":792:799  address */\n      0x00\n        /* \"call-other-contract.sol\":801:808  uint256 */\n      dup1\n        /* \"call-other-contract.sol\":821:828  Car car */\n      0x00\n        /* \"call-other-contract.sol\":831:835  cars */\n      dup1\n        /* \"call-other-contract.sol\":836:842  _index */\n      dup7\n        /* \"call-other-contract.sol\":831:843  cars[_index] */\n      dup2\n      sload\n      dup2\n      lt\n      tag_28\n      jumpi\n      tag_29\n      tag_30\n      jump\t// in\n    tag_29:\n    tag_28:\n      swap1\n      0x00\n      mstore\n      keccak256(0x00, 0x20)\n      add\n      0x00\n      swap1\n      sload\n      swap1\n      0x0100\n      exp\n      swap1\n      div\n      0xffffffffffffffffffffffffffffffffffffffff\n      and\n        /* \"call-other-contract.sol\":821:843  Car car = cars[_index] */\n      swap1\n      pop\n        /* \"call-other-contract.sol\":862:865  car */\n      dup1\n        /* \"call-other-contract.sol\":862:871  car.owner */\n      0xffffffffffffffffffffffffffffffffffffffff\n      and\n      0x8da5cb5b\n        /* \"call-other-contract.sol\":862:873  car.owner() */\n      mload(0x40)\n      dup2\n      0xffffffff\n      and\n      0xe0\n      shl\n      dup2\n      mstore\n      0x04\n      add\n      0x20\n      mload(0x40)\n      dup1\n      dup4\n      sub\n      dup2\n      dup7\n      gas\n      staticcall\n      iszero\n      dup1\n      iszero\n      tag_33\n      jumpi\n      returndatasize\n      0x00\n      dup1\n      returndatacopy\n      revert(0x00, returndatasize)\n    tag_33:\n      pop\n      pop\n      pop\n      pop\n      mload(0x40)\n      returndatasize\n      not(0x1f)\n      0x1f\n      dup3\n      add\n      and\n      dup3\n      add\n      dup1\n      0x40\n      mstore\n      pop\n      dup2\n      add\n      swap1\n      tag_34\n      swap2\n      swap1\n      tag_35\n      jump\t// in\n    tag_34:\n        /* \"call-other-contract.sol\":875:878  car */\n      dup2\n        /* \"call-other-contract.sol\":875:884  car.model */\n      0xffffffffffffffffffffffffffffffffffffffff\n      and\n      0x0ad9d052\n        /* \"call-other-contract.sol\":875:886  car.model() */\n      mload(0x40)\n      dup2\n      0xffffffff\n      and\n      0xe0\n      shl\n      dup2\n      mstore\n      0x04\n      add\n      0x00\n      mload(0x40)\n      dup1\n      dup4\n      sub\n      dup2\n      dup7\n      gas\n      staticcall\n      iszero\n      dup1\n      iszero\n      tag_37\n      jumpi\n      returndatasize\n      0x00\n      dup1\n      returndatacopy\n      revert(0x00, returndatasize)\n    tag_37:\n      pop\n      pop\n      pop\n      pop\n      mload(0x40)\n      returndatasize\n      0x00\n      dup3\n      returndatacopy\n      returndatasize\n      not(0x1f)\n      0x1f\n      dup3\n      add\n      and\n      dup3\n      add\n      dup1\n      0x40\n      mstore\n      pop\n      dup2\n      add\n      swap1\n      tag_38\n      swap2\n      swap1\n      tag_39\n      jump\t// in\n    tag_38:\n        /* \"call-other-contract.sol\":888:891  car */\n      dup3\n        /* \"call-other-contract.sol\":888:899  car.carAddr */\n      0xffffffffffffffffffffffffffffffffffffffff\n      and\n      0x514fa676\n        /* \"call-other-contract.sol\":888:901  car.carAddr() */\n      mload(0x40)\n      dup2\n      0xffffffff\n      and\n      0xe0\n      shl\n      dup2\n      mstore\n      0x04\n      add\n      0x20\n      mload(0x40)\n      dup1\n      dup4\n      sub\n      dup2\n      dup7\n      gas\n      staticcall\n      iszero\n      dup1\n      iszero\n      tag_41\n      jumpi\n      returndatasize\n      0x00\n      dup1\n      returndatacopy\n      revert(0x00, returndatasize)\n    tag_41:\n      pop\n      pop\n      pop\n      pop\n      mload(0x40)\n      returndatasize\n      not(0x1f)\n      0x1f\n      dup3\n      add\n      and\n      dup3\n      add\n      dup1\n      0x40\n      mstore\n      pop\n      dup2\n      add\n      swap1\n      tag_42\n      swap2\n      swap1\n      tag_35\n      jump\t// in\n    tag_42:\n        /* \"call-other-contract.sol\":911:914  car */\n      dup4\n        /* \"call-other-contract.sol\":903:923  address(car).balance */\n      0xffffffffffffffffffffffffffffffffffffffff\n      and\n      balance\n        /* \"call-other-contract.sol\":854:924  return (car.owner(), car.model(), car.carAddr(), address(car).balance) */\n      swap5\n      pop\n      swap5\n      pop\n      swap5\n      pop\n      swap5\n      pop\n      pop\n        /* \"call-other-contract.sol\":718:1021  function getCar(uint _index) public view returns (address, string memory, address, uint256) {... */\n      swap2\n      swap4\n      pop\n      swap2\n      swap4\n      jump\t// out\n        /* \"call-other-contract.sol\":384:522  function create(address _owner, string memory _model) public {... */\n    tag_17:\n        /* \"call-other-contract.sol\":456:463  Car car */\n      0x00\n        /* \"call-other-contract.sol\":474:480  _owner */\n      dup3\n        /* \"call-other-contract.sol\":482:488  _model */\n      dup3\n        /* \"call-other-contract.sol\":466:489  new Car(_owner, _model) */\n      mload(0x40)\n      tag_44\n      swap1\n      tag_45\n      jump\t// in\n    tag_44:\n      tag_46\n      swap3\n      swap2\n      swap1\n      tag_47\n      jump\t// in\n    tag_46:\n      mload(0x40)\n      dup1\n      swap2\n      sub\n      swap1\n      0x00\n      create\n      dup1\n      iszero\n      dup1\n      iszero\n      tag_48\n      jumpi\n      returndatasize\n      0x00\n      dup1\n      returndatacopy\n      revert(0x00, returndatasize)\n    tag_48:\n      pop\n        /* \"call-other-contract.sol\":456:489  Car car = new Car(_owner, _model) */\n      swap1\n      pop\n        /* \"call-other-contract.sol\":500:504  cars */\n      0x00\n        /* \"call-other-contract.sol\":510:513  car */\n      dup2\n        /* \"call-other-contract.sol\":500:514  cars.push(car) */\n      swap1\n      dup1\n      0x01\n      dup2\n      sload\n      add\n      dup1\n      dup3\n      sstore\n      dup1\n      swap2\n      pop\n      pop\n      0x01\n      swap1\n      sub\n      swap1\n      0x00\n      mstore\n      keccak256(0x00, 0x20)\n      add\n      0x00\n      swap1\n      swap2\n      swap1\n      swap2\n      swap1\n      swap2\n      0x0100\n      exp\n      dup2\n      sload\n      dup2\n      0xffffffffffffffffffffffffffffffffffffffff\n      mul\n      not\n      and\n      swap1\n      dup4\n      0xffffffffffffffffffffffffffffffffffffffff\n      and\n      mul\n      or\n      swap1\n      sstore\n      pop\n        /* \"call-other-contract.sol\":445:522  {... */\n      pop\n        /* \"call-other-contract.sol\":384:522  function create(address _owner, string memory _model) public {... */\n      pop\n      pop\n      jump\t// out\n        /* \"call-other-contract.sol\":530:706  function createAndSendEther(address _owner, string memory _model) public payable {... */\n    tag_20:\n        /* \"call-other-contract.sol\":622:629  Car car */\n      0x00\n        /* \"call-other-contract.sol\":647:656  msg.value */\n      callvalue\n        /* \"call-other-contract.sol\":658:664  _owner */\n      dup4\n        /* \"call-other-contract.sol\":666:672  _model */\n      dup4\n        /* \"call-other-contract.sol\":632:673  new Car{value: msg.value}(_owner, _model) */\n      mload(0x40)\n      tag_51\n      swap1\n      tag_45\n      jump\t// in\n    tag_51:\n      tag_52\n      swap3\n      swap2\n      swap1\n      tag_47\n      jump\t// in\n    tag_52:\n      mload(0x40)\n      dup1\n      swap2\n      sub\n      swap1\n      dup3\n      create\n      swap1\n      pop\n      dup1\n      iszero\n      dup1\n      iszero\n      tag_53\n      jumpi\n      returndatasize\n      0x00\n      dup1\n      returndatacopy\n      revert(0x00, returndatasize)\n    tag_53:\n      pop\n        /* \"call-other-contract.sol\":622:673  Car car = new Car{value: msg.value}(_owner, _model) */\n      swap1\n      pop\n        /* \"call-other-contract.sol\":684:688  cars */\n      0x00\n        /* \"call-other-contract.sol\":694:697  car */\n      dup2\n        /* \"call-other-contract.sol\":684:698  cars.push(car) */\n      swap1\n      dup1\n      0x01\n      dup2\n      sload\n      add\n      dup1\n      dup3\n      sstore\n      dup1\n      swap2\n      pop\n      pop\n      0x01\n      swap1\n      sub\n      swap1\n      0x00\n      mstore\n      keccak256(0x00, 0x20)\n      add\n      0x00\n      swap1\n      swap2\n      swap1\n      swap2\n      swap1\n      swap2\n      0x0100\n      exp\n      dup2\n      sload\n      dup2\n      0xffffffffffffffffffffffffffffffffffffffff\n      mul\n      not\n      and\n      swap1\n      dup4\n      0xffffffffffffffffffffffffffffffffffffffff\n      and\n      mul\n      or\n      swap1\n      sstore\n      pop\n        /* \"call-other-contract.sol\":611:706  {... */\n      pop\n        /* \"call-other-contract.sol\":530:706  function createAndSendEther(address _owner, string memory _model) public payable {... */\n      pop\n      pop\n      jump\t// out\n        /* \"call-other-contract.sol\":358:375  Car[] public cars */\n    tag_24:\n      0x00\n      dup2\n      dup2\n      sload\n      dup2\n      lt\n      tag_55\n      jumpi\n      0x00\n      dup1\n      revert\n    tag_55:\n      swap1\n      0x00\n      mstore\n      keccak256(0x00, 0x20)\n      add\n      0x00\n      swap2\n      pop\n      sload\n      swap1\n      0x0100\n      exp\n      swap1\n      div\n      0xffffffffffffffffffffffffffffffffffffffff\n      and\n      dup2\n      jump\t// out\n    tag_45:\n      dataSize(sub_0)\n      dup1\n      dataOffset(sub_0)\n      dup4\n      codecopy\n      add\n      swap1\n      jump\t// out\n        /* \"#utility.yul\":7:82   */\n    tag_57:\n        /* \"#utility.yul\":40:46   */\n      0x00\n        /* \"#utility.yul\":73:75   */\n      0x40\n        /* \"#utility.yul\":67:76   */\n      mload\n        /* \"#utility.yul\":57:76   */\n      swap1\n      pop\n        /* \"#utility.yul\":7:82   */\n      swap1\n      jump\t// out\n        /* \"#utility.yul\":88:205   */\n    tag_58:\n        /* \"#utility.yul\":197:198   */\n      0x00\n        /* \"#utility.yul\":194:195   */\n      dup1\n        /* \"#utility.yul\":187:199   */\n      revert\n        /* \"#utility.yul\":211:328   */\n    tag_59:\n        /* \"#utility.yul\":320:321   */\n      0x00\n        /* \"#utility.yul\":317:318   */\n      dup1\n        /* \"#utility.yul\":310:322   */\n      revert\n        /* \"#utility.yul\":334:411   */\n    tag_60:\n        /* \"#utility.yul\":371:378   */\n      0x00\n        /* \"#utility.yul\":400:405   */\n      dup2\n        /* \"#utility.yul\":389:405   */\n      swap1\n      pop\n        /* \"#utility.yul\":334:411   */\n      swap2\n      swap1\n      pop\n      jump\t// out\n        /* \"#utility.yul\":417:539   */\n    tag_61:\n        /* \"#utility.yul\":490:514   */\n      tag_97\n        /* \"#utility.yul\":508:513   */\n      dup2\n        /* \"#utility.yul\":490:514   */\n      tag_60\n      jump\t// in\n    tag_97:\n        /* \"#utility.yul\":483:488   */\n      dup2\n        /* \"#utility.yul\":480:515   */\n      eq\n        /* \"#utility.yul\":470:533   */\n      tag_98\n      jumpi\n        /* \"#utility.yul\":529:530   */\n      0x00\n        /* \"#utility.yul\":526:527   */\n      dup1\n        /* \"#utility.yul\":519:531   */\n      revert\n        /* \"#utility.yul\":470:533   */\n    tag_98:\n        /* \"#utility.yul\":417:539   */\n      pop\n      jump\t// out\n        /* \"#utility.yul\":545:684   */\n    tag_62:\n        /* \"#utility.yul\":591:596   */\n      0x00\n        /* \"#utility.yul\":629:635   */\n      dup2\n        /* \"#utility.yul\":616:636   */\n      calldataload\n        /* \"#utility.yul\":607:636   */\n      swap1\n      pop\n        /* \"#utility.yul\":645:678   */\n      tag_100\n        /* \"#utility.yul\":672:677   */\n      dup2\n        /* \"#utility.yul\":645:678   */\n      tag_61\n      jump\t// in\n    tag_100:\n        /* \"#utility.yul\":545:684   */\n      swap3\n      swap2\n      pop\n      pop\n      jump\t// out\n        /* \"#utility.yul\":690:1019   */\n    tag_9:\n        /* \"#utility.yul\":749:755   */\n      0x00\n        /* \"#utility.yul\":798:800   */\n      0x20\n        /* \"#utility.yul\":786:795   */\n      dup3\n        /* \"#utility.yul\":777:784   */\n      dup5\n        /* \"#utility.yul\":773:796   */\n      sub\n        /* \"#utility.yul\":769:801   */\n      slt\n        /* \"#utility.yul\":766:885   */\n      iszero\n      tag_102\n      jumpi\n        /* \"#utility.yul\":804:883   */\n      tag_103\n      tag_58\n      jump\t// in\n    tag_103:\n        /* \"#utility.yul\":766:885   */\n    tag_102:\n        /* \"#utility.yul\":924:925   */\n      0x00\n        /* \"#utility.yul\":949:1002   */\n      tag_104\n        /* \"#utility.yul\":994:1001   */\n      dup5\n        /* \"#utility.yul\":985:991   */\n      dup3\n        /* \"#utility.yul\":974:983   */\n      dup6\n        /* \"#utility.yul\":970:992   */\n      add\n        /* \"#utility.yul\":949:1002   */\n      tag_62\n      jump\t// in\n    tag_104:\n        /* \"#utility.yul\":939:1002   */\n      swap2\n      pop\n        /* \"#utility.yul\":895:1012   */\n      pop\n        /* \"#utility.yul\":690:1019   */\n      swap3\n      swap2\n      pop\n      pop\n      jump\t// out\n        /* \"#utility.yul\":1025:1151   */\n    tag_63:\n        /* \"#utility.yul\":1062:1069   */\n      0x00\n        /* \"#utility.yul\":1102:1144   */\n      0xffffffffffffffffffffffffffffffffffffffff\n        /* \"#utility.yul\":1095:1100   */\n      dup3\n        /* \"#utility.yul\":1091:1145   */\n      and\n        /* \"#utility.yul\":1080:1145   */\n      swap1\n      pop\n        /* \"#utility.yul\":1025:1151   */\n      swap2\n      swap1\n      pop\n      jump\t// out\n        /* \"#utility.yul\":1157:1253   */\n    tag_64:\n        /* \"#utility.yul\":1194:1201   */\n      0x00\n        /* \"#utility.yul\":1223:1247   */\n      tag_107\n        /* \"#utility.yul\":1241:1246   */\n      dup3\n        /* \"#utility.yul\":1223:1247   */\n      tag_63\n      jump\t// in\n    tag_107:\n        /* \"#utility.yul\":1212:1247   */\n      swap1\n      pop\n        /* \"#utility.yul\":1157:1253   */\n      swap2\n      swap1\n      pop\n      jump\t// out\n        /* \"#utility.yul\":1259:1377   */\n    tag_65:\n        /* \"#utility.yul\":1346:1370   */\n      tag_109\n        /* \"#utility.yul\":1364:1369   */\n      dup2\n        /* \"#utility.yul\":1346:1370   */\n      tag_64\n      jump\t// in\n    tag_109:\n        /* \"#utility.yul\":1341:1344   */\n      dup3\n        /* \"#utility.yul\":1334:1371   */\n      mstore\n        /* \"#utility.yul\":1259:1377   */\n      pop\n      pop\n      jump\t// out\n        /* \"#utility.yul\":1383:1482   */\n    tag_66:\n        /* \"#utility.yul\":1435:1441   */\n      0x00\n        /* \"#utility.yul\":1469:1474   */\n      dup2\n        /* \"#utility.yul\":1463:1475   */\n      mload\n        /* \"#utility.yul\":1453:1475   */\n      swap1\n      pop\n        /* \"#utility.yul\":1383:1482   */\n      swap2\n      swap1\n      pop\n      jump\t// out\n        /* \"#utility.yul\":1488:1657   */\n    tag_67:\n        /* \"#utility.yul\":1572:1583   */\n      0x00\n        /* \"#utility.yul\":1606:1612   */\n      dup3\n        /* \"#utility.yul\":1601:1604   */\n      dup3\n        /* \"#utility.yul\":1594:1613   */\n      mstore\n        /* \"#utility.yul\":1646:1650   */\n      0x20\n        /* \"#utility.yul\":1641:1644   */\n      dup3\n        /* \"#utility.yul\":1637:1651   */\n      add\n        /* \"#utility.yul\":1622:1651   */\n      swap1\n      pop\n        /* \"#utility.yul\":1488:1657   */\n      swap3\n      swap2\n      pop\n      pop\n      jump\t// out\n        /* \"#utility.yul\":1663:1909   */\n    tag_68:\n        /* \"#utility.yul\":1744:1745   */\n      0x00\n        /* \"#utility.yul\":1754:1867   */\n    tag_113:\n        /* \"#utility.yul\":1768:1774   */\n      dup4\n        /* \"#utility.yul\":1765:1766   */\n      dup2\n        /* \"#utility.yul\":1762:1775   */\n      lt\n        /* \"#utility.yul\":1754:1867   */\n      iszero\n      tag_115\n      jumpi\n        /* \"#utility.yul\":1853:1854   */\n      dup1\n        /* \"#utility.yul\":1848:1851   */\n      dup3\n        /* \"#utility.yul\":1844:1855   */\n      add\n        /* \"#utility.yul\":1838:1856   */\n      mload\n        /* \"#utility.yul\":1834:1835   */\n      dup2\n        /* \"#utility.yul\":1829:1832   */\n      dup5\n        /* \"#utility.yul\":1825:1836   */\n      add\n        /* \"#utility.yul\":1818:1857   */\n      mstore\n        /* \"#utility.yul\":1790:1792   */\n      0x20\n        /* \"#utility.yul\":1787:1788   */\n      dup2\n        /* \"#utility.yul\":1783:1793   */\n      add\n        /* \"#utility.yul\":1778:1793   */\n      swap1\n      pop\n        /* \"#utility.yul\":1754:1867   */\n      jump(tag_113)\n    tag_115:\n        /* \"#utility.yul\":1901:1902   */\n      0x00\n        /* \"#utility.yul\":1892:1898   */\n      dup5\n        /* \"#utility.yul\":1887:1890   */\n      dup5\n        /* \"#utility.yul\":1883:1899   */\n      add\n        /* \"#utility.yul\":1876:1903   */\n      mstore\n        /* \"#utility.yul\":1725:1909   */\n      pop\n        /* \"#utility.yul\":1663:1909   */\n      pop\n      pop\n      pop\n      jump\t// out\n        /* \"#utility.yul\":1915:2017   */\n    tag_69:\n        /* \"#utility.yul\":1956:1962   */\n      0x00\n        /* \"#utility.yul\":2007:2009   */\n      0x1f\n        /* \"#utility.yul\":2003:2010   */\n      not\n        /* \"#utility.yul\":1998:2000   */\n      0x1f\n        /* \"#utility.yul\":1991:1996   */\n      dup4\n        /* \"#utility.yul\":1987:2001   */\n      add\n        /* \"#utility.yul\":1983:2011   */\n      and\n        /* \"#utility.yul\":1973:2011   */\n      swap1\n      pop\n        /* \"#utility.yul\":1915:2017   */\n      swap2\n      swap1\n      pop\n      jump\t// out\n        /* \"#utility.yul\":2023:2400   */\n    tag_70:\n        /* \"#utility.yul\":2111:2114   */\n      0x00\n        /* \"#utility.yul\":2139:2178   */\n      tag_118\n        /* \"#utility.yul\":2172:2177   */\n      dup3\n        /* \"#utility.yul\":2139:2178   */\n      tag_66\n      jump\t// in\n    tag_118:\n        /* \"#utility.yul\":2194:2265   */\n      tag_119\n        /* \"#utility.yul\":2258:2264   */\n      dup2\n        /* \"#utility.yul\":2253:2256   */\n      dup6\n        /* \"#utility.yul\":2194:2265   */\n      tag_67\n      jump\t// in\n    tag_119:\n        /* \"#utility.yul\":2187:2265   */\n      swap4\n      pop\n        /* \"#utility.yul\":2274:2339   */\n      tag_120\n        /* \"#utility.yul\":2332:2338   */\n      dup2\n        /* \"#utility.yul\":2327:2330   */\n      dup6\n        /* \"#utility.yul\":2320:2324   */\n      0x20\n        /* \"#utility.yul\":2313:2318   */\n      dup7\n        /* \"#utility.yul\":2309:2325   */\n      add\n        /* \"#utility.yul\":2274:2339   */\n      tag_68\n      jump\t// in\n    tag_120:\n        /* \"#utility.yul\":2364:2393   */\n      tag_121\n        /* \"#utility.yul\":2386:2392   */\n      dup2\n        /* \"#utility.yul\":2364:2393   */\n      tag_69\n      jump\t// in\n    tag_121:\n        /* \"#utility.yul\":2359:2362   */\n      dup5\n        /* \"#utility.yul\":2355:2394   */\n      add\n        /* \"#utility.yul\":2348:2394   */\n      swap2\n      pop\n        /* \"#utility.yul\":2115:2400   */\n      pop\n        /* \"#utility.yul\":2023:2400   */\n      swap3\n      swap2\n      pop\n      pop\n      jump\t// out\n        /* \"#utility.yul\":2406:2524   */\n    tag_71:\n        /* \"#utility.yul\":2493:2517   */\n      tag_123\n        /* \"#utility.yul\":2511:2516   */\n      dup2\n        /* \"#utility.yul\":2493:2517   */\n      tag_60\n      jump\t// in\n    tag_123:\n        /* \"#utility.yul\":2488:2491   */\n      dup3\n        /* \"#utility.yul\":2481:2518   */\n      mstore\n        /* \"#utility.yul\":2406:2524   */\n      pop\n      pop\n      jump\t// out\n        /* \"#utility.yul\":2530:3174   */\n    tag_12:\n        /* \"#utility.yul\":2727:2731   */\n      0x00\n        /* \"#utility.yul\":2765:2768   */\n      0x80\n        /* \"#utility.yul\":2754:2763   */\n      dup3\n        /* \"#utility.yul\":2750:2769   */\n      add\n        /* \"#utility.yul\":2742:2769   */\n      swap1\n      pop\n        /* \"#utility.yul\":2779:2850   */\n      tag_125\n        /* \"#utility.yul\":2847:2848   */\n      0x00\n        /* \"#utility.yul\":2836:2845   */\n      dup4\n        /* \"#utility.yul\":2832:2849   */\n      add\n        /* \"#utility.yul\":2823:2829   */\n      dup8\n        /* \"#utility.yul\":2779:2850   */\n      tag_65\n      jump\t// in\n    tag_125:\n        /* \"#utility.yul\":2897:2906   */\n      dup2\n        /* \"#utility.yul\":2891:2895   */\n      dup2\n        /* \"#utility.yul\":2887:2907   */\n      sub\n        /* \"#utility.yul\":2882:2884   */\n      0x20\n        /* \"#utility.yul\":2871:2880   */\n      dup4\n        /* \"#utility.yul\":2867:2885   */\n      add\n        /* \"#utility.yul\":2860:2908   */\n      mstore\n        /* \"#utility.yul\":2925:3003   */\n      tag_126\n        /* \"#utility.yul\":2998:3002   */\n      dup2\n        /* \"#utility.yul\":2989:2995   */\n      dup7\n        /* \"#utility.yul\":2925:3003   */\n      tag_70\n      jump\t// in\n    tag_126:\n        /* \"#utility.yul\":2917:3003   */\n      swap1\n      pop\n        /* \"#utility.yul\":3013:3085   */\n      tag_127\n        /* \"#utility.yul\":3081:3083   */\n      0x40\n        /* \"#utility.yul\":3070:3079   */\n      dup4\n        /* \"#utility.yul\":3066:3084   */\n      add\n        /* \"#utility.yul\":3057:3063   */\n      dup6\n        /* \"#utility.yul\":3013:3085   */\n      tag_65\n      jump\t// in\n    tag_127:\n        /* \"#utility.yul\":3095:3167   */\n      tag_128\n        /* \"#utility.yul\":3163:3165   */\n      0x60\n        /* \"#utility.yul\":3152:3161   */\n      dup4\n        /* \"#utility.yul\":3148:3166   */\n      add\n        /* \"#utility.yul\":3139:3145   */\n      dup5\n        /* \"#utility.yul\":3095:3167   */\n      tag_71\n      jump\t// in\n    tag_128:\n        /* \"#utility.yul\":2530:3174   */\n      swap6\n      swap5\n      pop\n      pop\n      pop\n      pop\n      pop\n      jump\t// out\n        /* \"#utility.yul\":3180:3302   */\n    tag_72:\n        /* \"#utility.yul\":3253:3277   */\n      tag_130\n        /* \"#utility.yul\":3271:3276   */\n      dup2\n        /* \"#utility.yul\":3253:3277   */\n      tag_64\n      jump\t// in\n    tag_130:\n        /* \"#utility.yul\":3246:3251   */\n      dup2\n        /* \"#utility.yul\":3243:3278   */\n      eq\n        /* \"#utility.yul\":3233:3296   */\n      tag_131\n      jumpi\n        /* \"#utility.yul\":3292:3293   */\n      0x00\n        /* \"#utility.yul\":3289:3290   */\n      dup1\n        /* \"#utility.yul\":3282:3294   */\n      revert\n        /* \"#utility.yul\":3233:3296   */\n    tag_131:\n        /* \"#utility.yul\":3180:3302   */\n      pop\n      jump\t// out\n        /* \"#utility.yul\":3308:3447   */\n    tag_73:\n        /* \"#utility.yul\":3354:3359   */\n      0x00\n        /* \"#utility.yul\":3392:3398   */\n      dup2\n        /* \"#utility.yul\":3379:3399   */\n      calldataload\n        /* \"#utility.yul\":3370:3399   */\n      swap1\n      pop\n        /* \"#utility.yul\":3408:3441   */\n      tag_133\n        /* \"#utility.yul\":3435:3440   */\n      dup2\n        /* \"#utility.yul\":3408:3441   */\n      tag_72\n      jump\t// in\n    tag_133:\n        /* \"#utility.yul\":3308:3447   */\n      swap3\n      swap2\n      pop\n      pop\n      jump\t// out\n        /* \"#utility.yul\":3453:3570   */\n    tag_74:\n        /* \"#utility.yul\":3562:3563   */\n      0x00\n        /* \"#utility.yul\":3559:3560   */\n      dup1\n        /* \"#utility.yul\":3552:3564   */\n      revert\n        /* \"#utility.yul\":3576:3693   */\n    tag_75:\n        /* \"#utility.yul\":3685:3686   */\n      0x00\n        /* \"#utility.yul\":3682:3683   */\n      dup1\n        /* \"#utility.yul\":3675:3687   */\n      revert\n        /* \"#utility.yul\":3699:3879   */\n    tag_76:\n        /* \"#utility.yul\":3747:3824   */\n      0x4e487b7100000000000000000000000000000000000000000000000000000000\n        /* \"#utility.yul\":3744:3745   */\n      0x00\n        /* \"#utility.yul\":3737:3825   */\n      mstore\n        /* \"#utility.yul\":3844:3848   */\n      0x41\n        /* \"#utility.yul\":3841:3842   */\n      0x04\n        /* \"#utility.yul\":3834:3849   */\n      mstore\n        /* \"#utility.yul\":3868:3872   */\n      0x24\n        /* \"#utility.yul\":3865:3866   */\n      0x00\n        /* \"#utility.yul\":3858:3873   */\n      revert\n        /* \"#utility.yul\":3885:4166   */\n    tag_77:\n        /* \"#utility.yul\":3968:3995   */\n      tag_138\n        /* \"#utility.yul\":3990:3994   */\n      dup3\n        /* \"#utility.yul\":3968:3995   */\n      tag_69\n      jump\t// in\n    tag_138:\n        /* \"#utility.yul\":3960:3966   */\n      dup2\n        /* \"#utility.yul\":3956:3996   */\n      add\n        /* \"#utility.yul\":4098:4104   */\n      dup2\n        /* \"#utility.yul\":4086:4096   */\n      dup2\n        /* \"#utility.yul\":4083:4105   */\n      lt\n        /* \"#utility.yul\":4062:4080   */\n      0xffffffffffffffff\n        /* \"#utility.yul\":4050:4060   */\n      dup3\n        /* \"#utility.yul\":4047:4081   */\n      gt\n        /* \"#utility.yul\":4044:4106   */\n      or\n        /* \"#utility.yul\":4041:4129   */\n      iszero\n      tag_139\n      jumpi\n        /* \"#utility.yul\":4109:4127   */\n      tag_140\n      tag_76\n      jump\t// in\n    tag_140:\n        /* \"#utility.yul\":4041:4129   */\n    tag_139:\n        /* \"#utility.yul\":4149:4159   */\n      dup1\n        /* \"#utility.yul\":4145:4147   */\n      0x40\n        /* \"#utility.yul\":4138:4160   */\n      mstore\n        /* \"#utility.yul\":3928:4166   */\n      pop\n        /* \"#utility.yul\":3885:4166   */\n      pop\n      pop\n      jump\t// out\n        /* \"#utility.yul\":4172:4301   */\n    tag_78:\n        /* \"#utility.yul\":4206:4212   */\n      0x00\n        /* \"#utility.yul\":4233:4253   */\n      tag_142\n      tag_57\n      jump\t// in\n    tag_142:\n        /* \"#utility.yul\":4223:4253   */\n      swap1\n      pop\n        /* \"#utility.yul\":4262:4295   */\n      tag_143\n        /* \"#utility.yul\":4290:4294   */\n      dup3\n        /* \"#utility.yul\":4282:4288   */\n      dup3\n        /* \"#utility.yul\":4262:4295   */\n      tag_77\n      jump\t// in\n    tag_143:\n        /* \"#utility.yul\":4172:4301   */\n      swap2\n      swap1\n      pop\n      jump\t// out\n        /* \"#utility.yul\":4307:4615   */\n    tag_79:\n        /* \"#utility.yul\":4369:4373   */\n      0x00\n        /* \"#utility.yul\":4459:4477   */\n      0xffffffffffffffff\n        /* \"#utility.yul\":4451:4457   */\n      dup3\n        /* \"#utility.yul\":4448:4478   */\n      gt\n        /* \"#utility.yul\":4445:4501   */\n      iszero\n      tag_145\n      jumpi\n        /* \"#utility.yul\":4481:4499   */\n      tag_146\n      tag_76\n      jump\t// in\n    tag_146:\n        /* \"#utility.yul\":4445:4501   */\n    tag_145:\n        /* \"#utility.yul\":4519:4548   */\n      tag_147\n        /* \"#utility.yul\":4541:4547   */\n      dup3\n        /* \"#utility.yul\":4519:4548   */\n      tag_69\n      jump\t// in\n    tag_147:\n        /* \"#utility.yul\":4511:4548   */\n      swap1\n      pop\n        /* \"#utility.yul\":4603:4607   */\n      0x20\n        /* \"#utility.yul\":4597:4601   */\n      dup2\n        /* \"#utility.yul\":4593:4608   */\n      add\n        /* \"#utility.yul\":4585:4608   */\n      swap1\n      pop\n        /* \"#utility.yul\":4307:4615   */\n      swap2\n      swap1\n      pop\n      jump\t// out\n        /* \"#utility.yul\":4621:4767   */\n    tag_80:\n        /* \"#utility.yul\":4718:4724   */\n      dup3\n        /* \"#utility.yul\":4713:4716   */\n      dup2\n        /* \"#utility.yul\":4708:4711   */\n      dup4\n        /* \"#utility.yul\":4695:4725   */\n      calldatacopy\n        /* \"#utility.yul\":4759:4760   */\n      0x00\n        /* \"#utility.yul\":4750:4756   */\n      dup4\n        /* \"#utility.yul\":4745:4748   */\n      dup4\n        /* \"#utility.yul\":4741:4757   */\n      add\n        /* \"#utility.yul\":4734:4761   */\n      mstore\n        /* \"#utility.yul\":4621:4767   */\n      pop\n      pop\n      pop\n      jump\t// out\n        /* \"#utility.yul\":4773:5198   */\n    tag_81:\n        /* \"#utility.yul\":4851:4856   */\n      0x00\n        /* \"#utility.yul\":4876:4942   */\n      tag_150\n        /* \"#utility.yul\":4892:4941   */\n      tag_151\n        /* \"#utility.yul\":4934:4940   */\n      dup5\n        /* \"#utility.yul\":4892:4941   */\n      tag_79\n      jump\t// in\n    tag_151:\n        /* \"#utility.yul\":4876:4942   */\n      tag_78\n      jump\t// in\n    tag_150:\n        /* \"#utility.yul\":4867:4942   */\n      swap1\n      pop\n        /* \"#utility.yul\":4965:4971   */\n      dup3\n        /* \"#utility.yul\":4958:4963   */\n      dup2\n        /* \"#utility.yul\":4951:4972   */\n      mstore\n        /* \"#utility.yul\":5003:5007   */\n      0x20\n        /* \"#utility.yul\":4996:5001   */\n      dup2\n        /* \"#utility.yul\":4992:5008   */\n      add\n        /* \"#utility.yul\":5041:5044   */\n      dup5\n        /* \"#utility.yul\":5032:5038   */\n      dup5\n        /* \"#utility.yul\":5027:5030   */\n      dup5\n        /* \"#utility.yul\":5023:5039   */\n      add\n        /* \"#utility.yul\":5020:5045   */\n      gt\n        /* \"#utility.yul\":5017:5129   */\n      iszero\n      tag_152\n      jumpi\n        /* \"#utility.yul\":5048:5127   */\n      tag_153\n      tag_75\n      jump\t// in\n    tag_153:\n        /* \"#utility.yul\":5017:5129   */\n    tag_152:\n        /* \"#utility.yul\":5138:5192   */\n      tag_154\n        /* \"#utility.yul\":5185:5191   */\n      dup5\n        /* \"#utility.yul\":5180:5183   */\n      dup3\n        /* \"#utility.yul\":5175:5178   */\n      dup6\n        /* \"#utility.yul\":5138:5192   */\n      tag_80\n      jump\t// in\n    tag_154:\n        /* \"#utility.yul\":4857:5198   */\n      pop\n        /* \"#utility.yul\":4773:5198   */\n      swap4\n      swap3\n      pop\n      pop\n      pop\n      jump\t// out\n        /* \"#utility.yul\":5218:5558   */\n    tag_82:\n        /* \"#utility.yul\":5274:5279   */\n      0x00\n        /* \"#utility.yul\":5323:5326   */\n      dup3\n        /* \"#utility.yul\":5316:5320   */\n      0x1f\n        /* \"#utility.yul\":5308:5314   */\n      dup4\n        /* \"#utility.yul\":5304:5321   */\n      add\n        /* \"#utility.yul\":5300:5327   */\n      slt\n        /* \"#utility.yul\":5290:5412   */\n      tag_156\n      jumpi\n        /* \"#utility.yul\":5331:5410   */\n      tag_157\n      tag_74\n      jump\t// in\n    tag_157:\n        /* \"#utility.yul\":5290:5412   */\n    tag_156:\n        /* \"#utility.yul\":5448:5454   */\n      dup2\n        /* \"#utility.yul\":5435:5455   */\n      calldataload\n        /* \"#utility.yul\":5473:5552   */\n      tag_158\n        /* \"#utility.yul\":5548:5551   */\n      dup5\n        /* \"#utility.yul\":5540:5546   */\n      dup3\n        /* \"#utility.yul\":5533:5537   */\n      0x20\n        /* \"#utility.yul\":5525:5531   */\n      dup7\n        /* \"#utility.yul\":5521:5538   */\n      add\n        /* \"#utility.yul\":5473:5552   */\n      tag_81\n      jump\t// in\n    tag_158:\n        /* \"#utility.yul\":5464:5552   */\n      swap2\n      pop\n        /* \"#utility.yul\":5280:5558   */\n      pop\n        /* \"#utility.yul\":5218:5558   */\n      swap3\n      swap2\n      pop\n      pop\n      jump\t// out\n        /* \"#utility.yul\":5564:6218   */\n    tag_16:\n        /* \"#utility.yul\":5642:5648   */\n      0x00\n        /* \"#utility.yul\":5650:5656   */\n      dup1\n        /* \"#utility.yul\":5699:5701   */\n      0x40\n        /* \"#utility.yul\":5687:5696   */\n      dup4\n        /* \"#utility.yul\":5678:5685   */\n      dup6\n        /* \"#utility.yul\":5674:5697   */\n      sub\n        /* \"#utility.yul\":5670:5702   */\n      slt\n        /* \"#utility.yul\":5667:5786   */\n      iszero\n      tag_160\n      jumpi\n        /* \"#utility.yul\":5705:5784   */\n      tag_161\n      tag_58\n      jump\t// in\n    tag_161:\n        /* \"#utility.yul\":5667:5786   */\n    tag_160:\n        /* \"#utility.yul\":5825:5826   */\n      0x00\n        /* \"#utility.yul\":5850:5903   */\n      tag_162\n        /* \"#utility.yul\":5895:5902   */\n      dup6\n        /* \"#utility.yul\":5886:5892   */\n      dup3\n        /* \"#utility.yul\":5875:5884   */\n      dup7\n        /* \"#utility.yul\":5871:5893   */\n      add\n        /* \"#utility.yul\":5850:5903   */\n      tag_73\n      jump\t// in\n    tag_162:\n        /* \"#utility.yul\":5840:5903   */\n      swap3\n      pop\n        /* \"#utility.yul\":5796:5913   */\n      pop\n        /* \"#utility.yul\":5980:5982   */\n      0x20\n        /* \"#utility.yul\":5969:5978   */\n      dup4\n        /* \"#utility.yul\":5965:5983   */\n      add\n        /* \"#utility.yul\":5952:5984   */\n      calldataload\n        /* \"#utility.yul\":6011:6029   */\n      0xffffffffffffffff\n        /* \"#utility.yul\":6003:6009   */\n      dup2\n        /* \"#utility.yul\":6000:6030   */\n      gt\n        /* \"#utility.yul\":5997:6114   */\n      iszero\n      tag_163\n      jumpi\n        /* \"#utility.yul\":6033:6112   */\n      tag_164\n      tag_59\n      jump\t// in\n    tag_164:\n        /* \"#utility.yul\":5997:6114   */\n    tag_163:\n        /* \"#utility.yul\":6138:6201   */\n      tag_165\n        /* \"#utility.yul\":6193:6200   */\n      dup6\n        /* \"#utility.yul\":6184:6190   */\n      dup3\n        /* \"#utility.yul\":6173:6182   */\n      dup7\n        /* \"#utility.yul\":6169:6191   */\n      add\n        /* \"#utility.yul\":6138:6201   */\n      tag_82\n      jump\t// in\n    tag_165:\n        /* \"#utility.yul\":6128:6201   */\n      swap2\n      pop\n        /* \"#utility.yul\":5923:6211   */\n      pop\n        /* \"#utility.yul\":5564:6218   */\n      swap3\n      pop\n      swap3\n      swap1\n      pop\n      jump\t// out\n        /* \"#utility.yul\":6224:6284   */\n    tag_83:\n        /* \"#utility.yul\":6252:6255   */\n      0x00\n        /* \"#utility.yul\":6273:6278   */\n      dup2\n        /* \"#utility.yul\":6266:6278   */\n      swap1\n      pop\n        /* \"#utility.yul\":6224:6284   */\n      swap2\n      swap1\n      pop\n      jump\t// out\n        /* \"#utility.yul\":6290:6432   */\n    tag_84:\n        /* \"#utility.yul\":6340:6349   */\n      0x00\n        /* \"#utility.yul\":6373:6426   */\n      tag_168\n        /* \"#utility.yul\":6391:6425   */\n      tag_169\n        /* \"#utility.yul\":6400:6424   */\n      tag_170\n        /* \"#utility.yul\":6418:6423   */\n      dup5\n        /* \"#utility.yul\":6400:6424   */\n      tag_63\n      jump\t// in\n    tag_170:\n        /* \"#utility.yul\":6391:6425   */\n      tag_83\n      jump\t// in\n    tag_169:\n        /* \"#utility.yul\":6373:6426   */\n      tag_63\n      jump\t// in\n    tag_168:\n        /* \"#utility.yul\":6360:6426   */\n      swap1\n      pop\n        /* \"#utility.yul\":6290:6432   */\n      swap2\n      swap1\n      pop\n      jump\t// out\n        /* \"#utility.yul\":6438:6564   */\n    tag_85:\n        /* \"#utility.yul\":6488:6497   */\n      0x00\n        /* \"#utility.yul\":6521:6558   */\n      tag_172\n        /* \"#utility.yul\":6552:6557   */\n      dup3\n        /* \"#utility.yul\":6521:6558   */\n      tag_84\n      jump\t// in\n    tag_172:\n        /* \"#utility.yul\":6508:6558   */\n      swap1\n      pop\n        /* \"#utility.yul\":6438:6564   */\n      swap2\n      swap1\n      pop\n      jump\t// out\n        /* \"#utility.yul\":6570:6706   */\n    tag_86:\n        /* \"#utility.yul\":6630:6639   */\n      0x00\n        /* \"#utility.yul\":6663:6700   */\n      tag_174\n        /* \"#utility.yul\":6694:6699   */\n      dup3\n        /* \"#utility.yul\":6663:6700   */\n      tag_85\n      jump\t// in\n    tag_174:\n        /* \"#utility.yul\":6650:6700   */\n      swap1\n      pop\n        /* \"#utility.yul\":6570:6706   */\n      swap2\n      swap1\n      pop\n      jump\t// out\n        /* \"#utility.yul\":6712:6863   */\n    tag_87:\n        /* \"#utility.yul\":6809:6856   */\n      tag_176\n        /* \"#utility.yul\":6850:6855   */\n      dup2\n        /* \"#utility.yul\":6809:6856   */\n      tag_86\n      jump\t// in\n    tag_176:\n        /* \"#utility.yul\":6804:6807   */\n      dup3\n        /* \"#utility.yul\":6797:6857   */\n      mstore\n        /* \"#utility.yul\":6712:6863   */\n      pop\n      pop\n      jump\t// out\n        /* \"#utility.yul\":6869:7111   */\n    tag_26:\n        /* \"#utility.yul\":6972:6976   */\n      0x00\n        /* \"#utility.yul\":7010:7012   */\n      0x20\n        /* \"#utility.yul\":6999:7008   */\n      dup3\n        /* \"#utility.yul\":6995:7013   */\n      add\n        /* \"#utility.yul\":6987:7013   */\n      swap1\n      pop\n        /* \"#utility.yul\":7023:7104   */\n      tag_178\n        /* \"#utility.yul\":7101:7102   */\n      0x00\n        /* \"#utility.yul\":7090:7099   */\n      dup4\n        /* \"#utility.yul\":7086:7103   */\n      add\n        /* \"#utility.yul\":7077:7083   */\n      dup5\n        /* \"#utility.yul\":7023:7104   */\n      tag_87\n      jump\t// in\n    tag_178:\n        /* \"#utility.yul\":6869:7111   */\n      swap3\n      swap2\n      pop\n      pop\n      jump\t// out\n        /* \"#utility.yul\":7117:7297   */\n    tag_30:\n        /* \"#utility.yul\":7165:7242   */\n      0x4e487b7100000000000000000000000000000000000000000000000000000000\n        /* \"#utility.yul\":7162:7163   */\n      0x00\n        /* \"#utility.yul\":7155:7243   */\n      mstore\n        /* \"#utility.yul\":7262:7266   */\n      0x32\n        /* \"#utility.yul\":7259:7260   */\n      0x04\n        /* \"#utility.yul\":7252:7267   */\n      mstore\n        /* \"#utility.yul\":7286:7290   */\n      0x24\n        /* \"#utility.yul\":7283:7284   */\n      0x00\n        /* \"#utility.yul\":7276:7291   */\n      revert\n        /* \"#utility.yul\":7303:7446   */\n    tag_88:\n        /* \"#utility.yul\":7360:7365   */\n      0x00\n        /* \"#utility.yul\":7391:7397   */\n      dup2\n        /* \"#utility.yul\":7385:7398   */\n      mload\n        /* \"#utility.yul\":7376:7398   */\n      swap1\n      pop\n        /* \"#utility.yul\":7407:7440   */\n      tag_181\n        /* \"#utility.yul\":7434:7439   */\n      dup2\n        /* \"#utility.yul\":7407:7440   */\n      tag_72\n      jump\t// in\n    tag_181:\n        /* \"#utility.yul\":7303:7446   */\n      swap3\n      swap2\n      pop\n      pop\n      jump\t// out\n        /* \"#utility.yul\":7452:7803   */\n    tag_35:\n        /* \"#utility.yul\":7522:7528   */\n      0x00\n        /* \"#utility.yul\":7571:7573   */\n      0x20\n        /* \"#utility.yul\":7559:7568   */\n      dup3\n        /* \"#utility.yul\":7550:7557   */\n      dup5\n        /* \"#utility.yul\":7546:7569   */\n      sub\n        /* \"#utility.yul\":7542:7574   */\n      slt\n        /* \"#utility.yul\":7539:7658   */\n      iszero\n      tag_183\n      jumpi\n        /* \"#utility.yul\":7577:7656   */\n      tag_184\n      tag_58\n      jump\t// in\n    tag_184:\n        /* \"#utility.yul\":7539:7658   */\n    tag_183:\n        /* \"#utility.yul\":7697:7698   */\n      0x00\n        /* \"#utility.yul\":7722:7786   */\n      tag_185\n        /* \"#utility.yul\":7778:7785   */\n      dup5\n        /* \"#utility.yul\":7769:7775   */\n      dup3\n        /* \"#utility.yul\":7758:7767   */\n      dup6\n        /* \"#utility.yul\":7754:7776   */\n      add\n        /* \"#utility.yul\":7722:7786   */\n      tag_88\n      jump\t// in\n    tag_185:\n        /* \"#utility.yul\":7712:7786   */\n      swap2\n      pop\n        /* \"#utility.yul\":7668:7796   */\n      pop\n        /* \"#utility.yul\":7452:7803   */\n      swap3\n      swap2\n      pop\n      pop\n      jump\t// out\n        /* \"#utility.yul\":7809:8243   */\n    tag_89:\n        /* \"#utility.yul\":7898:7903   */\n      0x00\n        /* \"#utility.yul\":7923:7989   */\n      tag_187\n        /* \"#utility.yul\":7939:7988   */\n      tag_188\n        /* \"#utility.yul\":7981:7987   */\n      dup5\n        /* \"#utility.yul\":7939:7988   */\n      tag_79\n      jump\t// in\n    tag_188:\n        /* \"#utility.yul\":7923:7989   */\n      tag_78\n      jump\t// in\n    tag_187:\n        /* \"#utility.yul\":7914:7989   */\n      swap1\n      pop\n        /* \"#utility.yul\":8012:8018   */\n      dup3\n        /* \"#utility.yul\":8005:8010   */\n      dup2\n        /* \"#utility.yul\":7998:8019   */\n      mstore\n        /* \"#utility.yul\":8050:8054   */\n      0x20\n        /* \"#utility.yul\":8043:8048   */\n      dup2\n        /* \"#utility.yul\":8039:8055   */\n      add\n        /* \"#utility.yul\":8088:8091   */\n      dup5\n        /* \"#utility.yul\":8079:8085   */\n      dup5\n        /* \"#utility.yul\":8074:8077   */\n      dup5\n        /* \"#utility.yul\":8070:8086   */\n      add\n        /* \"#utility.yul\":8067:8092   */\n      gt\n        /* \"#utility.yul\":8064:8176   */\n      iszero\n      tag_189\n      jumpi\n        /* \"#utility.yul\":8095:8174   */\n      tag_190\n      tag_75\n      jump\t// in\n    tag_190:\n        /* \"#utility.yul\":8064:8176   */\n    tag_189:\n        /* \"#utility.yul\":8185:8237   */\n      tag_191\n        /* \"#utility.yul\":8230:8236   */\n      dup5\n        /* \"#utility.yul\":8225:8228   */\n      dup3\n        /* \"#utility.yul\":8220:8223   */\n      dup6\n        /* \"#utility.yul\":8185:8237   */\n      tag_68\n      jump\t// in\n    tag_191:\n        /* \"#utility.yul\":7904:8243   */\n      pop\n        /* \"#utility.yul\":7809:8243   */\n      swap4\n      swap3\n      pop\n      pop\n      pop\n      jump\t// out\n        /* \"#utility.yul\":8263:8618   */\n    tag_90:\n        /* \"#utility.yul\":8330:8335   */\n      0x00\n        /* \"#utility.yul\":8379:8382   */\n      dup3\n        /* \"#utility.yul\":8372:8376   */\n      0x1f\n        /* \"#utility.yul\":8364:8370   */\n      dup4\n        /* \"#utility.yul\":8360:8377   */\n      add\n        /* \"#utility.yul\":8356:8383   */\n      slt\n        /* \"#utility.yul\":8346:8468   */\n      tag_193\n      jumpi\n        /* \"#utility.yul\":8387:8466   */\n      tag_194\n      tag_74\n      jump\t// in\n    tag_194:\n        /* \"#utility.yul\":8346:8468   */\n    tag_193:\n        /* \"#utility.yul\":8497:8503   */\n      dup2\n        /* \"#utility.yul\":8491:8504   */\n      mload\n        /* \"#utility.yul\":8522:8612   */\n      tag_195\n        /* \"#utility.yul\":8608:8611   */\n      dup5\n        /* \"#utility.yul\":8600:8606   */\n      dup3\n        /* \"#utility.yul\":8593:8597   */\n      0x20\n        /* \"#utility.yul\":8585:8591   */\n      dup7\n        /* \"#utility.yul\":8581:8598   */\n      add\n        /* \"#utility.yul\":8522:8612   */\n      tag_89\n      jump\t// in\n    tag_195:\n        /* \"#utility.yul\":8513:8612   */\n      swap2\n      pop\n        /* \"#utility.yul\":8336:8618   */\n      pop\n        /* \"#utility.yul\":8263:8618   */\n      swap3\n      swap2\n      pop\n      pop\n      jump\t// out\n        /* \"#utility.yul\":8624:9148   */\n    tag_39:\n        /* \"#utility.yul\":8704:8710   */\n      0x00\n        /* \"#utility.yul\":8753:8755   */\n      0x20\n        /* \"#utility.yul\":8741:8750   */\n      dup3\n        /* \"#utility.yul\":8732:8739   */\n      dup5\n        /* \"#utility.yul\":8728:8751   */\n      sub\n        /* \"#utility.yul\":8724:8756   */\n      slt\n        /* \"#utility.yul\":8721:8840   */\n      iszero\n      tag_197\n      jumpi\n        /* \"#utility.yul\":8759:8838   */\n      tag_198\n      tag_58\n      jump\t// in\n    tag_198:\n        /* \"#utility.yul\":8721:8840   */\n    tag_197:\n        /* \"#utility.yul\":8900:8901   */\n      0x00\n        /* \"#utility.yul\":8889:8898   */\n      dup3\n        /* \"#utility.yul\":8885:8902   */\n      add\n        /* \"#utility.yul\":8879:8903   */\n      mload\n        /* \"#utility.yul\":8930:8948   */\n      0xffffffffffffffff\n        /* \"#utility.yul\":8922:8928   */\n      dup2\n        /* \"#utility.yul\":8919:8949   */\n      gt\n        /* \"#utility.yul\":8916:9033   */\n      iszero\n      tag_199\n      jumpi\n        /* \"#utility.yul\":8952:9031   */\n      tag_200\n      tag_59\n      jump\t// in\n    tag_200:\n        /* \"#utility.yul\":8916:9033   */\n    tag_199:\n        /* \"#utility.yul\":9057:9131   */\n      tag_201\n        /* \"#utility.yul\":9123:9130   */\n      dup5\n        /* \"#utility.yul\":9114:9120   */\n      dup3\n        /* \"#utility.yul\":9103:9112   */\n      dup6\n        /* \"#utility.yul\":9099:9121   */\n      add\n        /* \"#utility.yul\":9057:9131   */\n      tag_90\n      jump\t// in\n    tag_201:\n        /* \"#utility.yul\":9047:9131   */\n      swap2\n      pop\n        /* \"#utility.yul\":8850:9141   */\n      pop\n        /* \"#utility.yul\":8624:9148   */\n      swap3\n      swap2\n      pop\n      pop\n      jump\t// out\n        /* \"#utility.yul\":9154:9577   */\n    tag_47:\n        /* \"#utility.yul\":9295:9299   */\n      0x00\n        /* \"#utility.yul\":9333:9335   */\n      0x40\n        /* \"#utility.yul\":9322:9331   */\n      dup3\n        /* \"#utility.yul\":9318:9336   */\n      add\n        /* \"#utility.yul\":9310:9336   */\n      swap1\n      pop\n        /* \"#utility.yul\":9346:9417   */\n      tag_203\n        /* \"#utility.yul\":9414:9415   */\n      0x00\n        /* \"#utility.yul\":9403:9412   */\n      dup4\n        /* \"#utility.yul\":9399:9416   */\n      add\n        /* \"#utility.yul\":9390:9396   */\n      dup6\n        /* \"#utility.yul\":9346:9417   */\n      tag_65\n      jump\t// in\n    tag_203:\n        /* \"#utility.yul\":9464:9473   */\n      dup2\n        /* \"#utility.yul\":9458:9462   */\n      dup2\n        /* \"#utility.yul\":9454:9474   */\n      sub\n        /* \"#utility.yul\":9449:9451   */\n      0x20\n        /* \"#utility.yul\":9438:9447   */\n      dup4\n        /* \"#utility.yul\":9434:9452   */\n      add\n        /* \"#utility.yul\":9427:9475   */\n      mstore\n        /* \"#utility.yul\":9492:9570   */\n      tag_204\n        /* \"#utility.yul\":9565:9569   */\n      dup2\n        /* \"#utility.yul\":9556:9562   */\n      dup5\n        /* \"#utility.yul\":9492:9570   */\n      tag_70\n      jump\t// in\n    tag_204:\n        /* \"#utility.yul\":9484:9570   */\n      swap1\n      pop\n        /* \"#utility.yul\":9154:9577   */\n      swap4\n      swap3\n      pop\n      pop\n      pop\n      jump\t// out\n    stop\n\n    sub_0: assembly {\n            /* \"call-other-contract.sol\":70:327  contract Car {... */\n          mstore(0x40, 0x80)\n            /* \"call-other-contract.sol\":174:324  constructor(address _owner, string memory _model) payable {... */\n          mload(0x40)\n          sub(codesize, bytecodeSize)\n          dup1\n          bytecodeSize\n          dup4\n          codecopy\n          dup2\n          dup2\n          add\n          0x40\n          mstore\n          dup2\n          add\n          swap1\n          tag_1\n          swap2\n          swap1\n          tag_2\n          jump\t// in\n        tag_1:\n            /* \"call-other-contract.sol\":251:257  _owner */\n          dup2\n            /* \"call-other-contract.sol\":243:248  owner */\n          0x00\n          dup1\n            /* \"call-other-contract.sol\":243:257  owner = _owner */\n          0x0100\n          exp\n          dup2\n          sload\n          dup2\n          0xffffffffffffffffffffffffffffffffffffffff\n          mul\n          not\n          and\n          swap1\n          dup4\n          0xffffffffffffffffffffffffffffffffffffffff\n          and\n          mul\n          or\n          swap1\n          sstore\n          pop\n            /* \"call-other-contract.sol\":276:282  _model */\n          dup1\n            /* \"call-other-contract.sol\":268:273  model */\n          0x01\n            /* \"call-other-contract.sol\":268:282  model = _model */\n          swap1\n          dup2\n          tag_5\n          swap2\n          swap1\n          tag_6\n          jump\t// in\n        tag_5:\n          pop\n            /* \"call-other-contract.sol\":311:315  this */\n          address\n            /* \"call-other-contract.sol\":293:300  carAddr */\n          0x02\n          0x00\n            /* \"call-other-contract.sol\":293:316  carAddr = address(this) */\n          0x0100\n          exp\n          dup2\n          sload\n          dup2\n          0xffffffffffffffffffffffffffffffffffffffff\n          mul\n          not\n          and\n          swap1\n          dup4\n          0xffffffffffffffffffffffffffffffffffffffff\n          and\n          mul\n          or\n          swap1\n          sstore\n          pop\n            /* \"call-other-contract.sol\":174:324  constructor(address _owner, string memory _model) payable {... */\n          pop\n          pop\n            /* \"call-other-contract.sol\":70:327  contract Car {... */\n          jump(tag_7)\n            /* \"#utility.yul\":7:82   */\n        tag_8:\n            /* \"#utility.yul\":40:46   */\n          0x00\n            /* \"#utility.yul\":73:75   */\n          0x40\n            /* \"#utility.yul\":67:76   */\n          mload\n            /* \"#utility.yul\":57:76   */\n          swap1\n          pop\n            /* \"#utility.yul\":7:82   */\n          swap1\n          jump\t// out\n            /* \"#utility.yul\":88:205   */\n        tag_9:\n            /* \"#utility.yul\":197:198   */\n          0x00\n            /* \"#utility.yul\":194:195   */\n          dup1\n            /* \"#utility.yul\":187:199   */\n          revert\n            /* \"#utility.yul\":211:328   */\n        tag_10:\n            /* \"#utility.yul\":320:321   */\n          0x00\n            /* \"#utility.yul\":317:318   */\n          dup1\n            /* \"#utility.yul\":310:322   */\n          revert\n            /* \"#utility.yul\":334:460   */\n        tag_11:\n            /* \"#utility.yul\":371:378   */\n          0x00\n            /* \"#utility.yul\":411:453   */\n          0xffffffffffffffffffffffffffffffffffffffff\n            /* \"#utility.yul\":404:409   */\n          dup3\n            /* \"#utility.yul\":400:454   */\n          and\n            /* \"#utility.yul\":389:454   */\n          swap1\n          pop\n            /* \"#utility.yul\":334:460   */\n          swap2\n          swap1\n          pop\n          jump\t// out\n            /* \"#utility.yul\":466:562   */\n        tag_12:\n            /* \"#utility.yul\":503:510   */\n          0x00\n            /* \"#utility.yul\":532:556   */\n          tag_50\n            /* \"#utility.yul\":550:555   */\n          dup3\n            /* \"#utility.yul\":532:556   */\n          tag_11\n          jump\t// in\n        tag_50:\n            /* \"#utility.yul\":521:556   */\n          swap1\n          pop\n            /* \"#utility.yul\":466:562   */\n          swap2\n          swap1\n          pop\n          jump\t// out\n            /* \"#utility.yul\":568:690   */\n        tag_13:\n            /* \"#utility.yul\":641:665   */\n          tag_52\n            /* \"#utility.yul\":659:664   */\n          dup2\n            /* \"#utility.yul\":641:665   */\n          tag_12\n          jump\t// in\n        tag_52:\n            /* \"#utility.yul\":634:639   */\n          dup2\n            /* \"#utility.yul\":631:666   */\n          eq\n            /* \"#utility.yul\":621:684   */\n          tag_53\n          jumpi\n            /* \"#utility.yul\":680:681   */\n          0x00\n            /* \"#utility.yul\":677:678   */\n          dup1\n            /* \"#utility.yul\":670:682   */\n          revert\n            /* \"#utility.yul\":621:684   */\n        tag_53:\n            /* \"#utility.yul\":568:690   */\n          pop\n          jump\t// out\n            /* \"#utility.yul\":696:839   */\n        tag_14:\n            /* \"#utility.yul\":753:758   */\n          0x00\n            /* \"#utility.yul\":784:790   */\n          dup2\n            /* \"#utility.yul\":778:791   */\n          mload\n            /* \"#utility.yul\":769:791   */\n          swap1\n          pop\n            /* \"#utility.yul\":800:833   */\n          tag_55\n            /* \"#utility.yul\":827:832   */\n          dup2\n            /* \"#utility.yul\":800:833   */\n          tag_13\n          jump\t// in\n        tag_55:\n            /* \"#utility.yul\":696:839   */\n          swap3\n          swap2\n          pop\n          pop\n          jump\t// out\n            /* \"#utility.yul\":845:962   */\n        tag_15:\n            /* \"#utility.yul\":954:955   */\n          0x00\n            /* \"#utility.yul\":951:952   */\n          dup1\n            /* \"#utility.yul\":944:956   */\n          revert\n            /* \"#utility.yul\":968:1085   */\n        tag_16:\n            /* \"#utility.yul\":1077:1078   */\n          0x00\n            /* \"#utility.yul\":1074:1075   */\n          dup1\n            /* \"#utility.yul\":1067:1079   */\n          revert\n            /* \"#utility.yul\":1091:1193   */\n        tag_17:\n            /* \"#utility.yul\":1132:1138   */\n          0x00\n            /* \"#utility.yul\":1183:1185   */\n          0x1f\n            /* \"#utility.yul\":1179:1186   */\n          not\n            /* \"#utility.yul\":1174:1176   */\n          0x1f\n            /* \"#utility.yul\":1167:1172   */\n          dup4\n            /* \"#utility.yul\":1163:1177   */\n          add\n            /* \"#utility.yul\":1159:1187   */\n          and\n            /* \"#utility.yul\":1149:1187   */\n          swap1\n          pop\n            /* \"#utility.yul\":1091:1193   */\n          swap2\n          swap1\n          pop\n          jump\t// out\n            /* \"#utility.yul\":1199:1379   */\n        tag_18:\n            /* \"#utility.yul\":1247:1324   */\n          0x4e487b7100000000000000000000000000000000000000000000000000000000\n            /* \"#utility.yul\":1244:1245   */\n          0x00\n            /* \"#utility.yul\":1237:1325   */\n          mstore\n            /* \"#utility.yul\":1344:1348   */\n          0x41\n            /* \"#utility.yul\":1341:1342   */\n          0x04\n            /* \"#utility.yul\":1334:1349   */\n          mstore\n            /* \"#utility.yul\":1368:1372   */\n          0x24\n            /* \"#utility.yul\":1365:1366   */\n          0x00\n            /* \"#utility.yul\":1358:1373   */\n          revert\n            /* \"#utility.yul\":1385:1666   */\n        tag_19:\n            /* \"#utility.yul\":1468:1495   */\n          tag_61\n            /* \"#utility.yul\":1490:1494   */\n          dup3\n            /* \"#utility.yul\":1468:1495   */\n          tag_17\n          jump\t// in\n        tag_61:\n            /* \"#utility.yul\":1460:1466   */\n          dup2\n            /* \"#utility.yul\":1456:1496   */\n          add\n            /* \"#utility.yul\":1598:1604   */\n          dup2\n            /* \"#utility.yul\":1586:1596   */\n          dup2\n            /* \"#utility.yul\":1583:1605   */\n          lt\n            /* \"#utility.yul\":1562:1580   */\n          0xffffffffffffffff\n            /* \"#utility.yul\":1550:1560   */\n          dup3\n            /* \"#utility.yul\":1547:1581   */\n          gt\n            /* \"#utility.yul\":1544:1606   */\n          or\n            /* \"#utility.yul\":1541:1629   */\n          iszero\n          tag_62\n          jumpi\n            /* \"#utility.yul\":1609:1627   */\n          tag_63\n          tag_18\n          jump\t// in\n        tag_63:\n            /* \"#utility.yul\":1541:1629   */\n        tag_62:\n            /* \"#utility.yul\":1649:1659   */\n          dup1\n            /* \"#utility.yul\":1645:1647   */\n          0x40\n            /* \"#utility.yul\":1638:1660   */\n          mstore\n            /* \"#utility.yul\":1428:1666   */\n          pop\n            /* \"#utility.yul\":1385:1666   */\n          pop\n          pop\n          jump\t// out\n            /* \"#utility.yul\":1672:1801   */\n        tag_20:\n            /* \"#utility.yul\":1706:1712   */\n          0x00\n            /* \"#utility.yul\":1733:1753   */\n          tag_65\n          tag_8\n          jump\t// in\n        tag_65:\n            /* \"#utility.yul\":1723:1753   */\n          swap1\n          pop\n            /* \"#utility.yul\":1762:1795   */\n          tag_66\n            /* \"#utility.yul\":1790:1794   */\n          dup3\n            /* \"#utility.yul\":1782:1788   */\n          dup3\n            /* \"#utility.yul\":1762:1795   */\n          tag_19\n          jump\t// in\n        tag_66:\n            /* \"#utility.yul\":1672:1801   */\n          swap2\n          swap1\n          pop\n          jump\t// out\n            /* \"#utility.yul\":1807:2115   */\n        tag_21:\n            /* \"#utility.yul\":1869:1873   */\n          0x00\n            /* \"#utility.yul\":1959:1977   */\n          0xffffffffffffffff\n            /* \"#utility.yul\":1951:1957   */\n          dup3\n            /* \"#utility.yul\":1948:1978   */\n          gt\n            /* \"#utility.yul\":1945:2001   */\n          iszero\n          tag_68\n          jumpi\n            /* \"#utility.yul\":1981:1999   */\n          tag_69\n          tag_18\n          jump\t// in\n        tag_69:\n            /* \"#utility.yul\":1945:2001   */\n        tag_68:\n            /* \"#utility.yul\":2019:2048   */\n          tag_70\n            /* \"#utility.yul\":2041:2047   */\n          dup3\n            /* \"#utility.yul\":2019:2048   */\n          tag_17\n          jump\t// in\n        tag_70:\n            /* \"#utility.yul\":2011:2048   */\n          swap1\n          pop\n            /* \"#utility.yul\":2103:2107   */\n          0x20\n            /* \"#utility.yul\":2097:2101   */\n          dup2\n            /* \"#utility.yul\":2093:2108   */\n          add\n            /* \"#utility.yul\":2085:2108   */\n          swap1\n          pop\n            /* \"#utility.yul\":1807:2115   */\n          swap2\n          swap1\n          pop\n          jump\t// out\n            /* \"#utility.yul\":2121:2367   */\n        tag_22:\n            /* \"#utility.yul\":2202:2203   */\n          0x00\n            /* \"#utility.yul\":2212:2325   */\n        tag_72:\n            /* \"#utility.yul\":2226:2232   */\n          dup4\n            /* \"#utility.yul\":2223:2224   */\n          dup2\n            /* \"#utility.yul\":2220:2233   */\n          lt\n            /* \"#utility.yul\":2212:2325   */\n          iszero\n          tag_74\n          jumpi\n            /* \"#utility.yul\":2311:2312   */\n          dup1\n            /* \"#utility.yul\":2306:2309   */\n          dup3\n            /* \"#utility.yul\":2302:2313   */\n          add\n            /* \"#utility.yul\":2296:2314   */\n          mload\n            /* \"#utility.yul\":2292:2293   */\n          dup2\n            /* \"#utility.yul\":2287:2290   */\n          dup5\n            /* \"#utility.yul\":2283:2294   */\n          add\n            /* \"#utility.yul\":2276:2315   */\n          mstore\n            /* \"#utility.yul\":2248:2250   */\n          0x20\n            /* \"#utility.yul\":2245:2246   */\n          dup2\n            /* \"#utility.yul\":2241:2251   */\n          add\n            /* \"#utility.yul\":2236:2251   */\n          swap1\n          pop\n            /* \"#utility.yul\":2212:2325   */\n          jump(tag_72)\n        tag_74:\n            /* \"#utility.yul\":2359:2360   */\n          0x00\n            /* \"#utility.yul\":2350:2356   */\n          dup5\n            /* \"#utility.yul\":2345:2348   */\n          dup5\n            /* \"#utility.yul\":2341:2357   */\n          add\n            /* \"#utility.yul\":2334:2361   */\n          mstore\n            /* \"#utility.yul\":2183:2367   */\n          pop\n            /* \"#utility.yul\":2121:2367   */\n          pop\n          pop\n          pop\n          jump\t// out\n            /* \"#utility.yul\":2373:2807   */\n        tag_23:\n            /* \"#utility.yul\":2462:2467   */\n          0x00\n            /* \"#utility.yul\":2487:2553   */\n          tag_76\n            /* \"#utility.yul\":2503:2552   */\n          tag_77\n            /* \"#utility.yul\":2545:2551   */\n          dup5\n            /* \"#utility.yul\":2503:2552   */\n          tag_21\n          jump\t// in\n        tag_77:\n            /* \"#utility.yul\":2487:2553   */\n          tag_20\n          jump\t// in\n        tag_76:\n            /* \"#utility.yul\":2478:2553   */\n          swap1\n          pop\n            /* \"#utility.yul\":2576:2582   */\n          dup3\n            /* \"#utility.yul\":2569:2574   */\n          dup2\n            /* \"#utility.yul\":2562:2583   */\n          mstore\n            /* \"#utility.yul\":2614:2618   */\n          0x20\n            /* \"#utility.yul\":2607:2612   */\n          dup2\n            /* \"#utility.yul\":2603:2619   */\n          add\n            /* \"#utility.yul\":2652:2655   */\n          dup5\n            /* \"#utility.yul\":2643:2649   */\n          dup5\n            /* \"#utility.yul\":2638:2641   */\n          dup5\n            /* \"#utility.yul\":2634:2650   */\n          add\n            /* \"#utility.yul\":2631:2656   */\n          gt\n            /* \"#utility.yul\":2628:2740   */\n          iszero\n          tag_78\n          jumpi\n            /* \"#utility.yul\":2659:2738   */\n          tag_79\n          tag_16\n          jump\t// in\n        tag_79:\n            /* \"#utility.yul\":2628:2740   */\n        tag_78:\n            /* \"#utility.yul\":2749:2801   */\n          tag_80\n            /* \"#utility.yul\":2794:2800   */\n          dup5\n            /* \"#utility.yul\":2789:2792   */\n          dup3\n            /* \"#utility.yul\":2784:2787   */\n          dup6\n            /* \"#utility.yul\":2749:2801   */\n          tag_22\n          jump\t// in\n        tag_80:\n            /* \"#utility.yul\":2468:2807   */\n          pop\n            /* \"#utility.yul\":2373:2807   */\n          swap4\n          swap3\n          pop\n          pop\n          pop\n          jump\t// out\n            /* \"#utility.yul\":2827:3182   */\n        tag_24:\n            /* \"#utility.yul\":2894:2899   */\n          0x00\n            /* \"#utility.yul\":2943:2946   */\n          dup3\n            /* \"#utility.yul\":2936:2940   */\n          0x1f\n            /* \"#utility.yul\":2928:2934   */\n          dup4\n            /* \"#utility.yul\":2924:2941   */\n          add\n            /* \"#utility.yul\":2920:2947   */\n          slt\n            /* \"#utility.yul\":2910:3032   */\n          tag_82\n          jumpi\n            /* \"#utility.yul\":2951:3030   */\n          tag_83\n          tag_15\n          jump\t// in\n        tag_83:\n            /* \"#utility.yul\":2910:3032   */\n        tag_82:\n            /* \"#utility.yul\":3061:3067   */\n          dup2\n            /* \"#utility.yul\":3055:3068   */\n          mload\n            /* \"#utility.yul\":3086:3176   */\n          tag_84\n            /* \"#utility.yul\":3172:3175   */\n          dup5\n            /* \"#utility.yul\":3164:3170   */\n          dup3\n            /* \"#utility.yul\":3157:3161   */\n          0x20\n            /* \"#utility.yul\":3149:3155   */\n          dup7\n            /* \"#utility.yul\":3145:3162   */\n          add\n            /* \"#utility.yul\":3086:3176   */\n          tag_23\n          jump\t// in\n        tag_84:\n            /* \"#utility.yul\":3077:3176   */\n          swap2\n          pop\n            /* \"#utility.yul\":2900:3182   */\n          pop\n            /* \"#utility.yul\":2827:3182   */\n          swap3\n          swap2\n          pop\n          pop\n          jump\t// out\n            /* \"#utility.yul\":3188:3868   */\n        tag_2:\n            /* \"#utility.yul\":3277:3283   */\n          0x00\n            /* \"#utility.yul\":3285:3291   */\n          dup1\n            /* \"#utility.yul\":3334:3336   */\n          0x40\n            /* \"#utility.yul\":3322:3331   */\n          dup4\n            /* \"#utility.yul\":3313:3320   */\n          dup6\n            /* \"#utility.yul\":3309:3332   */\n          sub\n            /* \"#utility.yul\":3305:3337   */\n          slt\n            /* \"#utility.yul\":3302:3421   */\n          iszero\n          tag_86\n          jumpi\n            /* \"#utility.yul\":3340:3419   */\n          tag_87\n          tag_9\n          jump\t// in\n        tag_87:\n            /* \"#utility.yul\":3302:3421   */\n        tag_86:\n            /* \"#utility.yul\":3460:3461   */\n          0x00\n            /* \"#utility.yul\":3485:3549   */\n          tag_88\n            /* \"#utility.yul\":3541:3548   */\n          dup6\n            /* \"#utility.yul\":3532:3538   */\n          dup3\n            /* \"#utility.yul\":3521:3530   */\n          dup7\n            /* \"#utility.yul\":3517:3539   */\n          add\n            /* \"#utility.yul\":3485:3549   */\n          tag_14\n          jump\t// in\n        tag_88:\n            /* \"#utility.yul\":3475:3549   */\n          swap3\n          pop\n            /* \"#utility.yul\":3431:3559   */\n          pop\n            /* \"#utility.yul\":3619:3621   */\n          0x20\n            /* \"#utility.yul\":3608:3617   */\n          dup4\n            /* \"#utility.yul\":3604:3622   */\n          add\n            /* \"#utility.yul\":3598:3623   */\n          mload\n            /* \"#utility.yul\":3650:3668   */\n          0xffffffffffffffff\n            /* \"#utility.yul\":3642:3648   */\n          dup2\n            /* \"#utility.yul\":3639:3669   */\n          gt\n            /* \"#utility.yul\":3636:3753   */\n          iszero\n          tag_89\n          jumpi\n            /* \"#utility.yul\":3672:3751   */\n          tag_90\n          tag_10\n          jump\t// in\n        tag_90:\n            /* \"#utility.yul\":3636:3753   */\n        tag_89:\n            /* \"#utility.yul\":3777:3851   */\n          tag_91\n            /* \"#utility.yul\":3843:3850   */\n          dup6\n            /* \"#utility.yul\":3834:3840   */\n          dup3\n            /* \"#utility.yul\":3823:3832   */\n          dup7\n            /* \"#utility.yul\":3819:3841   */\n          add\n            /* \"#utility.yul\":3777:3851   */\n          tag_24\n          jump\t// in\n        tag_91:\n            /* \"#utility.yul\":3767:3851   */\n          swap2\n          pop\n            /* \"#utility.yul\":3569:3861   */\n          pop\n            /* \"#utility.yul\":3188:3868   */\n          swap3\n          pop\n          swap3\n          swap1\n          pop\n          jump\t// out\n            /* \"#utility.yul\":3874:3973   */\n        tag_25:\n            /* \"#utility.yul\":3926:3932   */\n          0x00\n            /* \"#utility.yul\":3960:3965   */\n          dup2\n            /* \"#utility.yul\":3954:3966   */\n          mload\n            /* \"#utility.yul\":3944:3966   */\n          swap1\n          pop\n            /* \"#utility.yul\":3874:3973   */\n          swap2\n          swap1\n          pop\n          jump\t// out\n            /* \"#utility.yul\":3979:4159   */\n        tag_26:\n            /* \"#utility.yul\":4027:4104   */\n          0x4e487b7100000000000000000000000000000000000000000000000000000000\n            /* \"#utility.yul\":4024:4025   */\n          0x00\n            /* \"#utility.yul\":4017:4105   */\n          mstore\n            /* \"#utility.yul\":4124:4128   */\n          0x22\n            /* \"#utility.yul\":4121:4122   */\n          0x04\n            /* \"#utility.yul\":4114:4129   */\n          mstore\n            /* \"#utility.yul\":4148:4152   */\n          0x24\n            /* \"#utility.yul\":4145:4146   */\n          0x00\n            /* \"#utility.yul\":4138:4153   */\n          revert\n            /* \"#utility.yul\":4165:4485   */\n        tag_27:\n            /* \"#utility.yul\":4209:4215   */\n          0x00\n            /* \"#utility.yul\":4246:4247   */\n          0x02\n            /* \"#utility.yul\":4240:4244   */\n          dup3\n            /* \"#utility.yul\":4236:4248   */\n          div\n            /* \"#utility.yul\":4226:4248   */\n          swap1\n          pop\n            /* \"#utility.yul\":4293:4294   */\n          0x01\n            /* \"#utility.yul\":4287:4291   */\n          dup3\n            /* \"#utility.yul\":4283:4295   */\n          and\n            /* \"#utility.yul\":4314:4332   */\n          dup1\n            /* \"#utility.yul\":4304:4385   */\n          tag_95\n          jumpi\n            /* \"#utility.yul\":4370:4374   */\n          0x7f\n            /* \"#utility.yul\":4362:4368   */\n          dup3\n            /* \"#utility.yul\":4358:4375   */\n          and\n            /* \"#utility.yul\":4348:4375   */\n          swap2\n          pop\n            /* \"#utility.yul\":4304:4385   */\n        tag_95:\n            /* \"#utility.yul\":4432:4434   */\n          0x20\n            /* \"#utility.yul\":4424:4430   */\n          dup3\n            /* \"#utility.yul\":4421:4435   */\n          lt\n            /* \"#utility.yul\":4401:4419   */\n          dup2\n            /* \"#utility.yul\":4398:4436   */\n          sub\n            /* \"#utility.yul\":4395:4479   */\n          tag_96\n          jumpi\n            /* \"#utility.yul\":4451:4469   */\n          tag_97\n          tag_26\n          jump\t// in\n        tag_97:\n            /* \"#utility.yul\":4395:4479   */\n        tag_96:\n            /* \"#utility.yul\":4216:4485   */\n          pop\n            /* \"#utility.yul\":4165:4485   */\n          swap2\n          swap1\n          pop\n          jump\t// out\n            /* \"#utility.yul\":4491:4632   */\n        tag_28:\n            /* \"#utility.yul\":4540:4544   */\n          0x00\n            /* \"#utility.yul\":4563:4566   */\n          dup2\n            /* \"#utility.yul\":4555:4566   */\n          swap1\n          pop\n            /* \"#utility.yul\":4586:4589   */\n          dup2\n            /* \"#utility.yul\":4583:4584   */\n          0x00\n            /* \"#utility.yul\":4576:4590   */\n          mstore\n            /* \"#utility.yul\":4620:4624   */\n          0x20\n            /* \"#utility.yul\":4617:4618   */\n          0x00\n            /* \"#utility.yul\":4607:4625   */\n          keccak256\n            /* \"#utility.yul\":4599:4625   */\n          swap1\n          pop\n            /* \"#utility.yul\":4491:4632   */\n          swap2\n          swap1\n          pop\n          jump\t// out\n            /* \"#utility.yul\":4638:4731   */\n        tag_29:\n            /* \"#utility.yul\":4675:4681   */\n          0x00\n            /* \"#utility.yul\":4722:4724   */\n          0x20\n            /* \"#utility.yul\":4717:4719   */\n          0x1f\n            /* \"#utility.yul\":4710:4715   */\n          dup4\n            /* \"#utility.yul\":4706:4720   */\n          add\n            /* \"#utility.yul\":4702:4725   */\n          div\n            /* \"#utility.yul\":4692:4725   */\n          swap1\n          pop\n            /* \"#utility.yul\":4638:4731   */\n          swap2\n          swap1\n          pop\n          jump\t// out\n            /* \"#utility.yul\":4737:4844   */\n        tag_30:\n            /* \"#utility.yul\":4781:4789   */\n          0x00\n            /* \"#utility.yul\":4831:4836   */\n          dup3\n            /* \"#utility.yul\":4825:4829   */\n          dup3\n            /* \"#utility.yul\":4821:4837   */\n          shl\n            /* \"#utility.yul\":4800:4837   */\n          swap1\n          pop\n            /* \"#utility.yul\":4737:4844   */\n          swap3\n          swap2\n          pop\n          pop\n          jump\t// out\n            /* \"#utility.yul\":4850:5243   */\n        tag_31:\n            /* \"#utility.yul\":4919:4925   */\n          0x00\n            /* \"#utility.yul\":4969:4970   */\n          0x08\n            /* \"#utility.yul\":4957:4967   */\n          dup4\n            /* \"#utility.yul\":4953:4971   */\n          mul\n            /* \"#utility.yul\":4992:5089   */\n          tag_102\n            /* \"#utility.yul\":5022:5088   */\n          0xffffffffffffffffffffffffffffffffffffffffffffffffffffffffffffffff\n            /* \"#utility.yul\":5011:5020   */\n          dup3\n            /* \"#utility.yul\":4992:5089   */\n          tag_30\n          jump\t// in\n        tag_102:\n            /* \"#utility.yul\":5110:5149   */\n          tag_103\n            /* \"#utility.yul\":5140:5148   */\n          dup7\n            /* \"#utility.yul\":5129:5138   */\n          dup4\n            /* \"#utility.yul\":5110:5149   */\n          tag_30\n          jump\t// in\n        tag_103:\n            /* \"#utility.yul\":5098:5149   */\n          swap6\n          pop\n            /* \"#utility.yul\":5182:5186   */\n          dup1\n            /* \"#utility.yul\":5178:5187   */\n          not\n            /* \"#utility.yul\":5171:5176   */\n          dup5\n            /* \"#utility.yul\":5167:5188   */\n          and\n            /* \"#utility.yul\":5158:5188   */\n          swap4\n          pop\n            /* \"#utility.yul\":5231:5235   */\n          dup1\n            /* \"#utility.yul\":5221:5229   */\n          dup7\n            /* \"#utility.yul\":5217:5236   */\n          and\n            /* \"#utility.yul\":5210:5215   */\n          dup5\n            /* \"#utility.yul\":5207:5237   */\n          or\n            /* \"#utility.yul\":5197:5237   */\n          swap3\n          pop\n            /* \"#utility.yul\":4926:5243   */\n          pop\n          pop\n            /* \"#utility.yul\":4850:5243   */\n          swap4\n          swap3\n          pop\n          pop\n          pop\n          jump\t// out\n            /* \"#utility.yul\":5249:5326   */\n        tag_32:\n            /* \"#utility.yul\":5286:5293   */\n          0x00\n            /* \"#utility.yul\":5315:5320   */\n          dup2\n            /* \"#utility.yul\":5304:5320   */\n          swap1\n          pop\n            /* \"#utility.yul\":5249:5326   */\n          swap2\n          swap1\n          pop\n          jump\t// out\n            /* \"#utility.yul\":5332:5392   */\n        tag_33:\n            /* \"#utility.yul\":5360:5363   */\n          0x00\n            /* \"#utility.yul\":5381:5386   */\n          dup2\n            /* \"#utility.yul\":5374:5386   */\n          swap1\n          pop\n            /* \"#utility.yul\":5332:5392   */\n          swap2\n          swap1\n          pop\n          jump\t// out\n            /* \"#utility.yul\":5398:5540   */\n        tag_34:\n            /* \"#utility.yul\":5448:5457   */\n          0x00\n            /* \"#utility.yul\":5481:5534   */\n          tag_107\n            /* \"#utility.yul\":5499:5533   */\n          tag_108\n            /* \"#utility.yul\":5508:5532   */\n          tag_109\n            /* \"#utility.yul\":5526:5531   */\n          dup5\n            /* \"#utility.yul\":5508:5532   */\n          tag_32\n          jump\t// in\n        tag_109:\n            /* \"#utility.yul\":5499:5533   */\n          tag_33\n          jump\t// in\n        tag_108:\n            /* \"#utility.yul\":5481:5534   */\n          tag_32\n          jump\t// in\n        tag_107:\n            /* \"#utility.yul\":5468:5534   */\n          swap1\n          pop\n            /* \"#utility.yul\":5398:5540   */\n          swap2\n          swap1\n          pop\n          jump\t// out\n            /* \"#utility.yul\":5546:5621   */\n        tag_35:\n            /* \"#utility.yul\":5589:5592   */\n          0x00\n            /* \"#utility.yul\":5610:5615   */\n          dup2\n            /* \"#utility.yul\":5603:5615   */\n          swap1\n          pop\n            /* \"#utility.yul\":5546:5621   */\n          swap2\n          swap1\n          pop\n          jump\t// out\n            /* \"#utility.yul\":5627:5896   */\n        tag_36:\n            /* \"#utility.yul\":5737:5776   */\n          tag_112\n            /* \"#utility.yul\":5768:5775   */\n          dup4\n            /* \"#utility.yul\":5737:5776   */\n          tag_34\n          jump\t// in\n        tag_112:\n            /* \"#utility.yul\":5798:5889   */\n          tag_113\n            /* \"#utility.yul\":5847:5888   */\n          tag_114\n            /* \"#utility.yul\":5871:5887   */\n          dup3\n            /* \"#utility.yul\":5847:5888   */\n          tag_35\n          jump\t// in\n        tag_114:\n            /* \"#utility.yul\":5839:5845   */\n          dup5\n            /* \"#utility.yul\":5832:5836   */\n          dup5\n            /* \"#utility.yul\":5826:5837   */\n          sload\n            /* \"#utility.yul\":5798:5889   */\n          tag_31\n          jump\t// in\n        tag_113:\n            /* \"#utility.yul\":5792:5796   */\n          dup3\n            /* \"#utility.yul\":5785:5890   */\n          sstore\n            /* \"#utility.yul\":5703:5896   */\n          pop\n            /* \"#utility.yul\":5627:5896   */\n          pop\n          pop\n          pop\n          jump\t// out\n            /* \"#utility.yul\":5902:5975   */\n        tag_37:\n            /* \"#utility.yul\":5947:5950   */\n          0x00\n            /* \"#utility.yul\":5902:5975   */\n          swap1\n          jump\t// out\n            /* \"#utility.yul\":5981:6170   */\n        tag_38:\n            /* \"#utility.yul\":6058:6090   */\n          tag_117\n          tag_37\n          jump\t// in\n        tag_117:\n            /* \"#utility.yul\":6099:6164   */\n          tag_118\n            /* \"#utility.yul\":6157:6163   */\n          dup2\n            /* \"#utility.yul\":6149:6155   */\n          dup5\n            /* \"#utility.yul\":6143:6147   */\n          dup5\n            /* \"#utility.yul\":6099:6164   */\n          tag_36\n          jump\t// in\n        tag_118:\n            /* \"#utility.yul\":6034:6170   */\n          pop\n            /* \"#utility.yul\":5981:6170   */\n          pop\n          pop\n          jump\t// out\n            /* \"#utility.yul\":6176:6362   */\n        tag_39:\n            /* \"#utility.yul\":6236:6356   */\n        tag_120:\n            /* \"#utility.yul\":6253:6256   */\n          dup2\n            /* \"#utility.yul\":6246:6251   */\n          dup2\n            /* \"#utility.yul\":6243:6257   */\n          lt\n            /* \"#utility.yul\":6236:6356   */\n          iszero\n          tag_122\n          jumpi\n            /* \"#utility.yul\":6307:6346   */\n          tag_123\n            /* \"#utility.yul\":6344:6345   */\n          0x00\n            /* \"#utility.yul\":6337:6342   */\n          dup3\n            /* \"#utility.yul\":6307:6346   */\n          tag_38\n          jump\t// in\n        tag_123:\n            /* \"#utility.yul\":6280:6281   */\n          0x01\n            /* \"#utility.yul\":6273:6278   */\n          dup2\n            /* \"#utility.yul\":6269:6282   */\n          add\n            /* \"#utility.yul\":6260:6282   */\n          swap1\n          pop\n            /* \"#utility.yul\":6236:6356   */\n          jump(tag_120)\n        tag_122:\n            /* \"#utility.yul\":6176:6362   */\n          pop\n          pop\n          jump\t// out\n            /* \"#utility.yul\":6368:6911   */\n        tag_40:\n            /* \"#utility.yul\":6469:6471   */\n          0x1f\n            /* \"#utility.yul\":6464:6467   */\n          dup3\n            /* \"#utility.yul\":6461:6472   */\n          gt\n            /* \"#utility.yul\":6458:6904   */\n          iszero\n          tag_125\n          jumpi\n            /* \"#utility.yul\":6503:6541   */\n          tag_126\n            /* \"#utility.yul\":6535:6540   */\n          dup2\n            /* \"#utility.yul\":6503:6541   */\n          tag_28\n          jump\t// in\n        tag_126:\n            /* \"#utility.yul\":6587:6616   */\n          tag_127\n            /* \"#utility.yul\":6605:6615   */\n          dup5\n            /* \"#utility.yul\":6587:6616   */\n          tag_29\n          jump\t// in\n        tag_127:\n            /* \"#utility.yul\":6577:6585   */\n          dup2\n            /* \"#utility.yul\":6573:6617   */\n          add\n            /* \"#utility.yul\":6770:6772   */\n          0x20\n            /* \"#utility.yul\":6758:6768   */\n          dup6\n            /* \"#utility.yul\":6755:6773   */\n          lt\n            /* \"#utility.yul\":6752:6801   */\n          iszero\n          tag_128\n          jumpi\n            /* \"#utility.yul\":6791:6799   */\n          dup2\n            /* \"#utility.yul\":6776:6799   */\n          swap1\n          pop\n            /* \"#utility.yul\":6752:6801   */\n        tag_128:\n            /* \"#utility.yul\":6814:6894   */\n          tag_129\n            /* \"#utility.yul\":6870:6892   */\n          tag_130\n            /* \"#utility.yul\":6888:6891   */\n          dup6\n            /* \"#utility.yul\":6870:6892   */\n          tag_29\n          jump\t// in\n        tag_130:\n            /* \"#utility.yul\":6860:6868   */\n          dup4\n            /* \"#utility.yul\":6856:6893   */\n          add\n            /* \"#utility.yul\":6843:6854   */\n          dup3\n            /* \"#utility.yul\":6814:6894   */\n          tag_39\n          jump\t// in\n        tag_129:\n            /* \"#utility.yul\":6473:6904   */\n          pop\n          pop\n            /* \"#utility.yul\":6458:6904   */\n        tag_125:\n            /* \"#utility.yul\":6368:6911   */\n          pop\n          pop\n          pop\n          jump\t// out\n            /* \"#utility.yul\":6917:7034   */\n        tag_41:\n            /* \"#utility.yul\":6971:6979   */\n          0x00\n            /* \"#utility.yul\":7021:7026   */\n          dup3\n            /* \"#utility.yul\":7015:7019   */\n          dup3\n            /* \"#utility.yul\":7011:7027   */\n          shr\n            /* \"#utility.yul\":6990:7027   */\n          swap1\n          pop\n            /* \"#utility.yul\":6917:7034   */\n          swap3\n          swap2\n          pop\n          pop\n          jump\t// out\n            /* \"#utility.yul\":7040:7209   */\n        tag_42:\n            /* \"#utility.yul\":7084:7090   */\n          0x00\n            /* \"#utility.yul\":7117:7168   */\n          tag_133\n            /* \"#utility.yul\":7165:7166   */\n          0x00\n            /* \"#utility.yul\":7161:7167   */\n          not\n            /* \"#utility.yul\":7153:7158   */\n          dup5\n            /* \"#utility.yul\":7150:7151   */\n          0x08\n            /* \"#utility.yul\":7146:7159   */\n          mul\n            /* \"#utility.yul\":7117:7168   */\n          tag_41\n          jump\t// in\n        tag_133:\n            /* \"#utility.yul\":7113:7169   */\n          not\n            /* \"#utility.yul\":7198:7202   */\n          dup1\n            /* \"#utility.yul\":7192:7196   */\n          dup4\n            /* \"#utility.yul\":7188:7203   */\n          and\n            /* \"#utility.yul\":7178:7203   */\n          swap2\n          pop\n            /* \"#utility.yul\":7091:7209   */\n          pop\n            /* \"#utility.yul\":7040:7209   */\n          swap3\n          swap2\n          pop\n          pop\n          jump\t// out\n            /* \"#utility.yul\":7214:7509   */\n        tag_43:\n            /* \"#utility.yul\":7290:7294   */\n          0x00\n            /* \"#utility.yul\":7436:7465   */\n          tag_135\n            /* \"#utility.yul\":7461:7464   */\n          dup4\n            /* \"#utility.yul\":7455:7459   */\n          dup4\n            /* \"#utility.yul\":7436:7465   */\n          tag_42\n          jump\t// in\n        tag_135:\n            /* \"#utility.yul\":7428:7465   */\n          swap2\n          pop\n            /* \"#utility.yul\":7498:7501   */\n          dup3\n            /* \"#utility.yul\":7495:7496   */\n          0x02\n            /* \"#utility.yul\":7491:7502   */\n          mul\n            /* \"#utility.yul\":7485:7489   */\n          dup3\n            /* \"#utility.yul\":7482:7503   */\n          or\n            /* \"#utility.yul\":7474:7503   */\n          swap1\n          pop\n            /* \"#utility.yul\":7214:7509   */\n          swap3\n          swap2\n          pop\n          pop\n          jump\t// out\n            /* \"#utility.yul\":7514:8909   */\n        tag_6:\n            /* \"#utility.yul\":7631:7668   */\n          tag_137\n            /* \"#utility.yul\":7664:7667   */\n          dup3\n            /* \"#utility.yul\":7631:7668   */\n          tag_25\n          jump\t// in\n        tag_137:\n            /* \"#utility.yul\":7733:7751   */\n          0xffffffffffffffff\n            /* \"#utility.yul\":7725:7731   */\n          dup2\n            /* \"#utility.yul\":7722:7752   */\n          gt\n            /* \"#utility.yul\":7719:7775   */\n          iszero\n          tag_138\n          jumpi\n            /* \"#utility.yul\":7755:7773   */\n          tag_139\n          tag_18\n          jump\t// in\n        tag_139:\n            /* \"#utility.yul\":7719:7775   */\n        tag_138:\n            /* \"#utility.yul\":7799:7837   */\n          tag_140\n            /* \"#utility.yul\":7831:7835   */\n          dup3\n            /* \"#utility.yul\":7825:7836   */\n          sload\n            /* \"#utility.yul\":7799:7837   */\n          tag_27\n          jump\t// in\n        tag_140:\n            /* \"#utility.yul\":7884:7951   */\n          tag_141\n            /* \"#utility.yul\":7944:7950   */\n          dup3\n            /* \"#utility.yul\":7936:7942   */\n          dup3\n            /* \"#utility.yul\":7930:7934   */\n          dup6\n            /* \"#utility.yul\":7884:7951   */\n          tag_40\n          jump\t// in\n        tag_141:\n            /* \"#utility.yul\":7978:7979   */\n          0x00\n            /* \"#utility.yul\":8002:8006   */\n          0x20\n            /* \"#utility.yul\":7989:8006   */\n          swap1\n          pop\n            /* \"#utility.yul\":8034:8036   */\n          0x1f\n            /* \"#utility.yul\":8026:8032   */\n          dup4\n            /* \"#utility.yul\":8023:8037   */\n          gt\n            /* \"#utility.yul\":8051:8052   */\n          0x01\n            /* \"#utility.yul\":8046:8664   */\n          dup2\n          eq\n          tag_143\n          jumpi\n            /* \"#utility.yul\":8708:8709   */\n          0x00\n            /* \"#utility.yul\":8725:8731   */\n          dup5\n            /* \"#utility.yul\":8722:8799   */\n          iszero\n          tag_144\n          jumpi\n            /* \"#utility.yul\":8774:8783   */\n          dup3\n            /* \"#utility.yul\":8769:8772   */\n          dup8\n            /* \"#utility.yul\":8765:8784   */\n          add\n            /* \"#utility.yul\":8759:8785   */\n          mload\n            /* \"#utility.yul\":8750:8785   */\n          swap1\n          pop\n            /* \"#utility.yul\":8722:8799   */\n        tag_144:\n            /* \"#utility.yul\":8825:8892   */\n          tag_145\n            /* \"#utility.yul\":8885:8891   */\n          dup6\n            /* \"#utility.yul\":8878:8883   */\n          dup3\n            /* \"#utility.yul\":8825:8892   */\n          tag_43\n          jump\t// in\n        tag_145:\n            /* \"#utility.yul\":8819:8823   */\n          dup7\n            /* \"#utility.yul\":8812:8893   */\n          sstore\n            /* \"#utility.yul\":8681:8903   */\n          pop\n            /* \"#utility.yul\":8016:8903   */\n          jump(tag_142)\n            /* \"#utility.yul\":8046:8664   */\n        tag_143:\n            /* \"#utility.yul\":8098:8102   */\n          0x1f\n            /* \"#utility.yul\":8094:8103   */\n          not\n            /* \"#utility.yul\":8086:8092   */\n          dup5\n            /* \"#utility.yul\":8082:8104   */\n          and\n            /* \"#utility.yul\":8132:8169   */\n          tag_146\n            /* \"#utility.yul\":8164:8168   */\n          dup7\n            /* \"#utility.yul\":8132:8169   */\n          tag_28\n          jump\t// in\n        tag_146:\n            /* \"#utility.yul\":8191:8192   */\n          0x00\n            /* \"#utility.yul\":8205:8413   */\n        tag_147:\n            /* \"#utility.yul\":8219:8226   */\n          dup3\n            /* \"#utility.yul\":8216:8217   */\n          dup2\n            /* \"#utility.yul\":8213:8227   */\n          lt\n            /* \"#utility.yul\":8205:8413   */\n          iszero\n          tag_149\n          jumpi\n            /* \"#utility.yul\":8298:8307   */\n          dup5\n            /* \"#utility.yul\":8293:8296   */\n          dup10\n            /* \"#utility.yul\":8289:8308   */\n          add\n            /* \"#utility.yul\":8283:8309   */\n          mload\n            /* \"#utility.yul\":8275:8281   */\n          dup3\n            /* \"#utility.yul\":8268:8310   */\n          sstore\n            /* \"#utility.yul\":8349:8350   */\n          0x01\n            /* \"#utility.yul\":8341:8347   */\n          dup3\n            /* \"#utility.yul\":8337:8351   */\n          add\n            /* \"#utility.yul\":8327:8351   */\n          swap2\n          pop\n            /* \"#utility.yul\":8396:8398   */\n          0x20\n            /* \"#utility.yul\":8385:8394   */\n          dup6\n            /* \"#utility.yul\":8381:8399   */\n          add\n            /* \"#utility.yul\":8368:8399   */\n          swap5\n          pop\n            /* \"#utility.yul\":8242:8246   */\n          0x20\n            /* \"#utility.yul\":8239:8240   */\n          dup2\n            /* \"#utility.yul\":8235:8247   */\n          add\n            /* \"#utility.yul\":8230:8247   */\n          swap1\n          pop\n            /* \"#utility.yul\":8205:8413   */\n          jump(tag_147)\n        tag_149:\n            /* \"#utility.yul\":8441:8447   */\n          dup7\n            /* \"#utility.yul\":8432:8439   */\n          dup4\n            /* \"#utility.yul\":8429:8448   */\n          lt\n            /* \"#utility.yul\":8426:8605   */\n          iszero\n          tag_150\n          jumpi\n            /* \"#utility.yul\":8499:8508   */\n          dup5\n            /* \"#utility.yul\":8494:8497   */\n          dup10\n            /* \"#utility.yul\":8490:8509   */\n          add\n            /* \"#utility.yul\":8484:8510   */\n          mload\n            /* \"#utility.yul\":8542:8590   */\n          tag_151\n            /* \"#utility.yul\":8584:8588   */\n          0x1f\n            /* \"#utility.yul\":8576:8582   */\n          dup10\n            /* \"#utility.yul\":8572:8589   */\n          and\n            /* \"#utility.yul\":8561:8570   */\n          dup3\n            /* \"#utility.yul\":8542:8590   */\n          tag_42\n          jump\t// in\n        tag_151:\n            /* \"#utility.yul\":8534:8540   */\n          dup4\n            /* \"#utility.yul\":8527:8591   */\n          sstore\n            /* \"#utility.yul\":8449:8605   */\n          pop\n            /* \"#utility.yul\":8426:8605   */\n        tag_150:\n            /* \"#utility.yul\":8651:8652   */\n          0x01\n            /* \"#utility.yul\":8647:8648   */\n          0x02\n            /* \"#utility.yul\":8639:8645   */\n          dup9\n            /* \"#utility.yul\":8635:8649   */\n          mul\n            /* \"#utility.yul\":8631:8653   */\n          add\n            /* \"#utility.yul\":8625:8629   */\n          dup9\n            /* \"#utility.yul\":8618:8654   */\n          sstore\n            /* \"#utility.yul\":8053:8664   */\n          pop\n          pop\n          pop\n            /* \"#utility.yul\":8016:8903   */\n        tag_142:\n          pop\n            /* \"#utility.yul\":7606:8909   */\n          pop\n          pop\n          pop\n            /* \"#utility.yul\":7514:8909   */\n          pop\n          pop\n          jump\t// out\n            /* \"call-other-contract.sol\":70:327  contract Car {... */\n        tag_7:\n          dataSize(sub_0)\n          dup1\n          dataOffset(sub_0)\n          0x00\n          codecopy\n          0x00\n          return\n        stop\n\n        sub_0: assembly {\n                /* \"call-other-contract.sol\":70:327  contract Car {... */\n              mstore(0x40, 0x80)\n              callvalue\n              dup1\n              iszero\n              tag_1\n              jumpi\n              0x00\n              dup1\n              revert\n            tag_1:\n              pop\n              jumpi(tag_2, lt(calldatasize, 0x04))\n              shr(0xe0, calldataload(0x00))\n              dup1\n              0x0ad9d052\n              eq\n              tag_3\n              jumpi\n              dup1\n              0x514fa676\n              eq\n              tag_4\n              jumpi\n              dup1\n              0x8da5cb5b\n              eq\n              tag_5\n              jumpi\n            tag_2:\n              0x00\n              dup1\n              revert\n                /* \"call-other-contract.sol\":117:136  string public model */\n            tag_3:\n              tag_6\n              tag_7\n              jump\t// in\n            tag_6:\n              mload(0x40)\n              tag_8\n              swap2\n              swap1\n              tag_9\n              jump\t// in\n            tag_8:\n              mload(0x40)\n              dup1\n              swap2\n              sub\n              swap1\n              return\n                /* \"call-other-contract.sol\":143:165  address public carAddr */\n            tag_4:\n              tag_10\n              tag_11\n              jump\t// in\n            tag_10:\n              mload(0x40)\n              tag_12\n              swap2\n              swap1\n              tag_13\n              jump\t// in\n            tag_12:\n              mload(0x40)\n              dup1\n              swap2\n              sub\n              swap1\n              return\n                /* \"call-other-contract.sol\":90:110  address public owner */\n            tag_5:\n              tag_14\n              tag_15\n              jump\t// in\n            tag_14:\n              mload(0x40)\n              tag_16\n              swap2\n              swap1\n              tag_13\n              jump\t// in\n            tag_16:\n              mload(0x40)\n              dup1\n              swap2\n              sub\n              swap1\n              return\n                /* \"call-other-contract.sol\":117:136  string public model */\n            tag_7:\n              0x01\n              dup1\n              sload\n              tag_17\n              swap1\n              tag_18\n              jump\t// in\n            tag_17:\n              dup1\n              0x1f\n              add\n              0x20\n              dup1\n              swap2\n              div\n              mul\n              0x20\n              add\n              mload(0x40)\n              swap1\n              dup2\n              add\n              0x40\n              mstore\n              dup1\n              swap3\n              swap2\n              swap1\n              dup2\n              dup2\n              mstore\n              0x20\n              add\n              dup3\n              dup1\n              sload\n              tag_19\n              swap1\n              tag_18\n              jump\t// in\n            tag_19:\n              dup1\n              iszero\n              tag_20\n              jumpi\n              dup1\n              0x1f\n              lt\n              tag_21\n              jumpi\n              0x0100\n              dup1\n              dup4\n              sload\n              div\n              mul\n              dup4\n              mstore\n              swap2\n              0x20\n              add\n              swap2\n              jump(tag_20)\n            tag_21:\n              dup3\n              add\n              swap2\n              swap1\n              0x00\n              mstore\n              keccak256(0x00, 0x20)\n              swap1\n            tag_22:\n              dup2\n              sload\n              dup2\n              mstore\n              swap1\n              0x01\n              add\n              swap1\n              0x20\n              add\n              dup1\n              dup4\n              gt\n              tag_22\n              jumpi\n              dup3\n              swap1\n              sub\n              0x1f\n              and\n              dup3\n              add\n              swap2\n            tag_20:\n              pop\n              pop\n              pop\n              pop\n              pop\n              dup2\n              jump\t// out\n                /* \"call-other-contract.sol\":143:165  address public carAddr */\n            tag_11:\n              0x02\n              0x00\n              swap1\n              sload\n              swap1\n              0x0100\n              exp\n              swap1\n              div\n              0xffffffffffffffffffffffffffffffffffffffff\n              and\n              dup2\n              jump\t// out\n                /* \"call-other-contract.sol\":90:110  address public owner */\n            tag_15:\n              0x00\n              dup1\n              sload\n              swap1\n              0x0100\n              exp\n              swap1\n              div\n              0xffffffffffffffffffffffffffffffffffffffff\n              and\n              dup2\n              jump\t// out\n                /* \"#utility.yul\":7:106   */\n            tag_23:\n                /* \"#utility.yul\":59:65   */\n              0x00\n                /* \"#utility.yul\":93:98   */\n              dup2\n                /* \"#utility.yul\":87:99   */\n              mload\n                /* \"#utility.yul\":77:99   */\n              swap1\n              pop\n                /* \"#utility.yul\":7:106   */\n              swap2\n              swap1\n              pop\n              jump\t// out\n                /* \"#utility.yul\":112:281   */\n            tag_24:\n                /* \"#utility.yul\":196:207   */\n              0x00\n                /* \"#utility.yul\":230:236   */\n              dup3\n                /* \"#utility.yul\":225:228   */\n              dup3\n                /* \"#utility.yul\":218:237   */\n              mstore\n                /* \"#utility.yul\":270:274   */\n              0x20\n                /* \"#utility.yul\":265:268   */\n              dup3\n                /* \"#utility.yul\":261:275   */\n              add\n                /* \"#utility.yul\":246:275   */\n              swap1\n              pop\n                /* \"#utility.yul\":112:281   */\n              swap3\n              swap2\n              pop\n              pop\n              jump\t// out\n                /* \"#utility.yul\":287:533   */\n            tag_25:\n                /* \"#utility.yul\":368:369   */\n              0x00\n                /* \"#utility.yul\":378:491   */\n            tag_36:\n                /* \"#utility.yul\":392:398   */\n              dup4\n                /* \"#utility.yul\":389:390   */\n              dup2\n                /* \"#utility.yul\":386:399   */\n              lt\n                /* \"#utility.yul\":378:491   */\n              iszero\n              tag_38\n              jumpi\n                /* \"#utility.yul\":477:478   */\n              dup1\n                /* \"#utility.yul\":472:475   */\n              dup3\n                /* \"#utility.yul\":468:479   */\n              add\n                /* \"#utility.yul\":462:480   */\n              mload\n                /* \"#utility.yul\":458:459   */\n              dup2\n                /* \"#utility.yul\":453:456   */\n              dup5\n                /* \"#utility.yul\":449:460   */\n              add\n                /* \"#utility.yul\":442:481   */\n              mstore\n                /* \"#utility.yul\":414:416   */\n              0x20\n                /* \"#utility.yul\":411:412   */\n              dup2\n                /* \"#utility.yul\":407:417   */\n              add\n                /* \"#utility.yul\":402:417   */\n              swap1\n              pop\n                /* \"#utility.yul\":378:491   */\n              jump(tag_36)\n            tag_38:\n                /* \"#utility.yul\":525:526   */\n              0x00\n                /* \"#utility.yul\":516:522   */\n              dup5\n                /* \"#utility.yul\":511:514   */\n              dup5\n                /* \"#utility.yul\":507:523   */\n              add\n                /* \"#utility.yul\":500:527   */\n              mstore\n                /* \"#utility.yul\":349:533   */\n              pop\n                /* \"#utility.yul\":287:533   */\n              pop\n              pop\n              pop\n              jump\t// out\n                /* \"#utility.yul\":539:641   */\n            tag_26:\n                /* \"#utility.yul\":580:586   */\n              0x00\n                /* \"#utility.yul\":631:633   */\n              0x1f\n                /* \"#utility.yul\":627:634   */\n              not\n                /* \"#utility.yul\":622:624   */\n              0x1f\n                /* \"#utility.yul\":615:620   */\n              dup4\n                /* \"#utility.yul\":611:625   */\n              add\n                /* \"#utility.yul\":607:635   */\n              and\n                /* \"#utility.yul\":597:635   */\n              swap1\n              pop\n                /* \"#utility.yul\":539:641   */\n              swap2\n              swap1\n              pop\n              jump\t// out\n                /* \"#utility.yul\":647:1024   */\n            tag_27:\n                /* \"#utility.yul\":735:738   */\n              0x00\n                /* \"#utility.yul\":763:802   */\n              tag_41\n                /* \"#utility.yul\":796:801   */\n              dup3\n                /* \"#utility.yul\":763:802   */\n              tag_23\n              jump\t// in\n            tag_41:\n                /* \"#utility.yul\":818:889   */\n              tag_42\n                /* \"#utility.yul\":882:888   */\n              dup2\n                /* \"#utility.yul\":877:880   */\n              dup6\n                /* \"#utility.yul\":818:889   */\n              tag_24\n              jump\t// in\n            tag_42:\n                /* \"#utility.yul\":811:889   */\n              swap4\n              pop\n                /* \"#utility.yul\":898:963   */\n              tag_43\n                /* \"#utility.yul\":956:962   */\n              dup2\n                /* \"#utility.yul\":951:954   */\n              dup6\n                /* \"#utility.yul\":944:948   */\n              0x20\n                /* \"#utility.yul\":937:942   */\n              dup7\n                /* \"#utility.yul\":933:949   */\n              add\n                /* \"#utility.yul\":898:963   */\n              tag_25\n              jump\t// in\n            tag_43:\n                /* \"#utility.yul\":988:1017   */\n              tag_44\n                /* \"#utility.yul\":1010:1016   */\n              dup2\n                /* \"#utility.yul\":988:1017   */\n              tag_26\n              jump\t// in\n            tag_44:\n                /* \"#utility.yul\":983:986   */\n              dup5\n                /* \"#utility.yul\":979:1018   */\n              add\n                /* \"#utility.yul\":972:1018   */\n              swap2\n              pop\n                /* \"#utility.yul\":739:1024   */\n              pop\n                /* \"#utility.yul\":647:1024   */\n              swap3\n              swap2\n              pop\n              pop\n              jump\t// out\n                /* \"#utility.yul\":1030:1343   */\n            tag_9:\n                /* \"#utility.yul\":1143:1147   */\n              0x00\n                /* \"#utility.yul\":1181:1183   */\n              0x20\n                /* \"#utility.yul\":1170:1179   */\n              dup3\n                /* \"#utility.yul\":1166:1184   */\n              add\n                /* \"#utility.yul\":1158:1184   */\n              swap1\n              pop\n                /* \"#utility.yul\":1230:1239   */\n              dup2\n                /* \"#utility.yul\":1224:1228   */\n              dup2\n                /* \"#utility.yul\":1220:1240   */\n              sub\n                /* \"#utility.yul\":1216:1217   */\n              0x00\n                /* \"#utility.yul\":1205:1214   */\n              dup4\n                /* \"#utility.yul\":1201:1218   */\n              add\n                /* \"#utility.yul\":1194:1241   */\n              mstore\n                /* \"#utility.yul\":1258:1336   */\n              tag_46\n                /* \"#utility.yul\":1331:1335   */\n              dup2\n                /* \"#utility.yul\":1322:1328   */\n              dup5\n                /* \"#utility.yul\":1258:1336   */\n              tag_27\n              jump\t// in\n            tag_46:\n                /* \"#utility.yul\":1250:1336   */\n              swap1\n              pop\n                /* \"#utility.yul\":1030:1343   */\n              swap3\n              swap2\n              pop\n              pop\n              jump\t// out\n                /* \"#utility.yul\":1349:1475   */\n            tag_28:\n                /* \"#utility.yul\":1386:1393   */\n              0x00\n                /* \"#utility.yul\":1426:1468   */\n              0xffffffffffffffffffffffffffffffffffffffff\n                /* \"#utility.yul\":1419:1424   */\n              dup3\n                /* \"#utility.yul\":1415:1469   */\n              and\n                /* \"#utility.yul\":1404:1469   */\n              swap1\n              pop\n                /* \"#utility.yul\":1349:1475   */\n              swap2\n              swap1\n              pop\n              jump\t// out\n                /* \"#utility.yul\":1481:1577   */\n            tag_29:\n                /* \"#utility.yul\":1518:1525   */\n              0x00\n                /* \"#utility.yul\":1547:1571   */\n              tag_49\n                /* \"#utility.yul\":1565:1570   */\n              dup3\n                /* \"#utility.yul\":1547:1571   */\n              tag_28\n              jump\t// in\n            tag_49:\n                /* \"#utility.yul\":1536:1571   */\n              swap1\n              pop\n                /* \"#utility.yul\":1481:1577   */\n              swap2\n              swap1\n              pop\n              jump\t// out\n                /* \"#utility.yul\":1583:1701   */\n            tag_30:\n                /* \"#utility.yul\":1670:1694   */\n              tag_51\n                /* \"#utility.yul\":1688:1693   */\n              dup2\n                /* \"#utility.yul\":1670:1694   */\n              tag_29\n              jump\t// in\n            tag_51:\n                /* \"#utility.yul\":1665:1668   */\n              dup3\n                /* \"#utility.yul\":1658:1695   */\n              mstore\n                /* \"#utility.yul\":1583:1701   */\n              pop\n              pop\n              jump\t// out\n                /* \"#utility.yul\":1707:1929   */\n            tag_13:\n                /* \"#utility.yul\":1800:1804   */\n              0x00\n                /* \"#utility.yul\":1838:1840   */\n              0x20\n                /* \"#utility.yul\":1827:1836   */\n              dup3\n                /* \"#utility.yul\":1823:1841   */\n              add\n                /* \"#utility.yul\":1815:1841   */\n              swap1\n              pop\n                /* \"#utility.yul\":1851:1922   */\n              tag_53\n                /* \"#utility.yul\":1919:1920   */\n              0x00\n                /* \"#utility.yul\":1908:1917   */\n              dup4\n                /* \"#utility.yul\":1904:1921   */\n              add\n                /* \"#utility.yul\":1895:1901   */\n              dup5\n                /* \"#utility.yul\":1851:1922   */\n              tag_30\n              jump\t// in\n            tag_53:\n                /* \"#utility.yul\":1707:1929   */\n              swap3\n              swap2\n              pop\n              pop\n              jump\t// out\n                /* \"#utility.yul\":1935:2115   */\n            tag_31:\n                /* \"#utility.yul\":1983:2060   */\n              0x4e487b7100000000000000000000000000000000000000000000000000000000\n                /* \"#utility.yul\":1980:1981   */\n              0x00\n                /* \"#utility.yul\":1973:2061   */\n              mstore\n                /* \"#utility.yul\":2080:2084   */\n              0x22\n                /* \"#utility.yul\":2077:2078   */\n              0x04\n                /* \"#utility.yul\":2070:2085   */\n              mstore\n                /* \"#utility.yul\":2104:2108   */\n              0x24\n                /* \"#utility.yul\":2101:2102   */\n              0x00\n                /* \"#utility.yul\":2094:2109   */\n              revert\n                /* \"#utility.yul\":2121:2441   */\n            tag_18:\n                /* \"#utility.yul\":2165:2171   */\n              0x00\n                /* \"#utility.yul\":2202:2203   */\n              0x02\n                /* \"#utility.yul\":2196:2200   */\n              dup3\n                /* \"#utility.yul\":2192:2204   */\n              div\n                /* \"#utility.yul\":2182:2204   */\n              swap1\n              pop\n                /* \"#utility.yul\":2249:2250   */\n              0x01\n                /* \"#utility.yul\":2243:2247   */\n              dup3\n                /* \"#utility.yul\":2239:2251   */\n              and\n                /* \"#utility.yul\":2270:2288   */\n              dup1\n                /* \"#utility.yul\":2260:2341   */\n              tag_56\n              jumpi\n                /* \"#utility.yul\":2326:2330   */\n              0x7f\n                /* \"#utility.yul\":2318:2324   */\n              dup3\n                /* \"#utility.yul\":2314:2331   */\n              and\n                /* \"#utility.yul\":2304:2331   */\n              swap2\n              pop\n                /* \"#utility.yul\":2260:2341   */\n            tag_56:\n                /* \"#utility.yul\":2388:2390   */\n              0x20\n                /* \"#utility.yul\":2380:2386   */\n              dup3\n                /* \"#utility.yul\":2377:2391   */\n              lt\n                /* \"#utility.yul\":2357:2375   */\n              dup2\n                /* \"#utility.yul\":2354:2392   */\n              sub\n                /* \"#utility.yul\":2351:2435   */\n              tag_57\n              jumpi\n                /* \"#utility.yul\":2407:2425   */\n              tag_58\n              tag_31\n              jump\t// in\n            tag_58:\n                /* \"#utility.yul\":2351:2435   */\n            tag_57:\n                /* \"#utility.yul\":2172:2441   */\n              pop\n                /* \"#utility.yul\":2121:2441   */\n              swap2\n              swap1\n              pop\n              jump\t// out\n\n            auxdata: 0xa26469706673582212203231942a6148d39a9714e3143f4bf193686e6ba198e5419ea6d80faa4afc889564736f6c63430008120033\n        }\n    }\n\n    auxdata: 0xa26469706673582212205363171073bd29ad07b394cf9d0a5c97c71a060bd7414766661537d255a90b2964736f6c63430008120033\n}\n",
				"bytecode": {
					"linkReferences": {},
					"object": "608060405234801561001057600080fd5b506113f5806100206000396000f3fe608060405260043610620000445760003560e01c80635e8be1901462000049578063a15ab08d1462000090578063c33cd61514620000be578063f7746e3614620000de575b600080fd5b3480156200005657600080fd5b506200007560048036038101906200006f9190620004de565b62000122565b60405162000087949392919062000600565b60405180910390f35b3480156200009d57600080fd5b50620000bc6004803603810190620000b69190620007d6565b620002f1565b005b620000dc6004803603810190620000d69190620007d6565b62000398565b005b348015620000eb57600080fd5b506200010a6004803603810190620001049190620004de565b62000441565b604051620001199190620008a7565b60405180910390f35b600060606000806000808681548110620001415762000140620008c4565b5b9060005260206000200160009054906101000a900473ffffffffffffffffffffffffffffffffffffffff1690508073ffffffffffffffffffffffffffffffffffffffff16638da5cb5b6040518163ffffffff1660e01b8152600401602060405180830381865afa158015620001ba573d6000803e3d6000fd5b505050506040513d601f19601f82011682018060405250810190620001e091906200090a565b8173ffffffffffffffffffffffffffffffffffffffff16630ad9d0526040518163ffffffff1660e01b8152600401600060405180830381865afa1580156200022c573d6000803e3d6000fd5b505050506040513d6000823e3d601f19601f82011682018060405250810190620002579190620009ba565b8273ffffffffffffffffffffffffffffffffffffffff1663514fa6766040518163ffffffff1660e01b8152600401602060405180830381865afa158015620002a3573d6000803e3d6000fd5b505050506040513d601f19601f82011682018060405250810190620002c991906200090a565b8373ffffffffffffffffffffffffffffffffffffffff16319450945094509450509193509193565b60008282604051620003039062000481565b6200031092919062000a0b565b604051809103906000f0801580156200032d573d6000803e3d6000fd5b5090506000819080600181540180825580915050600190039060005260206000200160009091909190916101000a81548173ffffffffffffffffffffffffffffffffffffffff021916908373ffffffffffffffffffffffffffffffffffffffff160217905550505050565b6000348383604051620003ab9062000481565b620003b892919062000a0b565b6040518091039082f0905080158015620003d6573d6000803e3d6000fd5b5090506000819080600181540180825580915050600190039060005260206000200160009091909190916101000a81548173ffffffffffffffffffffffffffffffffffffffff021916908373ffffffffffffffffffffffffffffffffffffffff160217905550505050565b600081815481106200045257600080fd5b906000526020600020016000915054906101000a900473ffffffffffffffffffffffffffffffffffffffff1681565b6109808062000a4083390190565b6000604051905090565b600080fd5b600080fd5b6000819050919050565b620004b881620004a3565b8114620004c457600080fd5b50565b600081359050620004d881620004ad565b92915050565b600060208284031215620004f757620004f662000499565b5b60006200050784828501620004c7565b91505092915050565b600073ffffffffffffffffffffffffffffffffffffffff82169050919050565b60006200053d8262000510565b9050919050565b6200054f8162000530565b82525050565b600081519050919050565b600082825260208201905092915050565b60005b838110156200059157808201518184015260208101905062000574565b60008484015250505050565b6000601f19601f8301169050919050565b6000620005bb8262000555565b620005c7818562000560565b9350620005d981856020860162000571565b620005e4816200059d565b840191505092915050565b620005fa81620004a3565b82525050565b600060808201905062000617600083018762000544565b81810360208301526200062b8186620005ae565b90506200063c604083018562000544565b6200064b6060830184620005ef565b95945050505050565b6200065f8162000530565b81146200066b57600080fd5b50565b6000813590506200067f8162000654565b92915050565b600080fd5b600080fd5b7f4e487b7100000000000000000000000000000000000000000000000000000000600052604160045260246000fd5b620006c9826200059d565b810181811067ffffffffffffffff82111715620006eb57620006ea6200068f565b5b80604052505050565b6000620007006200048f565b90506200070e8282620006be565b919050565b600067ffffffffffffffff8211156200073157620007306200068f565b5b6200073c826200059d565b9050602081019050919050565b82818337600083830152505050565b60006200076f620007698462000713565b620006f4565b9050828152602081018484840111156200078e576200078d6200068a565b5b6200079b84828562000749565b509392505050565b600082601f830112620007bb57620007ba62000685565b5b8135620007cd84826020860162000758565b91505092915050565b60008060408385031215620007f057620007ef62000499565b5b600062000800858286016200066e565b925050602083013567ffffffffffffffff8111156200082457620008236200049e565b5b6200083285828601620007a3565b9150509250929050565b6000819050919050565b600062000867620008616200085b8462000510565b6200083c565b62000510565b9050919050565b60006200087b8262000846565b9050919050565b60006200088f826200086e565b9050919050565b620008a18162000882565b82525050565b6000602082019050620008be600083018462000896565b92915050565b7f4e487b7100000000000000000000000000000000000000000000000000000000600052603260045260246000fd5b600081519050620009048162000654565b92915050565b60006020828403121562000923576200092262000499565b5b60006200093384828501620008f3565b91505092915050565b6000620009536200094d8462000713565b620006f4565b9050828152602081018484840111156200097257620009716200068a565b5b6200097f84828562000571565b509392505050565b600082601f8301126200099f576200099e62000685565b5b8151620009b18482602086016200093c565b91505092915050565b600060208284031215620009d357620009d262000499565b5b600082015167ffffffffffffffff811115620009f457620009f36200049e565b5b62000a028482850162000987565b91505092915050565b600060408201905062000a22600083018562000544565b818103602083015262000a368184620005ae565b9050939250505056fe608060405260405162000980380380620009808339818101604052810190620000299190620002bc565b816000806101000a81548173ffffffffffffffffffffffffffffffffffffffff021916908373ffffffffffffffffffffffffffffffffffffffff16021790555080600190816200007a91906200056d565b5030600260006101000a81548173ffffffffffffffffffffffffffffffffffffffff021916908373ffffffffffffffffffffffffffffffffffffffff160217905550505062000654565b6000604051905090565b600080fd5b600080fd5b600073ffffffffffffffffffffffffffffffffffffffff82169050919050565b60006200010582620000d8565b9050919050565b6200011781620000f8565b81146200012357600080fd5b50565b60008151905062000137816200010c565b92915050565b600080fd5b600080fd5b6000601f19601f8301169050919050565b7f4e487b7100000000000000000000000000000000000000000000000000000000600052604160045260246000fd5b620001928262000147565b810181811067ffffffffffffffff82111715620001b457620001b362000158565b5b80604052505050565b6000620001c9620000c4565b9050620001d7828262000187565b919050565b600067ffffffffffffffff821115620001fa57620001f962000158565b5b620002058262000147565b9050602081019050919050565b60005b838110156200023257808201518184015260208101905062000215565b60008484015250505050565b6000620002556200024f84620001dc565b620001bd565b90508281526020810184848401111562000274576200027362000142565b5b6200028184828562000212565b509392505050565b600082601f830112620002a157620002a06200013d565b5b8151620002b38482602086016200023e565b91505092915050565b60008060408385031215620002d657620002d5620000ce565b5b6000620002e68582860162000126565b925050602083015167ffffffffffffffff8111156200030a5762000309620000d3565b5b620003188582860162000289565b9150509250929050565b600081519050919050565b7f4e487b7100000000000000000000000000000000000000000000000000000000600052602260045260246000fd5b600060028204905060018216806200037557607f821691505b6020821081036200038b576200038a6200032d565b5b50919050565b60008190508160005260206000209050919050565b60006020601f8301049050919050565b600082821b905092915050565b600060088302620003f57fffffffffffffffffffffffffffffffffffffffffffffffffffffffffffffffff82620003b6565b620004018683620003b6565b95508019841693508086168417925050509392505050565b6000819050919050565b6000819050919050565b60006200044e62000448620004428462000419565b62000423565b62000419565b9050919050565b6000819050919050565b6200046a836200042d565b62000482620004798262000455565b848454620003c3565b825550505050565b600090565b620004996200048a565b620004a68184846200045f565b505050565b5b81811015620004ce57620004c26000826200048f565b600181019050620004ac565b5050565b601f8211156200051d57620004e78162000391565b620004f284620003a6565b8101602085101562000502578190505b6200051a6200051185620003a6565b830182620004ab565b50505b505050565b600082821c905092915050565b6000620005426000198460080262000522565b1980831691505092915050565b60006200055d83836200052f565b9150826002028217905092915050565b620005788262000322565b67ffffffffffffffff81111562000594576200059362000158565b5b620005a082546200035c565b620005ad828285620004d2565b600060209050601f831160018114620005e55760008415620005d0578287015190505b620005dc85826200054f565b8655506200064c565b601f198416620005f58662000391565b60005b828110156200061f57848901518255600182019150602085019450602081019050620005f8565b868310156200063f57848901516200063b601f8916826200052f565b8355505b6001600288020188555050505b505050505050565b61031c80620006646000396000f3fe608060405234801561001057600080fd5b50600436106100415760003560e01c80630ad9d05214610046578063514fa676146100645780638da5cb5b14610082575b600080fd5b61004e6100a0565b60405161005b9190610208565b60405180910390f35b61006c61012e565b604051610079919061026b565b60405180910390f35b61008a610154565b604051610097919061026b565b60405180910390f35b600180546100ad906102b5565b80601f01602080910402602001604051908101604052809291908181526020018280546100d9906102b5565b80156101265780601f106100fb57610100808354040283529160200191610126565b820191906000526020600020905b81548152906001019060200180831161010957829003601f168201915b505050505081565b600260009054906101000a900473ffffffffffffffffffffffffffffffffffffffff1681565b60008054906101000a900473ffffffffffffffffffffffffffffffffffffffff1681565b600081519050919050565b600082825260208201905092915050565b60005b838110156101b2578082015181840152602081019050610197565b60008484015250505050565b6000601f19601f8301169050919050565b60006101da82610178565b6101e48185610183565b93506101f4818560208601610194565b6101fd816101be565b840191505092915050565b6000602082019050818103600083015261022281846101cf565b905092915050565b600073ffffffffffffffffffffffffffffffffffffffff82169050919050565b60006102558261022a565b9050919050565b6102658161024a565b82525050565b6000602082019050610280600083018461025c565b92915050565b7f4e487b7100000000000000000000000000000000000000000000000000000000600052602260045260246000fd5b600060028204905060018216806102cd57607f821691505b6020821081036102e0576102df610286565b5b5091905056fea26469706673582212203231942a6148d39a9714e3143f4bf193686e6ba198e5419ea6d80faa4afc889564736f6c63430008120033a26469706673582212205363171073bd29ad07b394cf9d0a5c97c71a060bd7414766661537d255a90b2964736f6c63430008120033",
					"opcodes": "PUSH1 0x80 PUSH1 0x40 MSTORE CALLVALUE DUP1 ISZERO PUSH2 0x10 JUMPI PUSH1 0x0 DUP1 REVERT JUMPDEST POP PUSH2 0x13F5 DUP1 PUSH2 0x20 PUSH1 0x0 CODECOPY PUSH1 0x0 RETURN INVALID PUSH1 0x80 PUSH1 0x40 MSTORE PUSH1 0x4 CALLDATASIZE LT PUSH3 0x44 JUMPI PUSH1 0x0 CALLDATALOAD PUSH1 0xE0 SHR DUP1 PUSH4 0x5E8BE190 EQ PUSH3 0x49 JUMPI DUP1 PUSH4 0xA15AB08D EQ PUSH3 0x90 JUMPI DUP1 PUSH4 0xC33CD615 EQ PUSH3 0xBE JUMPI DUP1 PUSH4 0xF7746E36 EQ PUSH3 0xDE JUMPI JUMPDEST PUSH1 0x0 DUP1 REVERT JUMPDEST CALLVALUE DUP1 ISZERO PUSH3 0x56 JUMPI PUSH1 0x0 DUP1 REVERT JUMPDEST POP PUSH3 0x75 PUSH1 0x4 DUP1 CALLDATASIZE SUB DUP2 ADD SWAP1 PUSH3 0x6F SWAP2 SWAP1 PUSH3 0x4DE JUMP JUMPDEST PUSH3 0x122 JUMP JUMPDEST PUSH1 0x40 MLOAD PUSH3 0x87 SWAP5 SWAP4 SWAP3 SWAP2 SWAP1 PUSH3 0x600 JUMP JUMPDEST PUSH1 0x40 MLOAD DUP1 SWAP2 SUB SWAP1 RETURN JUMPDEST CALLVALUE DUP1 ISZERO PUSH3 0x9D JUMPI PUSH1 0x0 DUP1 REVERT JUMPDEST POP PUSH3 0xBC PUSH1 0x4 DUP1 CALLDATASIZE SUB DUP2 ADD SWAP1 PUSH3 0xB6 SWAP2 SWAP1 PUSH3 0x7D6 JUMP JUMPDEST PUSH3 0x2F1 JUMP JUMPDEST STOP JUMPDEST PUSH3 0xDC PUSH1 0x4 DUP1 CALLDATASIZE SUB DUP2 ADD SWAP1 PUSH3 0xD6 SWAP2 SWAP1 PUSH3 0x7D6 JUMP JUMPDEST PUSH3 0x398 JUMP JUMPDEST STOP JUMPDEST CALLVALUE DUP1 ISZERO PUSH3 0xEB JUMPI PUSH1 0x0 DUP1 REVERT JUMPDEST POP PUSH3 0x10A PUSH1 0x4 DUP1 CALLDATASIZE SUB DUP2 ADD SWAP1 PUSH3 0x104 SWAP2 SWAP1 PUSH3 0x4DE JUMP JUMPDEST PUSH3 0x441 JUMP JUMPDEST PUSH1 0x40 MLOAD PUSH3 0x119 SWAP2 SWAP1 PUSH3 0x8A7 JUMP JUMPDEST PUSH1 0x40 MLOAD DUP1 SWAP2 SUB SWAP1 RETURN JUMPDEST PUSH1 0x0 PUSH1 0x60 PUSH1 0x0 DUP1 PUSH1 0x0 DUP1 DUP7 DUP2 SLOAD DUP2 LT PUSH3 0x141 JUMPI PUSH3 0x140 PUSH3 0x8C4 JUMP JUMPDEST JUMPDEST SWAP1 PUSH1 0x0 MSTORE PUSH1 0x20 PUSH1 0x0 KECCAK256 ADD PUSH1 0x0 SWAP1 SLOAD SWAP1 PUSH2 0x100 EXP SWAP1 DIV PUSH20 0xFFFFFFFFFFFFFFFFFFFFFFFFFFFFFFFFFFFFFFFF AND SWAP1 POP DUP1 PUSH20 0xFFFFFFFFFFFFFFFFFFFFFFFFFFFFFFFFFFFFFFFF AND PUSH4 0x8DA5CB5B PUSH1 0x40 MLOAD DUP2 PUSH4 0xFFFFFFFF AND PUSH1 0xE0 SHL DUP2 MSTORE PUSH1 0x4 ADD PUSH1 0x20 PUSH1 0x40 MLOAD DUP1 DUP4 SUB DUP2 DUP7 GAS STATICCALL ISZERO DUP1 ISZERO PUSH3 0x1BA JUMPI RETURNDATASIZE PUSH1 0x0 DUP1 RETURNDATACOPY RETURNDATASIZE PUSH1 0x0 REVERT JUMPDEST POP POP POP POP PUSH1 0x40 MLOAD RETURNDATASIZE PUSH1 0x1F NOT PUSH1 0x1F DUP3 ADD AND DUP3 ADD DUP1 PUSH1 0x40 MSTORE POP DUP2 ADD SWAP1 PUSH3 0x1E0 SWAP2 SWAP1 PUSH3 0x90A JUMP JUMPDEST DUP2 PUSH20 0xFFFFFFFFFFFFFFFFFFFFFFFFFFFFFFFFFFFFFFFF AND PUSH4 0xAD9D052 PUSH1 0x40 MLOAD DUP2 PUSH4 0xFFFFFFFF AND PUSH1 0xE0 SHL DUP2 MSTORE PUSH1 0x4 ADD PUSH1 0x0 PUSH1 0x40 MLOAD DUP1 DUP4 SUB DUP2 DUP7 GAS STATICCALL ISZERO DUP1 ISZERO PUSH3 0x22C JUMPI RETURNDATASIZE PUSH1 0x0 DUP1 RETURNDATACOPY RETURNDATASIZE PUSH1 0x0 REVERT JUMPDEST POP POP POP POP PUSH1 0x40 MLOAD RETURNDATASIZE PUSH1 0x0 DUP3 RETURNDATACOPY RETURNDATASIZE PUSH1 0x1F NOT PUSH1 0x1F DUP3 ADD AND DUP3 ADD DUP1 PUSH1 0x40 MSTORE POP DUP2 ADD SWAP1 PUSH3 0x257 SWAP2 SWAP1 PUSH3 0x9BA JUMP JUMPDEST DUP3 PUSH20 0xFFFFFFFFFFFFFFFFFFFFFFFFFFFFFFFFFFFFFFFF AND PUSH4 0x514FA676 PUSH1 0x40 MLOAD DUP2 PUSH4 0xFFFFFFFF AND PUSH1 0xE0 SHL DUP2 MSTORE PUSH1 0x4 ADD PUSH1 0x20 PUSH1 0x40 MLOAD DUP1 DUP4 SUB DUP2 DUP7 GAS STATICCALL ISZERO DUP1 ISZERO PUSH3 0x2A3 JUMPI RETURNDATASIZE PUSH1 0x0 DUP1 RETURNDATACOPY RETURNDATASIZE PUSH1 0x0 REVERT JUMPDEST POP POP POP POP PUSH1 0x40 MLOAD RETURNDATASIZE PUSH1 0x1F NOT PUSH1 0x1F DUP3 ADD AND DUP3 ADD DUP1 PUSH1 0x40 MSTORE POP DUP2 ADD SWAP1 PUSH3 0x2C9 SWAP2 SWAP1 PUSH3 0x90A JUMP JUMPDEST DUP4 PUSH20 0xFFFFFFFFFFFFFFFFFFFFFFFFFFFFFFFFFFFFFFFF AND BALANCE SWAP5 POP SWAP5 POP SWAP5 POP SWAP5 POP POP SWAP2 SWAP4 POP SWAP2 SWAP4 JUMP JUMPDEST PUSH1 0x0 DUP3 DUP3 PUSH1 0x40 MLOAD PUSH3 0x303 SWAP1 PUSH3 0x481 JUMP JUMPDEST PUSH3 0x310 SWAP3 SWAP2 SWAP1 PUSH3 0xA0B JUMP JUMPDEST PUSH1 0x40 MLOAD DUP1 SWAP2 SUB SWAP1 PUSH1 0x0 CREATE DUP1 ISZERO DUP1 ISZERO PUSH3 0x32D JUMPI RETURNDATASIZE PUSH1 0x0 DUP1 RETURNDATACOPY RETURNDATASIZE PUSH1 0x0 REVERT JUMPDEST POP SWAP1 POP PUSH1 0x0 DUP2 SWAP1 DUP1 PUSH1 0x1 DUP2 SLOAD ADD DUP1 DUP3 SSTORE DUP1 SWAP2 POP POP PUSH1 0x1 SWAP1 SUB SWAP1 PUSH1 0x0 MSTORE PUSH1 0x20 PUSH1 0x0 KECCAK256 ADD PUSH1 0x0 SWAP1 SWAP2 SWAP1 SWAP2 SWAP1 SWAP2 PUSH2 0x100 EXP DUP2 SLOAD DUP2 PUSH20 0xFFFFFFFFFFFFFFFFFFFFFFFFFFFFFFFFFFFFFFFF MUL NOT AND SWAP1 DUP4 PUSH20 0xFFFFFFFFFFFFFFFFFFFFFFFFFFFFFFFFFFFFFFFF AND MUL OR SWAP1 SSTORE POP POP POP POP JUMP JUMPDEST PUSH1 0x0 CALLVALUE DUP4 DUP4 PUSH1 0x40 MLOAD PUSH3 0x3AB SWAP1 PUSH3 0x481 JUMP JUMPDEST PUSH3 0x3B8 SWAP3 SWAP2 SWAP1 PUSH3 0xA0B JUMP JUMPDEST PUSH1 0x40 MLOAD DUP1 SWAP2 SUB SWAP1 DUP3 CREATE SWAP1 POP DUP1 ISZERO DUP1 ISZERO PUSH3 0x3D6 JUMPI RETURNDATASIZE PUSH1 0x0 DUP1 RETURNDATACOPY RETURNDATASIZE PUSH1 0x0 REVERT JUMPDEST POP SWAP1 POP PUSH1 0x0 DUP2 SWAP1 DUP1 PUSH1 0x1 DUP2 SLOAD ADD DUP1 DUP3 SSTORE DUP1 SWAP2 POP POP PUSH1 0x1 SWAP1 SUB SWAP1 PUSH1 0x0 MSTORE PUSH1 0x20 PUSH1 0x0 KECCAK256 ADD PUSH1 0x0 SWAP1 SWAP2 SWAP1 SWAP2 SWAP1 SWAP2 PUSH2 0x100 EXP DUP2 SLOAD DUP2 PUSH20 0xFFFFFFFFFFFFFFFFFFFFFFFFFFFFFFFFFFFFFFFF MUL NOT AND SWAP1 DUP4 PUSH20 0xFFFFFFFFFFFFFFFFFFFFFFFFFFFFFFFFFFFFFFFF AND MUL OR SWAP1 SSTORE POP POP POP POP JUMP JUMPDEST PUSH1 0x0 DUP2 DUP2 SLOAD DUP2 LT PUSH3 0x452 JUMPI PUSH1 0x0 DUP1 REVERT JUMPDEST SWAP1 PUSH1 0x0 MSTORE PUSH1 0x20 PUSH1 0x0 KECCAK256 ADD PUSH1 0x0 SWAP2 POP SLOAD SWAP1 PUSH2 0x100 EXP SWAP1 DIV PUSH20 0xFFFFFFFFFFFFFFFFFFFFFFFFFFFFFFFFFFFFFFFF AND DUP2 JUMP JUMPDEST PUSH2 0x980 DUP1 PUSH3 0xA40 DUP4 CODECOPY ADD SWAP1 JUMP JUMPDEST PUSH1 0x0 PUSH1 0x40 MLOAD SWAP1 POP SWAP1 JUMP JUMPDEST PUSH1 0x0 DUP1 REVERT JUMPDEST PUSH1 0x0 DUP1 REVERT JUMPDEST PUSH1 0x0 DUP2 SWAP1 POP SWAP2 SWAP1 POP JUMP JUMPDEST PUSH3 0x4B8 DUP2 PUSH3 0x4A3 JUMP JUMPDEST DUP2 EQ PUSH3 0x4C4 JUMPI PUSH1 0x0 DUP1 REVERT JUMPDEST POP JUMP JUMPDEST PUSH1 0x0 DUP2 CALLDATALOAD SWAP1 POP PUSH3 0x4D8 DUP2 PUSH3 0x4AD JUMP JUMPDEST SWAP3 SWAP2 POP POP JUMP JUMPDEST PUSH1 0x0 PUSH1 0x20 DUP3 DUP5 SUB SLT ISZERO PUSH3 0x4F7 JUMPI PUSH3 0x4F6 PUSH3 0x499 JUMP JUMPDEST JUMPDEST PUSH1 0x0 PUSH3 0x507 DUP5 DUP3 DUP6 ADD PUSH3 0x4C7 JUMP JUMPDEST SWAP2 POP POP SWAP3 SWAP2 POP POP JUMP JUMPDEST PUSH1 0x0 PUSH20 0xFFFFFFFFFFFFFFFFFFFFFFFFFFFFFFFFFFFFFFFF DUP3 AND SWAP1 POP SWAP2 SWAP1 POP JUMP JUMPDEST PUSH1 0x0 PUSH3 0x53D DUP3 PUSH3 0x510 JUMP JUMPDEST SWAP1 POP SWAP2 SWAP1 POP JUMP JUMPDEST PUSH3 0x54F DUP2 PUSH3 0x530 JUMP JUMPDEST DUP3 MSTORE POP POP JUMP JUMPDEST PUSH1 0x0 DUP2 MLOAD SWAP1 POP SWAP2 SWAP1 POP JUMP JUMPDEST PUSH1 0x0 DUP3 DUP3 MSTORE PUSH1 0x20 DUP3 ADD SWAP1 POP SWAP3 SWAP2 POP POP JUMP JUMPDEST PUSH1 0x0 JUMPDEST DUP4 DUP2 LT ISZERO PUSH3 0x591 JUMPI DUP1 DUP3 ADD MLOAD DUP2 DUP5 ADD MSTORE PUSH1 0x20 DUP2 ADD SWAP1 POP PUSH3 0x574 JUMP JUMPDEST PUSH1 0x0 DUP5 DUP5 ADD MSTORE POP POP POP POP JUMP JUMPDEST PUSH1 0x0 PUSH1 0x1F NOT PUSH1 0x1F DUP4 ADD AND SWAP1 POP SWAP2 SWAP1 POP JUMP JUMPDEST PUSH1 0x0 PUSH3 0x5BB DUP3 PUSH3 0x555 JUMP JUMPDEST PUSH3 0x5C7 DUP2 DUP6 PUSH3 0x560 JUMP JUMPDEST SWAP4 POP PUSH3 0x5D9 DUP2 DUP6 PUSH1 0x20 DUP7 ADD PUSH3 0x571 JUMP JUMPDEST PUSH3 0x5E4 DUP2 PUSH3 0x59D JUMP JUMPDEST DUP5 ADD SWAP2 POP POP SWAP3 SWAP2 POP POP JUMP JUMPDEST PUSH3 0x5FA DUP2 PUSH3 0x4A3 JUMP JUMPDEST DUP3 MSTORE POP POP JUMP JUMPDEST PUSH1 0x0 PUSH1 0x80 DUP3 ADD SWAP1 POP PUSH3 0x617 PUSH1 0x0 DUP4 ADD DUP8 PUSH3 0x544 JUMP JUMPDEST DUP2 DUP2 SUB PUSH1 0x20 DUP4 ADD MSTORE PUSH3 0x62B DUP2 DUP7 PUSH3 0x5AE JUMP JUMPDEST SWAP1 POP PUSH3 0x63C PUSH1 0x40 DUP4 ADD DUP6 PUSH3 0x544 JUMP JUMPDEST PUSH3 0x64B PUSH1 0x60 DUP4 ADD DUP5 PUSH3 0x5EF JUMP JUMPDEST SWAP6 SWAP5 POP POP POP POP POP JUMP JUMPDEST PUSH3 0x65F DUP2 PUSH3 0x530 JUMP JUMPDEST DUP2 EQ PUSH3 0x66B JUMPI PUSH1 0x0 DUP1 REVERT JUMPDEST POP JUMP JUMPDEST PUSH1 0x0 DUP2 CALLDATALOAD SWAP1 POP PUSH3 0x67F DUP2 PUSH3 0x654 JUMP JUMPDEST SWAP3 SWAP2 POP POP JUMP JUMPDEST PUSH1 0x0 DUP1 REVERT JUMPDEST PUSH1 0x0 DUP1 REVERT JUMPDEST PUSH32 0x4E487B7100000000000000000000000000000000000000000000000000000000 PUSH1 0x0 MSTORE PUSH1 0x41 PUSH1 0x4 MSTORE PUSH1 0x24 PUSH1 0x0 REVERT JUMPDEST PUSH3 0x6C9 DUP3 PUSH3 0x59D JUMP JUMPDEST DUP2 ADD DUP2 DUP2 LT PUSH8 0xFFFFFFFFFFFFFFFF DUP3 GT OR ISZERO PUSH3 0x6EB JUMPI PUSH3 0x6EA PUSH3 0x68F JUMP JUMPDEST JUMPDEST DUP1 PUSH1 0x40 MSTORE POP POP POP JUMP JUMPDEST PUSH1 0x0 PUSH3 0x700 PUSH3 0x48F JUMP JUMPDEST SWAP1 POP PUSH3 0x70E DUP3 DUP3 PUSH3 0x6BE JUMP JUMPDEST SWAP2 SWAP1 POP JUMP JUMPDEST PUSH1 0x0 PUSH8 0xFFFFFFFFFFFFFFFF DUP3 GT ISZERO PUSH3 0x731 JUMPI PUSH3 0x730 PUSH3 0x68F JUMP JUMPDEST JUMPDEST PUSH3 0x73C DUP3 PUSH3 0x59D JUMP JUMPDEST SWAP1 POP PUSH1 0x20 DUP2 ADD SWAP1 POP SWAP2 SWAP1 POP JUMP JUMPDEST DUP3 DUP2 DUP4 CALLDATACOPY PUSH1 0x0 DUP4 DUP4 ADD MSTORE POP POP POP JUMP JUMPDEST PUSH1 0x0 PUSH3 0x76F PUSH3 0x769 DUP5 PUSH3 0x713 JUMP JUMPDEST PUSH3 0x6F4 JUMP JUMPDEST SWAP1 POP DUP3 DUP2 MSTORE PUSH1 0x20 DUP2 ADD DUP5 DUP5 DUP5 ADD GT ISZERO PUSH3 0x78E JUMPI PUSH3 0x78D PUSH3 0x68A JUMP JUMPDEST JUMPDEST PUSH3 0x79B DUP5 DUP3 DUP6 PUSH3 0x749 JUMP JUMPDEST POP SWAP4 SWAP3 POP POP POP JUMP JUMPDEST PUSH1 0x0 DUP3 PUSH1 0x1F DUP4 ADD SLT PUSH3 0x7BB JUMPI PUSH3 0x7BA PUSH3 0x685 JUMP JUMPDEST JUMPDEST DUP2 CALLDATALOAD PUSH3 0x7CD DUP5 DUP3 PUSH1 0x20 DUP7 ADD PUSH3 0x758 JUMP JUMPDEST SWAP2 POP POP SWAP3 SWAP2 POP POP JUMP JUMPDEST PUSH1 0x0 DUP1 PUSH1 0x40 DUP4 DUP6 SUB SLT ISZERO PUSH3 0x7F0 JUMPI PUSH3 0x7EF PUSH3 0x499 JUMP JUMPDEST JUMPDEST PUSH1 0x0 PUSH3 0x800 DUP6 DUP3 DUP7 ADD PUSH3 0x66E JUMP JUMPDEST SWAP3 POP POP PUSH1 0x20 DUP4 ADD CALLDATALOAD PUSH8 0xFFFFFFFFFFFFFFFF DUP2 GT ISZERO PUSH3 0x824 JUMPI PUSH3 0x823 PUSH3 0x49E JUMP JUMPDEST JUMPDEST PUSH3 0x832 DUP6 DUP3 DUP7 ADD PUSH3 0x7A3 JUMP JUMPDEST SWAP2 POP POP SWAP3 POP SWAP3 SWAP1 POP JUMP JUMPDEST PUSH1 0x0 DUP2 SWAP1 POP SWAP2 SWAP1 POP JUMP JUMPDEST PUSH1 0x0 PUSH3 0x867 PUSH3 0x861 PUSH3 0x85B DUP5 PUSH3 0x510 JUMP JUMPDEST PUSH3 0x83C JUMP JUMPDEST PUSH3 0x510 JUMP JUMPDEST SWAP1 POP SWAP2 SWAP1 POP JUMP JUMPDEST PUSH1 0x0 PUSH3 0x87B DUP3 PUSH3 0x846 JUMP JUMPDEST SWAP1 POP SWAP2 SWAP1 POP JUMP JUMPDEST PUSH1 0x0 PUSH3 0x88F DUP3 PUSH3 0x86E JUMP JUMPDEST SWAP1 POP SWAP2 SWAP1 POP JUMP JUMPDEST PUSH3 0x8A1 DUP2 PUSH3 0x882 JUMP JUMPDEST DUP3 MSTORE POP POP JUMP JUMPDEST PUSH1 0x0 PUSH1 0x20 DUP3 ADD SWAP1 POP PUSH3 0x8BE PUSH1 0x0 DUP4 ADD DUP5 PUSH3 0x896 JUMP JUMPDEST SWAP3 SWAP2 POP POP JUMP JUMPDEST PUSH32 0x4E487B7100000000000000000000000000000000000000000000000000000000 PUSH1 0x0 MSTORE PUSH1 0x32 PUSH1 0x4 MSTORE PUSH1 0x24 PUSH1 0x0 REVERT JUMPDEST PUSH1 0x0 DUP2 MLOAD SWAP1 POP PUSH3 0x904 DUP2 PUSH3 0x654 JUMP JUMPDEST SWAP3 SWAP2 POP POP JUMP JUMPDEST PUSH1 0x0 PUSH1 0x20 DUP3 DUP5 SUB SLT ISZERO PUSH3 0x923 JUMPI PUSH3 0x922 PUSH3 0x499 JUMP JUMPDEST JUMPDEST PUSH1 0x0 PUSH3 0x933 DUP5 DUP3 DUP6 ADD PUSH3 0x8F3 JUMP JUMPDEST SWAP2 POP POP SWAP3 SWAP2 POP POP JUMP JUMPDEST PUSH1 0x0 PUSH3 0x953 PUSH3 0x94D DUP5 PUSH3 0x713 JUMP JUMPDEST PUSH3 0x6F4 JUMP JUMPDEST SWAP1 POP DUP3 DUP2 MSTORE PUSH1 0x20 DUP2 ADD DUP5 DUP5 DUP5 ADD GT ISZERO PUSH3 0x972 JUMPI PUSH3 0x971 PUSH3 0x68A JUMP JUMPDEST JUMPDEST PUSH3 0x97F DUP5 DUP3 DUP6 PUSH3 0x571 JUMP JUMPDEST POP SWAP4 SWAP3 POP POP POP JUMP JUMPDEST PUSH1 0x0 DUP3 PUSH1 0x1F DUP4 ADD SLT PUSH3 0x99F JUMPI PUSH3 0x99E PUSH3 0x685 JUMP JUMPDEST JUMPDEST DUP2 MLOAD PUSH3 0x9B1 DUP5 DUP3 PUSH1 0x20 DUP7 ADD PUSH3 0x93C JUMP JUMPDEST SWAP2 POP POP SWAP3 SWAP2 POP POP JUMP JUMPDEST PUSH1 0x0 PUSH1 0x20 DUP3 DUP5 SUB SLT ISZERO PUSH3 0x9D3 JUMPI PUSH3 0x9D2 PUSH3 0x499 JUMP JUMPDEST JUMPDEST PUSH1 0x0 DUP3 ADD MLOAD PUSH8 0xFFFFFFFFFFFFFFFF DUP2 GT ISZERO PUSH3 0x9F4 JUMPI PUSH3 0x9F3 PUSH3 0x49E JUMP JUMPDEST JUMPDEST PUSH3 0xA02 DUP5 DUP3 DUP6 ADD PUSH3 0x987 JUMP JUMPDEST SWAP2 POP POP SWAP3 SWAP2 POP POP JUMP JUMPDEST PUSH1 0x0 PUSH1 0x40 DUP3 ADD SWAP1 POP PUSH3 0xA22 PUSH1 0x0 DUP4 ADD DUP6 PUSH3 0x544 JUMP JUMPDEST DUP2 DUP2 SUB PUSH1 0x20 DUP4 ADD MSTORE PUSH3 0xA36 DUP2 DUP5 PUSH3 0x5AE JUMP JUMPDEST SWAP1 POP SWAP4 SWAP3 POP POP POP JUMP INVALID PUSH1 0x80 PUSH1 0x40 MSTORE PUSH1 0x40 MLOAD PUSH3 0x980 CODESIZE SUB DUP1 PUSH3 0x980 DUP4 CODECOPY DUP2 DUP2 ADD PUSH1 0x40 MSTORE DUP2 ADD SWAP1 PUSH3 0x29 SWAP2 SWAP1 PUSH3 0x2BC JUMP JUMPDEST DUP2 PUSH1 0x0 DUP1 PUSH2 0x100 EXP DUP2 SLOAD DUP2 PUSH20 0xFFFFFFFFFFFFFFFFFFFFFFFFFFFFFFFFFFFFFFFF MUL NOT AND SWAP1 DUP4 PUSH20 0xFFFFFFFFFFFFFFFFFFFFFFFFFFFFFFFFFFFFFFFF AND MUL OR SWAP1 SSTORE POP DUP1 PUSH1 0x1 SWAP1 DUP2 PUSH3 0x7A SWAP2 SWAP1 PUSH3 0x56D JUMP JUMPDEST POP ADDRESS PUSH1 0x2 PUSH1 0x0 PUSH2 0x100 EXP DUP2 SLOAD DUP2 PUSH20 0xFFFFFFFFFFFFFFFFFFFFFFFFFFFFFFFFFFFFFFFF MUL NOT AND SWAP1 DUP4 PUSH20 0xFFFFFFFFFFFFFFFFFFFFFFFFFFFFFFFFFFFFFFFF AND MUL OR SWAP1 SSTORE POP POP POP PUSH3 0x654 JUMP JUMPDEST PUSH1 0x0 PUSH1 0x40 MLOAD SWAP1 POP SWAP1 JUMP JUMPDEST PUSH1 0x0 DUP1 REVERT JUMPDEST PUSH1 0x0 DUP1 REVERT JUMPDEST PUSH1 0x0 PUSH20 0xFFFFFFFFFFFFFFFFFFFFFFFFFFFFFFFFFFFFFFFF DUP3 AND SWAP1 POP SWAP2 SWAP1 POP JUMP JUMPDEST PUSH1 0x0 PUSH3 0x105 DUP3 PUSH3 0xD8 JUMP JUMPDEST SWAP1 POP SWAP2 SWAP1 POP JUMP JUMPDEST PUSH3 0x117 DUP2 PUSH3 0xF8 JUMP JUMPDEST DUP2 EQ PUSH3 0x123 JUMPI PUSH1 0x0 DUP1 REVERT JUMPDEST POP JUMP JUMPDEST PUSH1 0x0 DUP2 MLOAD SWAP1 POP PUSH3 0x137 DUP2 PUSH3 0x10C JUMP JUMPDEST SWAP3 SWAP2 POP POP JUMP JUMPDEST PUSH1 0x0 DUP1 REVERT JUMPDEST PUSH1 0x0 DUP1 REVERT JUMPDEST PUSH1 0x0 PUSH1 0x1F NOT PUSH1 0x1F DUP4 ADD AND SWAP1 POP SWAP2 SWAP1 POP JUMP JUMPDEST PUSH32 0x4E487B7100000000000000000000000000000000000000000000000000000000 PUSH1 0x0 MSTORE PUSH1 0x41 PUSH1 0x4 MSTORE PUSH1 0x24 PUSH1 0x0 REVERT JUMPDEST PUSH3 0x192 DUP3 PUSH3 0x147 JUMP JUMPDEST DUP2 ADD DUP2 DUP2 LT PUSH8 0xFFFFFFFFFFFFFFFF DUP3 GT OR ISZERO PUSH3 0x1B4 JUMPI PUSH3 0x1B3 PUSH3 0x158 JUMP JUMPDEST JUMPDEST DUP1 PUSH1 0x40 MSTORE POP POP POP JUMP JUMPDEST PUSH1 0x0 PUSH3 0x1C9 PUSH3 0xC4 JUMP JUMPDEST SWAP1 POP PUSH3 0x1D7 DUP3 DUP3 PUSH3 0x187 JUMP JUMPDEST SWAP2 SWAP1 POP JUMP JUMPDEST PUSH1 0x0 PUSH8 0xFFFFFFFFFFFFFFFF DUP3 GT ISZERO PUSH3 0x1FA JUMPI PUSH3 0x1F9 PUSH3 0x158 JUMP JUMPDEST JUMPDEST PUSH3 0x205 DUP3 PUSH3 0x147 JUMP JUMPDEST SWAP1 POP PUSH1 0x20 DUP2 ADD SWAP1 POP SWAP2 SWAP1 POP JUMP JUMPDEST PUSH1 0x0 JUMPDEST DUP4 DUP2 LT ISZERO PUSH3 0x232 JUMPI DUP1 DUP3 ADD MLOAD DUP2 DUP5 ADD MSTORE PUSH1 0x20 DUP2 ADD SWAP1 POP PUSH3 0x215 JUMP JUMPDEST PUSH1 0x0 DUP5 DUP5 ADD MSTORE POP POP POP POP JUMP JUMPDEST PUSH1 0x0 PUSH3 0x255 PUSH3 0x24F DUP5 PUSH3 0x1DC JUMP JUMPDEST PUSH3 0x1BD JUMP JUMPDEST SWAP1 POP DUP3 DUP2 MSTORE PUSH1 0x20 DUP2 ADD DUP5 DUP5 DUP5 ADD GT ISZERO PUSH3 0x274 JUMPI PUSH3 0x273 PUSH3 0x142 JUMP JUMPDEST JUMPDEST PUSH3 0x281 DUP5 DUP3 DUP6 PUSH3 0x212 JUMP JUMPDEST POP SWAP4 SWAP3 POP POP POP JUMP JUMPDEST PUSH1 0x0 DUP3 PUSH1 0x1F DUP4 ADD SLT PUSH3 0x2A1 JUMPI PUSH3 0x2A0 PUSH3 0x13D JUMP JUMPDEST JUMPDEST DUP2 MLOAD PUSH3 0x2B3 DUP5 DUP3 PUSH1 0x20 DUP7 ADD PUSH3 0x23E JUMP JUMPDEST SWAP2 POP POP SWAP3 SWAP2 POP POP JUMP JUMPDEST PUSH1 0x0 DUP1 PUSH1 0x40 DUP4 DUP6 SUB SLT ISZERO PUSH3 0x2D6 JUMPI PUSH3 0x2D5 PUSH3 0xCE JUMP JUMPDEST JUMPDEST PUSH1 0x0 PUSH3 0x2E6 DUP6 DUP3 DUP7 ADD PUSH3 0x126 JUMP JUMPDEST SWAP3 POP POP PUSH1 0x20 DUP4 ADD MLOAD PUSH8 0xFFFFFFFFFFFFFFFF DUP2 GT ISZERO PUSH3 0x30A JUMPI PUSH3 0x309 PUSH3 0xD3 JUMP JUMPDEST JUMPDEST PUSH3 0x318 DUP6 DUP3 DUP7 ADD PUSH3 0x289 JUMP JUMPDEST SWAP2 POP POP SWAP3 POP SWAP3 SWAP1 POP JUMP JUMPDEST PUSH1 0x0 DUP2 MLOAD SWAP1 POP SWAP2 SWAP1 POP JUMP JUMPDEST PUSH32 0x4E487B7100000000000000000000000000000000000000000000000000000000 PUSH1 0x0 MSTORE PUSH1 0x22 PUSH1 0x4 MSTORE PUSH1 0x24 PUSH1 0x0 REVERT JUMPDEST PUSH1 0x0 PUSH1 0x2 DUP3 DIV SWAP1 POP PUSH1 0x1 DUP3 AND DUP1 PUSH3 0x375 JUMPI PUSH1 0x7F DUP3 AND SWAP2 POP JUMPDEST PUSH1 0x20 DUP3 LT DUP2 SUB PUSH3 0x38B JUMPI PUSH3 0x38A PUSH3 0x32D JUMP JUMPDEST JUMPDEST POP SWAP2 SWAP1 POP JUMP JUMPDEST PUSH1 0x0 DUP2 SWAP1 POP DUP2 PUSH1 0x0 MSTORE PUSH1 0x20 PUSH1 0x0 KECCAK256 SWAP1 POP SWAP2 SWAP1 POP JUMP JUMPDEST PUSH1 0x0 PUSH1 0x20 PUSH1 0x1F DUP4 ADD DIV SWAP1 POP SWAP2 SWAP1 POP JUMP JUMPDEST PUSH1 0x0 DUP3 DUP3 SHL SWAP1 POP SWAP3 SWAP2 POP POP JUMP JUMPDEST PUSH1 0x0 PUSH1 0x8 DUP4 MUL PUSH3 0x3F5 PUSH32 0xFFFFFFFFFFFFFFFFFFFFFFFFFFFFFFFFFFFFFFFFFFFFFFFFFFFFFFFFFFFFFFFF DUP3 PUSH3 0x3B6 JUMP JUMPDEST PUSH3 0x401 DUP7 DUP4 PUSH3 0x3B6 JUMP JUMPDEST SWAP6 POP DUP1 NOT DUP5 AND SWAP4 POP DUP1 DUP7 AND DUP5 OR SWAP3 POP POP POP SWAP4 SWAP3 POP POP POP JUMP JUMPDEST PUSH1 0x0 DUP2 SWAP1 POP SWAP2 SWAP1 POP JUMP JUMPDEST PUSH1 0x0 DUP2 SWAP1 POP SWAP2 SWAP1 POP JUMP JUMPDEST PUSH1 0x0 PUSH3 0x44E PUSH3 0x448 PUSH3 0x442 DUP5 PUSH3 0x419 JUMP JUMPDEST PUSH3 0x423 JUMP JUMPDEST PUSH3 0x419 JUMP JUMPDEST SWAP1 POP SWAP2 SWAP1 POP JUMP JUMPDEST PUSH1 0x0 DUP2 SWAP1 POP SWAP2 SWAP1 POP JUMP JUMPDEST PUSH3 0x46A DUP4 PUSH3 0x42D JUMP JUMPDEST PUSH3 0x482 PUSH3 0x479 DUP3 PUSH3 0x455 JUMP JUMPDEST DUP5 DUP5 SLOAD PUSH3 0x3C3 JUMP JUMPDEST DUP3 SSTORE POP POP POP POP JUMP JUMPDEST PUSH1 0x0 SWAP1 JUMP JUMPDEST PUSH3 0x499 PUSH3 0x48A JUMP JUMPDEST PUSH3 0x4A6 DUP2 DUP5 DUP5 PUSH3 0x45F JUMP JUMPDEST POP POP POP JUMP JUMPDEST JUMPDEST DUP2 DUP2 LT ISZERO PUSH3 0x4CE JUMPI PUSH3 0x4C2 PUSH1 0x0 DUP3 PUSH3 0x48F JUMP JUMPDEST PUSH1 0x1 DUP2 ADD SWAP1 POP PUSH3 0x4AC JUMP JUMPDEST POP POP JUMP JUMPDEST PUSH1 0x1F DUP3 GT ISZERO PUSH3 0x51D JUMPI PUSH3 0x4E7 DUP2 PUSH3 0x391 JUMP JUMPDEST PUSH3 0x4F2 DUP5 PUSH3 0x3A6 JUMP JUMPDEST DUP2 ADD PUSH1 0x20 DUP6 LT ISZERO PUSH3 0x502 JUMPI DUP2 SWAP1 POP JUMPDEST PUSH3 0x51A PUSH3 0x511 DUP6 PUSH3 0x3A6 JUMP JUMPDEST DUP4 ADD DUP3 PUSH3 0x4AB JUMP JUMPDEST POP POP JUMPDEST POP POP POP JUMP JUMPDEST PUSH1 0x0 DUP3 DUP3 SHR SWAP1 POP SWAP3 SWAP2 POP POP JUMP JUMPDEST PUSH1 0x0 PUSH3 0x542 PUSH1 0x0 NOT DUP5 PUSH1 0x8 MUL PUSH3 0x522 JUMP JUMPDEST NOT DUP1 DUP4 AND SWAP2 POP POP SWAP3 SWAP2 POP POP JUMP JUMPDEST PUSH1 0x0 PUSH3 0x55D DUP4 DUP4 PUSH3 0x52F JUMP JUMPDEST SWAP2 POP DUP3 PUSH1 0x2 MUL DUP3 OR SWAP1 POP SWAP3 SWAP2 POP POP JUMP JUMPDEST PUSH3 0x578 DUP3 PUSH3 0x322 JUMP JUMPDEST PUSH8 0xFFFFFFFFFFFFFFFF DUP2 GT ISZERO PUSH3 0x594 JUMPI PUSH3 0x593 PUSH3 0x158 JUMP JUMPDEST JUMPDEST PUSH3 0x5A0 DUP3 SLOAD PUSH3 0x35C JUMP JUMPDEST PUSH3 0x5AD DUP3 DUP3 DUP6 PUSH3 0x4D2 JUMP JUMPDEST PUSH1 0x0 PUSH1 0x20 SWAP1 POP PUSH1 0x1F DUP4 GT PUSH1 0x1 DUP2 EQ PUSH3 0x5E5 JUMPI PUSH1 0x0 DUP5 ISZERO PUSH3 0x5D0 JUMPI DUP3 DUP8 ADD MLOAD SWAP1 POP JUMPDEST PUSH3 0x5DC DUP6 DUP3 PUSH3 0x54F JUMP JUMPDEST DUP7 SSTORE POP PUSH3 0x64C JUMP JUMPDEST PUSH1 0x1F NOT DUP5 AND PUSH3 0x5F5 DUP7 PUSH3 0x391 JUMP JUMPDEST PUSH1 0x0 JUMPDEST DUP3 DUP2 LT ISZERO PUSH3 0x61F JUMPI DUP5 DUP10 ADD MLOAD DUP3 SSTORE PUSH1 0x1 DUP3 ADD SWAP2 POP PUSH1 0x20 DUP6 ADD SWAP5 POP PUSH1 0x20 DUP2 ADD SWAP1 POP PUSH3 0x5F8 JUMP JUMPDEST DUP7 DUP4 LT ISZERO PUSH3 0x63F JUMPI DUP5 DUP10 ADD MLOAD PUSH3 0x63B PUSH1 0x1F DUP10 AND DUP3 PUSH3 0x52F JUMP JUMPDEST DUP4 SSTORE POP JUMPDEST PUSH1 0x1 PUSH1 0x2 DUP9 MUL ADD DUP9 SSTORE POP POP POP JUMPDEST POP POP POP POP POP POP JUMP JUMPDEST PUSH2 0x31C DUP1 PUSH3 0x664 PUSH1 0x0 CODECOPY PUSH1 0x0 RETURN INVALID PUSH1 0x80 PUSH1 0x40 MSTORE CALLVALUE DUP1 ISZERO PUSH2 0x10 JUMPI PUSH1 0x0 DUP1 REVERT JUMPDEST POP PUSH1 0x4 CALLDATASIZE LT PUSH2 0x41 JUMPI PUSH1 0x0 CALLDATALOAD PUSH1 0xE0 SHR DUP1 PUSH4 0xAD9D052 EQ PUSH2 0x46 JUMPI DUP1 PUSH4 0x514FA676 EQ PUSH2 0x64 JUMPI DUP1 PUSH4 0x8DA5CB5B EQ PUSH2 0x82 JUMPI JUMPDEST PUSH1 0x0 DUP1 REVERT JUMPDEST PUSH2 0x4E PUSH2 0xA0 JUMP JUMPDEST PUSH1 0x40 MLOAD PUSH2 0x5B SWAP2 SWAP1 PUSH2 0x208 JUMP JUMPDEST PUSH1 0x40 MLOAD DUP1 SWAP2 SUB SWAP1 RETURN JUMPDEST PUSH2 0x6C PUSH2 0x12E JUMP JUMPDEST PUSH1 0x40 MLOAD PUSH2 0x79 SWAP2 SWAP1 PUSH2 0x26B JUMP JUMPDEST PUSH1 0x40 MLOAD DUP1 SWAP2 SUB SWAP1 RETURN JUMPDEST PUSH2 0x8A PUSH2 0x154 JUMP JUMPDEST PUSH1 0x40 MLOAD PUSH2 0x97 SWAP2 SWAP1 PUSH2 0x26B JUMP JUMPDEST PUSH1 0x40 MLOAD DUP1 SWAP2 SUB SWAP1 RETURN JUMPDEST PUSH1 0x1 DUP1 SLOAD PUSH2 0xAD SWAP1 PUSH2 0x2B5 JUMP JUMPDEST DUP1 PUSH1 0x1F ADD PUSH1 0x20 DUP1 SWAP2 DIV MUL PUSH1 0x20 ADD PUSH1 0x40 MLOAD SWAP1 DUP2 ADD PUSH1 0x40 MSTORE DUP1 SWAP3 SWAP2 SWAP1 DUP2 DUP2 MSTORE PUSH1 0x20 ADD DUP3 DUP1 SLOAD PUSH2 0xD9 SWAP1 PUSH2 0x2B5 JUMP JUMPDEST DUP1 ISZERO PUSH2 0x126 JUMPI DUP1 PUSH1 0x1F LT PUSH2 0xFB JUMPI PUSH2 0x100 DUP1 DUP4 SLOAD DIV MUL DUP4 MSTORE SWAP2 PUSH1 0x20 ADD SWAP2 PUSH2 0x126 JUMP JUMPDEST DUP3 ADD SWAP2 SWAP1 PUSH1 0x0 MSTORE PUSH1 0x20 PUSH1 0x0 KECCAK256 SWAP1 JUMPDEST DUP2 SLOAD DUP2 MSTORE SWAP1 PUSH1 0x1 ADD SWAP1 PUSH1 0x20 ADD DUP1 DUP4 GT PUSH2 0x109 JUMPI DUP3 SWAP1 SUB PUSH1 0x1F AND DUP3 ADD SWAP2 JUMPDEST POP POP POP POP POP DUP2 JUMP JUMPDEST PUSH1 0x2 PUSH1 0x0 SWAP1 SLOAD SWAP1 PUSH2 0x100 EXP SWAP1 DIV PUSH20 0xFFFFFFFFFFFFFFFFFFFFFFFFFFFFFFFFFFFFFFFF AND DUP2 JUMP JUMPDEST PUSH1 0x0 DUP1 SLOAD SWAP1 PUSH2 0x100 EXP SWAP1 DIV PUSH20 0xFFFFFFFFFFFFFFFFFFFFFFFFFFFFFFFFFFFFFFFF AND DUP2 JUMP JUMPDEST PUSH1 0x0 DUP2 MLOAD SWAP1 POP SWAP2 SWAP1 POP JUMP JUMPDEST PUSH1 0x0 DUP3 DUP3 MSTORE PUSH1 0x20 DUP3 ADD SWAP1 POP SWAP3 SWAP2 POP POP JUMP JUMPDEST PUSH1 0x0 JUMPDEST DUP4 DUP2 LT ISZERO PUSH2 0x1B2 JUMPI DUP1 DUP3 ADD MLOAD DUP2 DUP5 ADD MSTORE PUSH1 0x20 DUP2 ADD SWAP1 POP PUSH2 0x197 JUMP JUMPDEST PUSH1 0x0 DUP5 DUP5 ADD MSTORE POP POP POP POP JUMP JUMPDEST PUSH1 0x0 PUSH1 0x1F NOT PUSH1 0x1F DUP4 ADD AND SWAP1 POP SWAP2 SWAP1 POP JUMP JUMPDEST PUSH1 0x0 PUSH2 0x1DA DUP3 PUSH2 0x178 JUMP JUMPDEST PUSH2 0x1E4 DUP2 DUP6 PUSH2 0x183 JUMP JUMPDEST SWAP4 POP PUSH2 0x1F4 DUP2 DUP6 PUSH1 0x20 DUP7 ADD PUSH2 0x194 JUMP JUMPDEST PUSH2 0x1FD DUP2 PUSH2 0x1BE JUMP JUMPDEST DUP5 ADD SWAP2 POP POP SWAP3 SWAP2 POP POP JUMP JUMPDEST PUSH1 0x0 PUSH1 0x20 DUP3 ADD SWAP1 POP DUP2 DUP2 SUB PUSH1 0x0 DUP4 ADD MSTORE PUSH2 0x222 DUP2 DUP5 PUSH2 0x1CF JUMP JUMPDEST SWAP1 POP SWAP3 SWAP2 POP POP JUMP JUMPDEST PUSH1 0x0 PUSH20 0xFFFFFFFFFFFFFFFFFFFFFFFFFFFFFFFFFFFFFFFF DUP3 AND SWAP1 POP SWAP2 SWAP1 POP JUMP JUMPDEST PUSH1 0x0 PUSH2 0x255 DUP3 PUSH2 0x22A JUMP JUMPDEST SWAP1 POP SWAP2 SWAP1 POP JUMP JUMPDEST PUSH2 0x265 DUP2 PUSH2 0x24A JUMP JUMPDEST DUP3 MSTORE POP POP JUMP JUMPDEST PUSH1 0x0 PUSH1 0x20 DUP3 ADD SWAP1 POP PUSH2 0x280 PUSH1 0x0 DUP4 ADD DUP5 PUSH2 0x25C JUMP JUMPDEST SWAP3 SWAP2 POP POP JUMP JUMPDEST PUSH32 0x4E487B7100000000000000000000000000000000000000000000000000000000 PUSH1 0x0 MSTORE PUSH1 0x22 PUSH1 0x4 MSTORE PUSH1 0x24 PUSH1 0x0 REVERT JUMPDEST PUSH1 0x0 PUSH1 0x2 DUP3 DIV SWAP1 POP PUSH1 0x1 DUP3 AND DUP1 PUSH2 0x2CD JUMPI PUSH1 0x7F DUP3 AND SWAP2 POP JUMPDEST PUSH1 0x20 DUP3 LT DUP2 SUB PUSH2 0x2E0 JUMPI PUSH2 0x2DF PUSH2 0x286 JUMP JUMPDEST JUMPDEST POP SWAP2 SWAP1 POP JUMP INVALID LOG2 PUSH5 0x6970667358 0x22 SLT KECCAK256 ORIGIN BALANCE SWAP5 0x2A PUSH2 0x48D3 SWAP11 SWAP8 EQ 0xE3 EQ EXTCODEHASH 0x4B CALL SWAP4 PUSH9 0x6E6BA198E5419EA6D8 0xF 0xAA 0x4A 0xFC DUP9 SWAP6 PUSH5 0x736F6C6343 STOP ADDMOD SLT STOP CALLER LOG2 PUSH5 0x6970667358 0x22 SLT KECCAK256 MSTORE8 PUSH4 0x171073BD 0x29 0xAD SMOD 0xB3 SWAP5 0xCF SWAP14 EXP 0x5C SWAP8 0xC7 BYTE MOD SIGNEXTEND 0xD7 COINBASE SELFBALANCE PUSH7 0x661537D255A90B 0x29 PUSH5 0x736F6C6343 STOP ADDMOD SLT STOP CALLER "
				},
				"gasEstimates": {
					"creation": {
						"codeDepositCost": "1021800",
						"executionCost": "1061",
						"totalCost": "1022861"
					},
					"external": {
						"cars(uint256)": "infinite",
						"create(address,string)": "infinite",
						"createAndSendEther(address,string)": "infinite",
						"getCar(uint256)": "infinite"
					}
				},
				"methodIdentifiers": {
					"cars(uint256)": "f7746e36",
					"create(address,string)": "a15ab08d",
					"createAndSendEther(address,string)": "c33cd615",
					"getCar(uint256)": "5e8be190"
				}
			},
			"storageLayout": {
				"storage": [
					{
						"astId": 35,
						"contract": "call-other-contract.sol:CarFactory",
						"label": "cars",
						"offset": 0,
						"slot": "0",
						"type": "t_array(t_contract(Car)31)dyn_storage"
					}
				],
				"types": {
					"t_array(t_contract(Car)31)dyn_storage": {
						"base": "t_contract(Car)31",
						"encoding": "dynamic_array",
						"label": "contract Car[]",
						"numberOfBytes": "32"
					},
					"t_contract(Car)31": {
						"encoding": "inplace",
						"label": "contract Car",
						"numberOfBytes": "20"
					}
				}
			},
			"userdoc": {
				"kind": "user",
				"methods": {},
				"version": 1
			}
		}
	}
}