{
	"call.sol": {
		"Caller": {
			"abi": [
				{
					"anonymous": false,
					"inputs": [
						{
							"indexed": false,
							"internalType": "bool",
							"name": "success",
							"type": "bool"
						},
						{
							"indexed": false,
							"internalType": "bytes",
							"name": "data",
							"type": "bytes"
						}
					],
					"name": "Response",
					"type": "event"
				},
				{
					"inputs": [],
					"name": "getFooAbi",
					"outputs": [
						{
							"internalType": "bytes",
							"name": "",
							"type": "bytes"
						}
					],
					"stateMutability": "pure",
					"type": "function"
				},
				{
					"inputs": [
						{
							"internalType": "address payable",
							"name": "_addr",
							"type": "address"
						}
					],
					"name": "testCallDoesNotExist",
					"outputs": [],
					"stateMutability": "payable",
					"type": "function"
				},
				{
					"inputs": [
						{
							"internalType": "address payable",
							"name": "_addr",
							"type": "address"
						}
					],
					"name": "testCallFoo",
					"outputs": [],
					"stateMutability": "payable",
					"type": "function"
				}
			],
			"devdoc": {
				"kind": "dev",
				"methods": {},
				"version": 1
			},
			"evm": {
				"assembly": "    /* \"call.sol\":614:1624  contract Caller {... */\n  mstore(0x40, 0x80)\n  callvalue\n  dup1\n  iszero\n  tag_1\n  jumpi\n  0x00\n  dup1\n  revert\ntag_1:\n  pop\n  dataSize(sub_0)\n  dup1\n  dataOffset(sub_0)\n  0x00\n  codecopy\n  0x00\n  return\nstop\n\nsub_0: assembly {\n        /* \"call.sol\":614:1624  contract Caller {... */\n      mstore(0x40, 0x80)\n      jumpi(tag_1, lt(calldatasize, 0x04))\n      shr(0xe0, calldataload(0x00))\n      dup1\n      0x87ba6179\n      eq\n      tag_2\n      jumpi\n      dup1\n      0xb1c7db3c\n      eq\n      tag_3\n      jumpi\n      dup1\n      0xff00726c\n      eq\n      tag_4\n      jumpi\n    tag_1:\n      0x00\n      dup1\n      revert\n        /* \"call.sol\":686:1036  function testCallFoo(... */\n    tag_2:\n      tag_5\n      0x04\n      dup1\n      calldatasize\n      sub\n      dup2\n      add\n      swap1\n      tag_6\n      swap2\n      swap1\n      tag_7\n      jump\t// in\n    tag_6:\n      tag_8\n      jump\t// in\n    tag_5:\n      stop\n        /* \"call.sol\":1044:1353  function getFooAbi() public pure returns (bytes memory){... */\n    tag_3:\n      callvalue\n      dup1\n      iszero\n      tag_9\n      jumpi\n      0x00\n      dup1\n      revert\n    tag_9:\n      pop\n      tag_10\n      tag_11\n      jump\t// in\n    tag_10:\n      mload(0x40)\n      tag_12\n      swap2\n      swap1\n      tag_13\n      jump\t// in\n    tag_12:\n      mload(0x40)\n      dup1\n      swap2\n      sub\n      swap1\n      return\n        /* \"call.sol\":1361:1619  function testCallDoesNotExist(address payable _addr) public payable {... */\n    tag_4:\n      tag_14\n      0x04\n      dup1\n      calldatasize\n      sub\n      dup2\n      add\n      swap1\n      tag_15\n      swap2\n      swap1\n      tag_7\n      jump\t// in\n    tag_15:\n      tag_16\n      jump\t// in\n    tag_14:\n      stop\n        /* \"call.sol\":686:1036  function testCallFoo(... */\n    tag_8:\n        /* \"call.sol\":803:815  bool success */\n      0x00\n        /* \"call.sol\":817:834  bytes memory data */\n      dup1\n        /* \"call.sol\":838:843  _addr */\n      dup3\n        /* \"call.sol\":838:848  _addr.call */\n      0xffffffffffffffffffffffffffffffffffffffff\n      and\n        /* \"call.sol\":856:865  msg.value */\n      callvalue\n        /* \"call.sol\":872:876  5000 */\n      0x1388\n        /* \"call.sol\":838:987  _addr.call{value: msg.value, gas: 5000}(... */\n      swap1\n        /* \"call.sol\":951:954  123 */\n      0x7b\n        /* \"call.sol\":892:955  abi.encodeWithSignature(\"foo(string,uint256)\", \"call foo\", 123) */\n      add(0x24, mload(0x40))\n      tag_18\n      swap2\n      swap1\n      tag_19\n      jump\t// in\n    tag_18:\n      mload(0x40)\n      0x20\n      dup2\n      dup4\n      sub\n      sub\n      dup2\n      mstore\n      swap1\n      0x40\n      mstore\n      and(not(0xffffffffffffffffffffffffffffffffffffffffffffffffffffffff), 0x24ccab8f00000000000000000000000000000000000000000000000000000000)\n      0x20\n      dup3\n      add\n      dup1\n      mload\n      0xffffffffffffffffffffffffffffffffffffffffffffffffffffffff\n      dup4\n      dup2\n      dup4\n      and\n      or\n      dup4\n      mstore\n      pop\n      pop\n      pop\n      pop\n        /* \"call.sol\":838:987  _addr.call{value: msg.value, gas: 5000}(... */\n      mload(0x40)\n      tag_20\n      swap2\n      swap1\n      tag_21\n      jump\t// in\n    tag_20:\n      0x00\n      mload(0x40)\n      dup1\n      dup4\n      sub\n      dup2\n      dup6\n      dup9\n      dup9\n      call\n      swap4\n      pop\n      pop\n      pop\n      pop\n      returndatasize\n      dup1\n      0x00\n      dup2\n      eq\n      tag_24\n      jumpi\n      mload(0x40)\n      swap2\n      pop\n      and(add(returndatasize, 0x3f), not(0x1f))\n      dup3\n      add\n      0x40\n      mstore\n      returndatasize\n      dup3\n      mstore\n      returndatasize\n      0x00\n      0x20\n      dup5\n      add\n      returndatacopy\n      jump(tag_23)\n    tag_24:\n      0x60\n      swap2\n      pop\n    tag_23:\n      pop\n        /* \"call.sol\":802:987  (bool success, bytes memory data) = _addr.call{value: msg.value, gas: 5000}(... */\n      swap2\n      pop\n      swap2\n      pop\n        /* \"call.sol\":1005:1028  Response(success, data) */\n      0x13848c3e38f8886f3f5d2ad9dff80d8092c2bbb8efd5b887a99c2c6cfc09ac2a\n        /* \"call.sol\":1014:1021  success */\n      dup3\n        /* \"call.sol\":1023:1027  data */\n      dup3\n        /* \"call.sol\":1005:1028  Response(success, data) */\n      mload(0x40)\n      tag_25\n      swap3\n      swap2\n      swap1\n      tag_26\n      jump\t// in\n    tag_25:\n      mload(0x40)\n      dup1\n      swap2\n      sub\n      swap1\n      log1\n        /* \"call.sol\":791:1036  {... */\n      pop\n      pop\n        /* \"call.sol\":686:1036  function testCallFoo(... */\n      pop\n      jump\t// out\n        /* \"call.sol\":1044:1353  function getFooAbi() public pure returns (bytes memory){... */\n    tag_11:\n        /* \"call.sol\":1086:1098  bytes memory */\n      0x60\n        /* \"call.sol\":1298:1345  abi.encodeWithSignature(\"foo(string, uint256)\") */\n      add(0x24, mload(0x40))\n      mload(0x40)\n      0x20\n      dup2\n      dup4\n      sub\n      sub\n      dup2\n      mstore\n      swap1\n      0x40\n      mstore\n      and(not(0xffffffffffffffffffffffffffffffffffffffffffffffffffffffff), 0x2fae309d00000000000000000000000000000000000000000000000000000000)\n      0x20\n      dup3\n      add\n      dup1\n      mload\n      0xffffffffffffffffffffffffffffffffffffffffffffffffffffffff\n      dup4\n      dup2\n      dup4\n      and\n      or\n      dup4\n      mstore\n      pop\n      pop\n      pop\n      pop\n        /* \"call.sol\":1291:1345  return abi.encodeWithSignature(\"foo(string, uint256)\") */\n      swap1\n      pop\n        /* \"call.sol\":1044:1353  function getFooAbi() public pure returns (bytes memory){... */\n      swap1\n      jump\t// out\n        /* \"call.sol\":1361:1619  function testCallDoesNotExist(address payable _addr) public payable {... */\n    tag_16:\n        /* \"call.sol\":1441:1453  bool success */\n      0x00\n        /* \"call.sol\":1455:1472  bytes memory data */\n      dup1\n        /* \"call.sol\":1476:1481  _addr */\n      dup3\n        /* \"call.sol\":1476:1486  _addr.call */\n      0xffffffffffffffffffffffffffffffffffffffff\n      and\n        /* \"call.sol\":1494:1503  msg.value */\n      callvalue\n        /* \"call.sol\":1519:1559  abi.encodeWithSignature(\"doesNotExit()\") */\n      add(0x24, mload(0x40))\n      mload(0x40)\n      0x20\n      dup2\n      dup4\n      sub\n      sub\n      dup2\n      mstore\n      swap1\n      0x40\n      mstore\n      and(not(0xffffffffffffffffffffffffffffffffffffffffffffffffffffffff), 0xc2113c0500000000000000000000000000000000000000000000000000000000)\n      0x20\n      dup3\n      add\n      dup1\n      mload\n      0xffffffffffffffffffffffffffffffffffffffffffffffffffffffff\n      dup4\n      dup2\n      dup4\n      and\n      or\n      dup4\n      mstore\n      pop\n      pop\n      pop\n      pop\n        /* \"call.sol\":1476:1570  _addr.call{value: msg.value}(... */\n      mload(0x40)\n      tag_29\n      swap2\n      swap1\n      tag_21\n      jump\t// in\n    tag_29:\n      0x00\n      mload(0x40)\n      dup1\n      dup4\n      sub\n      dup2\n      dup6\n      dup8\n      gas\n      call\n      swap3\n      pop\n      pop\n      pop\n      returndatasize\n      dup1\n      0x00\n      dup2\n      eq\n      tag_32\n      jumpi\n      mload(0x40)\n      swap2\n      pop\n      and(add(returndatasize, 0x3f), not(0x1f))\n      dup3\n      add\n      0x40\n      mstore\n      returndatasize\n      dup3\n      mstore\n      returndatasize\n      0x00\n      0x20\n      dup5\n      add\n      returndatacopy\n      jump(tag_31)\n    tag_32:\n      0x60\n      swap2\n      pop\n    tag_31:\n      pop\n        /* \"call.sol\":1440:1570  (bool success, bytes memory data) = _addr.call{value: msg.value}(... */\n      swap2\n      pop\n      swap2\n      pop\n        /* \"call.sol\":1588:1611  Response(success, data) */\n      0x13848c3e38f8886f3f5d2ad9dff80d8092c2bbb8efd5b887a99c2c6cfc09ac2a\n        /* \"call.sol\":1597:1604  success */\n      dup3\n        /* \"call.sol\":1606:1610  data */\n      dup3\n        /* \"call.sol\":1588:1611  Response(success, data) */\n      mload(0x40)\n      tag_33\n      swap3\n      swap2\n      swap1\n      tag_26\n      jump\t// in\n    tag_33:\n      mload(0x40)\n      dup1\n      swap2\n      sub\n      swap1\n      log1\n        /* \"call.sol\":1429:1619  {... */\n      pop\n      pop\n        /* \"call.sol\":1361:1619  function testCallDoesNotExist(address payable _addr) public payable {... */\n      pop\n      jump\t// out\n        /* \"#utility.yul\":88:205   */\n    tag_35:\n        /* \"#utility.yul\":197:198   */\n      0x00\n        /* \"#utility.yul\":194:195   */\n      dup1\n        /* \"#utility.yul\":187:199   */\n      revert\n        /* \"#utility.yul\":334:460   */\n    tag_37:\n        /* \"#utility.yul\":371:378   */\n      0x00\n        /* \"#utility.yul\":411:453   */\n      0xffffffffffffffffffffffffffffffffffffffff\n        /* \"#utility.yul\":404:409   */\n      dup3\n        /* \"#utility.yul\":400:454   */\n      and\n        /* \"#utility.yul\":389:454   */\n      swap1\n      pop\n        /* \"#utility.yul\":334:460   */\n      swap2\n      swap1\n      pop\n      jump\t// out\n        /* \"#utility.yul\":466:570   */\n    tag_38:\n        /* \"#utility.yul\":511:518   */\n      0x00\n        /* \"#utility.yul\":540:564   */\n      tag_64\n        /* \"#utility.yul\":558:563   */\n      dup3\n        /* \"#utility.yul\":540:564   */\n      tag_37\n      jump\t// in\n    tag_64:\n        /* \"#utility.yul\":529:564   */\n      swap1\n      pop\n        /* \"#utility.yul\":466:570   */\n      swap2\n      swap1\n      pop\n      jump\t// out\n        /* \"#utility.yul\":576:714   */\n    tag_39:\n        /* \"#utility.yul\":657:689   */\n      tag_66\n        /* \"#utility.yul\":683:688   */\n      dup2\n        /* \"#utility.yul\":657:689   */\n      tag_38\n      jump\t// in\n    tag_66:\n        /* \"#utility.yul\":650:655   */\n      dup2\n        /* \"#utility.yul\":647:690   */\n      eq\n        /* \"#utility.yul\":637:708   */\n      tag_67\n      jumpi\n        /* \"#utility.yul\":704:705   */\n      0x00\n        /* \"#utility.yul\":701:702   */\n      dup1\n        /* \"#utility.yul\":694:706   */\n      revert\n        /* \"#utility.yul\":637:708   */\n    tag_67:\n        /* \"#utility.yul\":576:714   */\n      pop\n      jump\t// out\n        /* \"#utility.yul\":720:875   */\n    tag_40:\n        /* \"#utility.yul\":774:779   */\n      0x00\n        /* \"#utility.yul\":812:818   */\n      dup2\n        /* \"#utility.yul\":799:819   */\n      calldataload\n        /* \"#utility.yul\":790:819   */\n      swap1\n      pop\n        /* \"#utility.yul\":828:869   */\n      tag_69\n        /* \"#utility.yul\":863:868   */\n      dup2\n        /* \"#utility.yul\":828:869   */\n      tag_39\n      jump\t// in\n    tag_69:\n        /* \"#utility.yul\":720:875   */\n      swap3\n      swap2\n      pop\n      pop\n      jump\t// out\n        /* \"#utility.yul\":881:1226   */\n    tag_7:\n        /* \"#utility.yul\":948:954   */\n      0x00\n        /* \"#utility.yul\":997:999   */\n      0x20\n        /* \"#utility.yul\":985:994   */\n      dup3\n        /* \"#utility.yul\":976:983   */\n      dup5\n        /* \"#utility.yul\":972:995   */\n      sub\n        /* \"#utility.yul\":968:1000   */\n      slt\n        /* \"#utility.yul\":965:1084   */\n      iszero\n      tag_71\n      jumpi\n        /* \"#utility.yul\":1003:1082   */\n      tag_72\n      tag_35\n      jump\t// in\n    tag_72:\n        /* \"#utility.yul\":965:1084   */\n    tag_71:\n        /* \"#utility.yul\":1123:1124   */\n      0x00\n        /* \"#utility.yul\":1148:1209   */\n      tag_73\n        /* \"#utility.yul\":1201:1208   */\n      dup5\n        /* \"#utility.yul\":1192:1198   */\n      dup3\n        /* \"#utility.yul\":1181:1190   */\n      dup6\n        /* \"#utility.yul\":1177:1199   */\n      add\n        /* \"#utility.yul\":1148:1209   */\n      tag_40\n      jump\t// in\n    tag_73:\n        /* \"#utility.yul\":1138:1209   */\n      swap2\n      pop\n        /* \"#utility.yul\":1094:1219   */\n      pop\n        /* \"#utility.yul\":881:1226   */\n      swap3\n      swap2\n      pop\n      pop\n      jump\t// out\n        /* \"#utility.yul\":1232:1330   */\n    tag_41:\n        /* \"#utility.yul\":1283:1289   */\n      0x00\n        /* \"#utility.yul\":1317:1322   */\n      dup2\n        /* \"#utility.yul\":1311:1323   */\n      mload\n        /* \"#utility.yul\":1301:1323   */\n      swap1\n      pop\n        /* \"#utility.yul\":1232:1330   */\n      swap2\n      swap1\n      pop\n      jump\t// out\n        /* \"#utility.yul\":1336:1504   */\n    tag_42:\n        /* \"#utility.yul\":1419:1430   */\n      0x00\n        /* \"#utility.yul\":1453:1459   */\n      dup3\n        /* \"#utility.yul\":1448:1451   */\n      dup3\n        /* \"#utility.yul\":1441:1460   */\n      mstore\n        /* \"#utility.yul\":1493:1497   */\n      0x20\n        /* \"#utility.yul\":1488:1491   */\n      dup3\n        /* \"#utility.yul\":1484:1498   */\n      add\n        /* \"#utility.yul\":1469:1498   */\n      swap1\n      pop\n        /* \"#utility.yul\":1336:1504   */\n      swap3\n      swap2\n      pop\n      pop\n      jump\t// out\n        /* \"#utility.yul\":1510:1756   */\n    tag_43:\n        /* \"#utility.yul\":1591:1592   */\n      0x00\n        /* \"#utility.yul\":1601:1714   */\n    tag_77:\n        /* \"#utility.yul\":1615:1621   */\n      dup4\n        /* \"#utility.yul\":1612:1613   */\n      dup2\n        /* \"#utility.yul\":1609:1622   */\n      lt\n        /* \"#utility.yul\":1601:1714   */\n      iszero\n      tag_79\n      jumpi\n        /* \"#utility.yul\":1700:1701   */\n      dup1\n        /* \"#utility.yul\":1695:1698   */\n      dup3\n        /* \"#utility.yul\":1691:1702   */\n      add\n        /* \"#utility.yul\":1685:1703   */\n      mload\n        /* \"#utility.yul\":1681:1682   */\n      dup2\n        /* \"#utility.yul\":1676:1679   */\n      dup5\n        /* \"#utility.yul\":1672:1683   */\n      add\n        /* \"#utility.yul\":1665:1704   */\n      mstore\n        /* \"#utility.yul\":1637:1639   */\n      0x20\n        /* \"#utility.yul\":1634:1635   */\n      dup2\n        /* \"#utility.yul\":1630:1640   */\n      add\n        /* \"#utility.yul\":1625:1640   */\n      swap1\n      pop\n        /* \"#utility.yul\":1601:1714   */\n      jump(tag_77)\n    tag_79:\n        /* \"#utility.yul\":1748:1749   */\n      0x00\n        /* \"#utility.yul\":1739:1745   */\n      dup5\n        /* \"#utility.yul\":1734:1737   */\n      dup5\n        /* \"#utility.yul\":1730:1746   */\n      add\n        /* \"#utility.yul\":1723:1750   */\n      mstore\n        /* \"#utility.yul\":1572:1756   */\n      pop\n        /* \"#utility.yul\":1510:1756   */\n      pop\n      pop\n      pop\n      jump\t// out\n        /* \"#utility.yul\":1762:1864   */\n    tag_44:\n        /* \"#utility.yul\":1803:1809   */\n      0x00\n        /* \"#utility.yul\":1854:1856   */\n      0x1f\n        /* \"#utility.yul\":1850:1857   */\n      not\n        /* \"#utility.yul\":1845:1847   */\n      0x1f\n        /* \"#utility.yul\":1838:1843   */\n      dup4\n        /* \"#utility.yul\":1834:1848   */\n      add\n        /* \"#utility.yul\":1830:1858   */\n      and\n        /* \"#utility.yul\":1820:1858   */\n      swap1\n      pop\n        /* \"#utility.yul\":1762:1864   */\n      swap2\n      swap1\n      pop\n      jump\t// out\n        /* \"#utility.yul\":1870:2243   */\n    tag_45:\n        /* \"#utility.yul\":1956:1959   */\n      0x00\n        /* \"#utility.yul\":1984:2022   */\n      tag_82\n        /* \"#utility.yul\":2016:2021   */\n      dup3\n        /* \"#utility.yul\":1984:2022   */\n      tag_41\n      jump\t// in\n    tag_82:\n        /* \"#utility.yul\":2038:2108   */\n      tag_83\n        /* \"#utility.yul\":2101:2107   */\n      dup2\n        /* \"#utility.yul\":2096:2099   */\n      dup6\n        /* \"#utility.yul\":2038:2108   */\n      tag_42\n      jump\t// in\n    tag_83:\n        /* \"#utility.yul\":2031:2108   */\n      swap4\n      pop\n        /* \"#utility.yul\":2117:2182   */\n      tag_84\n        /* \"#utility.yul\":2175:2181   */\n      dup2\n        /* \"#utility.yul\":2170:2173   */\n      dup6\n        /* \"#utility.yul\":2163:2167   */\n      0x20\n        /* \"#utility.yul\":2156:2161   */\n      dup7\n        /* \"#utility.yul\":2152:2168   */\n      add\n        /* \"#utility.yul\":2117:2182   */\n      tag_43\n      jump\t// in\n    tag_84:\n        /* \"#utility.yul\":2207:2236   */\n      tag_85\n        /* \"#utility.yul\":2229:2235   */\n      dup2\n        /* \"#utility.yul\":2207:2236   */\n      tag_44\n      jump\t// in\n    tag_85:\n        /* \"#utility.yul\":2202:2205   */\n      dup5\n        /* \"#utility.yul\":2198:2237   */\n      add\n        /* \"#utility.yul\":2191:2237   */\n      swap2\n      pop\n        /* \"#utility.yul\":1960:2243   */\n      pop\n        /* \"#utility.yul\":1870:2243   */\n      swap3\n      swap2\n      pop\n      pop\n      jump\t// out\n        /* \"#utility.yul\":2249:2558   */\n    tag_13:\n        /* \"#utility.yul\":2360:2364   */\n      0x00\n        /* \"#utility.yul\":2398:2400   */\n      0x20\n        /* \"#utility.yul\":2387:2396   */\n      dup3\n        /* \"#utility.yul\":2383:2401   */\n      add\n        /* \"#utility.yul\":2375:2401   */\n      swap1\n      pop\n        /* \"#utility.yul\":2447:2456   */\n      dup2\n        /* \"#utility.yul\":2441:2445   */\n      dup2\n        /* \"#utility.yul\":2437:2457   */\n      sub\n        /* \"#utility.yul\":2433:2434   */\n      0x00\n        /* \"#utility.yul\":2422:2431   */\n      dup4\n        /* \"#utility.yul\":2418:2435   */\n      add\n        /* \"#utility.yul\":2411:2458   */\n      mstore\n        /* \"#utility.yul\":2475:2551   */\n      tag_87\n        /* \"#utility.yul\":2546:2550   */\n      dup2\n        /* \"#utility.yul\":2537:2543   */\n      dup5\n        /* \"#utility.yul\":2475:2551   */\n      tag_45\n      jump\t// in\n    tag_87:\n        /* \"#utility.yul\":2467:2551   */\n      swap1\n      pop\n        /* \"#utility.yul\":2249:2558   */\n      swap3\n      swap2\n      pop\n      pop\n      jump\t// out\n        /* \"#utility.yul\":2564:2733   */\n    tag_46:\n        /* \"#utility.yul\":2648:2659   */\n      0x00\n        /* \"#utility.yul\":2682:2688   */\n      dup3\n        /* \"#utility.yul\":2677:2680   */\n      dup3\n        /* \"#utility.yul\":2670:2689   */\n      mstore\n        /* \"#utility.yul\":2722:2726   */\n      0x20\n        /* \"#utility.yul\":2717:2720   */\n      dup3\n        /* \"#utility.yul\":2713:2727   */\n      add\n        /* \"#utility.yul\":2698:2727   */\n      swap1\n      pop\n        /* \"#utility.yul\":2564:2733   */\n      swap3\n      swap2\n      pop\n      pop\n      jump\t// out\n        /* \"#utility.yul\":2739:2897   */\n    tag_47:\n        /* \"#utility.yul\":2879:2889   */\n      0x63616c6c20666f6f000000000000000000000000000000000000000000000000\n        /* \"#utility.yul\":2875:2876   */\n      0x00\n        /* \"#utility.yul\":2867:2873   */\n      dup3\n        /* \"#utility.yul\":2863:2877   */\n      add\n        /* \"#utility.yul\":2856:2890   */\n      mstore\n        /* \"#utility.yul\":2739:2897   */\n      pop\n      jump\t// out\n        /* \"#utility.yul\":2903:3268   */\n    tag_48:\n        /* \"#utility.yul\":3045:3048   */\n      0x00\n        /* \"#utility.yul\":3066:3132   */\n      tag_91\n        /* \"#utility.yul\":3130:3131   */\n      0x08\n        /* \"#utility.yul\":3125:3128   */\n      dup4\n        /* \"#utility.yul\":3066:3132   */\n      tag_46\n      jump\t// in\n    tag_91:\n        /* \"#utility.yul\":3059:3132   */\n      swap2\n      pop\n        /* \"#utility.yul\":3141:3234   */\n      tag_92\n        /* \"#utility.yul\":3230:3233   */\n      dup3\n        /* \"#utility.yul\":3141:3234   */\n      tag_47\n      jump\t// in\n    tag_92:\n        /* \"#utility.yul\":3259:3261   */\n      0x20\n        /* \"#utility.yul\":3254:3257   */\n      dup3\n        /* \"#utility.yul\":3250:3262   */\n      add\n        /* \"#utility.yul\":3243:3262   */\n      swap1\n      pop\n        /* \"#utility.yul\":2903:3268   */\n      swap2\n      swap1\n      pop\n      jump\t// out\n        /* \"#utility.yul\":3274:3361   */\n    tag_49:\n        /* \"#utility.yul\":3321:3328   */\n      0x00\n        /* \"#utility.yul\":3350:3355   */\n      dup2\n        /* \"#utility.yul\":3339:3355   */\n      swap1\n      pop\n        /* \"#utility.yul\":3274:3361   */\n      swap2\n      swap1\n      pop\n      jump\t// out\n        /* \"#utility.yul\":3367:3453   */\n    tag_50:\n        /* \"#utility.yul\":3402:3409   */\n      0x00\n        /* \"#utility.yul\":3442:3446   */\n      0xff\n        /* \"#utility.yul\":3435:3440   */\n      dup3\n        /* \"#utility.yul\":3431:3447   */\n      and\n        /* \"#utility.yul\":3420:3447   */\n      swap1\n      pop\n        /* \"#utility.yul\":3367:3453   */\n      swap2\n      swap1\n      pop\n      jump\t// out\n        /* \"#utility.yul\":3459:3519   */\n    tag_51:\n        /* \"#utility.yul\":3487:3490   */\n      0x00\n        /* \"#utility.yul\":3508:3513   */\n      dup2\n        /* \"#utility.yul\":3501:3513   */\n      swap1\n      pop\n        /* \"#utility.yul\":3459:3519   */\n      swap2\n      swap1\n      pop\n      jump\t// out\n        /* \"#utility.yul\":3525:3683   */\n    tag_52:\n        /* \"#utility.yul\":3583:3592   */\n      0x00\n        /* \"#utility.yul\":3616:3677   */\n      tag_97\n        /* \"#utility.yul\":3632:3676   */\n      tag_98\n        /* \"#utility.yul\":3641:3675   */\n      tag_99\n        /* \"#utility.yul\":3669:3674   */\n      dup5\n        /* \"#utility.yul\":3641:3675   */\n      tag_49\n      jump\t// in\n    tag_99:\n        /* \"#utility.yul\":3632:3676   */\n      tag_51\n      jump\t// in\n    tag_98:\n        /* \"#utility.yul\":3616:3677   */\n      tag_50\n      jump\t// in\n    tag_97:\n        /* \"#utility.yul\":3603:3677   */\n      swap1\n      pop\n        /* \"#utility.yul\":3525:3683   */\n      swap2\n      swap1\n      pop\n      jump\t// out\n        /* \"#utility.yul\":3689:3836   */\n    tag_53:\n        /* \"#utility.yul\":3784:3829   */\n      tag_101\n        /* \"#utility.yul\":3823:3828   */\n      dup2\n        /* \"#utility.yul\":3784:3829   */\n      tag_52\n      jump\t// in\n    tag_101:\n        /* \"#utility.yul\":3779:3782   */\n      dup3\n        /* \"#utility.yul\":3772:3830   */\n      mstore\n        /* \"#utility.yul\":3689:3836   */\n      pop\n      pop\n      jump\t// out\n        /* \"#utility.yul\":3842:4387   */\n    tag_19:\n        /* \"#utility.yul\":4044:4048   */\n      0x00\n        /* \"#utility.yul\":4082:4084   */\n      0x40\n        /* \"#utility.yul\":4071:4080   */\n      dup3\n        /* \"#utility.yul\":4067:4085   */\n      add\n        /* \"#utility.yul\":4059:4085   */\n      swap1\n      pop\n        /* \"#utility.yul\":4131:4140   */\n      dup2\n        /* \"#utility.yul\":4125:4129   */\n      dup2\n        /* \"#utility.yul\":4121:4141   */\n      sub\n        /* \"#utility.yul\":4117:4118   */\n      0x00\n        /* \"#utility.yul\":4106:4115   */\n      dup4\n        /* \"#utility.yul\":4102:4119   */\n      add\n        /* \"#utility.yul\":4095:4142   */\n      mstore\n        /* \"#utility.yul\":4159:4290   */\n      tag_103\n        /* \"#utility.yul\":4285:4289   */\n      dup2\n        /* \"#utility.yul\":4159:4290   */\n      tag_48\n      jump\t// in\n    tag_103:\n        /* \"#utility.yul\":4151:4290   */\n      swap1\n      pop\n        /* \"#utility.yul\":4300:4380   */\n      tag_104\n        /* \"#utility.yul\":4376:4378   */\n      0x20\n        /* \"#utility.yul\":4365:4374   */\n      dup4\n        /* \"#utility.yul\":4361:4379   */\n      add\n        /* \"#utility.yul\":4352:4358   */\n      dup5\n        /* \"#utility.yul\":4300:4380   */\n      tag_53\n      jump\t// in\n    tag_104:\n        /* \"#utility.yul\":3842:4387   */\n      swap3\n      swap2\n      pop\n      pop\n      jump\t// out\n        /* \"#utility.yul\":4393:4540   */\n    tag_54:\n        /* \"#utility.yul\":4494:4505   */\n      0x00\n        /* \"#utility.yul\":4531:4534   */\n      dup2\n        /* \"#utility.yul\":4516:4534   */\n      swap1\n      pop\n        /* \"#utility.yul\":4393:4540   */\n      swap3\n      swap2\n      pop\n      pop\n      jump\t// out\n        /* \"#utility.yul\":4546:4932   */\n    tag_55:\n        /* \"#utility.yul\":4650:4653   */\n      0x00\n        /* \"#utility.yul\":4678:4716   */\n      tag_107\n        /* \"#utility.yul\":4710:4715   */\n      dup3\n        /* \"#utility.yul\":4678:4716   */\n      tag_41\n      jump\t// in\n    tag_107:\n        /* \"#utility.yul\":4732:4820   */\n      tag_108\n        /* \"#utility.yul\":4813:4819   */\n      dup2\n        /* \"#utility.yul\":4808:4811   */\n      dup6\n        /* \"#utility.yul\":4732:4820   */\n      tag_54\n      jump\t// in\n    tag_108:\n        /* \"#utility.yul\":4725:4820   */\n      swap4\n      pop\n        /* \"#utility.yul\":4829:4894   */\n      tag_109\n        /* \"#utility.yul\":4887:4893   */\n      dup2\n        /* \"#utility.yul\":4882:4885   */\n      dup6\n        /* \"#utility.yul\":4875:4879   */\n      0x20\n        /* \"#utility.yul\":4868:4873   */\n      dup7\n        /* \"#utility.yul\":4864:4880   */\n      add\n        /* \"#utility.yul\":4829:4894   */\n      tag_43\n      jump\t// in\n    tag_109:\n        /* \"#utility.yul\":4919:4925   */\n      dup1\n        /* \"#utility.yul\":4914:4917   */\n      dup5\n        /* \"#utility.yul\":4910:4926   */\n      add\n        /* \"#utility.yul\":4903:4926   */\n      swap2\n      pop\n        /* \"#utility.yul\":4654:4932   */\n      pop\n        /* \"#utility.yul\":4546:4932   */\n      swap3\n      swap2\n      pop\n      pop\n      jump\t// out\n        /* \"#utility.yul\":4938:5209   */\n    tag_21:\n        /* \"#utility.yul\":5068:5071   */\n      0x00\n        /* \"#utility.yul\":5090:5183   */\n      tag_111\n        /* \"#utility.yul\":5179:5182   */\n      dup3\n        /* \"#utility.yul\":5170:5176   */\n      dup5\n        /* \"#utility.yul\":5090:5183   */\n      tag_55\n      jump\t// in\n    tag_111:\n        /* \"#utility.yul\":5083:5183   */\n      swap2\n      pop\n        /* \"#utility.yul\":5200:5203   */\n      dup2\n        /* \"#utility.yul\":5193:5203   */\n      swap1\n      pop\n        /* \"#utility.yul\":4938:5209   */\n      swap3\n      swap2\n      pop\n      pop\n      jump\t// out\n        /* \"#utility.yul\":5215:5305   */\n    tag_56:\n        /* \"#utility.yul\":5249:5256   */\n      0x00\n        /* \"#utility.yul\":5292:5297   */\n      dup2\n        /* \"#utility.yul\":5285:5298   */\n      iszero\n        /* \"#utility.yul\":5278:5299   */\n      iszero\n        /* \"#utility.yul\":5267:5299   */\n      swap1\n      pop\n        /* \"#utility.yul\":5215:5305   */\n      swap2\n      swap1\n      pop\n      jump\t// out\n        /* \"#utility.yul\":5311:5420   */\n    tag_57:\n        /* \"#utility.yul\":5392:5413   */\n      tag_114\n        /* \"#utility.yul\":5407:5412   */\n      dup2\n        /* \"#utility.yul\":5392:5413   */\n      tag_56\n      jump\t// in\n    tag_114:\n        /* \"#utility.yul\":5387:5390   */\n      dup3\n        /* \"#utility.yul\":5380:5414   */\n      mstore\n        /* \"#utility.yul\":5311:5420   */\n      pop\n      pop\n      jump\t// out\n        /* \"#utility.yul\":5426:5833   */\n    tag_26:\n        /* \"#utility.yul\":5559:5563   */\n      0x00\n        /* \"#utility.yul\":5597:5599   */\n      0x40\n        /* \"#utility.yul\":5586:5595   */\n      dup3\n        /* \"#utility.yul\":5582:5600   */\n      add\n        /* \"#utility.yul\":5574:5600   */\n      swap1\n      pop\n        /* \"#utility.yul\":5610:5675   */\n      tag_116\n        /* \"#utility.yul\":5672:5673   */\n      0x00\n        /* \"#utility.yul\":5661:5670   */\n      dup4\n        /* \"#utility.yul\":5657:5674   */\n      add\n        /* \"#utility.yul\":5648:5654   */\n      dup6\n        /* \"#utility.yul\":5610:5675   */\n      tag_57\n      jump\t// in\n    tag_116:\n        /* \"#utility.yul\":5722:5731   */\n      dup2\n        /* \"#utility.yul\":5716:5720   */\n      dup2\n        /* \"#utility.yul\":5712:5732   */\n      sub\n        /* \"#utility.yul\":5707:5709   */\n      0x20\n        /* \"#utility.yul\":5696:5705   */\n      dup4\n        /* \"#utility.yul\":5692:5710   */\n      add\n        /* \"#utility.yul\":5685:5733   */\n      mstore\n        /* \"#utility.yul\":5750:5826   */\n      tag_117\n        /* \"#utility.yul\":5821:5825   */\n      dup2\n        /* \"#utility.yul\":5812:5818   */\n      dup5\n        /* \"#utility.yul\":5750:5826   */\n      tag_45\n      jump\t// in\n    tag_117:\n        /* \"#utility.yul\":5742:5826   */\n      swap1\n      pop\n        /* \"#utility.yul\":5426:5833   */\n      swap4\n      swap3\n      pop\n      pop\n      pop\n      jump\t// out\n\n    auxdata: 0xa264697066735822122057fc799b801de8132853fd69dd33d04f5a7bce99dd3c747adf03b5d521bef55d64736f6c63430008120033\n}\n",
				"bytecode": {
					"linkReferences": {},
					"object": "608060405234801561001057600080fd5b5061068a806100206000396000f3fe6080604052600436106100345760003560e01c806387ba617914610039578063b1c7db3c14610055578063ff00726c14610080575b600080fd5b610053600480360381019061004e91906103fa565b61009c565b005b34801561006157600080fd5b5061006a6101dd565b60405161007791906104b7565b60405180910390f35b61009a600480360381019061009591906103fa565b610267565b005b6000808273ffffffffffffffffffffffffffffffffffffffff163461138890607b6040516024016100cd9190610588565b6040516020818303038152906040527f24ccab8f000000000000000000000000000000000000000000000000000000007bffffffffffffffffffffffffffffffffffffffffffffffffffffffff19166020820180517bffffffffffffffffffffffffffffffffffffffffffffffffffffffff838183161783525050505060405161015791906105f2565b600060405180830381858888f193505050503d8060008114610195576040519150601f19603f3d011682016040523d82523d6000602084013e61019a565b606091505b50915091507f13848c3e38f8886f3f5d2ad9dff80d8092c2bbb8efd5b887a99c2c6cfc09ac2a82826040516101d0929190610624565b60405180910390a1505050565b60606040516024016040516020818303038152906040527f2fae309d000000000000000000000000000000000000000000000000000000007bffffffffffffffffffffffffffffffffffffffffffffffffffffffff19166020820180517bffffffffffffffffffffffffffffffffffffffffffffffffffffffff8381831617835250505050905090565b6000808273ffffffffffffffffffffffffffffffffffffffff16346040516024016040516020818303038152906040527fc2113c05000000000000000000000000000000000000000000000000000000007bffffffffffffffffffffffffffffffffffffffffffffffffffffffff19166020820180517bffffffffffffffffffffffffffffffffffffffffffffffffffffffff838183161783525050505060405161031291906105f2565b60006040518083038185875af1925050503d806000811461034f576040519150601f19603f3d011682016040523d82523d6000602084013e610354565b606091505b50915091507f13848c3e38f8886f3f5d2ad9dff80d8092c2bbb8efd5b887a99c2c6cfc09ac2a828260405161038a929190610624565b60405180910390a1505050565b600080fd5b600073ffffffffffffffffffffffffffffffffffffffff82169050919050565b60006103c78261039c565b9050919050565b6103d7816103bc565b81146103e257600080fd5b50565b6000813590506103f4816103ce565b92915050565b6000602082840312156104105761040f610397565b5b600061041e848285016103e5565b91505092915050565b600081519050919050565b600082825260208201905092915050565b60005b83811015610461578082015181840152602081019050610446565b60008484015250505050565b6000601f19601f8301169050919050565b600061048982610427565b6104938185610432565b93506104a3818560208601610443565b6104ac8161046d565b840191505092915050565b600060208201905081810360008301526104d1818461047e565b905092915050565b600082825260208201905092915050565b7f63616c6c20666f6f000000000000000000000000000000000000000000000000600082015250565b60006105206008836104d9565b915061052b826104ea565b602082019050919050565b6000819050919050565b600060ff82169050919050565b6000819050919050565b600061057261056d61056884610536565b61054d565b610540565b9050919050565b61058281610557565b82525050565b600060408201905081810360008301526105a181610513565b90506105b06020830184610579565b92915050565b600081905092915050565b60006105cc82610427565b6105d681856105b6565b93506105e6818560208601610443565b80840191505092915050565b60006105fe82846105c1565b915081905092915050565b60008115159050919050565b61061e81610609565b82525050565b60006040820190506106396000830185610615565b818103602083015261064b818461047e565b9050939250505056fea264697066735822122057fc799b801de8132853fd69dd33d04f5a7bce99dd3c747adf03b5d521bef55d64736f6c63430008120033",
					"opcodes": "PUSH1 0x80 PUSH1 0x40 MSTORE CALLVALUE DUP1 ISZERO PUSH2 0x10 JUMPI PUSH1 0x0 DUP1 REVERT JUMPDEST POP PUSH2 0x68A DUP1 PUSH2 0x20 PUSH1 0x0 CODECOPY PUSH1 0x0 RETURN INVALID PUSH1 0x80 PUSH1 0x40 MSTORE PUSH1 0x4 CALLDATASIZE LT PUSH2 0x34 JUMPI PUSH1 0x0 CALLDATALOAD PUSH1 0xE0 SHR DUP1 PUSH4 0x87BA6179 EQ PUSH2 0x39 JUMPI DUP1 PUSH4 0xB1C7DB3C EQ PUSH2 0x55 JUMPI DUP1 PUSH4 0xFF00726C EQ PUSH2 0x80 JUMPI JUMPDEST PUSH1 0x0 DUP1 REVERT JUMPDEST PUSH2 0x53 PUSH1 0x4 DUP1 CALLDATASIZE SUB DUP2 ADD SWAP1 PUSH2 0x4E SWAP2 SWAP1 PUSH2 0x3FA JUMP JUMPDEST PUSH2 0x9C JUMP JUMPDEST STOP JUMPDEST CALLVALUE DUP1 ISZERO PUSH2 0x61 JUMPI PUSH1 0x0 DUP1 REVERT JUMPDEST POP PUSH2 0x6A PUSH2 0x1DD JUMP JUMPDEST PUSH1 0x40 MLOAD PUSH2 0x77 SWAP2 SWAP1 PUSH2 0x4B7 JUMP JUMPDEST PUSH1 0x40 MLOAD DUP1 SWAP2 SUB SWAP1 RETURN JUMPDEST PUSH2 0x9A PUSH1 0x4 DUP1 CALLDATASIZE SUB DUP2 ADD SWAP1 PUSH2 0x95 SWAP2 SWAP1 PUSH2 0x3FA JUMP JUMPDEST PUSH2 0x267 JUMP JUMPDEST STOP JUMPDEST PUSH1 0x0 DUP1 DUP3 PUSH20 0xFFFFFFFFFFFFFFFFFFFFFFFFFFFFFFFFFFFFFFFF AND CALLVALUE PUSH2 0x1388 SWAP1 PUSH1 0x7B PUSH1 0x40 MLOAD PUSH1 0x24 ADD PUSH2 0xCD SWAP2 SWAP1 PUSH2 0x588 JUMP JUMPDEST PUSH1 0x40 MLOAD PUSH1 0x20 DUP2 DUP4 SUB SUB DUP2 MSTORE SWAP1 PUSH1 0x40 MSTORE PUSH32 0x24CCAB8F00000000000000000000000000000000000000000000000000000000 PUSH28 0xFFFFFFFFFFFFFFFFFFFFFFFFFFFFFFFFFFFFFFFFFFFFFFFFFFFFFFFF NOT AND PUSH1 0x20 DUP3 ADD DUP1 MLOAD PUSH28 0xFFFFFFFFFFFFFFFFFFFFFFFFFFFFFFFFFFFFFFFFFFFFFFFFFFFFFFFF DUP4 DUP2 DUP4 AND OR DUP4 MSTORE POP POP POP POP PUSH1 0x40 MLOAD PUSH2 0x157 SWAP2 SWAP1 PUSH2 0x5F2 JUMP JUMPDEST PUSH1 0x0 PUSH1 0x40 MLOAD DUP1 DUP4 SUB DUP2 DUP6 DUP9 DUP9 CALL SWAP4 POP POP POP POP RETURNDATASIZE DUP1 PUSH1 0x0 DUP2 EQ PUSH2 0x195 JUMPI PUSH1 0x40 MLOAD SWAP2 POP PUSH1 0x1F NOT PUSH1 0x3F RETURNDATASIZE ADD AND DUP3 ADD PUSH1 0x40 MSTORE RETURNDATASIZE DUP3 MSTORE RETURNDATASIZE PUSH1 0x0 PUSH1 0x20 DUP5 ADD RETURNDATACOPY PUSH2 0x19A JUMP JUMPDEST PUSH1 0x60 SWAP2 POP JUMPDEST POP SWAP2 POP SWAP2 POP PUSH32 0x13848C3E38F8886F3F5D2AD9DFF80D8092C2BBB8EFD5B887A99C2C6CFC09AC2A DUP3 DUP3 PUSH1 0x40 MLOAD PUSH2 0x1D0 SWAP3 SWAP2 SWAP1 PUSH2 0x624 JUMP JUMPDEST PUSH1 0x40 MLOAD DUP1 SWAP2 SUB SWAP1 LOG1 POP POP POP JUMP JUMPDEST PUSH1 0x60 PUSH1 0x40 MLOAD PUSH1 0x24 ADD PUSH1 0x40 MLOAD PUSH1 0x20 DUP2 DUP4 SUB SUB DUP2 MSTORE SWAP1 PUSH1 0x40 MSTORE PUSH32 0x2FAE309D00000000000000000000000000000000000000000000000000000000 PUSH28 0xFFFFFFFFFFFFFFFFFFFFFFFFFFFFFFFFFFFFFFFFFFFFFFFFFFFFFFFF NOT AND PUSH1 0x20 DUP3 ADD DUP1 MLOAD PUSH28 0xFFFFFFFFFFFFFFFFFFFFFFFFFFFFFFFFFFFFFFFFFFFFFFFFFFFFFFFF DUP4 DUP2 DUP4 AND OR DUP4 MSTORE POP POP POP POP SWAP1 POP SWAP1 JUMP JUMPDEST PUSH1 0x0 DUP1 DUP3 PUSH20 0xFFFFFFFFFFFFFFFFFFFFFFFFFFFFFFFFFFFFFFFF AND CALLVALUE PUSH1 0x40 MLOAD PUSH1 0x24 ADD PUSH1 0x40 MLOAD PUSH1 0x20 DUP2 DUP4 SUB SUB DUP2 MSTORE SWAP1 PUSH1 0x40 MSTORE PUSH32 0xC2113C0500000000000000000000000000000000000000000000000000000000 PUSH28 0xFFFFFFFFFFFFFFFFFFFFFFFFFFFFFFFFFFFFFFFFFFFFFFFFFFFFFFFF NOT AND PUSH1 0x20 DUP3 ADD DUP1 MLOAD PUSH28 0xFFFFFFFFFFFFFFFFFFFFFFFFFFFFFFFFFFFFFFFFFFFFFFFFFFFFFFFF DUP4 DUP2 DUP4 AND OR DUP4 MSTORE POP POP POP POP PUSH1 0x40 MLOAD PUSH2 0x312 SWAP2 SWAP1 PUSH2 0x5F2 JUMP JUMPDEST PUSH1 0x0 PUSH1 0x40 MLOAD DUP1 DUP4 SUB DUP2 DUP6 DUP8 GAS CALL SWAP3 POP POP POP RETURNDATASIZE DUP1 PUSH1 0x0 DUP2 EQ PUSH2 0x34F JUMPI PUSH1 0x40 MLOAD SWAP2 POP PUSH1 0x1F NOT PUSH1 0x3F RETURNDATASIZE ADD AND DUP3 ADD PUSH1 0x40 MSTORE RETURNDATASIZE DUP3 MSTORE RETURNDATASIZE PUSH1 0x0 PUSH1 0x20 DUP5 ADD RETURNDATACOPY PUSH2 0x354 JUMP JUMPDEST PUSH1 0x60 SWAP2 POP JUMPDEST POP SWAP2 POP SWAP2 POP PUSH32 0x13848C3E38F8886F3F5D2AD9DFF80D8092C2BBB8EFD5B887A99C2C6CFC09AC2A DUP3 DUP3 PUSH1 0x40 MLOAD PUSH2 0x38A SWAP3 SWAP2 SWAP1 PUSH2 0x624 JUMP JUMPDEST PUSH1 0x40 MLOAD DUP1 SWAP2 SUB SWAP1 LOG1 POP POP POP JUMP JUMPDEST PUSH1 0x0 DUP1 REVERT JUMPDEST PUSH1 0x0 PUSH20 0xFFFFFFFFFFFFFFFFFFFFFFFFFFFFFFFFFFFFFFFF DUP3 AND SWAP1 POP SWAP2 SWAP1 POP JUMP JUMPDEST PUSH1 0x0 PUSH2 0x3C7 DUP3 PUSH2 0x39C JUMP JUMPDEST SWAP1 POP SWAP2 SWAP1 POP JUMP JUMPDEST PUSH2 0x3D7 DUP2 PUSH2 0x3BC JUMP JUMPDEST DUP2 EQ PUSH2 0x3E2 JUMPI PUSH1 0x0 DUP1 REVERT JUMPDEST POP JUMP JUMPDEST PUSH1 0x0 DUP2 CALLDATALOAD SWAP1 POP PUSH2 0x3F4 DUP2 PUSH2 0x3CE JUMP JUMPDEST SWAP3 SWAP2 POP POP JUMP JUMPDEST PUSH1 0x0 PUSH1 0x20 DUP3 DUP5 SUB SLT ISZERO PUSH2 0x410 JUMPI PUSH2 0x40F PUSH2 0x397 JUMP JUMPDEST JUMPDEST PUSH1 0x0 PUSH2 0x41E DUP5 DUP3 DUP6 ADD PUSH2 0x3E5 JUMP JUMPDEST SWAP2 POP POP SWAP3 SWAP2 POP POP JUMP JUMPDEST PUSH1 0x0 DUP2 MLOAD SWAP1 POP SWAP2 SWAP1 POP JUMP JUMPDEST PUSH1 0x0 DUP3 DUP3 MSTORE PUSH1 0x20 DUP3 ADD SWAP1 POP SWAP3 SWAP2 POP POP JUMP JUMPDEST PUSH1 0x0 JUMPDEST DUP4 DUP2 LT ISZERO PUSH2 0x461 JUMPI DUP1 DUP3 ADD MLOAD DUP2 DUP5 ADD MSTORE PUSH1 0x20 DUP2 ADD SWAP1 POP PUSH2 0x446 JUMP JUMPDEST PUSH1 0x0 DUP5 DUP5 ADD MSTORE POP POP POP POP JUMP JUMPDEST PUSH1 0x0 PUSH1 0x1F NOT PUSH1 0x1F DUP4 ADD AND SWAP1 POP SWAP2 SWAP1 POP JUMP JUMPDEST PUSH1 0x0 PUSH2 0x489 DUP3 PUSH2 0x427 JUMP JUMPDEST PUSH2 0x493 DUP2 DUP6 PUSH2 0x432 JUMP JUMPDEST SWAP4 POP PUSH2 0x4A3 DUP2 DUP6 PUSH1 0x20 DUP7 ADD PUSH2 0x443 JUMP JUMPDEST PUSH2 0x4AC DUP2 PUSH2 0x46D JUMP JUMPDEST DUP5 ADD SWAP2 POP POP SWAP3 SWAP2 POP POP JUMP JUMPDEST PUSH1 0x0 PUSH1 0x20 DUP3 ADD SWAP1 POP DUP2 DUP2 SUB PUSH1 0x0 DUP4 ADD MSTORE PUSH2 0x4D1 DUP2 DUP5 PUSH2 0x47E JUMP JUMPDEST SWAP1 POP SWAP3 SWAP2 POP POP JUMP JUMPDEST PUSH1 0x0 DUP3 DUP3 MSTORE PUSH1 0x20 DUP3 ADD SWAP1 POP SWAP3 SWAP2 POP POP JUMP JUMPDEST PUSH32 0x63616C6C20666F6F000000000000000000000000000000000000000000000000 PUSH1 0x0 DUP3 ADD MSTORE POP JUMP JUMPDEST PUSH1 0x0 PUSH2 0x520 PUSH1 0x8 DUP4 PUSH2 0x4D9 JUMP JUMPDEST SWAP2 POP PUSH2 0x52B DUP3 PUSH2 0x4EA JUMP JUMPDEST PUSH1 0x20 DUP3 ADD SWAP1 POP SWAP2 SWAP1 POP JUMP JUMPDEST PUSH1 0x0 DUP2 SWAP1 POP SWAP2 SWAP1 POP JUMP JUMPDEST PUSH1 0x0 PUSH1 0xFF DUP3 AND SWAP1 POP SWAP2 SWAP1 POP JUMP JUMPDEST PUSH1 0x0 DUP2 SWAP1 POP SWAP2 SWAP1 POP JUMP JUMPDEST PUSH1 0x0 PUSH2 0x572 PUSH2 0x56D PUSH2 0x568 DUP5 PUSH2 0x536 JUMP JUMPDEST PUSH2 0x54D JUMP JUMPDEST PUSH2 0x540 JUMP JUMPDEST SWAP1 POP SWAP2 SWAP1 POP JUMP JUMPDEST PUSH2 0x582 DUP2 PUSH2 0x557 JUMP JUMPDEST DUP3 MSTORE POP POP JUMP JUMPDEST PUSH1 0x0 PUSH1 0x40 DUP3 ADD SWAP1 POP DUP2 DUP2 SUB PUSH1 0x0 DUP4 ADD MSTORE PUSH2 0x5A1 DUP2 PUSH2 0x513 JUMP JUMPDEST SWAP1 POP PUSH2 0x5B0 PUSH1 0x20 DUP4 ADD DUP5 PUSH2 0x579 JUMP JUMPDEST SWAP3 SWAP2 POP POP JUMP JUMPDEST PUSH1 0x0 DUP2 SWAP1 POP SWAP3 SWAP2 POP POP JUMP JUMPDEST PUSH1 0x0 PUSH2 0x5CC DUP3 PUSH2 0x427 JUMP JUMPDEST PUSH2 0x5D6 DUP2 DUP6 PUSH2 0x5B6 JUMP JUMPDEST SWAP4 POP PUSH2 0x5E6 DUP2 DUP6 PUSH1 0x20 DUP7 ADD PUSH2 0x443 JUMP JUMPDEST DUP1 DUP5 ADD SWAP2 POP POP SWAP3 SWAP2 POP POP JUMP JUMPDEST PUSH1 0x0 PUSH2 0x5FE DUP3 DUP5 PUSH2 0x5C1 JUMP JUMPDEST SWAP2 POP DUP2 SWAP1 POP SWAP3 SWAP2 POP POP JUMP JUMPDEST PUSH1 0x0 DUP2 ISZERO ISZERO SWAP1 POP SWAP2 SWAP1 POP JUMP JUMPDEST PUSH2 0x61E DUP2 PUSH2 0x609 JUMP JUMPDEST DUP3 MSTORE POP POP JUMP JUMPDEST PUSH1 0x0 PUSH1 0x40 DUP3 ADD SWAP1 POP PUSH2 0x639 PUSH1 0x0 DUP4 ADD DUP6 PUSH2 0x615 JUMP JUMPDEST DUP2 DUP2 SUB PUSH1 0x20 DUP4 ADD MSTORE PUSH2 0x64B DUP2 DUP5 PUSH2 0x47E JUMP JUMPDEST SWAP1 POP SWAP4 SWAP3 POP POP POP JUMP INVALID LOG2 PUSH5 0x6970667358 0x22 SLT KECCAK256 JUMPI 0xFC PUSH26 0x9B801DE8132853FD69DD33D04F5A7BCE99DD3C747ADF03B5D521 0xBE CREATE2 0x5D PUSH5 0x736F6C6343 STOP ADDMOD SLT STOP CALLER "
				},
				"gasEstimates": {
					"creation": {
						"codeDepositCost": "334800",
						"executionCost": "374",
						"totalCost": "335174"
					},
					"external": {
						"getFooAbi()": "infinite",
						"testCallDoesNotExist(address)": "infinite",
						"testCallFoo(address)": "infinite"
					}
				},
				"methodIdentifiers": {
					"getFooAbi()": "b1c7db3c",
					"testCallDoesNotExist(address)": "ff00726c",
					"testCallFoo(address)": "87ba6179"
				}
			},
			"storageLayout": {
				"storage": [],
				"types": null
			},
			"userdoc": {
				"kind": "user",
				"methods": {},
				"version": 1
			}
		}
	}
}