{
	"call.sol": {
		"Receiver": {
			"abi": [
				{
					"anonymous": false,
					"inputs": [
						{
							"indexed": false,
							"internalType": "address",
							"name": "caller",
							"type": "address"
						},
						{
							"indexed": false,
							"internalType": "uint256",
							"name": "amount",
							"type": "uint256"
						},
						{
							"indexed": false,
							"internalType": "string",
							"name": "message",
							"type": "string"
						}
					],
					"name": "Received",
					"type": "event"
				},
				{
					"stateMutability": "payable",
					"type": "fallback"
				},
				{
					"inputs": [
						{
							"internalType": "string",
							"name": "_message",
							"type": "string"
						},
						{
							"internalType": "uint256",
							"name": "_x",
							"type": "uint256"
						}
					],
					"name": "foo",
					"outputs": [
						{
							"internalType": "uint256",
							"name": "",
							"type": "uint256"
						}
					],
					"stateMutability": "payable",
					"type": "function"
				},
				{
					"inputs": [],
					"name": "getFooAbi",
					"outputs": [
						{
							"internalType": "bytes",
							"name": "",
							"type": "bytes"
						}
					],
					"stateMutability": "view",
					"type": "function"
				},
				{
					"stateMutability": "payable",
					"type": "receive"
				}
			],
			"devdoc": {
				"kind": "dev",
				"methods": {},
				"version": 1
			},
			"evm": {
				"assembly": "    /* \"call.sol\":61:610  contract Receiver {... */\n  mstore(0x40, 0x80)\n  callvalue\n  dup1\n  iszero\n  tag_1\n  jumpi\n  0x00\n  dup1\n  revert\ntag_1:\n  pop\n  dataSize(sub_0)\n  dup1\n  dataOffset(sub_0)\n  0x00\n  codecopy\n  0x00\n  return\nstop\n\nsub_0: assembly {\n        /* \"call.sol\":61:610  contract Receiver {... */\n      mstore(0x40, 0x80)\n      jumpi(tag_1, lt(calldatasize, 0x04))\n      shr(0xe0, calldataload(0x00))\n      dup1\n      0x24ccab8f\n      eq\n      tag_3\n      jumpi\n      dup1\n      0xb1c7db3c\n      eq\n      tag_4\n      jumpi\n      jump(tag_2)\n    tag_1:\n      jumpi(tag_2, calldatasize)\n      stop\n    tag_2:\n        /* \"call.sol\":236:290  Received(msg.sender, msg.value, \"Fallback was called\") */\n      0x59e04c3f0d44b7caf6e8ef854b61d9a51cf1960d7a88ff6356cc5e946b4b5832\n        /* \"call.sol\":245:255  msg.sender */\n      caller\n        /* \"call.sol\":257:266  msg.value */\n      callvalue\n        /* \"call.sol\":236:290  Received(msg.sender, msg.value, \"Fallback was called\") */\n      mload(0x40)\n      tag_9\n      swap3\n      swap2\n      swap1\n      tag_10\n      jump\t// in\n    tag_9:\n      mload(0x40)\n      dup1\n      swap2\n      sub\n      swap1\n      log1\n        /* \"call.sol\":61:610  contract Receiver {... */\n      stop\n        /* \"call.sol\":306:473  function foo(string memory _message, uint _x) public payable returns (uint) {... */\n    tag_3:\n      tag_11\n      0x04\n      dup1\n      calldatasize\n      sub\n      dup2\n      add\n      swap1\n      tag_12\n      swap2\n      swap1\n      tag_13\n      jump\t// in\n    tag_12:\n      tag_14\n      jump\t// in\n    tag_11:\n      mload(0x40)\n      tag_15\n      swap2\n      swap1\n      tag_16\n      jump\t// in\n    tag_15:\n      mload(0x40)\n      dup1\n      swap2\n      sub\n      swap1\n      return\n        /* \"call.sol\":481:605  function getFooAbi() public view returns (bytes memory){... */\n    tag_4:\n      callvalue\n      dup1\n      iszero\n      tag_17\n      jumpi\n      0x00\n      dup1\n      revert\n    tag_17:\n      pop\n      tag_18\n      tag_19\n      jump\t// in\n    tag_18:\n      mload(0x40)\n      tag_20\n      swap2\n      swap1\n      tag_21\n      jump\t// in\n    tag_20:\n      mload(0x40)\n      dup1\n      swap2\n      sub\n      swap1\n      return\n        /* \"call.sol\":306:473  function foo(string memory _message, uint _x) public payable returns (uint) {... */\n    tag_14:\n        /* \"call.sol\":376:380  uint */\n      0x00\n        /* \"call.sol\":398:439  Received(msg.sender, msg.value, _message) */\n      0x59e04c3f0d44b7caf6e8ef854b61d9a51cf1960d7a88ff6356cc5e946b4b5832\n        /* \"call.sol\":407:417  msg.sender */\n      caller\n        /* \"call.sol\":419:428  msg.value */\n      callvalue\n        /* \"call.sol\":430:438  _message */\n      dup6\n        /* \"call.sol\":398:439  Received(msg.sender, msg.value, _message) */\n      mload(0x40)\n      tag_23\n      swap4\n      swap3\n      swap2\n      swap1\n      tag_24\n      jump\t// in\n    tag_23:\n      mload(0x40)\n      dup1\n      swap2\n      sub\n      swap1\n      log1\n        /* \"call.sol\":464:465  1 */\n      0x01\n        /* \"call.sol\":459:461  _x */\n      dup3\n        /* \"call.sol\":459:465  _x + 1 */\n      tag_25\n      swap2\n      swap1\n      tag_26\n      jump\t// in\n    tag_25:\n        /* \"call.sol\":452:465  return _x + 1 */\n      swap1\n      pop\n        /* \"call.sol\":306:473  function foo(string memory _message, uint _x) public payable returns (uint) {... */\n      swap3\n      swap2\n      pop\n      pop\n      jump\t// out\n        /* \"call.sol\":481:605  function getFooAbi() public view returns (bytes memory){... */\n    tag_19:\n        /* \"call.sol\":523:535  bytes memory */\n      0x60\n        /* \"call.sol\":569:573  this */\n      address\n        /* \"call.sol\":569:577  this.foo */\n      0xffffffffffffffffffffffffffffffffffffffff\n      and\n      0x24ccab8f\n        /* \"call.sol\":592:595  123 */\n      0x7b\n        /* \"call.sol\":554:597  abi.encodeCall(this.foo, (\"call foo\", 123)) */\n      add(0x24, mload(0x40))\n      tag_28\n      swap2\n      swap1\n      tag_29\n      jump\t// in\n    tag_28:\n      mload(0x40)\n      0x20\n      dup2\n      dup4\n      sub\n      sub\n      dup2\n      mstore\n      swap1\n      0x40\n      mstore\n      swap2\n      pop\n      0xe0\n      shl\n      0x20\n      dup3\n      add\n      dup1\n      mload\n      0xffffffffffffffffffffffffffffffffffffffffffffffffffffffff\n      dup4\n      dup2\n      dup4\n      and\n      or\n      dup4\n      mstore\n      pop\n      pop\n      pop\n      pop\n        /* \"call.sol\":547:597  return abi.encodeCall(this.foo, (\"call foo\", 123)) */\n      swap1\n      pop\n        /* \"call.sol\":481:605  function getFooAbi() public view returns (bytes memory){... */\n      swap1\n      jump\t// out\n        /* \"#utility.yul\":7:133   */\n    tag_30:\n        /* \"#utility.yul\":44:51   */\n      0x00\n        /* \"#utility.yul\":84:126   */\n      0xffffffffffffffffffffffffffffffffffffffff\n        /* \"#utility.yul\":77:82   */\n      dup3\n        /* \"#utility.yul\":73:127   */\n      and\n        /* \"#utility.yul\":62:127   */\n      swap1\n      pop\n        /* \"#utility.yul\":7:133   */\n      swap2\n      swap1\n      pop\n      jump\t// out\n        /* \"#utility.yul\":139:235   */\n    tag_31:\n        /* \"#utility.yul\":176:183   */\n      0x00\n        /* \"#utility.yul\":205:229   */\n      tag_69\n        /* \"#utility.yul\":223:228   */\n      dup3\n        /* \"#utility.yul\":205:229   */\n      tag_30\n      jump\t// in\n    tag_69:\n        /* \"#utility.yul\":194:229   */\n      swap1\n      pop\n        /* \"#utility.yul\":139:235   */\n      swap2\n      swap1\n      pop\n      jump\t// out\n        /* \"#utility.yul\":241:359   */\n    tag_32:\n        /* \"#utility.yul\":328:352   */\n      tag_71\n        /* \"#utility.yul\":346:351   */\n      dup2\n        /* \"#utility.yul\":328:352   */\n      tag_31\n      jump\t// in\n    tag_71:\n        /* \"#utility.yul\":323:326   */\n      dup3\n        /* \"#utility.yul\":316:353   */\n      mstore\n        /* \"#utility.yul\":241:359   */\n      pop\n      pop\n      jump\t// out\n        /* \"#utility.yul\":365:442   */\n    tag_33:\n        /* \"#utility.yul\":402:409   */\n      0x00\n        /* \"#utility.yul\":431:436   */\n      dup2\n        /* \"#utility.yul\":420:436   */\n      swap1\n      pop\n        /* \"#utility.yul\":365:442   */\n      swap2\n      swap1\n      pop\n      jump\t// out\n        /* \"#utility.yul\":448:566   */\n    tag_34:\n        /* \"#utility.yul\":535:559   */\n      tag_74\n        /* \"#utility.yul\":553:558   */\n      dup2\n        /* \"#utility.yul\":535:559   */\n      tag_33\n      jump\t// in\n    tag_74:\n        /* \"#utility.yul\":530:533   */\n      dup3\n        /* \"#utility.yul\":523:560   */\n      mstore\n        /* \"#utility.yul\":448:566   */\n      pop\n      pop\n      jump\t// out\n        /* \"#utility.yul\":572:741   */\n    tag_35:\n        /* \"#utility.yul\":656:667   */\n      0x00\n        /* \"#utility.yul\":690:696   */\n      dup3\n        /* \"#utility.yul\":685:688   */\n      dup3\n        /* \"#utility.yul\":678:697   */\n      mstore\n        /* \"#utility.yul\":730:734   */\n      0x20\n        /* \"#utility.yul\":725:728   */\n      dup3\n        /* \"#utility.yul\":721:735   */\n      add\n        /* \"#utility.yul\":706:735   */\n      swap1\n      pop\n        /* \"#utility.yul\":572:741   */\n      swap3\n      swap2\n      pop\n      pop\n      jump\t// out\n        /* \"#utility.yul\":747:916   */\n    tag_36:\n        /* \"#utility.yul\":887:908   */\n      0x46616c6c6261636b207761732063616c6c656400000000000000000000000000\n        /* \"#utility.yul\":883:884   */\n      0x00\n        /* \"#utility.yul\":875:881   */\n      dup3\n        /* \"#utility.yul\":871:885   */\n      add\n        /* \"#utility.yul\":864:909   */\n      mstore\n        /* \"#utility.yul\":747:916   */\n      pop\n      jump\t// out\n        /* \"#utility.yul\":922:1288   */\n    tag_37:\n        /* \"#utility.yul\":1064:1067   */\n      0x00\n        /* \"#utility.yul\":1085:1152   */\n      tag_78\n        /* \"#utility.yul\":1149:1151   */\n      0x13\n        /* \"#utility.yul\":1144:1147   */\n      dup4\n        /* \"#utility.yul\":1085:1152   */\n      tag_35\n      jump\t// in\n    tag_78:\n        /* \"#utility.yul\":1078:1152   */\n      swap2\n      pop\n        /* \"#utility.yul\":1161:1254   */\n      tag_79\n        /* \"#utility.yul\":1250:1253   */\n      dup3\n        /* \"#utility.yul\":1161:1254   */\n      tag_36\n      jump\t// in\n    tag_79:\n        /* \"#utility.yul\":1279:1281   */\n      0x20\n        /* \"#utility.yul\":1274:1277   */\n      dup3\n        /* \"#utility.yul\":1270:1282   */\n      add\n        /* \"#utility.yul\":1263:1282   */\n      swap1\n      pop\n        /* \"#utility.yul\":922:1288   */\n      swap2\n      swap1\n      pop\n      jump\t// out\n        /* \"#utility.yul\":1294:1933   */\n    tag_10:\n        /* \"#utility.yul\":1516:1520   */\n      0x00\n        /* \"#utility.yul\":1554:1556   */\n      0x60\n        /* \"#utility.yul\":1543:1552   */\n      dup3\n        /* \"#utility.yul\":1539:1557   */\n      add\n        /* \"#utility.yul\":1531:1557   */\n      swap1\n      pop\n        /* \"#utility.yul\":1567:1638   */\n      tag_81\n        /* \"#utility.yul\":1635:1636   */\n      0x00\n        /* \"#utility.yul\":1624:1633   */\n      dup4\n        /* \"#utility.yul\":1620:1637   */\n      add\n        /* \"#utility.yul\":1611:1617   */\n      dup6\n        /* \"#utility.yul\":1567:1638   */\n      tag_32\n      jump\t// in\n    tag_81:\n        /* \"#utility.yul\":1648:1720   */\n      tag_82\n        /* \"#utility.yul\":1716:1718   */\n      0x20\n        /* \"#utility.yul\":1705:1714   */\n      dup4\n        /* \"#utility.yul\":1701:1719   */\n      add\n        /* \"#utility.yul\":1692:1698   */\n      dup5\n        /* \"#utility.yul\":1648:1720   */\n      tag_34\n      jump\t// in\n    tag_82:\n        /* \"#utility.yul\":1767:1776   */\n      dup2\n        /* \"#utility.yul\":1761:1765   */\n      dup2\n        /* \"#utility.yul\":1757:1777   */\n      sub\n        /* \"#utility.yul\":1752:1754   */\n      0x40\n        /* \"#utility.yul\":1741:1750   */\n      dup4\n        /* \"#utility.yul\":1737:1755   */\n      add\n        /* \"#utility.yul\":1730:1778   */\n      mstore\n        /* \"#utility.yul\":1795:1926   */\n      tag_83\n        /* \"#utility.yul\":1921:1925   */\n      dup2\n        /* \"#utility.yul\":1795:1926   */\n      tag_37\n      jump\t// in\n    tag_83:\n        /* \"#utility.yul\":1787:1926   */\n      swap1\n      pop\n        /* \"#utility.yul\":1294:1933   */\n      swap4\n      swap3\n      pop\n      pop\n      pop\n      jump\t// out\n        /* \"#utility.yul\":1939:2014   */\n    tag_38:\n        /* \"#utility.yul\":1972:1978   */\n      0x00\n        /* \"#utility.yul\":2005:2007   */\n      0x40\n        /* \"#utility.yul\":1999:2008   */\n      mload\n        /* \"#utility.yul\":1989:2008   */\n      swap1\n      pop\n        /* \"#utility.yul\":1939:2014   */\n      swap1\n      jump\t// out\n        /* \"#utility.yul\":2020:2137   */\n    tag_39:\n        /* \"#utility.yul\":2129:2130   */\n      0x00\n        /* \"#utility.yul\":2126:2127   */\n      dup1\n        /* \"#utility.yul\":2119:2131   */\n      revert\n        /* \"#utility.yul\":2143:2260   */\n    tag_40:\n        /* \"#utility.yul\":2252:2253   */\n      0x00\n        /* \"#utility.yul\":2249:2250   */\n      dup1\n        /* \"#utility.yul\":2242:2254   */\n      revert\n        /* \"#utility.yul\":2266:2383   */\n    tag_41:\n        /* \"#utility.yul\":2375:2376   */\n      0x00\n        /* \"#utility.yul\":2372:2373   */\n      dup1\n        /* \"#utility.yul\":2365:2377   */\n      revert\n        /* \"#utility.yul\":2389:2506   */\n    tag_42:\n        /* \"#utility.yul\":2498:2499   */\n      0x00\n        /* \"#utility.yul\":2495:2496   */\n      dup1\n        /* \"#utility.yul\":2488:2500   */\n      revert\n        /* \"#utility.yul\":2512:2614   */\n    tag_43:\n        /* \"#utility.yul\":2553:2559   */\n      0x00\n        /* \"#utility.yul\":2604:2606   */\n      0x1f\n        /* \"#utility.yul\":2600:2607   */\n      not\n        /* \"#utility.yul\":2595:2597   */\n      0x1f\n        /* \"#utility.yul\":2588:2593   */\n      dup4\n        /* \"#utility.yul\":2584:2598   */\n      add\n        /* \"#utility.yul\":2580:2608   */\n      and\n        /* \"#utility.yul\":2570:2608   */\n      swap1\n      pop\n        /* \"#utility.yul\":2512:2614   */\n      swap2\n      swap1\n      pop\n      jump\t// out\n        /* \"#utility.yul\":2620:2800   */\n    tag_44:\n        /* \"#utility.yul\":2668:2745   */\n      0x4e487b7100000000000000000000000000000000000000000000000000000000\n        /* \"#utility.yul\":2665:2666   */\n      0x00\n        /* \"#utility.yul\":2658:2746   */\n      mstore\n        /* \"#utility.yul\":2765:2769   */\n      0x41\n        /* \"#utility.yul\":2762:2763   */\n      0x04\n        /* \"#utility.yul\":2755:2770   */\n      mstore\n        /* \"#utility.yul\":2789:2793   */\n      0x24\n        /* \"#utility.yul\":2786:2787   */\n      0x00\n        /* \"#utility.yul\":2779:2794   */\n      revert\n        /* \"#utility.yul\":2806:3087   */\n    tag_45:\n        /* \"#utility.yul\":2889:2916   */\n      tag_92\n        /* \"#utility.yul\":2911:2915   */\n      dup3\n        /* \"#utility.yul\":2889:2916   */\n      tag_43\n      jump\t// in\n    tag_92:\n        /* \"#utility.yul\":2881:2887   */\n      dup2\n        /* \"#utility.yul\":2877:2917   */\n      add\n        /* \"#utility.yul\":3019:3025   */\n      dup2\n        /* \"#utility.yul\":3007:3017   */\n      dup2\n        /* \"#utility.yul\":3004:3026   */\n      lt\n        /* \"#utility.yul\":2983:3001   */\n      0xffffffffffffffff\n        /* \"#utility.yul\":2971:2981   */\n      dup3\n        /* \"#utility.yul\":2968:3002   */\n      gt\n        /* \"#utility.yul\":2965:3027   */\n      or\n        /* \"#utility.yul\":2962:3050   */\n      iszero\n      tag_93\n      jumpi\n        /* \"#utility.yul\":3030:3048   */\n      tag_94\n      tag_44\n      jump\t// in\n    tag_94:\n        /* \"#utility.yul\":2962:3050   */\n    tag_93:\n        /* \"#utility.yul\":3070:3080   */\n      dup1\n        /* \"#utility.yul\":3066:3068   */\n      0x40\n        /* \"#utility.yul\":3059:3081   */\n      mstore\n        /* \"#utility.yul\":2849:3087   */\n      pop\n        /* \"#utility.yul\":2806:3087   */\n      pop\n      pop\n      jump\t// out\n        /* \"#utility.yul\":3093:3222   */\n    tag_46:\n        /* \"#utility.yul\":3127:3133   */\n      0x00\n        /* \"#utility.yul\":3154:3174   */\n      tag_96\n      tag_38\n      jump\t// in\n    tag_96:\n        /* \"#utility.yul\":3144:3174   */\n      swap1\n      pop\n        /* \"#utility.yul\":3183:3216   */\n      tag_97\n        /* \"#utility.yul\":3211:3215   */\n      dup3\n        /* \"#utility.yul\":3203:3209   */\n      dup3\n        /* \"#utility.yul\":3183:3216   */\n      tag_45\n      jump\t// in\n    tag_97:\n        /* \"#utility.yul\":3093:3222   */\n      swap2\n      swap1\n      pop\n      jump\t// out\n        /* \"#utility.yul\":3228:3536   */\n    tag_47:\n        /* \"#utility.yul\":3290:3294   */\n      0x00\n        /* \"#utility.yul\":3380:3398   */\n      0xffffffffffffffff\n        /* \"#utility.yul\":3372:3378   */\n      dup3\n        /* \"#utility.yul\":3369:3399   */\n      gt\n        /* \"#utility.yul\":3366:3422   */\n      iszero\n      tag_99\n      jumpi\n        /* \"#utility.yul\":3402:3420   */\n      tag_100\n      tag_44\n      jump\t// in\n    tag_100:\n        /* \"#utility.yul\":3366:3422   */\n    tag_99:\n        /* \"#utility.yul\":3440:3469   */\n      tag_101\n        /* \"#utility.yul\":3462:3468   */\n      dup3\n        /* \"#utility.yul\":3440:3469   */\n      tag_43\n      jump\t// in\n    tag_101:\n        /* \"#utility.yul\":3432:3469   */\n      swap1\n      pop\n        /* \"#utility.yul\":3524:3528   */\n      0x20\n        /* \"#utility.yul\":3518:3522   */\n      dup2\n        /* \"#utility.yul\":3514:3529   */\n      add\n        /* \"#utility.yul\":3506:3529   */\n      swap1\n      pop\n        /* \"#utility.yul\":3228:3536   */\n      swap2\n      swap1\n      pop\n      jump\t// out\n        /* \"#utility.yul\":3542:3688   */\n    tag_48:\n        /* \"#utility.yul\":3639:3645   */\n      dup3\n        /* \"#utility.yul\":3634:3637   */\n      dup2\n        /* \"#utility.yul\":3629:3632   */\n      dup4\n        /* \"#utility.yul\":3616:3646   */\n      calldatacopy\n        /* \"#utility.yul\":3680:3681   */\n      0x00\n        /* \"#utility.yul\":3671:3677   */\n      dup4\n        /* \"#utility.yul\":3666:3669   */\n      dup4\n        /* \"#utility.yul\":3662:3678   */\n      add\n        /* \"#utility.yul\":3655:3682   */\n      mstore\n        /* \"#utility.yul\":3542:3688   */\n      pop\n      pop\n      pop\n      jump\t// out\n        /* \"#utility.yul\":3694:4119   */\n    tag_49:\n        /* \"#utility.yul\":3772:3777   */\n      0x00\n        /* \"#utility.yul\":3797:3863   */\n      tag_104\n        /* \"#utility.yul\":3813:3862   */\n      tag_105\n        /* \"#utility.yul\":3855:3861   */\n      dup5\n        /* \"#utility.yul\":3813:3862   */\n      tag_47\n      jump\t// in\n    tag_105:\n        /* \"#utility.yul\":3797:3863   */\n      tag_46\n      jump\t// in\n    tag_104:\n        /* \"#utility.yul\":3788:3863   */\n      swap1\n      pop\n        /* \"#utility.yul\":3886:3892   */\n      dup3\n        /* \"#utility.yul\":3879:3884   */\n      dup2\n        /* \"#utility.yul\":3872:3893   */\n      mstore\n        /* \"#utility.yul\":3924:3928   */\n      0x20\n        /* \"#utility.yul\":3917:3922   */\n      dup2\n        /* \"#utility.yul\":3913:3929   */\n      add\n        /* \"#utility.yul\":3962:3965   */\n      dup5\n        /* \"#utility.yul\":3953:3959   */\n      dup5\n        /* \"#utility.yul\":3948:3951   */\n      dup5\n        /* \"#utility.yul\":3944:3960   */\n      add\n        /* \"#utility.yul\":3941:3966   */\n      gt\n        /* \"#utility.yul\":3938:4050   */\n      iszero\n      tag_106\n      jumpi\n        /* \"#utility.yul\":3969:4048   */\n      tag_107\n      tag_42\n      jump\t// in\n    tag_107:\n        /* \"#utility.yul\":3938:4050   */\n    tag_106:\n        /* \"#utility.yul\":4059:4113   */\n      tag_108\n        /* \"#utility.yul\":4106:4112   */\n      dup5\n        /* \"#utility.yul\":4101:4104   */\n      dup3\n        /* \"#utility.yul\":4096:4099   */\n      dup6\n        /* \"#utility.yul\":4059:4113   */\n      tag_48\n      jump\t// in\n    tag_108:\n        /* \"#utility.yul\":3778:4119   */\n      pop\n        /* \"#utility.yul\":3694:4119   */\n      swap4\n      swap3\n      pop\n      pop\n      pop\n      jump\t// out\n        /* \"#utility.yul\":4139:4479   */\n    tag_50:\n        /* \"#utility.yul\":4195:4200   */\n      0x00\n        /* \"#utility.yul\":4244:4247   */\n      dup3\n        /* \"#utility.yul\":4237:4241   */\n      0x1f\n        /* \"#utility.yul\":4229:4235   */\n      dup4\n        /* \"#utility.yul\":4225:4242   */\n      add\n        /* \"#utility.yul\":4221:4248   */\n      slt\n        /* \"#utility.yul\":4211:4333   */\n      tag_110\n      jumpi\n        /* \"#utility.yul\":4252:4331   */\n      tag_111\n      tag_41\n      jump\t// in\n    tag_111:\n        /* \"#utility.yul\":4211:4333   */\n    tag_110:\n        /* \"#utility.yul\":4369:4375   */\n      dup2\n        /* \"#utility.yul\":4356:4376   */\n      calldataload\n        /* \"#utility.yul\":4394:4473   */\n      tag_112\n        /* \"#utility.yul\":4469:4472   */\n      dup5\n        /* \"#utility.yul\":4461:4467   */\n      dup3\n        /* \"#utility.yul\":4454:4458   */\n      0x20\n        /* \"#utility.yul\":4446:4452   */\n      dup7\n        /* \"#utility.yul\":4442:4459   */\n      add\n        /* \"#utility.yul\":4394:4473   */\n      tag_49\n      jump\t// in\n    tag_112:\n        /* \"#utility.yul\":4385:4473   */\n      swap2\n      pop\n        /* \"#utility.yul\":4201:4479   */\n      pop\n        /* \"#utility.yul\":4139:4479   */\n      swap3\n      swap2\n      pop\n      pop\n      jump\t// out\n        /* \"#utility.yul\":4485:4607   */\n    tag_51:\n        /* \"#utility.yul\":4558:4582   */\n      tag_114\n        /* \"#utility.yul\":4576:4581   */\n      dup2\n        /* \"#utility.yul\":4558:4582   */\n      tag_33\n      jump\t// in\n    tag_114:\n        /* \"#utility.yul\":4551:4556   */\n      dup2\n        /* \"#utility.yul\":4548:4583   */\n      eq\n        /* \"#utility.yul\":4538:4601   */\n      tag_115\n      jumpi\n        /* \"#utility.yul\":4597:4598   */\n      0x00\n        /* \"#utility.yul\":4594:4595   */\n      dup1\n        /* \"#utility.yul\":4587:4599   */\n      revert\n        /* \"#utility.yul\":4538:4601   */\n    tag_115:\n        /* \"#utility.yul\":4485:4607   */\n      pop\n      jump\t// out\n        /* \"#utility.yul\":4613:4752   */\n    tag_52:\n        /* \"#utility.yul\":4659:4664   */\n      0x00\n        /* \"#utility.yul\":4697:4703   */\n      dup2\n        /* \"#utility.yul\":4684:4704   */\n      calldataload\n        /* \"#utility.yul\":4675:4704   */\n      swap1\n      pop\n        /* \"#utility.yul\":4713:4746   */\n      tag_117\n        /* \"#utility.yul\":4740:4745   */\n      dup2\n        /* \"#utility.yul\":4713:4746   */\n      tag_51\n      jump\t// in\n    tag_117:\n        /* \"#utility.yul\":4613:4752   */\n      swap3\n      swap2\n      pop\n      pop\n      jump\t// out\n        /* \"#utility.yul\":4758:5412   */\n    tag_13:\n        /* \"#utility.yul\":4836:4842   */\n      0x00\n        /* \"#utility.yul\":4844:4850   */\n      dup1\n        /* \"#utility.yul\":4893:4895   */\n      0x40\n        /* \"#utility.yul\":4881:4890   */\n      dup4\n        /* \"#utility.yul\":4872:4879   */\n      dup6\n        /* \"#utility.yul\":4868:4891   */\n      sub\n        /* \"#utility.yul\":4864:4896   */\n      slt\n        /* \"#utility.yul\":4861:4980   */\n      iszero\n      tag_119\n      jumpi\n        /* \"#utility.yul\":4899:4978   */\n      tag_120\n      tag_39\n      jump\t// in\n    tag_120:\n        /* \"#utility.yul\":4861:4980   */\n    tag_119:\n        /* \"#utility.yul\":5047:5048   */\n      0x00\n        /* \"#utility.yul\":5036:5045   */\n      dup4\n        /* \"#utility.yul\":5032:5049   */\n      add\n        /* \"#utility.yul\":5019:5050   */\n      calldataload\n        /* \"#utility.yul\":5077:5095   */\n      0xffffffffffffffff\n        /* \"#utility.yul\":5069:5075   */\n      dup2\n        /* \"#utility.yul\":5066:5096   */\n      gt\n        /* \"#utility.yul\":5063:5180   */\n      iszero\n      tag_121\n      jumpi\n        /* \"#utility.yul\":5099:5178   */\n      tag_122\n      tag_40\n      jump\t// in\n    tag_122:\n        /* \"#utility.yul\":5063:5180   */\n    tag_121:\n        /* \"#utility.yul\":5204:5267   */\n      tag_123\n        /* \"#utility.yul\":5259:5266   */\n      dup6\n        /* \"#utility.yul\":5250:5256   */\n      dup3\n        /* \"#utility.yul\":5239:5248   */\n      dup7\n        /* \"#utility.yul\":5235:5257   */\n      add\n        /* \"#utility.yul\":5204:5267   */\n      tag_50\n      jump\t// in\n    tag_123:\n        /* \"#utility.yul\":5194:5267   */\n      swap3\n      pop\n        /* \"#utility.yul\":4990:5277   */\n      pop\n        /* \"#utility.yul\":5316:5318   */\n      0x20\n        /* \"#utility.yul\":5342:5395   */\n      tag_124\n        /* \"#utility.yul\":5387:5394   */\n      dup6\n        /* \"#utility.yul\":5378:5384   */\n      dup3\n        /* \"#utility.yul\":5367:5376   */\n      dup7\n        /* \"#utility.yul\":5363:5385   */\n      add\n        /* \"#utility.yul\":5342:5395   */\n      tag_52\n      jump\t// in\n    tag_124:\n        /* \"#utility.yul\":5332:5395   */\n      swap2\n      pop\n        /* \"#utility.yul\":5287:5405   */\n      pop\n        /* \"#utility.yul\":4758:5412   */\n      swap3\n      pop\n      swap3\n      swap1\n      pop\n      jump\t// out\n        /* \"#utility.yul\":5418:5640   */\n    tag_16:\n        /* \"#utility.yul\":5511:5515   */\n      0x00\n        /* \"#utility.yul\":5549:5551   */\n      0x20\n        /* \"#utility.yul\":5538:5547   */\n      dup3\n        /* \"#utility.yul\":5534:5552   */\n      add\n        /* \"#utility.yul\":5526:5552   */\n      swap1\n      pop\n        /* \"#utility.yul\":5562:5633   */\n      tag_126\n        /* \"#utility.yul\":5630:5631   */\n      0x00\n        /* \"#utility.yul\":5619:5628   */\n      dup4\n        /* \"#utility.yul\":5615:5632   */\n      add\n        /* \"#utility.yul\":5606:5612   */\n      dup5\n        /* \"#utility.yul\":5562:5633   */\n      tag_34\n      jump\t// in\n    tag_126:\n        /* \"#utility.yul\":5418:5640   */\n      swap3\n      swap2\n      pop\n      pop\n      jump\t// out\n        /* \"#utility.yul\":5646:5744   */\n    tag_53:\n        /* \"#utility.yul\":5697:5703   */\n      0x00\n        /* \"#utility.yul\":5731:5736   */\n      dup2\n        /* \"#utility.yul\":5725:5737   */\n      mload\n        /* \"#utility.yul\":5715:5737   */\n      swap1\n      pop\n        /* \"#utility.yul\":5646:5744   */\n      swap2\n      swap1\n      pop\n      jump\t// out\n        /* \"#utility.yul\":5750:5918   */\n    tag_54:\n        /* \"#utility.yul\":5833:5844   */\n      0x00\n        /* \"#utility.yul\":5867:5873   */\n      dup3\n        /* \"#utility.yul\":5862:5865   */\n      dup3\n        /* \"#utility.yul\":5855:5874   */\n      mstore\n        /* \"#utility.yul\":5907:5911   */\n      0x20\n        /* \"#utility.yul\":5902:5905   */\n      dup3\n        /* \"#utility.yul\":5898:5912   */\n      add\n        /* \"#utility.yul\":5883:5912   */\n      swap1\n      pop\n        /* \"#utility.yul\":5750:5918   */\n      swap3\n      swap2\n      pop\n      pop\n      jump\t// out\n        /* \"#utility.yul\":5924:6170   */\n    tag_55:\n        /* \"#utility.yul\":6005:6006   */\n      0x00\n        /* \"#utility.yul\":6015:6128   */\n    tag_130:\n        /* \"#utility.yul\":6029:6035   */\n      dup4\n        /* \"#utility.yul\":6026:6027   */\n      dup2\n        /* \"#utility.yul\":6023:6036   */\n      lt\n        /* \"#utility.yul\":6015:6128   */\n      iszero\n      tag_132\n      jumpi\n        /* \"#utility.yul\":6114:6115   */\n      dup1\n        /* \"#utility.yul\":6109:6112   */\n      dup3\n        /* \"#utility.yul\":6105:6116   */\n      add\n        /* \"#utility.yul\":6099:6117   */\n      mload\n        /* \"#utility.yul\":6095:6096   */\n      dup2\n        /* \"#utility.yul\":6090:6093   */\n      dup5\n        /* \"#utility.yul\":6086:6097   */\n      add\n        /* \"#utility.yul\":6079:6118   */\n      mstore\n        /* \"#utility.yul\":6051:6053   */\n      0x20\n        /* \"#utility.yul\":6048:6049   */\n      dup2\n        /* \"#utility.yul\":6044:6054   */\n      add\n        /* \"#utility.yul\":6039:6054   */\n      swap1\n      pop\n        /* \"#utility.yul\":6015:6128   */\n      jump(tag_130)\n    tag_132:\n        /* \"#utility.yul\":6162:6163   */\n      0x00\n        /* \"#utility.yul\":6153:6159   */\n      dup5\n        /* \"#utility.yul\":6148:6151   */\n      dup5\n        /* \"#utility.yul\":6144:6160   */\n      add\n        /* \"#utility.yul\":6137:6164   */\n      mstore\n        /* \"#utility.yul\":5986:6170   */\n      pop\n        /* \"#utility.yul\":5924:6170   */\n      pop\n      pop\n      pop\n      jump\t// out\n        /* \"#utility.yul\":6176:6549   */\n    tag_56:\n        /* \"#utility.yul\":6262:6265   */\n      0x00\n        /* \"#utility.yul\":6290:6328   */\n      tag_134\n        /* \"#utility.yul\":6322:6327   */\n      dup3\n        /* \"#utility.yul\":6290:6328   */\n      tag_53\n      jump\t// in\n    tag_134:\n        /* \"#utility.yul\":6344:6414   */\n      tag_135\n        /* \"#utility.yul\":6407:6413   */\n      dup2\n        /* \"#utility.yul\":6402:6405   */\n      dup6\n        /* \"#utility.yul\":6344:6414   */\n      tag_54\n      jump\t// in\n    tag_135:\n        /* \"#utility.yul\":6337:6414   */\n      swap4\n      pop\n        /* \"#utility.yul\":6423:6488   */\n      tag_136\n        /* \"#utility.yul\":6481:6487   */\n      dup2\n        /* \"#utility.yul\":6476:6479   */\n      dup6\n        /* \"#utility.yul\":6469:6473   */\n      0x20\n        /* \"#utility.yul\":6462:6467   */\n      dup7\n        /* \"#utility.yul\":6458:6474   */\n      add\n        /* \"#utility.yul\":6423:6488   */\n      tag_55\n      jump\t// in\n    tag_136:\n        /* \"#utility.yul\":6513:6542   */\n      tag_137\n        /* \"#utility.yul\":6535:6541   */\n      dup2\n        /* \"#utility.yul\":6513:6542   */\n      tag_43\n      jump\t// in\n    tag_137:\n        /* \"#utility.yul\":6508:6511   */\n      dup5\n        /* \"#utility.yul\":6504:6543   */\n      add\n        /* \"#utility.yul\":6497:6543   */\n      swap2\n      pop\n        /* \"#utility.yul\":6266:6549   */\n      pop\n        /* \"#utility.yul\":6176:6549   */\n      swap3\n      swap2\n      pop\n      pop\n      jump\t// out\n        /* \"#utility.yul\":6555:6864   */\n    tag_21:\n        /* \"#utility.yul\":6666:6670   */\n      0x00\n        /* \"#utility.yul\":6704:6706   */\n      0x20\n        /* \"#utility.yul\":6693:6702   */\n      dup3\n        /* \"#utility.yul\":6689:6707   */\n      add\n        /* \"#utility.yul\":6681:6707   */\n      swap1\n      pop\n        /* \"#utility.yul\":6753:6762   */\n      dup2\n        /* \"#utility.yul\":6747:6751   */\n      dup2\n        /* \"#utility.yul\":6743:6763   */\n      sub\n        /* \"#utility.yul\":6739:6740   */\n      0x00\n        /* \"#utility.yul\":6728:6737   */\n      dup4\n        /* \"#utility.yul\":6724:6741   */\n      add\n        /* \"#utility.yul\":6717:6764   */\n      mstore\n        /* \"#utility.yul\":6781:6857   */\n      tag_139\n        /* \"#utility.yul\":6852:6856   */\n      dup2\n        /* \"#utility.yul\":6843:6849   */\n      dup5\n        /* \"#utility.yul\":6781:6857   */\n      tag_56\n      jump\t// in\n    tag_139:\n        /* \"#utility.yul\":6773:6857   */\n      swap1\n      pop\n        /* \"#utility.yul\":6555:6864   */\n      swap3\n      swap2\n      pop\n      pop\n      jump\t// out\n        /* \"#utility.yul\":6870:6969   */\n    tag_57:\n        /* \"#utility.yul\":6922:6928   */\n      0x00\n        /* \"#utility.yul\":6956:6961   */\n      dup2\n        /* \"#utility.yul\":6950:6962   */\n      mload\n        /* \"#utility.yul\":6940:6962   */\n      swap1\n      pop\n        /* \"#utility.yul\":6870:6969   */\n      swap2\n      swap1\n      pop\n      jump\t// out\n        /* \"#utility.yul\":6975:7352   */\n    tag_58:\n        /* \"#utility.yul\":7063:7066   */\n      0x00\n        /* \"#utility.yul\":7091:7130   */\n      tag_142\n        /* \"#utility.yul\":7124:7129   */\n      dup3\n        /* \"#utility.yul\":7091:7130   */\n      tag_57\n      jump\t// in\n    tag_142:\n        /* \"#utility.yul\":7146:7217   */\n      tag_143\n        /* \"#utility.yul\":7210:7216   */\n      dup2\n        /* \"#utility.yul\":7205:7208   */\n      dup6\n        /* \"#utility.yul\":7146:7217   */\n      tag_35\n      jump\t// in\n    tag_143:\n        /* \"#utility.yul\":7139:7217   */\n      swap4\n      pop\n        /* \"#utility.yul\":7226:7291   */\n      tag_144\n        /* \"#utility.yul\":7284:7290   */\n      dup2\n        /* \"#utility.yul\":7279:7282   */\n      dup6\n        /* \"#utility.yul\":7272:7276   */\n      0x20\n        /* \"#utility.yul\":7265:7270   */\n      dup7\n        /* \"#utility.yul\":7261:7277   */\n      add\n        /* \"#utility.yul\":7226:7291   */\n      tag_55\n      jump\t// in\n    tag_144:\n        /* \"#utility.yul\":7316:7345   */\n      tag_145\n        /* \"#utility.yul\":7338:7344   */\n      dup2\n        /* \"#utility.yul\":7316:7345   */\n      tag_43\n      jump\t// in\n    tag_145:\n        /* \"#utility.yul\":7311:7314   */\n      dup5\n        /* \"#utility.yul\":7307:7346   */\n      add\n        /* \"#utility.yul\":7300:7346   */\n      swap2\n      pop\n        /* \"#utility.yul\":7067:7352   */\n      pop\n        /* \"#utility.yul\":6975:7352   */\n      swap3\n      swap2\n      pop\n      pop\n      jump\t// out\n        /* \"#utility.yul\":7358:7891   */\n    tag_24:\n        /* \"#utility.yul\":7527:7531   */\n      0x00\n        /* \"#utility.yul\":7565:7567   */\n      0x60\n        /* \"#utility.yul\":7554:7563   */\n      dup3\n        /* \"#utility.yul\":7550:7568   */\n      add\n        /* \"#utility.yul\":7542:7568   */\n      swap1\n      pop\n        /* \"#utility.yul\":7578:7649   */\n      tag_147\n        /* \"#utility.yul\":7646:7647   */\n      0x00\n        /* \"#utility.yul\":7635:7644   */\n      dup4\n        /* \"#utility.yul\":7631:7648   */\n      add\n        /* \"#utility.yul\":7622:7628   */\n      dup7\n        /* \"#utility.yul\":7578:7649   */\n      tag_32\n      jump\t// in\n    tag_147:\n        /* \"#utility.yul\":7659:7731   */\n      tag_148\n        /* \"#utility.yul\":7727:7729   */\n      0x20\n        /* \"#utility.yul\":7716:7725   */\n      dup4\n        /* \"#utility.yul\":7712:7730   */\n      add\n        /* \"#utility.yul\":7703:7709   */\n      dup6\n        /* \"#utility.yul\":7659:7731   */\n      tag_34\n      jump\t// in\n    tag_148:\n        /* \"#utility.yul\":7778:7787   */\n      dup2\n        /* \"#utility.yul\":7772:7776   */\n      dup2\n        /* \"#utility.yul\":7768:7788   */\n      sub\n        /* \"#utility.yul\":7763:7765   */\n      0x40\n        /* \"#utility.yul\":7752:7761   */\n      dup4\n        /* \"#utility.yul\":7748:7766   */\n      add\n        /* \"#utility.yul\":7741:7789   */\n      mstore\n        /* \"#utility.yul\":7806:7884   */\n      tag_149\n        /* \"#utility.yul\":7879:7883   */\n      dup2\n        /* \"#utility.yul\":7870:7876   */\n      dup5\n        /* \"#utility.yul\":7806:7884   */\n      tag_58\n      jump\t// in\n    tag_149:\n        /* \"#utility.yul\":7798:7884   */\n      swap1\n      pop\n        /* \"#utility.yul\":7358:7891   */\n      swap5\n      swap4\n      pop\n      pop\n      pop\n      pop\n      jump\t// out\n        /* \"#utility.yul\":7897:8077   */\n    tag_59:\n        /* \"#utility.yul\":7945:8022   */\n      0x4e487b7100000000000000000000000000000000000000000000000000000000\n        /* \"#utility.yul\":7942:7943   */\n      0x00\n        /* \"#utility.yul\":7935:8023   */\n      mstore\n        /* \"#utility.yul\":8042:8046   */\n      0x11\n        /* \"#utility.yul\":8039:8040   */\n      0x04\n        /* \"#utility.yul\":8032:8047   */\n      mstore\n        /* \"#utility.yul\":8066:8070   */\n      0x24\n        /* \"#utility.yul\":8063:8064   */\n      0x00\n        /* \"#utility.yul\":8056:8071   */\n      revert\n        /* \"#utility.yul\":8083:8274   */\n    tag_26:\n        /* \"#utility.yul\":8123:8126   */\n      0x00\n        /* \"#utility.yul\":8142:8162   */\n      tag_152\n        /* \"#utility.yul\":8160:8161   */\n      dup3\n        /* \"#utility.yul\":8142:8162   */\n      tag_33\n      jump\t// in\n    tag_152:\n        /* \"#utility.yul\":8137:8162   */\n      swap2\n      pop\n        /* \"#utility.yul\":8176:8196   */\n      tag_153\n        /* \"#utility.yul\":8194:8195   */\n      dup4\n        /* \"#utility.yul\":8176:8196   */\n      tag_33\n      jump\t// in\n    tag_153:\n        /* \"#utility.yul\":8171:8196   */\n      swap3\n      pop\n        /* \"#utility.yul\":8219:8220   */\n      dup3\n        /* \"#utility.yul\":8216:8217   */\n      dup3\n        /* \"#utility.yul\":8212:8221   */\n      add\n        /* \"#utility.yul\":8205:8221   */\n      swap1\n      pop\n        /* \"#utility.yul\":8240:8243   */\n      dup1\n        /* \"#utility.yul\":8237:8238   */\n      dup3\n        /* \"#utility.yul\":8234:8244   */\n      gt\n        /* \"#utility.yul\":8231:8267   */\n      iszero\n      tag_154\n      jumpi\n        /* \"#utility.yul\":8247:8265   */\n      tag_155\n      tag_59\n      jump\t// in\n    tag_155:\n        /* \"#utility.yul\":8231:8267   */\n    tag_154:\n        /* \"#utility.yul\":8083:8274   */\n      swap3\n      swap2\n      pop\n      pop\n      jump\t// out\n        /* \"#utility.yul\":8280:8438   */\n    tag_60:\n        /* \"#utility.yul\":8420:8430   */\n      0x63616c6c20666f6f000000000000000000000000000000000000000000000000\n        /* \"#utility.yul\":8416:8417   */\n      0x00\n        /* \"#utility.yul\":8408:8414   */\n      dup3\n        /* \"#utility.yul\":8404:8418   */\n      add\n        /* \"#utility.yul\":8397:8431   */\n      mstore\n        /* \"#utility.yul\":8280:8438   */\n      pop\n      jump\t// out\n        /* \"#utility.yul\":8444:8809   */\n    tag_61:\n        /* \"#utility.yul\":8586:8589   */\n      0x00\n        /* \"#utility.yul\":8607:8673   */\n      tag_158\n        /* \"#utility.yul\":8671:8672   */\n      0x08\n        /* \"#utility.yul\":8666:8669   */\n      dup4\n        /* \"#utility.yul\":8607:8673   */\n      tag_35\n      jump\t// in\n    tag_158:\n        /* \"#utility.yul\":8600:8673   */\n      swap2\n      pop\n        /* \"#utility.yul\":8682:8775   */\n      tag_159\n        /* \"#utility.yul\":8771:8774   */\n      dup3\n        /* \"#utility.yul\":8682:8775   */\n      tag_60\n      jump\t// in\n    tag_159:\n        /* \"#utility.yul\":8800:8802   */\n      0x20\n        /* \"#utility.yul\":8795:8798   */\n      dup3\n        /* \"#utility.yul\":8791:8803   */\n      add\n        /* \"#utility.yul\":8784:8803   */\n      swap1\n      pop\n        /* \"#utility.yul\":8444:8809   */\n      swap2\n      swap1\n      pop\n      jump\t// out\n        /* \"#utility.yul\":8815:8902   */\n    tag_62:\n        /* \"#utility.yul\":8862:8869   */\n      0x00\n        /* \"#utility.yul\":8891:8896   */\n      dup2\n        /* \"#utility.yul\":8880:8896   */\n      swap1\n      pop\n        /* \"#utility.yul\":8815:8902   */\n      swap2\n      swap1\n      pop\n      jump\t// out\n        /* \"#utility.yul\":8908:8968   */\n    tag_63:\n        /* \"#utility.yul\":8936:8939   */\n      0x00\n        /* \"#utility.yul\":8957:8962   */\n      dup2\n        /* \"#utility.yul\":8950:8962   */\n      swap1\n      pop\n        /* \"#utility.yul\":8908:8968   */\n      swap2\n      swap1\n      pop\n      jump\t// out\n        /* \"#utility.yul\":8974:9136   */\n    tag_64:\n        /* \"#utility.yul\":9034:9043   */\n      0x00\n        /* \"#utility.yul\":9067:9130   */\n      tag_163\n        /* \"#utility.yul\":9085:9129   */\n      tag_164\n        /* \"#utility.yul\":9094:9128   */\n      tag_165\n        /* \"#utility.yul\":9122:9127   */\n      dup5\n        /* \"#utility.yul\":9094:9128   */\n      tag_62\n      jump\t// in\n    tag_165:\n        /* \"#utility.yul\":9085:9129   */\n      tag_63\n      jump\t// in\n    tag_164:\n        /* \"#utility.yul\":9067:9130   */\n      tag_33\n      jump\t// in\n    tag_163:\n        /* \"#utility.yul\":9054:9130   */\n      swap1\n      pop\n        /* \"#utility.yul\":8974:9136   */\n      swap2\n      swap1\n      pop\n      jump\t// out\n        /* \"#utility.yul\":9142:9293   */\n    tag_65:\n        /* \"#utility.yul\":9239:9286   */\n      tag_167\n        /* \"#utility.yul\":9280:9285   */\n      dup2\n        /* \"#utility.yul\":9239:9286   */\n      tag_64\n      jump\t// in\n    tag_167:\n        /* \"#utility.yul\":9234:9237   */\n      dup3\n        /* \"#utility.yul\":9227:9287   */\n      mstore\n        /* \"#utility.yul\":9142:9293   */\n      pop\n      pop\n      jump\t// out\n        /* \"#utility.yul\":9299:9848   */\n    tag_29:\n        /* \"#utility.yul\":9503:9507   */\n      0x00\n        /* \"#utility.yul\":9541:9543   */\n      0x40\n        /* \"#utility.yul\":9530:9539   */\n      dup3\n        /* \"#utility.yul\":9526:9544   */\n      add\n        /* \"#utility.yul\":9518:9544   */\n      swap1\n      pop\n        /* \"#utility.yul\":9590:9599   */\n      dup2\n        /* \"#utility.yul\":9584:9588   */\n      dup2\n        /* \"#utility.yul\":9580:9600   */\n      sub\n        /* \"#utility.yul\":9576:9577   */\n      0x00\n        /* \"#utility.yul\":9565:9574   */\n      dup4\n        /* \"#utility.yul\":9561:9578   */\n      add\n        /* \"#utility.yul\":9554:9601   */\n      mstore\n        /* \"#utility.yul\":9618:9749   */\n      tag_169\n        /* \"#utility.yul\":9744:9748   */\n      dup2\n        /* \"#utility.yul\":9618:9749   */\n      tag_61\n      jump\t// in\n    tag_169:\n        /* \"#utility.yul\":9610:9749   */\n      swap1\n      pop\n        /* \"#utility.yul\":9759:9841   */\n      tag_170\n        /* \"#utility.yul\":9837:9839   */\n      0x20\n        /* \"#utility.yul\":9826:9835   */\n      dup4\n        /* \"#utility.yul\":9822:9840   */\n      add\n        /* \"#utility.yul\":9813:9819   */\n      dup5\n        /* \"#utility.yul\":9759:9841   */\n      tag_65\n      jump\t// in\n    tag_170:\n        /* \"#utility.yul\":9299:9848   */\n      swap3\n      swap2\n      pop\n      pop\n      jump\t// out\n\n    auxdata: 0xa264697066735822122033c4d76ea9e142147aa07fd1310d8c7149cfad9d6af34b4b71e5926c79c3d00364736f6c63430008120033\n}\n",
				"bytecode": {
					"linkReferences": {},
					"object": "608060405234801561001057600080fd5b506106fe806100206000396000f3fe60806040526004361061002d5760003560e01c806324ccab8f1461006f578063b1c7db3c1461009f57610034565b3661003457005b7f59e04c3f0d44b7caf6e8ef854b61d9a51cf1960d7a88ff6356cc5e946b4b5832333460405161006592919061024a565b60405180910390a1005b6100896004803603810190610084919061040c565b6100ca565b6040516100969190610468565b60405180910390f35b3480156100ab57600080fd5b506100b461011c565b6040516100c19190610502565b60405180910390f35b60007f59e04c3f0d44b7caf6e8ef854b61d9a51cf1960d7a88ff6356cc5e946b4b58323334856040516100ff93929190610568565b60405180910390a160018261011491906105d5565b905092915050565b60603073ffffffffffffffffffffffffffffffffffffffff166324ccab8f607b60405160240161014c919061069a565b604051602081830303815290604052915060e01b6020820180517bffffffffffffffffffffffffffffffffffffffffffffffffffffffff8381831617835250505050905090565b600073ffffffffffffffffffffffffffffffffffffffff82169050919050565b60006101be82610193565b9050919050565b6101ce816101b3565b82525050565b6000819050919050565b6101e7816101d4565b82525050565b600082825260208201905092915050565b7f46616c6c6261636b207761732063616c6c656400000000000000000000000000600082015250565b60006102346013836101ed565b915061023f826101fe565b602082019050919050565b600060608201905061025f60008301856101c5565b61026c60208301846101de565b818103604083015261027d81610227565b90509392505050565b6000604051905090565b600080fd5b600080fd5b600080fd5b600080fd5b6000601f19601f8301169050919050565b7f4e487b7100000000000000000000000000000000000000000000000000000000600052604160045260246000fd5b6102ed826102a4565b810181811067ffffffffffffffff8211171561030c5761030b6102b5565b5b80604052505050565b600061031f610286565b905061032b82826102e4565b919050565b600067ffffffffffffffff82111561034b5761034a6102b5565b5b610354826102a4565b9050602081019050919050565b82818337600083830152505050565b600061038361037e84610330565b610315565b90508281526020810184848401111561039f5761039e61029f565b5b6103aa848285610361565b509392505050565b600082601f8301126103c7576103c661029a565b5b81356103d7848260208601610370565b91505092915050565b6103e9816101d4565b81146103f457600080fd5b50565b600081359050610406816103e0565b92915050565b6000806040838503121561042357610422610290565b5b600083013567ffffffffffffffff81111561044157610440610295565b5b61044d858286016103b2565b925050602061045e858286016103f7565b9150509250929050565b600060208201905061047d60008301846101de565b92915050565b600081519050919050565b600082825260208201905092915050565b60005b838110156104bd5780820151818401526020810190506104a2565b60008484015250505050565b60006104d482610483565b6104de818561048e565b93506104ee81856020860161049f565b6104f7816102a4565b840191505092915050565b6000602082019050818103600083015261051c81846104c9565b905092915050565b600081519050919050565b600061053a82610524565b61054481856101ed565b935061055481856020860161049f565b61055d816102a4565b840191505092915050565b600060608201905061057d60008301866101c5565b61058a60208301856101de565b818103604083015261059c818461052f565b9050949350505050565b7f4e487b7100000000000000000000000000000000000000000000000000000000600052601160045260246000fd5b60006105e0826101d4565b91506105eb836101d4565b9250828201905080821115610603576106026105a6565b5b92915050565b7f63616c6c20666f6f000000000000000000000000000000000000000000000000600082015250565b600061063f6008836101ed565b915061064a82610609565b602082019050919050565b6000819050919050565b6000819050919050565b600061068461067f61067a84610655565b61065f565b6101d4565b9050919050565b61069481610669565b82525050565b600060408201905081810360008301526106b381610632565b90506106c2602083018461068b565b9291505056fea264697066735822122033c4d76ea9e142147aa07fd1310d8c7149cfad9d6af34b4b71e5926c79c3d00364736f6c63430008120033",
					"opcodes": "PUSH1 0x80 PUSH1 0x40 MSTORE CALLVALUE DUP1 ISZERO PUSH2 0x10 JUMPI PUSH1 0x0 DUP1 REVERT JUMPDEST POP PUSH2 0x6FE DUP1 PUSH2 0x20 PUSH1 0x0 CODECOPY PUSH1 0x0 RETURN INVALID PUSH1 0x80 PUSH1 0x40 MSTORE PUSH1 0x4 CALLDATASIZE LT PUSH2 0x2D JUMPI PUSH1 0x0 CALLDATALOAD PUSH1 0xE0 SHR DUP1 PUSH4 0x24CCAB8F EQ PUSH2 0x6F JUMPI DUP1 PUSH4 0xB1C7DB3C EQ PUSH2 0x9F JUMPI PUSH2 0x34 JUMP JUMPDEST CALLDATASIZE PUSH2 0x34 JUMPI STOP JUMPDEST PUSH32 0x59E04C3F0D44B7CAF6E8EF854B61D9A51CF1960D7A88FF6356CC5E946B4B5832 CALLER CALLVALUE PUSH1 0x40 MLOAD PUSH2 0x65 SWAP3 SWAP2 SWAP1 PUSH2 0x24A JUMP JUMPDEST PUSH1 0x40 MLOAD DUP1 SWAP2 SUB SWAP1 LOG1 STOP JUMPDEST PUSH2 0x89 PUSH1 0x4 DUP1 CALLDATASIZE SUB DUP2 ADD SWAP1 PUSH2 0x84 SWAP2 SWAP1 PUSH2 0x40C JUMP JUMPDEST PUSH2 0xCA JUMP JUMPDEST PUSH1 0x40 MLOAD PUSH2 0x96 SWAP2 SWAP1 PUSH2 0x468 JUMP JUMPDEST PUSH1 0x40 MLOAD DUP1 SWAP2 SUB SWAP1 RETURN JUMPDEST CALLVALUE DUP1 ISZERO PUSH2 0xAB JUMPI PUSH1 0x0 DUP1 REVERT JUMPDEST POP PUSH2 0xB4 PUSH2 0x11C JUMP JUMPDEST PUSH1 0x40 MLOAD PUSH2 0xC1 SWAP2 SWAP1 PUSH2 0x502 JUMP JUMPDEST PUSH1 0x40 MLOAD DUP1 SWAP2 SUB SWAP1 RETURN JUMPDEST PUSH1 0x0 PUSH32 0x59E04C3F0D44B7CAF6E8EF854B61D9A51CF1960D7A88FF6356CC5E946B4B5832 CALLER CALLVALUE DUP6 PUSH1 0x40 MLOAD PUSH2 0xFF SWAP4 SWAP3 SWAP2 SWAP1 PUSH2 0x568 JUMP JUMPDEST PUSH1 0x40 MLOAD DUP1 SWAP2 SUB SWAP1 LOG1 PUSH1 0x1 DUP3 PUSH2 0x114 SWAP2 SWAP1 PUSH2 0x5D5 JUMP JUMPDEST SWAP1 POP SWAP3 SWAP2 POP POP JUMP JUMPDEST PUSH1 0x60 ADDRESS PUSH20 0xFFFFFFFFFFFFFFFFFFFFFFFFFFFFFFFFFFFFFFFF AND PUSH4 0x24CCAB8F PUSH1 0x7B PUSH1 0x40 MLOAD PUSH1 0x24 ADD PUSH2 0x14C SWAP2 SWAP1 PUSH2 0x69A JUMP JUMPDEST PUSH1 0x40 MLOAD PUSH1 0x20 DUP2 DUP4 SUB SUB DUP2 MSTORE SWAP1 PUSH1 0x40 MSTORE SWAP2 POP PUSH1 0xE0 SHL PUSH1 0x20 DUP3 ADD DUP1 MLOAD PUSH28 0xFFFFFFFFFFFFFFFFFFFFFFFFFFFFFFFFFFFFFFFFFFFFFFFFFFFFFFFF DUP4 DUP2 DUP4 AND OR DUP4 MSTORE POP POP POP POP SWAP1 POP SWAP1 JUMP JUMPDEST PUSH1 0x0 PUSH20 0xFFFFFFFFFFFFFFFFFFFFFFFFFFFFFFFFFFFFFFFF DUP3 AND SWAP1 POP SWAP2 SWAP1 POP JUMP JUMPDEST PUSH1 0x0 PUSH2 0x1BE DUP3 PUSH2 0x193 JUMP JUMPDEST SWAP1 POP SWAP2 SWAP1 POP JUMP JUMPDEST PUSH2 0x1CE DUP2 PUSH2 0x1B3 JUMP JUMPDEST DUP3 MSTORE POP POP JUMP JUMPDEST PUSH1 0x0 DUP2 SWAP1 POP SWAP2 SWAP1 POP JUMP JUMPDEST PUSH2 0x1E7 DUP2 PUSH2 0x1D4 JUMP JUMPDEST DUP3 MSTORE POP POP JUMP JUMPDEST PUSH1 0x0 DUP3 DUP3 MSTORE PUSH1 0x20 DUP3 ADD SWAP1 POP SWAP3 SWAP2 POP POP JUMP JUMPDEST PUSH32 0x46616C6C6261636B207761732063616C6C656400000000000000000000000000 PUSH1 0x0 DUP3 ADD MSTORE POP JUMP JUMPDEST PUSH1 0x0 PUSH2 0x234 PUSH1 0x13 DUP4 PUSH2 0x1ED JUMP JUMPDEST SWAP2 POP PUSH2 0x23F DUP3 PUSH2 0x1FE JUMP JUMPDEST PUSH1 0x20 DUP3 ADD SWAP1 POP SWAP2 SWAP1 POP JUMP JUMPDEST PUSH1 0x0 PUSH1 0x60 DUP3 ADD SWAP1 POP PUSH2 0x25F PUSH1 0x0 DUP4 ADD DUP6 PUSH2 0x1C5 JUMP JUMPDEST PUSH2 0x26C PUSH1 0x20 DUP4 ADD DUP5 PUSH2 0x1DE JUMP JUMPDEST DUP2 DUP2 SUB PUSH1 0x40 DUP4 ADD MSTORE PUSH2 0x27D DUP2 PUSH2 0x227 JUMP JUMPDEST SWAP1 POP SWAP4 SWAP3 POP POP POP JUMP JUMPDEST PUSH1 0x0 PUSH1 0x40 MLOAD SWAP1 POP SWAP1 JUMP JUMPDEST PUSH1 0x0 DUP1 REVERT JUMPDEST PUSH1 0x0 DUP1 REVERT JUMPDEST PUSH1 0x0 DUP1 REVERT JUMPDEST PUSH1 0x0 DUP1 REVERT JUMPDEST PUSH1 0x0 PUSH1 0x1F NOT PUSH1 0x1F DUP4 ADD AND SWAP1 POP SWAP2 SWAP1 POP JUMP JUMPDEST PUSH32 0x4E487B7100000000000000000000000000000000000000000000000000000000 PUSH1 0x0 MSTORE PUSH1 0x41 PUSH1 0x4 MSTORE PUSH1 0x24 PUSH1 0x0 REVERT JUMPDEST PUSH2 0x2ED DUP3 PUSH2 0x2A4 JUMP JUMPDEST DUP2 ADD DUP2 DUP2 LT PUSH8 0xFFFFFFFFFFFFFFFF DUP3 GT OR ISZERO PUSH2 0x30C JUMPI PUSH2 0x30B PUSH2 0x2B5 JUMP JUMPDEST JUMPDEST DUP1 PUSH1 0x40 MSTORE POP POP POP JUMP JUMPDEST PUSH1 0x0 PUSH2 0x31F PUSH2 0x286 JUMP JUMPDEST SWAP1 POP PUSH2 0x32B DUP3 DUP3 PUSH2 0x2E4 JUMP JUMPDEST SWAP2 SWAP1 POP JUMP JUMPDEST PUSH1 0x0 PUSH8 0xFFFFFFFFFFFFFFFF DUP3 GT ISZERO PUSH2 0x34B JUMPI PUSH2 0x34A PUSH2 0x2B5 JUMP JUMPDEST JUMPDEST PUSH2 0x354 DUP3 PUSH2 0x2A4 JUMP JUMPDEST SWAP1 POP PUSH1 0x20 DUP2 ADD SWAP1 POP SWAP2 SWAP1 POP JUMP JUMPDEST DUP3 DUP2 DUP4 CALLDATACOPY PUSH1 0x0 DUP4 DUP4 ADD MSTORE POP POP POP JUMP JUMPDEST PUSH1 0x0 PUSH2 0x383 PUSH2 0x37E DUP5 PUSH2 0x330 JUMP JUMPDEST PUSH2 0x315 JUMP JUMPDEST SWAP1 POP DUP3 DUP2 MSTORE PUSH1 0x20 DUP2 ADD DUP5 DUP5 DUP5 ADD GT ISZERO PUSH2 0x39F JUMPI PUSH2 0x39E PUSH2 0x29F JUMP JUMPDEST JUMPDEST PUSH2 0x3AA DUP5 DUP3 DUP6 PUSH2 0x361 JUMP JUMPDEST POP SWAP4 SWAP3 POP POP POP JUMP JUMPDEST PUSH1 0x0 DUP3 PUSH1 0x1F DUP4 ADD SLT PUSH2 0x3C7 JUMPI PUSH2 0x3C6 PUSH2 0x29A JUMP JUMPDEST JUMPDEST DUP2 CALLDATALOAD PUSH2 0x3D7 DUP5 DUP3 PUSH1 0x20 DUP7 ADD PUSH2 0x370 JUMP JUMPDEST SWAP2 POP POP SWAP3 SWAP2 POP POP JUMP JUMPDEST PUSH2 0x3E9 DUP2 PUSH2 0x1D4 JUMP JUMPDEST DUP2 EQ PUSH2 0x3F4 JUMPI PUSH1 0x0 DUP1 REVERT JUMPDEST POP JUMP JUMPDEST PUSH1 0x0 DUP2 CALLDATALOAD SWAP1 POP PUSH2 0x406 DUP2 PUSH2 0x3E0 JUMP JUMPDEST SWAP3 SWAP2 POP POP JUMP JUMPDEST PUSH1 0x0 DUP1 PUSH1 0x40 DUP4 DUP6 SUB SLT ISZERO PUSH2 0x423 JUMPI PUSH2 0x422 PUSH2 0x290 JUMP JUMPDEST JUMPDEST PUSH1 0x0 DUP4 ADD CALLDATALOAD PUSH8 0xFFFFFFFFFFFFFFFF DUP2 GT ISZERO PUSH2 0x441 JUMPI PUSH2 0x440 PUSH2 0x295 JUMP JUMPDEST JUMPDEST PUSH2 0x44D DUP6 DUP3 DUP7 ADD PUSH2 0x3B2 JUMP JUMPDEST SWAP3 POP POP PUSH1 0x20 PUSH2 0x45E DUP6 DUP3 DUP7 ADD PUSH2 0x3F7 JUMP JUMPDEST SWAP2 POP POP SWAP3 POP SWAP3 SWAP1 POP JUMP JUMPDEST PUSH1 0x0 PUSH1 0x20 DUP3 ADD SWAP1 POP PUSH2 0x47D PUSH1 0x0 DUP4 ADD DUP5 PUSH2 0x1DE JUMP JUMPDEST SWAP3 SWAP2 POP POP JUMP JUMPDEST PUSH1 0x0 DUP2 MLOAD SWAP1 POP SWAP2 SWAP1 POP JUMP JUMPDEST PUSH1 0x0 DUP3 DUP3 MSTORE PUSH1 0x20 DUP3 ADD SWAP1 POP SWAP3 SWAP2 POP POP JUMP JUMPDEST PUSH1 0x0 JUMPDEST DUP4 DUP2 LT ISZERO PUSH2 0x4BD JUMPI DUP1 DUP3 ADD MLOAD DUP2 DUP5 ADD MSTORE PUSH1 0x20 DUP2 ADD SWAP1 POP PUSH2 0x4A2 JUMP JUMPDEST PUSH1 0x0 DUP5 DUP5 ADD MSTORE POP POP POP POP JUMP JUMPDEST PUSH1 0x0 PUSH2 0x4D4 DUP3 PUSH2 0x483 JUMP JUMPDEST PUSH2 0x4DE DUP2 DUP6 PUSH2 0x48E JUMP JUMPDEST SWAP4 POP PUSH2 0x4EE DUP2 DUP6 PUSH1 0x20 DUP7 ADD PUSH2 0x49F JUMP JUMPDEST PUSH2 0x4F7 DUP2 PUSH2 0x2A4 JUMP JUMPDEST DUP5 ADD SWAP2 POP POP SWAP3 SWAP2 POP POP JUMP JUMPDEST PUSH1 0x0 PUSH1 0x20 DUP3 ADD SWAP1 POP DUP2 DUP2 SUB PUSH1 0x0 DUP4 ADD MSTORE PUSH2 0x51C DUP2 DUP5 PUSH2 0x4C9 JUMP JUMPDEST SWAP1 POP SWAP3 SWAP2 POP POP JUMP JUMPDEST PUSH1 0x0 DUP2 MLOAD SWAP1 POP SWAP2 SWAP1 POP JUMP JUMPDEST PUSH1 0x0 PUSH2 0x53A DUP3 PUSH2 0x524 JUMP JUMPDEST PUSH2 0x544 DUP2 DUP6 PUSH2 0x1ED JUMP JUMPDEST SWAP4 POP PUSH2 0x554 DUP2 DUP6 PUSH1 0x20 DUP7 ADD PUSH2 0x49F JUMP JUMPDEST PUSH2 0x55D DUP2 PUSH2 0x2A4 JUMP JUMPDEST DUP5 ADD SWAP2 POP POP SWAP3 SWAP2 POP POP JUMP JUMPDEST PUSH1 0x0 PUSH1 0x60 DUP3 ADD SWAP1 POP PUSH2 0x57D PUSH1 0x0 DUP4 ADD DUP7 PUSH2 0x1C5 JUMP JUMPDEST PUSH2 0x58A PUSH1 0x20 DUP4 ADD DUP6 PUSH2 0x1DE JUMP JUMPDEST DUP2 DUP2 SUB PUSH1 0x40 DUP4 ADD MSTORE PUSH2 0x59C DUP2 DUP5 PUSH2 0x52F JUMP JUMPDEST SWAP1 POP SWAP5 SWAP4 POP POP POP POP JUMP JUMPDEST PUSH32 0x4E487B7100000000000000000000000000000000000000000000000000000000 PUSH1 0x0 MSTORE PUSH1 0x11 PUSH1 0x4 MSTORE PUSH1 0x24 PUSH1 0x0 REVERT JUMPDEST PUSH1 0x0 PUSH2 0x5E0 DUP3 PUSH2 0x1D4 JUMP JUMPDEST SWAP2 POP PUSH2 0x5EB DUP4 PUSH2 0x1D4 JUMP JUMPDEST SWAP3 POP DUP3 DUP3 ADD SWAP1 POP DUP1 DUP3 GT ISZERO PUSH2 0x603 JUMPI PUSH2 0x602 PUSH2 0x5A6 JUMP JUMPDEST JUMPDEST SWAP3 SWAP2 POP POP JUMP JUMPDEST PUSH32 0x63616C6C20666F6F000000000000000000000000000000000000000000000000 PUSH1 0x0 DUP3 ADD MSTORE POP JUMP JUMPDEST PUSH1 0x0 PUSH2 0x63F PUSH1 0x8 DUP4 PUSH2 0x1ED JUMP JUMPDEST SWAP2 POP PUSH2 0x64A DUP3 PUSH2 0x609 JUMP JUMPDEST PUSH1 0x20 DUP3 ADD SWAP1 POP SWAP2 SWAP1 POP JUMP JUMPDEST PUSH1 0x0 DUP2 SWAP1 POP SWAP2 SWAP1 POP JUMP JUMPDEST PUSH1 0x0 DUP2 SWAP1 POP SWAP2 SWAP1 POP JUMP JUMPDEST PUSH1 0x0 PUSH2 0x684 PUSH2 0x67F PUSH2 0x67A DUP5 PUSH2 0x655 JUMP JUMPDEST PUSH2 0x65F JUMP JUMPDEST PUSH2 0x1D4 JUMP JUMPDEST SWAP1 POP SWAP2 SWAP1 POP JUMP JUMPDEST PUSH2 0x694 DUP2 PUSH2 0x669 JUMP JUMPDEST DUP3 MSTORE POP POP JUMP JUMPDEST PUSH1 0x0 PUSH1 0x40 DUP3 ADD SWAP1 POP DUP2 DUP2 SUB PUSH1 0x0 DUP4 ADD MSTORE PUSH2 0x6B3 DUP2 PUSH2 0x632 JUMP JUMPDEST SWAP1 POP PUSH2 0x6C2 PUSH1 0x20 DUP4 ADD DUP5 PUSH2 0x68B JUMP JUMPDEST SWAP3 SWAP2 POP POP JUMP INVALID LOG2 PUSH5 0x6970667358 0x22 SLT KECCAK256 CALLER 0xC4 0xD7 PUSH15 0xA9E142147AA07FD1310D8C7149CFAD SWAP14 PUSH11 0xF34B4B71E5926C79C3D003 PUSH5 0x736F6C6343 STOP ADDMOD SLT STOP CALLER "
				},
				"gasEstimates": {
					"creation": {
						"codeDepositCost": "358000",
						"executionCost": "393",
						"totalCost": "358393"
					},
					"external": {
						"": "2674",
						"foo(string,uint256)": "infinite",
						"getFooAbi()": "infinite"
					}
				},
				"methodIdentifiers": {
					"foo(string,uint256)": "24ccab8f",
					"getFooAbi()": "b1c7db3c"
				}
			},
			"storageLayout": {
				"storage": [],
				"types": null
			},
			"userdoc": {
				"kind": "user",
				"methods": {},
				"version": 1
			}
		}
	}
}