{
	"solidity_learn/cryptographic-function.sol": {
		"Oracle": {
			"abi": [
				{
					"inputs": [],
					"stateMutability": "nonpayable",
					"type": "constructor"
				},
				{
					"inputs": [
						{
							"internalType": "uint256",
							"name": "_rand",
							"type": "uint256"
						}
					],
					"name": "changeRand",
					"outputs": [],
					"stateMutability": "nonpayable",
					"type": "function"
				},
				{
					"inputs": [],
					"name": "rand",
					"outputs": [
						{
							"internalType": "uint256",
							"name": "",
							"type": "uint256"
						}
					],
					"stateMutability": "view",
					"type": "function"
				}
			],
			"devdoc": {
				"kind": "dev",
				"methods": {},
				"version": 1
			},
			"evm": {
				"assembly": "    /* \"solidity_learn/cryptographic-function.sol\":405:672  contract Oracle {... */\n  mstore(0x40, 0x80)\n    /* \"solidity_learn/cryptographic-function.sol\":473:524  constructor() {... */\n  callvalue\n  dup1\n  iszero\n  tag_1\n  jumpi\n  0x00\n  dup1\n  revert\ntag_1:\n  pop\n    /* \"solidity_learn/cryptographic-function.sol\":506:516  msg.sender */\n  caller\n    /* \"solidity_learn/cryptographic-function.sol\":498:503  admin */\n  0x00\n  dup1\n    /* \"solidity_learn/cryptographic-function.sol\":498:516  admin = msg.sender */\n  0x0100\n  exp\n  dup2\n  sload\n  dup2\n  0xffffffffffffffffffffffffffffffffffffffff\n  mul\n  not\n  and\n  swap1\n  dup4\n  0xffffffffffffffffffffffffffffffffffffffff\n  and\n  mul\n  or\n  swap1\n  sstore\n  pop\n    /* \"solidity_learn/cryptographic-function.sol\":405:672  contract Oracle {... */\n  dataSize(sub_0)\n  dup1\n  dataOffset(sub_0)\n  0x00\n  codecopy\n  0x00\n  return\nstop\n\nsub_0: assembly {\n        /* \"solidity_learn/cryptographic-function.sol\":405:672  contract Oracle {... */\n      mstore(0x40, 0x80)\n      callvalue\n      dup1\n      iszero\n      tag_1\n      jumpi\n      0x00\n      dup1\n      revert\n    tag_1:\n      pop\n      jumpi(tag_2, lt(calldatasize, 0x04))\n      shr(0xe0, calldataload(0x00))\n      dup1\n      0x3b3dca76\n      eq\n      tag_3\n      jumpi\n      dup1\n      0xda5fc453\n      eq\n      tag_4\n      jumpi\n    tag_2:\n      0x00\n      dup1\n      revert\n        /* \"solidity_learn/cryptographic-function.sol\":448:464  uint public rand */\n    tag_3:\n      tag_5\n      tag_6\n      jump\t// in\n    tag_5:\n      mload(0x40)\n      tag_7\n      swap2\n      swap1\n      tag_8\n      jump\t// in\n    tag_7:\n      mload(0x40)\n      dup1\n      swap2\n      sub\n      swap1\n      return\n        /* \"solidity_learn/cryptographic-function.sol\":532:667  function changeRand(uint _rand) public {... */\n    tag_4:\n      tag_9\n      0x04\n      dup1\n      calldatasize\n      sub\n      dup2\n      add\n      swap1\n      tag_10\n      swap2\n      swap1\n      tag_11\n      jump\t// in\n    tag_10:\n      tag_12\n      jump\t// in\n    tag_9:\n      stop\n        /* \"solidity_learn/cryptographic-function.sol\":448:464  uint public rand */\n    tag_6:\n      sload(0x01)\n      dup2\n      jump\t// out\n        /* \"solidity_learn/cryptographic-function.sol\":532:667  function changeRand(uint _rand) public {... */\n    tag_12:\n        /* \"solidity_learn/cryptographic-function.sol\":604:609  admin */\n      0x00\n      dup1\n      sload\n      swap1\n      0x0100\n      exp\n      swap1\n      div\n      0xffffffffffffffffffffffffffffffffffffffff\n      and\n        /* \"solidity_learn/cryptographic-function.sol\":590:609  msg.sender == admin */\n      0xffffffffffffffffffffffffffffffffffffffff\n      and\n        /* \"solidity_learn/cryptographic-function.sol\":590:600  msg.sender */\n      caller\n        /* \"solidity_learn/cryptographic-function.sol\":590:609  msg.sender == admin */\n      0xffffffffffffffffffffffffffffffffffffffff\n      and\n      eq\n        /* \"solidity_learn/cryptographic-function.sol\":582:636  require(msg.sender == admin, \"You have no permission\") */\n      tag_14\n      jumpi\n      mload(0x40)\n      0x08c379a000000000000000000000000000000000000000000000000000000000\n      dup2\n      mstore\n      0x04\n      add\n      tag_15\n      swap1\n      tag_16\n      jump\t// in\n    tag_15:\n      mload(0x40)\n      dup1\n      swap2\n      sub\n      swap1\n      revert\n    tag_14:\n        /* \"solidity_learn/cryptographic-function.sol\":654:659  _rand */\n      dup1\n        /* \"solidity_learn/cryptographic-function.sol\":647:651  rand */\n      0x01\n        /* \"solidity_learn/cryptographic-function.sol\":647:659  rand = _rand */\n      dup2\n      swap1\n      sstore\n      pop\n        /* \"solidity_learn/cryptographic-function.sol\":532:667  function changeRand(uint _rand) public {... */\n      pop\n      jump\t// out\n        /* \"#utility.yul\":7:84   */\n    tag_17:\n        /* \"#utility.yul\":44:51   */\n      0x00\n        /* \"#utility.yul\":73:78   */\n      dup2\n        /* \"#utility.yul\":62:78   */\n      swap1\n      pop\n        /* \"#utility.yul\":7:84   */\n      swap2\n      swap1\n      pop\n      jump\t// out\n        /* \"#utility.yul\":90:208   */\n    tag_18:\n        /* \"#utility.yul\":177:201   */\n      tag_30\n        /* \"#utility.yul\":195:200   */\n      dup2\n        /* \"#utility.yul\":177:201   */\n      tag_17\n      jump\t// in\n    tag_30:\n        /* \"#utility.yul\":172:175   */\n      dup3\n        /* \"#utility.yul\":165:202   */\n      mstore\n        /* \"#utility.yul\":90:208   */\n      pop\n      pop\n      jump\t// out\n        /* \"#utility.yul\":214:436   */\n    tag_8:\n        /* \"#utility.yul\":307:311   */\n      0x00\n        /* \"#utility.yul\":345:347   */\n      0x20\n        /* \"#utility.yul\":334:343   */\n      dup3\n        /* \"#utility.yul\":330:348   */\n      add\n        /* \"#utility.yul\":322:348   */\n      swap1\n      pop\n        /* \"#utility.yul\":358:429   */\n      tag_32\n        /* \"#utility.yul\":426:427   */\n      0x00\n        /* \"#utility.yul\":415:424   */\n      dup4\n        /* \"#utility.yul\":411:428   */\n      add\n        /* \"#utility.yul\":402:408   */\n      dup5\n        /* \"#utility.yul\":358:429   */\n      tag_18\n      jump\t// in\n    tag_32:\n        /* \"#utility.yul\":214:436   */\n      swap3\n      swap2\n      pop\n      pop\n      jump\t// out\n        /* \"#utility.yul\":523:640   */\n    tag_20:\n        /* \"#utility.yul\":632:633   */\n      0x00\n        /* \"#utility.yul\":629:630   */\n      dup1\n        /* \"#utility.yul\":622:634   */\n      revert\n        /* \"#utility.yul\":769:891   */\n    tag_22:\n        /* \"#utility.yul\":842:866   */\n      tag_37\n        /* \"#utility.yul\":860:865   */\n      dup2\n        /* \"#utility.yul\":842:866   */\n      tag_17\n      jump\t// in\n    tag_37:\n        /* \"#utility.yul\":835:840   */\n      dup2\n        /* \"#utility.yul\":832:867   */\n      eq\n        /* \"#utility.yul\":822:885   */\n      tag_38\n      jumpi\n        /* \"#utility.yul\":881:882   */\n      0x00\n        /* \"#utility.yul\":878:879   */\n      dup1\n        /* \"#utility.yul\":871:883   */\n      revert\n        /* \"#utility.yul\":822:885   */\n    tag_38:\n        /* \"#utility.yul\":769:891   */\n      pop\n      jump\t// out\n        /* \"#utility.yul\":897:1036   */\n    tag_23:\n        /* \"#utility.yul\":943:948   */\n      0x00\n        /* \"#utility.yul\":981:987   */\n      dup2\n        /* \"#utility.yul\":968:988   */\n      calldataload\n        /* \"#utility.yul\":959:988   */\n      swap1\n      pop\n        /* \"#utility.yul\":997:1030   */\n      tag_40\n        /* \"#utility.yul\":1024:1029   */\n      dup2\n        /* \"#utility.yul\":997:1030   */\n      tag_22\n      jump\t// in\n    tag_40:\n        /* \"#utility.yul\":897:1036   */\n      swap3\n      swap2\n      pop\n      pop\n      jump\t// out\n        /* \"#utility.yul\":1042:1371   */\n    tag_11:\n        /* \"#utility.yul\":1101:1107   */\n      0x00\n        /* \"#utility.yul\":1150:1152   */\n      0x20\n        /* \"#utility.yul\":1138:1147   */\n      dup3\n        /* \"#utility.yul\":1129:1136   */\n      dup5\n        /* \"#utility.yul\":1125:1148   */\n      sub\n        /* \"#utility.yul\":1121:1153   */\n      slt\n        /* \"#utility.yul\":1118:1237   */\n      iszero\n      tag_42\n      jumpi\n        /* \"#utility.yul\":1156:1235   */\n      tag_43\n      tag_20\n      jump\t// in\n    tag_43:\n        /* \"#utility.yul\":1118:1237   */\n    tag_42:\n        /* \"#utility.yul\":1276:1277   */\n      0x00\n        /* \"#utility.yul\":1301:1354   */\n      tag_44\n        /* \"#utility.yul\":1346:1353   */\n      dup5\n        /* \"#utility.yul\":1337:1343   */\n      dup3\n        /* \"#utility.yul\":1326:1335   */\n      dup6\n        /* \"#utility.yul\":1322:1344   */\n      add\n        /* \"#utility.yul\":1301:1354   */\n      tag_23\n      jump\t// in\n    tag_44:\n        /* \"#utility.yul\":1291:1354   */\n      swap2\n      pop\n        /* \"#utility.yul\":1247:1364   */\n      pop\n        /* \"#utility.yul\":1042:1371   */\n      swap3\n      swap2\n      pop\n      pop\n      jump\t// out\n        /* \"#utility.yul\":1377:1546   */\n    tag_24:\n        /* \"#utility.yul\":1461:1472   */\n      0x00\n        /* \"#utility.yul\":1495:1501   */\n      dup3\n        /* \"#utility.yul\":1490:1493   */\n      dup3\n        /* \"#utility.yul\":1483:1502   */\n      mstore\n        /* \"#utility.yul\":1535:1539   */\n      0x20\n        /* \"#utility.yul\":1530:1533   */\n      dup3\n        /* \"#utility.yul\":1526:1540   */\n      add\n        /* \"#utility.yul\":1511:1540   */\n      swap1\n      pop\n        /* \"#utility.yul\":1377:1546   */\n      swap3\n      swap2\n      pop\n      pop\n      jump\t// out\n        /* \"#utility.yul\":1552:1724   */\n    tag_25:\n        /* \"#utility.yul\":1692:1716   */\n      0x596f752068617665206e6f207065726d697373696f6e00000000000000000000\n        /* \"#utility.yul\":1688:1689   */\n      0x00\n        /* \"#utility.yul\":1680:1686   */\n      dup3\n        /* \"#utility.yul\":1676:1690   */\n      add\n        /* \"#utility.yul\":1669:1717   */\n      mstore\n        /* \"#utility.yul\":1552:1724   */\n      pop\n      jump\t// out\n        /* \"#utility.yul\":1730:2096   */\n    tag_26:\n        /* \"#utility.yul\":1872:1875   */\n      0x00\n        /* \"#utility.yul\":1893:1960   */\n      tag_48\n        /* \"#utility.yul\":1957:1959   */\n      0x16\n        /* \"#utility.yul\":1952:1955   */\n      dup4\n        /* \"#utility.yul\":1893:1960   */\n      tag_24\n      jump\t// in\n    tag_48:\n        /* \"#utility.yul\":1886:1960   */\n      swap2\n      pop\n        /* \"#utility.yul\":1969:2062   */\n      tag_49\n        /* \"#utility.yul\":2058:2061   */\n      dup3\n        /* \"#utility.yul\":1969:2062   */\n      tag_25\n      jump\t// in\n    tag_49:\n        /* \"#utility.yul\":2087:2089   */\n      0x20\n        /* \"#utility.yul\":2082:2085   */\n      dup3\n        /* \"#utility.yul\":2078:2090   */\n      add\n        /* \"#utility.yul\":2071:2090   */\n      swap1\n      pop\n        /* \"#utility.yul\":1730:2096   */\n      swap2\n      swap1\n      pop\n      jump\t// out\n        /* \"#utility.yul\":2102:2521   */\n    tag_16:\n        /* \"#utility.yul\":2268:2272   */\n      0x00\n        /* \"#utility.yul\":2306:2308   */\n      0x20\n        /* \"#utility.yul\":2295:2304   */\n      dup3\n        /* \"#utility.yul\":2291:2309   */\n      add\n        /* \"#utility.yul\":2283:2309   */\n      swap1\n      pop\n        /* \"#utility.yul\":2355:2364   */\n      dup2\n        /* \"#utility.yul\":2349:2353   */\n      dup2\n        /* \"#utility.yul\":2345:2365   */\n      sub\n        /* \"#utility.yul\":2341:2342   */\n      0x00\n        /* \"#utility.yul\":2330:2339   */\n      dup4\n        /* \"#utility.yul\":2326:2343   */\n      add\n        /* \"#utility.yul\":2319:2366   */\n      mstore\n        /* \"#utility.yul\":2383:2514   */\n      tag_51\n        /* \"#utility.yul\":2509:2513   */\n      dup2\n        /* \"#utility.yul\":2383:2514   */\n      tag_26\n      jump\t// in\n    tag_51:\n        /* \"#utility.yul\":2375:2514   */\n      swap1\n      pop\n        /* \"#utility.yul\":2102:2521   */\n      swap2\n      swap1\n      pop\n      jump\t// out\n\n    auxdata: 0xa2646970667358221220fa2907493192979ab41e473c570b83041ce332313a775c3c1ca386fcef0b12c064736f6c63430008120033\n}\n",
				"bytecode": {
					"linkReferences": {},
					"object": "608060405234801561001057600080fd5b50336000806101000a81548173ffffffffffffffffffffffffffffffffffffffff021916908373ffffffffffffffffffffffffffffffffffffffff160217905550610258806100606000396000f3fe608060405234801561001057600080fd5b50600436106100365760003560e01c80633b3dca761461003b578063da5fc45314610059575b600080fd5b610043610075565b604051610050919061012c565b60405180910390f35b610073600480360381019061006e9190610178565b61007b565b005b60015481565b60008054906101000a900473ffffffffffffffffffffffffffffffffffffffff1673ffffffffffffffffffffffffffffffffffffffff163373ffffffffffffffffffffffffffffffffffffffff1614610109576040517f08c379a000000000000000000000000000000000000000000000000000000000815260040161010090610202565b60405180910390fd5b8060018190555050565b6000819050919050565b61012681610113565b82525050565b6000602082019050610141600083018461011d565b92915050565b600080fd5b61015581610113565b811461016057600080fd5b50565b6000813590506101728161014c565b92915050565b60006020828403121561018e5761018d610147565b5b600061019c84828501610163565b91505092915050565b600082825260208201905092915050565b7f596f752068617665206e6f207065726d697373696f6e00000000000000000000600082015250565b60006101ec6016836101a5565b91506101f7826101b6565b602082019050919050565b6000602082019050818103600083015261021b816101df565b905091905056fea2646970667358221220fa2907493192979ab41e473c570b83041ce332313a775c3c1ca386fcef0b12c064736f6c63430008120033",
					"opcodes": "PUSH1 0x80 PUSH1 0x40 MSTORE CALLVALUE DUP1 ISZERO PUSH2 0x10 JUMPI PUSH1 0x0 DUP1 REVERT JUMPDEST POP CALLER PUSH1 0x0 DUP1 PUSH2 0x100 EXP DUP2 SLOAD DUP2 PUSH20 0xFFFFFFFFFFFFFFFFFFFFFFFFFFFFFFFFFFFFFFFF MUL NOT AND SWAP1 DUP4 PUSH20 0xFFFFFFFFFFFFFFFFFFFFFFFFFFFFFFFFFFFFFFFF AND MUL OR SWAP1 SSTORE POP PUSH2 0x258 DUP1 PUSH2 0x60 PUSH1 0x0 CODECOPY PUSH1 0x0 RETURN INVALID PUSH1 0x80 PUSH1 0x40 MSTORE CALLVALUE DUP1 ISZERO PUSH2 0x10 JUMPI PUSH1 0x0 DUP1 REVERT JUMPDEST POP PUSH1 0x4 CALLDATASIZE LT PUSH2 0x36 JUMPI PUSH1 0x0 CALLDATALOAD PUSH1 0xE0 SHR DUP1 PUSH4 0x3B3DCA76 EQ PUSH2 0x3B JUMPI DUP1 PUSH4 0xDA5FC453 EQ PUSH2 0x59 JUMPI JUMPDEST PUSH1 0x0 DUP1 REVERT JUMPDEST PUSH2 0x43 PUSH2 0x75 JUMP JUMPDEST PUSH1 0x40 MLOAD PUSH2 0x50 SWAP2 SWAP1 PUSH2 0x12C JUMP JUMPDEST PUSH1 0x40 MLOAD DUP1 SWAP2 SUB SWAP1 RETURN JUMPDEST PUSH2 0x73 PUSH1 0x4 DUP1 CALLDATASIZE SUB DUP2 ADD SWAP1 PUSH2 0x6E SWAP2 SWAP1 PUSH2 0x178 JUMP JUMPDEST PUSH2 0x7B JUMP JUMPDEST STOP JUMPDEST PUSH1 0x1 SLOAD DUP2 JUMP JUMPDEST PUSH1 0x0 DUP1 SLOAD SWAP1 PUSH2 0x100 EXP SWAP1 DIV PUSH20 0xFFFFFFFFFFFFFFFFFFFFFFFFFFFFFFFFFFFFFFFF AND PUSH20 0xFFFFFFFFFFFFFFFFFFFFFFFFFFFFFFFFFFFFFFFF AND CALLER PUSH20 0xFFFFFFFFFFFFFFFFFFFFFFFFFFFFFFFFFFFFFFFF AND EQ PUSH2 0x109 JUMPI PUSH1 0x40 MLOAD PUSH32 0x8C379A000000000000000000000000000000000000000000000000000000000 DUP2 MSTORE PUSH1 0x4 ADD PUSH2 0x100 SWAP1 PUSH2 0x202 JUMP JUMPDEST PUSH1 0x40 MLOAD DUP1 SWAP2 SUB SWAP1 REVERT JUMPDEST DUP1 PUSH1 0x1 DUP2 SWAP1 SSTORE POP POP JUMP JUMPDEST PUSH1 0x0 DUP2 SWAP1 POP SWAP2 SWAP1 POP JUMP JUMPDEST PUSH2 0x126 DUP2 PUSH2 0x113 JUMP JUMPDEST DUP3 MSTORE POP POP JUMP JUMPDEST PUSH1 0x0 PUSH1 0x20 DUP3 ADD SWAP1 POP PUSH2 0x141 PUSH1 0x0 DUP4 ADD DUP5 PUSH2 0x11D JUMP JUMPDEST SWAP3 SWAP2 POP POP JUMP JUMPDEST PUSH1 0x0 DUP1 REVERT JUMPDEST PUSH2 0x155 DUP2 PUSH2 0x113 JUMP JUMPDEST DUP2 EQ PUSH2 0x160 JUMPI PUSH1 0x0 DUP1 REVERT JUMPDEST POP JUMP JUMPDEST PUSH1 0x0 DUP2 CALLDATALOAD SWAP1 POP PUSH2 0x172 DUP2 PUSH2 0x14C JUMP JUMPDEST SWAP3 SWAP2 POP POP JUMP JUMPDEST PUSH1 0x0 PUSH1 0x20 DUP3 DUP5 SUB SLT ISZERO PUSH2 0x18E JUMPI PUSH2 0x18D PUSH2 0x147 JUMP JUMPDEST JUMPDEST PUSH1 0x0 PUSH2 0x19C DUP5 DUP3 DUP6 ADD PUSH2 0x163 JUMP JUMPDEST SWAP2 POP POP SWAP3 SWAP2 POP POP JUMP JUMPDEST PUSH1 0x0 DUP3 DUP3 MSTORE PUSH1 0x20 DUP3 ADD SWAP1 POP SWAP3 SWAP2 POP POP JUMP JUMPDEST PUSH32 0x596F752068617665206E6F207065726D697373696F6E00000000000000000000 PUSH1 0x0 DUP3 ADD MSTORE POP JUMP JUMPDEST PUSH1 0x0 PUSH2 0x1EC PUSH1 0x16 DUP4 PUSH2 0x1A5 JUMP JUMPDEST SWAP2 POP PUSH2 0x1F7 DUP3 PUSH2 0x1B6 JUMP JUMPDEST PUSH1 0x20 DUP3 ADD SWAP1 POP SWAP2 SWAP1 POP JUMP JUMPDEST PUSH1 0x0 PUSH1 0x20 DUP3 ADD SWAP1 POP DUP2 DUP2 SUB PUSH1 0x0 DUP4 ADD MSTORE PUSH2 0x21B DUP2 PUSH2 0x1DF JUMP JUMPDEST SWAP1 POP SWAP2 SWAP1 POP JUMP INVALID LOG2 PUSH5 0x6970667358 0x22 SLT KECCAK256 STATICCALL 0x29 SMOD 0x49 BALANCE SWAP3 SWAP8 SWAP11 0xB4 0x1E SELFBALANCE EXTCODECOPY JUMPI SIGNEXTEND DUP4 DIV SHR 0xE3 ORIGIN BALANCE GASPRICE PUSH24 0x5C3C1CA386FCEF0B12C064736F6C63430008120033000000 "
				},
				"gasEstimates": {
					"creation": {
						"codeDepositCost": "120000",
						"executionCost": "24431",
						"totalCost": "144431"
					},
					"external": {
						"changeRand(uint256)": "24687",
						"rand()": "2407"
					}
				},
				"methodIdentifiers": {
					"changeRand(uint256)": "da5fc453",
					"rand()": "3b3dca76"
				}
			},
			"storageLayout": {
				"storage": [
					{
						"astId": 46,
						"contract": "solidity_learn/cryptographic-function.sol:Oracle",
						"label": "admin",
						"offset": 0,
						"slot": "0",
						"type": "t_address"
					},
					{
						"astId": 48,
						"contract": "solidity_learn/cryptographic-function.sol:Oracle",
						"label": "rand",
						"offset": 0,
						"slot": "1",
						"type": "t_uint256"
					}
				],
				"types": {
					"t_address": {
						"encoding": "inplace",
						"label": "address",
						"numberOfBytes": "20"
					},
					"t_uint256": {
						"encoding": "inplace",
						"label": "uint256",
						"numberOfBytes": "32"
					}
				}
			},
			"userdoc": {
				"kind": "user",
				"methods": {},
				"version": 1
			}
		}
	}
}