{
	"solidity_learn/special-variables.sol": {
		"LedgerBalance": {
			"abi": [
				{
					"inputs": [
						{
							"internalType": "uint256",
							"name": "newBalance",
							"type": "uint256"
						}
					],
					"name": "updatesBalance",
					"outputs": [],
					"stateMutability": "nonpayable",
					"type": "function"
				}
			],
			"devdoc": {
				"kind": "dev",
				"methods": {},
				"version": 1
			},
			"evm": {
				"assembly": "    /* \"solidity_learn/special-variables.sol\":70:246  contract LedgerBalance {\r... */\n  mstore(0x40, 0x80)\n  callvalue\n  dup1\n  iszero\n  tag_1\n  jumpi\n  0x00\n  dup1\n  revert\ntag_1:\n  pop\n  dataSize(sub_0)\n  dup1\n  dataOffset(sub_0)\n  0x00\n  codecopy\n  0x00\n  return\nstop\n\nsub_0: assembly {\n        /* \"solidity_learn/special-variables.sol\":70:246  contract LedgerBalance {\r... */\n      mstore(0x40, 0x80)\n      callvalue\n      dup1\n      iszero\n      tag_1\n      jumpi\n      0x00\n      dup1\n      revert\n    tag_1:\n      pop\n      jumpi(tag_2, lt(calldatasize, 0x04))\n      shr(0xe0, calldataload(0x00))\n      dup1\n      0x17c2b39f\n      eq\n      tag_3\n      jumpi\n    tag_2:\n      0x00\n      dup1\n      revert\n        /* \"solidity_learn/special-variables.sol\":144:243  function updatesBalance(uint newBalance) public {\r... */\n    tag_3:\n      tag_4\n      0x04\n      dup1\n      calldatasize\n      sub\n      dup2\n      add\n      swap1\n      tag_5\n      swap2\n      swap1\n      tag_6\n      jump\t// in\n    tag_5:\n      tag_7\n      jump\t// in\n    tag_4:\n      stop\n    tag_7:\n        /* \"solidity_learn/special-variables.sol\":225:235  newBalance */\n      dup1\n        /* \"solidity_learn/special-variables.sol\":203:210  balance */\n      0x00\n        /* \"solidity_learn/special-variables.sol\":203:222  balance[msg.sender] */\n      dup1\n        /* \"solidity_learn/special-variables.sol\":211:221  msg.sender */\n      caller\n        /* \"solidity_learn/special-variables.sol\":203:222  balance[msg.sender] */\n      0xffffffffffffffffffffffffffffffffffffffff\n      and\n      0xffffffffffffffffffffffffffffffffffffffff\n      and\n      dup2\n      mstore\n      0x20\n      add\n      swap1\n      dup2\n      mstore\n      0x20\n      add\n      0x00\n      keccak256\n        /* \"solidity_learn/special-variables.sol\":203:235  balance[msg.sender] = newBalance */\n      dup2\n      swap1\n      sstore\n      pop\n        /* \"solidity_learn/special-variables.sol\":144:243  function updatesBalance(uint newBalance) public {\r... */\n      pop\n      jump\t// out\n        /* \"#utility.yul\":7:146   */\n    tag_10:\n        /* \"#utility.yul\":53:58   */\n      0x00\n        /* \"#utility.yul\":91:97   */\n      dup2\n        /* \"#utility.yul\":78:98   */\n      calldataload\n        /* \"#utility.yul\":69:98   */\n      swap1\n      pop\n        /* \"#utility.yul\":107:140   */\n      tag_12\n        /* \"#utility.yul\":134:139   */\n      dup2\n        /* \"#utility.yul\":107:140   */\n      tag_13\n      jump\t// in\n    tag_12:\n        /* \"#utility.yul\":7:146   */\n      swap3\n      swap2\n      pop\n      pop\n      jump\t// out\n        /* \"#utility.yul\":152:481   */\n    tag_6:\n        /* \"#utility.yul\":211:217   */\n      0x00\n        /* \"#utility.yul\":260:262   */\n      0x20\n        /* \"#utility.yul\":248:257   */\n      dup3\n        /* \"#utility.yul\":239:246   */\n      dup5\n        /* \"#utility.yul\":235:258   */\n      sub\n        /* \"#utility.yul\":231:263   */\n      slt\n        /* \"#utility.yul\":228:347   */\n      iszero\n      tag_15\n      jumpi\n        /* \"#utility.yul\":266:345   */\n      tag_16\n      tag_17\n      jump\t// in\n    tag_16:\n        /* \"#utility.yul\":228:347   */\n    tag_15:\n        /* \"#utility.yul\":386:387   */\n      0x00\n        /* \"#utility.yul\":411:464   */\n      tag_18\n        /* \"#utility.yul\":456:463   */\n      dup5\n        /* \"#utility.yul\":447:453   */\n      dup3\n        /* \"#utility.yul\":436:445   */\n      dup6\n        /* \"#utility.yul\":432:454   */\n      add\n        /* \"#utility.yul\":411:464   */\n      tag_10\n      jump\t// in\n    tag_18:\n        /* \"#utility.yul\":401:464   */\n      swap2\n      pop\n        /* \"#utility.yul\":357:474   */\n      pop\n        /* \"#utility.yul\":152:481   */\n      swap3\n      swap2\n      pop\n      pop\n      jump\t// out\n        /* \"#utility.yul\":568:645   */\n    tag_21:\n        /* \"#utility.yul\":605:612   */\n      0x00\n        /* \"#utility.yul\":634:639   */\n      dup2\n        /* \"#utility.yul\":623:639   */\n      swap1\n      pop\n        /* \"#utility.yul\":568:645   */\n      swap2\n      swap1\n      pop\n      jump\t// out\n        /* \"#utility.yul\":774:891   */\n    tag_17:\n        /* \"#utility.yul\":883:884   */\n      0x00\n        /* \"#utility.yul\":880:881   */\n      dup1\n        /* \"#utility.yul\":873:885   */\n      revert\n        /* \"#utility.yul\":897:1019   */\n    tag_13:\n        /* \"#utility.yul\":970:994   */\n      tag_27\n        /* \"#utility.yul\":988:993   */\n      dup2\n        /* \"#utility.yul\":970:994   */\n      tag_21\n      jump\t// in\n    tag_27:\n        /* \"#utility.yul\":963:968   */\n      dup2\n        /* \"#utility.yul\":960:995   */\n      eq\n        /* \"#utility.yul\":950:1013   */\n      tag_28\n      jumpi\n        /* \"#utility.yul\":1009:1010   */\n      0x00\n        /* \"#utility.yul\":1006:1007   */\n      dup1\n        /* \"#utility.yul\":999:1011   */\n      revert\n        /* \"#utility.yul\":950:1013   */\n    tag_28:\n        /* \"#utility.yul\":897:1019   */\n      pop\n      jump\t// out\n\n    auxdata: 0xa2646970667358221220cb49942dbe06504d42ec8b7110c7d8202874b78baa9f3b82de527772aa7e1b3c64736f6c63430008070033\n}\n",
				"bytecode": {
					"linkReferences": {},
					"object": "608060405234801561001057600080fd5b5061011f806100206000396000f3fe6080604052348015600f57600080fd5b506004361060285760003560e01c806317c2b39f14602d575b600080fd5b60436004803603810190603f9190609e565b6045565b005b806000803373ffffffffffffffffffffffffffffffffffffffff1673ffffffffffffffffffffffffffffffffffffffff1681526020019081526020016000208190555050565b60008135905060988160d5565b92915050565b60006020828403121560b15760b060d0565b5b600060bd84828501608b565b91505092915050565b6000819050919050565b600080fd5b60dc8160c6565b811460e657600080fd5b5056fea2646970667358221220cb49942dbe06504d42ec8b7110c7d8202874b78baa9f3b82de527772aa7e1b3c64736f6c63430008070033",
					"opcodes": "PUSH1 0x80 PUSH1 0x40 MSTORE CALLVALUE DUP1 ISZERO PUSH2 0x10 JUMPI PUSH1 0x0 DUP1 REVERT JUMPDEST POP PUSH2 0x11F DUP1 PUSH2 0x20 PUSH1 0x0 CODECOPY PUSH1 0x0 RETURN INVALID PUSH1 0x80 PUSH1 0x40 MSTORE CALLVALUE DUP1 ISZERO PUSH1 0xF JUMPI PUSH1 0x0 DUP1 REVERT JUMPDEST POP PUSH1 0x4 CALLDATASIZE LT PUSH1 0x28 JUMPI PUSH1 0x0 CALLDATALOAD PUSH1 0xE0 SHR DUP1 PUSH4 0x17C2B39F EQ PUSH1 0x2D JUMPI JUMPDEST PUSH1 0x0 DUP1 REVERT JUMPDEST PUSH1 0x43 PUSH1 0x4 DUP1 CALLDATASIZE SUB DUP2 ADD SWAP1 PUSH1 0x3F SWAP2 SWAP1 PUSH1 0x9E JUMP JUMPDEST PUSH1 0x45 JUMP JUMPDEST STOP JUMPDEST DUP1 PUSH1 0x0 DUP1 CALLER PUSH20 0xFFFFFFFFFFFFFFFFFFFFFFFFFFFFFFFFFFFFFFFF AND PUSH20 0xFFFFFFFFFFFFFFFFFFFFFFFFFFFFFFFFFFFFFFFF AND DUP2 MSTORE PUSH1 0x20 ADD SWAP1 DUP2 MSTORE PUSH1 0x20 ADD PUSH1 0x0 KECCAK256 DUP2 SWAP1 SSTORE POP POP JUMP JUMPDEST PUSH1 0x0 DUP2 CALLDATALOAD SWAP1 POP PUSH1 0x98 DUP2 PUSH1 0xD5 JUMP JUMPDEST SWAP3 SWAP2 POP POP JUMP JUMPDEST PUSH1 0x0 PUSH1 0x20 DUP3 DUP5 SUB SLT ISZERO PUSH1 0xB1 JUMPI PUSH1 0xB0 PUSH1 0xD0 JUMP JUMPDEST JUMPDEST PUSH1 0x0 PUSH1 0xBD DUP5 DUP3 DUP6 ADD PUSH1 0x8B JUMP JUMPDEST SWAP2 POP POP SWAP3 SWAP2 POP POP JUMP JUMPDEST PUSH1 0x0 DUP2 SWAP1 POP SWAP2 SWAP1 POP JUMP JUMPDEST PUSH1 0x0 DUP1 REVERT JUMPDEST PUSH1 0xDC DUP2 PUSH1 0xC6 JUMP JUMPDEST DUP2 EQ PUSH1 0xE6 JUMPI PUSH1 0x0 DUP1 REVERT JUMPDEST POP JUMP INVALID LOG2 PUSH5 0x6970667358 0x22 SLT KECCAK256 0xCB 0x49 SWAP5 0x2D 0xBE MOD POP 0x4D TIMESTAMP 0xEC DUP12 PUSH18 0x10C7D8202874B78BAA9F3B82DE527772AA7E SHL EXTCODECOPY PUSH5 0x736F6C6343 STOP ADDMOD SMOD STOP CALLER "
				},
				"gasEstimates": {
					"creation": {
						"codeDepositCost": "57400",
						"executionCost": "105",
						"totalCost": "57505"
					},
					"external": {
						"updatesBalance(uint256)": "22587"
					}
				},
				"methodIdentifiers": {
					"updatesBalance(uint256)": "17c2b39f"
				}
			},
			"storageLayout": {
				"storage": [
					{
						"astId": 5,
						"contract": "solidity_learn/special-variables.sol:LedgerBalance",
						"label": "balance",
						"offset": 0,
						"slot": "0",
						"type": "t_mapping(t_address,t_uint256)"
					}
				],
				"types": {
					"t_address": {
						"encoding": "inplace",
						"label": "address",
						"numberOfBytes": "20"
					},
					"t_mapping(t_address,t_uint256)": {
						"encoding": "mapping",
						"key": "t_address",
						"label": "mapping(address => uint256)",
						"numberOfBytes": "32",
						"value": "t_uint256"
					},
					"t_uint256": {
						"encoding": "inplace",
						"label": "uint256",
						"numberOfBytes": "32"
					}
				}
			},
			"userdoc": {
				"kind": "user",
				"methods": {},
				"version": 1
			}
		}
	}
}