{
	"data": {
		"bytecode": {
			"linkReferences": {},
			"object": "6080604052348015600f57600080fd5b5060c38061001e6000396000f3fe6080604052348015600f57600080fd5b506004361060285760003560e01c806391ff2c8614602d575b600080fd5b60336035565b005b60026000806101000a81548160ff021916908360028111156057576056605e565b5b0217905550565b7f4e487b7100000000000000000000000000000000000000000000000000000000600052602160045260246000fdfea264697066735822122082e6886e19b14bc7ba9c5a2a9e592afc6068a87cdbe2b62c818772b2f1ca5cb064736f6c63430008110033",
			"opcodes": "PUSH1 0x80 PUSH1 0x40 MSTORE CALLVALUE DUP1 ISZERO PUSH1 0xF JUMPI PUSH1 0x0 DUP1 REVERT JUMPDEST POP PUSH1 0xC3 DUP1 PUSH2 0x1E PUSH1 0x0 CODECOPY PUSH1 0x0 RETURN INVALID PUSH1 0x80 PUSH1 0x40 MSTORE CALLVALUE DUP1 ISZERO PUSH1 0xF JUMPI PUSH1 0x0 DUP1 REVERT JUMPDEST POP PUSH1 0x4 CALLDATASIZE LT PUSH1 0x28 JUMPI PUSH1 0x0 CALLDATALOAD PUSH1 0xE0 SHR DUP1 PUSH4 0x91FF2C86 EQ PUSH1 0x2D JUMPI JUMPDEST PUSH1 0x0 DUP1 REVERT JUMPDEST PUSH1 0x33 PUSH1 0x35 JUMP JUMPDEST STOP JUMPDEST PUSH1 0x2 PUSH1 0x0 DUP1 PUSH2 0x100 EXP DUP2 SLOAD DUP2 PUSH1 0xFF MUL NOT AND SWAP1 DUP4 PUSH1 0x2 DUP2 GT ISZERO PUSH1 0x57 JUMPI PUSH1 0x56 PUSH1 0x5E JUMP JUMPDEST JUMPDEST MUL OR SWAP1 SSTORE POP JUMP JUMPDEST PUSH32 0x4E487B7100000000000000000000000000000000000000000000000000000000 PUSH1 0x0 MSTORE PUSH1 0x21 PUSH1 0x4 MSTORE PUSH1 0x24 PUSH1 0x0 REVERT INVALID LOG2 PUSH5 0x6970667358 0x22 SLT KECCAK256 DUP3 0xE6 DUP9 PUSH15 0x19B14BC7BA9C5A2A9E592AFC6068A8 PUSH29 0xDBE2B62C818772B2F1CA5CB064736F6C63430008110033000000000000 "
		},
		"gasEstimates": {
			"creation": {
				"codeDepositCost": "39000",
				"executionCost": "93",
				"totalCost": "39093"
			},
			"external": {
				"setSmall()": "24409"
			}
		},
		"methodIdentifiers": {
			"setSmall()": "91ff2c86"
		}
	},
	"abi": [
		{
			"inputs": [],
			"name": "setSmall",
			"outputs": [],
			"stateMutability": "nonpayable",
			"type": "function"
		}
	]
}