{
	"data": {
		"bytecode": {
			"linkReferences": {},
			"object": "608060405234801561001057600080fd5b5060058060008190555050606460018190555061010d806100326000396000f3fe6080604052348015600f57600080fd5b5060043610603c5760003560e01c8063148a95ea1460415780633bc5de3014605b578063e3a7fd75146075575b600080fd5b6047608f565b6040516052919060be565b60405180910390f35b60616098565b604051606c919060be565b60405180910390f35b607b60a1565b6040516086919060be565b60405180910390f35b60008054905090565b60008054905090565b60015481565b6000819050919050565b60b88160a7565b82525050565b600060208201905060d1600083018460b1565b9291505056fea264697066735822122050658ff74d2b3a9c6c2460522ed06b4d0d080b785603c525f61877a6fcfd603664736f6c63430008110033",
			"opcodes": "PUSH1 0x80 PUSH1 0x40 MSTORE CALLVALUE DUP1 ISZERO PUSH2 0x10 JUMPI PUSH1 0x0 DUP1 REVERT JUMPDEST POP PUSH1 0x5 DUP1 PUSH1 0x0 DUP2 SWAP1 SSTORE POP POP PUSH1 0x64 PUSH1 0x1 DUP2 SWAP1 SSTORE POP PUSH2 0x10D DUP1 PUSH2 0x32 PUSH1 0x0 CODECOPY PUSH1 0x0 RETURN INVALID PUSH1 0x80 PUSH1 0x40 MSTORE CALLVALUE DUP1 ISZERO PUSH1 0xF JUMPI PUSH1 0x0 DUP1 REVERT JUMPDEST POP PUSH1 0x4 CALLDATASIZE LT PUSH1 0x3C JUMPI PUSH1 0x0 CALLDATALOAD PUSH1 0xE0 SHR DUP1 PUSH4 0x148A95EA EQ PUSH1 0x41 JUMPI DUP1 PUSH4 0x3BC5DE30 EQ PUSH1 0x5B JUMPI DUP1 PUSH4 0xE3A7FD75 EQ PUSH1 0x75 JUMPI JUMPDEST PUSH1 0x0 DUP1 REVERT JUMPDEST PUSH1 0x47 PUSH1 0x8F JUMP JUMPDEST PUSH1 0x40 MLOAD PUSH1 0x52 SWAP2 SWAP1 PUSH1 0xBE JUMP JUMPDEST PUSH1 0x40 MLOAD DUP1 SWAP2 SUB SWAP1 RETURN JUMPDEST PUSH1 0x61 PUSH1 0x98 JUMP JUMPDEST PUSH1 0x40 MLOAD PUSH1 0x6C SWAP2 SWAP1 PUSH1 0xBE JUMP JUMPDEST PUSH1 0x40 MLOAD DUP1 SWAP2 SUB SWAP1 RETURN JUMPDEST PUSH1 0x7B PUSH1 0xA1 JUMP JUMPDEST PUSH1 0x40 MLOAD PUSH1 0x86 SWAP2 SWAP1 PUSH1 0xBE JUMP JUMPDEST PUSH1 0x40 MLOAD DUP1 SWAP2 SUB SWAP1 RETURN JUMPDEST PUSH1 0x0 DUP1 SLOAD SWAP1 POP SWAP1 JUMP JUMPDEST PUSH1 0x0 DUP1 SLOAD SWAP1 POP SWAP1 JUMP JUMPDEST PUSH1 0x1 SLOAD DUP2 JUMP JUMPDEST PUSH1 0x0 DUP2 SWAP1 POP SWAP2 SWAP1 POP JUMP JUMPDEST PUSH1 0xB8 DUP2 PUSH1 0xA7 JUMP JUMPDEST DUP3 MSTORE POP POP JUMP JUMPDEST PUSH1 0x0 PUSH1 0x20 DUP3 ADD SWAP1 POP PUSH1 0xD1 PUSH1 0x0 DUP4 ADD DUP5 PUSH1 0xB1 JUMP JUMPDEST SWAP3 SWAP2 POP POP JUMP INVALID LOG2 PUSH5 0x6970667358 0x22 SLT KECCAK256 POP PUSH6 0x8FF74D2B3A9C PUSH13 0x2460522ED06B4D0D080B785603 0xC5 0x25 0xF6 XOR PUSH24 0xA6FCFD603664736F6C634300081100330000000000000000 "
		},
		"gasEstimates": {
			"creation": {
				"codeDepositCost": "53800",
				"executionCost": "44338",
				"totalCost": "98138"
			},
			"external": {
				"data2()": "2451",
				"getBaseData()": "2415",
				"getData()": "2437"
			}
		},
		"methodIdentifiers": {
			"data2()": "e3a7fd75",
			"getBaseData()": "148a95ea",
			"getData()": "3bc5de30"
		}
	},
	"abi": [
		{
			"inputs": [],
			"stateMutability": "nonpayable",
			"type": "constructor"
		},
		{
			"inputs": [],
			"name": "data2",
			"outputs": [
				{
					"internalType": "uint256",
					"name": "",
					"type": "uint256"
				}
			],
			"stateMutability": "view",
			"type": "function"
		},
		{
			"inputs": [],
			"name": "getBaseData",
			"outputs": [
				{
					"internalType": "uint256",
					"name": "",
					"type": "uint256"
				}
			],
			"stateMutability": "view",
			"type": "function"
		},
		{
			"inputs": [],
			"name": "getData",
			"outputs": [
				{
					"internalType": "uint256",
					"name": "",
					"type": "uint256"
				}
			],
			"stateMutability": "view",
			"type": "function"
		}
	]
}