{
	"hello.sol": {
		"hello": {
			"abi": [
				{
					"inputs": [
						{
							"internalType": "uint256",
							"name": "_number",
							"type": "uint256"
						}
					],
					"name": "checkMultiples",
					"outputs": [
						{
							"internalType": "uint256",
							"name": "",
							"type": "uint256"
						}
					],
					"stateMutability": "view",
					"type": "function"
				},
				{
					"inputs": [],
					"name": "compare",
					"outputs": [],
					"stateMutability": "view",
					"type": "function"
				},
				{
					"inputs": [
						{
							"internalType": "uint256",
							"name": "",
							"type": "uint256"
						}
					],
					"name": "numberslist",
					"outputs": [
						{
							"internalType": "uint256",
							"name": "",
							"type": "uint256"
						}
					],
					"stateMutability": "view",
					"type": "function"
				},
				{
					"inputs": [
						{
							"internalType": "uint256[]",
							"name": "arr1",
							"type": "uint256[]"
						}
					],
					"name": "test1",
					"outputs": [],
					"stateMutability": "nonpayable",
					"type": "function"
				},
				{
					"inputs": [],
					"name": "validateOranges",
					"outputs": [
						{
							"internalType": "bool",
							"name": "",
							"type": "bool"
						}
					],
					"stateMutability": "view",
					"type": "function"
				}
			],
			"devdoc": {
				"kind": "dev",
				"methods": {},
				"version": 1
			},
			"evm": {
				"assembly": "    /* \"hello.sol\":34:929  contract hello {... */\n  mstore(0x40, 0x80)\n    /* \"hello.sol\":70:71  5 */\n  0x05\n    /* \"hello.sol\":55:71  uint oranges = 5 */\n  0x00\n  sstore\n    /* \"hello.sol\":256:258  44 */\n  0x2c\n    /* \"hello.sol\":247:258  uint a = 44 */\n  0x01\n  sstore\n    /* \"hello.sol\":273:275  31 */\n  0x1f\n    /* \"hello.sol\":264:275  uint b = 31 */\n  0x02\n  sstore\n    /* \"hello.sol\":377:428  uint [] public numberslist = [1,2,3,4,5,6,7,8,9,10] */\n  mload(0x40)\n  dup1\n  0x0140\n  add\n  0x40\n  mstore\n  dup1\n    /* \"hello.sol\":407:408  1 */\n  0x01\n    /* \"hello.sol\":377:428  uint [] public numberslist = [1,2,3,4,5,6,7,8,9,10] */\n  0xff\n  and\n  dup2\n  mstore\n  0x20\n  add\n    /* \"hello.sol\":409:410  2 */\n  0x02\n    /* \"hello.sol\":377:428  uint [] public numberslist = [1,2,3,4,5,6,7,8,9,10] */\n  0xff\n  and\n  dup2\n  mstore\n  0x20\n  add\n    /* \"hello.sol\":411:412  3 */\n  0x03\n    /* \"hello.sol\":377:428  uint [] public numberslist = [1,2,3,4,5,6,7,8,9,10] */\n  0xff\n  and\n  dup2\n  mstore\n  0x20\n  add\n    /* \"hello.sol\":413:414  4 */\n  0x04\n    /* \"hello.sol\":377:428  uint [] public numberslist = [1,2,3,4,5,6,7,8,9,10] */\n  0xff\n  and\n  dup2\n  mstore\n  0x20\n  add\n    /* \"hello.sol\":415:416  5 */\n  0x05\n    /* \"hello.sol\":377:428  uint [] public numberslist = [1,2,3,4,5,6,7,8,9,10] */\n  0xff\n  and\n  dup2\n  mstore\n  0x20\n  add\n    /* \"hello.sol\":417:418  6 */\n  0x06\n    /* \"hello.sol\":377:428  uint [] public numberslist = [1,2,3,4,5,6,7,8,9,10] */\n  0xff\n  and\n  dup2\n  mstore\n  0x20\n  add\n    /* \"hello.sol\":419:420  7 */\n  0x07\n    /* \"hello.sol\":377:428  uint [] public numberslist = [1,2,3,4,5,6,7,8,9,10] */\n  0xff\n  and\n  dup2\n  mstore\n  0x20\n  add\n    /* \"hello.sol\":421:422  8 */\n  0x08\n    /* \"hello.sol\":377:428  uint [] public numberslist = [1,2,3,4,5,6,7,8,9,10] */\n  0xff\n  and\n  dup2\n  mstore\n  0x20\n  add\n    /* \"hello.sol\":423:424  9 */\n  0x09\n    /* \"hello.sol\":377:428  uint [] public numberslist = [1,2,3,4,5,6,7,8,9,10] */\n  0xff\n  and\n  dup2\n  mstore\n  0x20\n  add\n    /* \"hello.sol\":425:427  10 */\n  0x0a\n    /* \"hello.sol\":377:428  uint [] public numberslist = [1,2,3,4,5,6,7,8,9,10] */\n  0xff\n  and\n  dup2\n  mstore\n  pop\n  0x03\n  swap1\n  0x0a\n  tag_1\n  swap3\n  swap2\n  swap1\n  tag_2\n  jump\t// in\ntag_1:\n  pop\n    /* \"hello.sol\":34:929  contract hello {... */\n  callvalue\n  dup1\n  iszero\n  tag_3\n  jumpi\n  0x00\n  dup1\n  revert\ntag_3:\n  pop\n  jump(tag_4)\ntag_2:\n  dup3\n  dup1\n  sload\n  dup3\n  dup3\n  sstore\n  swap1\n  0x00\n  mstore\n  keccak256(0x00, 0x20)\n  swap1\n  dup2\n  add\n  swap3\n  dup3\n  iszero\n  tag_5\n  jumpi\n  swap2\n  0x20\n  mul\n  dup3\n  add\ntag_6:\n  dup3\n  dup2\n  gt\n  iszero\n  tag_7\n  jumpi\n  dup3\n  mload\n  dup3\n  swap1\n  0xff\n  and\n  swap1\n  sstore\n  swap2\n  0x20\n  add\n  swap2\n  swap1\n  0x01\n  add\n  swap1\n  jump(tag_6)\ntag_7:\ntag_5:\n  pop\n  swap1\n  pop\n  tag_8\n  swap2\n  swap1\n  tag_9\n  jump\t// in\ntag_8:\n  pop\n  swap1\n  jump\t// out\ntag_9:\ntag_10:\n  dup1\n  dup3\n  gt\n  iszero\n  tag_11\n  jumpi\n  0x00\n  dup2\n  0x00\n  swap1\n  sstore\n  pop\n  0x01\n  add\n  jump(tag_10)\ntag_11:\n  pop\n  swap1\n  jump\t// out\ntag_4:\n  dataSize(sub_0)\n  dup1\n  dataOffset(sub_0)\n  0x00\n  codecopy\n  0x00\n  return\nstop\n\nsub_0: assembly {\n        /* \"hello.sol\":34:929  contract hello {... */\n      mstore(0x40, 0x80)\n      callvalue\n      dup1\n      iszero\n      tag_1\n      jumpi\n      0x00\n      dup1\n      revert\n    tag_1:\n      pop\n      jumpi(tag_2, lt(calldatasize, 0x04))\n      shr(0xe0, calldataload(0x00))\n      dup1\n      0x034340df\n      eq\n      tag_3\n      jumpi\n      dup1\n      0x3da0ac79\n      eq\n      tag_4\n      jumpi\n      dup1\n      0x46c0d4d2\n      eq\n      tag_5\n      jumpi\n      dup1\n      0x6a3273b7\n      eq\n      tag_6\n      jumpi\n      dup1\n      0xb4a4fad8\n      eq\n      tag_7\n      jumpi\n    tag_2:\n      0x00\n      dup1\n      revert\n        /* \"hello.sol\":377:428  uint [] public numberslist = [1,2,3,4,5,6,7,8,9,10] */\n    tag_3:\n      tag_8\n      0x04\n      dup1\n      calldatasize\n      sub\n      dup2\n      add\n      swap1\n      tag_9\n      swap2\n      swap1\n      tag_10\n      jump\t// in\n    tag_9:\n      tag_11\n      jump\t// in\n    tag_8:\n      mload(0x40)\n      tag_12\n      swap2\n      swap1\n      tag_13\n      jump\t// in\n    tag_12:\n      mload(0x40)\n      dup1\n      swap2\n      sub\n      swap1\n      return\n        /* \"hello.sol\":281:370  function compare() public view {... */\n    tag_4:\n      tag_14\n      tag_15\n      jump\t// in\n    tag_14:\n      stop\n        /* \"hello.sol\":434:704  function checkMultiples(uint _number) public view returns (uint) {... */\n    tag_5:\n      tag_16\n      0x04\n      dup1\n      calldatasize\n      sub\n      dup2\n      add\n      swap1\n      tag_17\n      swap2\n      swap1\n      tag_10\n      jump\t// in\n    tag_17:\n      tag_18\n      jump\t// in\n    tag_16:\n      mload(0x40)\n      tag_19\n      swap2\n      swap1\n      tag_13\n      jump\t// in\n    tag_19:\n      mload(0x40)\n      dup1\n      swap2\n      sub\n      swap1\n      return\n        /* \"hello.sol\":725:926  function test1(uint[] memory arr1) public{... */\n    tag_6:\n      tag_20\n      0x04\n      dup1\n      calldatasize\n      sub\n      dup2\n      add\n      swap1\n      tag_21\n      swap2\n      swap1\n      tag_22\n      jump\t// in\n    tag_21:\n      tag_23\n      jump\t// in\n    tag_20:\n      stop\n        /* \"hello.sol\":77:241  function validateOranges() public view returns (bool){... */\n    tag_7:\n      tag_24\n      tag_25\n      jump\t// in\n    tag_24:\n      mload(0x40)\n      tag_26\n      swap2\n      swap1\n      tag_27\n      jump\t// in\n    tag_26:\n      mload(0x40)\n      dup1\n      swap2\n      sub\n      swap1\n      return\n        /* \"hello.sol\":377:428  uint [] public numberslist = [1,2,3,4,5,6,7,8,9,10] */\n    tag_11:\n      0x03\n      dup2\n      dup2\n      sload\n      dup2\n      lt\n      tag_28\n      jumpi\n      0x00\n      dup1\n      revert\n    tag_28:\n      swap1\n      0x00\n      mstore\n      keccak256(0x00, 0x20)\n      add\n      0x00\n      swap2\n      pop\n      swap1\n      pop\n      sload\n      dup2\n      jump\t// out\n        /* \"hello.sol\":281:370  function compare() public view {... */\n    tag_15:\n        /* \"hello.sol\":335:336  b */\n      sload(0x02)\n        /* \"hello.sol\":330:331  a */\n      sload(0x01)\n        /* \"hello.sol\":330:336  a <= b */\n      gt\n      iszero\n        /* \"hello.sol\":322:363  require(a <= b, \"This compare is false!\") */\n      tag_31\n      jumpi\n      mload(0x40)\n      0x08c379a000000000000000000000000000000000000000000000000000000000\n      dup2\n      mstore\n      0x04\n      add\n      tag_32\n      swap1\n      tag_33\n      jump\t// in\n    tag_32:\n      mload(0x40)\n      dup1\n      swap2\n      sub\n      swap1\n      revert\n    tag_31:\n        /* \"hello.sol\":281:370  function compare() public view {... */\n      jump\t// out\n        /* \"hello.sol\":434:704  function checkMultiples(uint _number) public view returns (uint) {... */\n    tag_18:\n        /* \"hello.sol\":493:497  uint */\n      0x00\n        /* \"hello.sol\":509:519  uint count */\n      dup1\n        /* \"hello.sol\":522:523  0 */\n      0x00\n        /* \"hello.sol\":509:523  uint count = 0 */\n      swap1\n      pop\n        /* \"hello.sol\":537:543  uint i */\n      0x00\n        /* \"hello.sol\":533:675  for(uint i = 0; i < numberslist.length; i++){... */\n    tag_35:\n        /* \"hello.sol\":553:564  numberslist */\n      0x03\n        /* \"hello.sol\":553:571  numberslist.length */\n      dup1\n      sload\n      swap1\n      pop\n        /* \"hello.sol\":549:550  i */\n      dup2\n        /* \"hello.sol\":549:571  i < numberslist.length */\n      lt\n        /* \"hello.sol\":533:675  for(uint i = 0; i < numberslist.length; i++){... */\n      iszero\n      tag_36\n      jumpi\n        /* \"hello.sol\":623:624  0 */\n      0x00\n        /* \"hello.sol\":612:619  _number */\n      dup5\n        /* \"hello.sol\":595:606  numberslist */\n      0x03\n        /* \"hello.sol\":607:608  i */\n      dup4\n        /* \"hello.sol\":595:609  numberslist[i] */\n      dup2\n      sload\n      dup2\n      lt\n      tag_38\n      jumpi\n      tag_39\n      tag_40\n      jump\t// in\n    tag_39:\n    tag_38:\n      swap1\n      0x00\n      mstore\n      keccak256(0x00, 0x20)\n      add\n      sload\n        /* \"hello.sol\":595:619  numberslist[i] % _number */\n      tag_42\n      swap2\n      swap1\n      tag_43\n      jump\t// in\n    tag_42:\n        /* \"hello.sol\":595:624  numberslist[i] % _number == 0 */\n      sub\n        /* \"hello.sol\":591:665  if (numberslist[i] % _number == 0){... */\n      tag_44\n      jumpi\n        /* \"hello.sol\":643:650  count++ */\n      dup2\n      dup1\n      tag_45\n      swap1\n      tag_46\n      jump\t// in\n    tag_45:\n      swap3\n      pop\n      pop\n        /* \"hello.sol\":591:665  if (numberslist[i] % _number == 0){... */\n    tag_44:\n        /* \"hello.sol\":573:576  i++ */\n      dup1\n      dup1\n      tag_47\n      swap1\n      tag_46\n      jump\t// in\n    tag_47:\n      swap2\n      pop\n      pop\n        /* \"hello.sol\":533:675  for(uint i = 0; i < numberslist.length; i++){... */\n      jump(tag_35)\n    tag_36:\n      pop\n        /* \"hello.sol\":691:696  count */\n      dup1\n        /* \"hello.sol\":684:696  return count */\n      swap2\n      pop\n      pop\n        /* \"hello.sol\":434:704  function checkMultiples(uint _number) public view returns (uint) {... */\n      swap2\n      swap1\n      pop\n      jump\t// out\n        /* \"hello.sol\":725:926  function test1(uint[] memory arr1) public{... */\n    tag_23:\n        /* \"hello.sol\":780:784  arr1 */\n      dup1\n        /* \"hello.sol\":776:777  x */\n      0x04\n        /* \"hello.sol\":776:784  x = arr1 */\n      swap1\n      dup1\n      mload\n      swap1\n      0x20\n      add\n      swap1\n      tag_49\n      swap3\n      swap2\n      swap1\n      tag_50\n      jump\t// in\n    tag_49:\n      pop\n        /* \"hello.sol\":794:810  uint[] storage y */\n      0x00\n        /* \"hello.sol\":813:814  x */\n      0x04\n        /* \"hello.sol\":794:814  uint[] storage y = x */\n      swap1\n      pop\n        /* \"hello.sol\":824:840  uint[] storage z */\n      0x00\n        /* \"hello.sol\":843:844  x */\n      0x04\n        /* \"hello.sol\":824:844  uint[] storage z = x */\n      swap1\n      pop\n        /* \"hello.sol\":854:870  uint[] storage w */\n      0x00\n        /* \"hello.sol\":873:874  y */\n      dup3\n        /* \"hello.sol\":854:874  uint[] storage w = y */\n      swap1\n      pop\n        /* \"hello.sol\":884:900  uint[] storage k */\n      0x00\n        /* \"hello.sol\":903:904  w */\n      dup2\n        /* \"hello.sol\":884:904  uint[] storage k = w */\n      swap1\n      pop\n        /* \"hello.sol\":918:919  x */\n      0x04\n        /* \"hello.sol\":914:919  k = x */\n      swap1\n      pop\n        /* \"hello.sol\":766:926  {... */\n      pop\n      pop\n      pop\n      pop\n        /* \"hello.sol\":725:926  function test1(uint[] memory arr1) public{... */\n      pop\n      jump\t// out\n        /* \"hello.sol\":77:241  function validateOranges() public view returns (bool){... */\n    tag_25:\n        /* \"hello.sol\":125:129  bool */\n      0x00\n        /* \"hello.sol\":154:155  5 */\n      0x05\n        /* \"hello.sol\":143:150  oranges */\n      sload(0x00)\n        /* \"hello.sol\":143:155  oranges == 5 */\n      sub\n        /* \"hello.sol\":140:235  if(oranges == 5){... */\n      tag_52\n      jumpi\n        /* \"hello.sol\":177:181  true */\n      0x01\n        /* \"hello.sol\":170:181  return true */\n      swap1\n      pop\n      jump(tag_51)\n        /* \"hello.sol\":140:235  if(oranges == 5){... */\n    tag_52:\n        /* \"hello.sol\":219:224  false */\n      0x00\n        /* \"hello.sol\":212:224  return false */\n      swap1\n      pop\n        /* \"hello.sol\":77:241  function validateOranges() public view returns (bool){... */\n    tag_51:\n      swap1\n      jump\t// out\n    tag_50:\n      dup3\n      dup1\n      sload\n      dup3\n      dup3\n      sstore\n      swap1\n      0x00\n      mstore\n      keccak256(0x00, 0x20)\n      swap1\n      dup2\n      add\n      swap3\n      dup3\n      iszero\n      tag_54\n      jumpi\n      swap2\n      0x20\n      mul\n      dup3\n      add\n    tag_55:\n      dup3\n      dup2\n      gt\n      iszero\n      tag_56\n      jumpi\n      dup3\n      mload\n      dup3\n      sstore\n      swap2\n      0x20\n      add\n      swap2\n      swap1\n      0x01\n      add\n      swap1\n      jump(tag_55)\n    tag_56:\n    tag_54:\n      pop\n      swap1\n      pop\n      tag_57\n      swap2\n      swap1\n      tag_58\n      jump\t// in\n    tag_57:\n      pop\n      swap1\n      jump\t// out\n    tag_58:\n    tag_59:\n      dup1\n      dup3\n      gt\n      iszero\n      tag_60\n      jumpi\n      0x00\n      dup2\n      0x00\n      swap1\n      sstore\n      pop\n      0x01\n      add\n      jump(tag_59)\n    tag_60:\n      pop\n      swap1\n      jump\t// out\n        /* \"#utility.yul\":7:82   */\n    tag_61:\n        /* \"#utility.yul\":40:46   */\n      0x00\n        /* \"#utility.yul\":73:75   */\n      0x40\n        /* \"#utility.yul\":67:76   */\n      mload\n        /* \"#utility.yul\":57:76   */\n      swap1\n      pop\n        /* \"#utility.yul\":7:82   */\n      swap1\n      jump\t// out\n        /* \"#utility.yul\":88:205   */\n    tag_62:\n        /* \"#utility.yul\":197:198   */\n      0x00\n        /* \"#utility.yul\":194:195   */\n      dup1\n        /* \"#utility.yul\":187:199   */\n      revert\n        /* \"#utility.yul\":211:328   */\n    tag_63:\n        /* \"#utility.yul\":320:321   */\n      0x00\n        /* \"#utility.yul\":317:318   */\n      dup1\n        /* \"#utility.yul\":310:322   */\n      revert\n        /* \"#utility.yul\":334:411   */\n    tag_64:\n        /* \"#utility.yul\":371:378   */\n      0x00\n        /* \"#utility.yul\":400:405   */\n      dup2\n        /* \"#utility.yul\":389:405   */\n      swap1\n      pop\n        /* \"#utility.yul\":334:411   */\n      swap2\n      swap1\n      pop\n      jump\t// out\n        /* \"#utility.yul\":417:539   */\n    tag_65:\n        /* \"#utility.yul\":490:514   */\n      tag_90\n        /* \"#utility.yul\":508:513   */\n      dup2\n        /* \"#utility.yul\":490:514   */\n      tag_64\n      jump\t// in\n    tag_90:\n        /* \"#utility.yul\":483:488   */\n      dup2\n        /* \"#utility.yul\":480:515   */\n      eq\n        /* \"#utility.yul\":470:533   */\n      tag_91\n      jumpi\n        /* \"#utility.yul\":529:530   */\n      0x00\n        /* \"#utility.yul\":526:527   */\n      dup1\n        /* \"#utility.yul\":519:531   */\n      revert\n        /* \"#utility.yul\":470:533   */\n    tag_91:\n        /* \"#utility.yul\":417:539   */\n      pop\n      jump\t// out\n        /* \"#utility.yul\":545:684   */\n    tag_66:\n        /* \"#utility.yul\":591:596   */\n      0x00\n        /* \"#utility.yul\":629:635   */\n      dup2\n        /* \"#utility.yul\":616:636   */\n      calldataload\n        /* \"#utility.yul\":607:636   */\n      swap1\n      pop\n        /* \"#utility.yul\":645:678   */\n      tag_93\n        /* \"#utility.yul\":672:677   */\n      dup2\n        /* \"#utility.yul\":645:678   */\n      tag_65\n      jump\t// in\n    tag_93:\n        /* \"#utility.yul\":545:684   */\n      swap3\n      swap2\n      pop\n      pop\n      jump\t// out\n        /* \"#utility.yul\":690:1019   */\n    tag_10:\n        /* \"#utility.yul\":749:755   */\n      0x00\n        /* \"#utility.yul\":798:800   */\n      0x20\n        /* \"#utility.yul\":786:795   */\n      dup3\n        /* \"#utility.yul\":777:784   */\n      dup5\n        /* \"#utility.yul\":773:796   */\n      sub\n        /* \"#utility.yul\":769:801   */\n      slt\n        /* \"#utility.yul\":766:885   */\n      iszero\n      tag_95\n      jumpi\n        /* \"#utility.yul\":804:883   */\n      tag_96\n      tag_62\n      jump\t// in\n    tag_96:\n        /* \"#utility.yul\":766:885   */\n    tag_95:\n        /* \"#utility.yul\":924:925   */\n      0x00\n        /* \"#utility.yul\":949:1002   */\n      tag_97\n        /* \"#utility.yul\":994:1001   */\n      dup5\n        /* \"#utility.yul\":985:991   */\n      dup3\n        /* \"#utility.yul\":974:983   */\n      dup6\n        /* \"#utility.yul\":970:992   */\n      add\n        /* \"#utility.yul\":949:1002   */\n      tag_66\n      jump\t// in\n    tag_97:\n        /* \"#utility.yul\":939:1002   */\n      swap2\n      pop\n        /* \"#utility.yul\":895:1012   */\n      pop\n        /* \"#utility.yul\":690:1019   */\n      swap3\n      swap2\n      pop\n      pop\n      jump\t// out\n        /* \"#utility.yul\":1025:1143   */\n    tag_67:\n        /* \"#utility.yul\":1112:1136   */\n      tag_99\n        /* \"#utility.yul\":1130:1135   */\n      dup2\n        /* \"#utility.yul\":1112:1136   */\n      tag_64\n      jump\t// in\n    tag_99:\n        /* \"#utility.yul\":1107:1110   */\n      dup3\n        /* \"#utility.yul\":1100:1137   */\n      mstore\n        /* \"#utility.yul\":1025:1143   */\n      pop\n      pop\n      jump\t// out\n        /* \"#utility.yul\":1149:1371   */\n    tag_13:\n        /* \"#utility.yul\":1242:1246   */\n      0x00\n        /* \"#utility.yul\":1280:1282   */\n      0x20\n        /* \"#utility.yul\":1269:1278   */\n      dup3\n        /* \"#utility.yul\":1265:1283   */\n      add\n        /* \"#utility.yul\":1257:1283   */\n      swap1\n      pop\n        /* \"#utility.yul\":1293:1364   */\n      tag_101\n        /* \"#utility.yul\":1361:1362   */\n      0x00\n        /* \"#utility.yul\":1350:1359   */\n      dup4\n        /* \"#utility.yul\":1346:1363   */\n      add\n        /* \"#utility.yul\":1337:1343   */\n      dup5\n        /* \"#utility.yul\":1293:1364   */\n      tag_67\n      jump\t// in\n    tag_101:\n        /* \"#utility.yul\":1149:1371   */\n      swap3\n      swap2\n      pop\n      pop\n      jump\t// out\n        /* \"#utility.yul\":1377:1494   */\n    tag_68:\n        /* \"#utility.yul\":1486:1487   */\n      0x00\n        /* \"#utility.yul\":1483:1484   */\n      dup1\n        /* \"#utility.yul\":1476:1488   */\n      revert\n        /* \"#utility.yul\":1500:1602   */\n    tag_69:\n        /* \"#utility.yul\":1541:1547   */\n      0x00\n        /* \"#utility.yul\":1592:1594   */\n      0x1f\n        /* \"#utility.yul\":1588:1595   */\n      not\n        /* \"#utility.yul\":1583:1585   */\n      0x1f\n        /* \"#utility.yul\":1576:1581   */\n      dup4\n        /* \"#utility.yul\":1572:1586   */\n      add\n        /* \"#utility.yul\":1568:1596   */\n      and\n        /* \"#utility.yul\":1558:1596   */\n      swap1\n      pop\n        /* \"#utility.yul\":1500:1602   */\n      swap2\n      swap1\n      pop\n      jump\t// out\n        /* \"#utility.yul\":1608:1788   */\n    tag_70:\n        /* \"#utility.yul\":1656:1733   */\n      0x4e487b7100000000000000000000000000000000000000000000000000000000\n        /* \"#utility.yul\":1653:1654   */\n      0x00\n        /* \"#utility.yul\":1646:1734   */\n      mstore\n        /* \"#utility.yul\":1753:1757   */\n      0x41\n        /* \"#utility.yul\":1750:1751   */\n      0x04\n        /* \"#utility.yul\":1743:1758   */\n      mstore\n        /* \"#utility.yul\":1777:1781   */\n      0x24\n        /* \"#utility.yul\":1774:1775   */\n      0x00\n        /* \"#utility.yul\":1767:1782   */\n      revert\n        /* \"#utility.yul\":1794:2075   */\n    tag_71:\n        /* \"#utility.yul\":1877:1904   */\n      tag_106\n        /* \"#utility.yul\":1899:1903   */\n      dup3\n        /* \"#utility.yul\":1877:1904   */\n      tag_69\n      jump\t// in\n    tag_106:\n        /* \"#utility.yul\":1869:1875   */\n      dup2\n        /* \"#utility.yul\":1865:1905   */\n      add\n        /* \"#utility.yul\":2007:2013   */\n      dup2\n        /* \"#utility.yul\":1995:2005   */\n      dup2\n        /* \"#utility.yul\":1992:2014   */\n      lt\n        /* \"#utility.yul\":1971:1989   */\n      0xffffffffffffffff\n        /* \"#utility.yul\":1959:1969   */\n      dup3\n        /* \"#utility.yul\":1956:1990   */\n      gt\n        /* \"#utility.yul\":1953:2015   */\n      or\n        /* \"#utility.yul\":1950:2038   */\n      iszero\n      tag_107\n      jumpi\n        /* \"#utility.yul\":2018:2036   */\n      tag_108\n      tag_70\n      jump\t// in\n    tag_108:\n        /* \"#utility.yul\":1950:2038   */\n    tag_107:\n        /* \"#utility.yul\":2058:2068   */\n      dup1\n        /* \"#utility.yul\":2054:2056   */\n      0x40\n        /* \"#utility.yul\":2047:2069   */\n      mstore\n        /* \"#utility.yul\":1837:2075   */\n      pop\n        /* \"#utility.yul\":1794:2075   */\n      pop\n      pop\n      jump\t// out\n        /* \"#utility.yul\":2081:2210   */\n    tag_72:\n        /* \"#utility.yul\":2115:2121   */\n      0x00\n        /* \"#utility.yul\":2142:2162   */\n      tag_110\n      tag_61\n      jump\t// in\n    tag_110:\n        /* \"#utility.yul\":2132:2162   */\n      swap1\n      pop\n        /* \"#utility.yul\":2171:2204   */\n      tag_111\n        /* \"#utility.yul\":2199:2203   */\n      dup3\n        /* \"#utility.yul\":2191:2197   */\n      dup3\n        /* \"#utility.yul\":2171:2204   */\n      tag_71\n      jump\t// in\n    tag_111:\n        /* \"#utility.yul\":2081:2210   */\n      swap2\n      swap1\n      pop\n      jump\t// out\n        /* \"#utility.yul\":2216:2527   */\n    tag_73:\n        /* \"#utility.yul\":2293:2297   */\n      0x00\n        /* \"#utility.yul\":2383:2401   */\n      0xffffffffffffffff\n        /* \"#utility.yul\":2375:2381   */\n      dup3\n        /* \"#utility.yul\":2372:2402   */\n      gt\n        /* \"#utility.yul\":2369:2425   */\n      iszero\n      tag_113\n      jumpi\n        /* \"#utility.yul\":2405:2423   */\n      tag_114\n      tag_70\n      jump\t// in\n    tag_114:\n        /* \"#utility.yul\":2369:2425   */\n    tag_113:\n        /* \"#utility.yul\":2455:2459   */\n      0x20\n        /* \"#utility.yul\":2447:2453   */\n      dup3\n        /* \"#utility.yul\":2443:2460   */\n      mul\n        /* \"#utility.yul\":2435:2460   */\n      swap1\n      pop\n        /* \"#utility.yul\":2515:2519   */\n      0x20\n        /* \"#utility.yul\":2509:2513   */\n      dup2\n        /* \"#utility.yul\":2505:2520   */\n      add\n        /* \"#utility.yul\":2497:2520   */\n      swap1\n      pop\n        /* \"#utility.yul\":2216:2527   */\n      swap2\n      swap1\n      pop\n      jump\t// out\n        /* \"#utility.yul\":2533:2650   */\n    tag_74:\n        /* \"#utility.yul\":2642:2643   */\n      0x00\n        /* \"#utility.yul\":2639:2640   */\n      dup1\n        /* \"#utility.yul\":2632:2644   */\n      revert\n        /* \"#utility.yul\":2673:3383   */\n    tag_75:\n        /* \"#utility.yul\":2769:2774   */\n      0x00\n        /* \"#utility.yul\":2794:2875   */\n      tag_117\n        /* \"#utility.yul\":2810:2874   */\n      tag_118\n        /* \"#utility.yul\":2867:2873   */\n      dup5\n        /* \"#utility.yul\":2810:2874   */\n      tag_73\n      jump\t// in\n    tag_118:\n        /* \"#utility.yul\":2794:2875   */\n      tag_72\n      jump\t// in\n    tag_117:\n        /* \"#utility.yul\":2785:2875   */\n      swap1\n      pop\n        /* \"#utility.yul\":2895:2900   */\n      dup1\n        /* \"#utility.yul\":2924:2930   */\n      dup4\n        /* \"#utility.yul\":2917:2922   */\n      dup3\n        /* \"#utility.yul\":2910:2931   */\n      mstore\n        /* \"#utility.yul\":2958:2962   */\n      0x20\n        /* \"#utility.yul\":2951:2956   */\n      dup3\n        /* \"#utility.yul\":2947:2963   */\n      add\n        /* \"#utility.yul\":2940:2963   */\n      swap1\n      pop\n        /* \"#utility.yul\":3011:3015   */\n      0x20\n        /* \"#utility.yul\":3003:3009   */\n      dup5\n        /* \"#utility.yul\":2999:3016   */\n      mul\n        /* \"#utility.yul\":2991:2997   */\n      dup4\n        /* \"#utility.yul\":2987:3017   */\n      add\n        /* \"#utility.yul\":3040:3043   */\n      dup6\n        /* \"#utility.yul\":3032:3038   */\n      dup2\n        /* \"#utility.yul\":3029:3044   */\n      gt\n        /* \"#utility.yul\":3026:3148   */\n      iszero\n      tag_119\n      jumpi\n        /* \"#utility.yul\":3059:3138   */\n      tag_120\n      tag_74\n      jump\t// in\n    tag_120:\n        /* \"#utility.yul\":3026:3148   */\n    tag_119:\n        /* \"#utility.yul\":3174:3180   */\n      dup4\n        /* \"#utility.yul\":3157:3377   */\n    tag_121:\n        /* \"#utility.yul\":3191:3197   */\n      dup2\n        /* \"#utility.yul\":3186:3189   */\n      dup2\n        /* \"#utility.yul\":3183:3198   */\n      lt\n        /* \"#utility.yul\":3157:3377   */\n      iszero\n      tag_123\n      jumpi\n        /* \"#utility.yul\":3266:3269   */\n      dup1\n        /* \"#utility.yul\":3295:3332   */\n      tag_124\n        /* \"#utility.yul\":3328:3331   */\n      dup9\n        /* \"#utility.yul\":3316:3326   */\n      dup3\n        /* \"#utility.yul\":3295:3332   */\n      tag_66\n      jump\t// in\n    tag_124:\n        /* \"#utility.yul\":3290:3293   */\n      dup5\n        /* \"#utility.yul\":3283:3333   */\n      mstore\n        /* \"#utility.yul\":3362:3366   */\n      0x20\n        /* \"#utility.yul\":3357:3360   */\n      dup5\n        /* \"#utility.yul\":3353:3367   */\n      add\n        /* \"#utility.yul\":3346:3367   */\n      swap4\n      pop\n        /* \"#utility.yul\":3233:3377   */\n      pop\n        /* \"#utility.yul\":3217:3221   */\n      0x20\n        /* \"#utility.yul\":3212:3215   */\n      dup2\n        /* \"#utility.yul\":3208:3222   */\n      add\n        /* \"#utility.yul\":3201:3222   */\n      swap1\n      pop\n        /* \"#utility.yul\":3157:3377   */\n      jump(tag_121)\n    tag_123:\n        /* \"#utility.yul\":3161:3182   */\n      pop\n        /* \"#utility.yul\":2775:3383   */\n      pop\n      pop\n        /* \"#utility.yul\":2673:3383   */\n      swap4\n      swap3\n      pop\n      pop\n      pop\n      jump\t// out\n        /* \"#utility.yul\":3406:3776   */\n    tag_76:\n        /* \"#utility.yul\":3477:3482   */\n      0x00\n        /* \"#utility.yul\":3526:3529   */\n      dup3\n        /* \"#utility.yul\":3519:3523   */\n      0x1f\n        /* \"#utility.yul\":3511:3517   */\n      dup4\n        /* \"#utility.yul\":3507:3524   */\n      add\n        /* \"#utility.yul\":3503:3530   */\n      slt\n        /* \"#utility.yul\":3493:3615   */\n      tag_126\n      jumpi\n        /* \"#utility.yul\":3534:3613   */\n      tag_127\n      tag_68\n      jump\t// in\n    tag_127:\n        /* \"#utility.yul\":3493:3615   */\n    tag_126:\n        /* \"#utility.yul\":3651:3657   */\n      dup2\n        /* \"#utility.yul\":3638:3658   */\n      calldataload\n        /* \"#utility.yul\":3676:3770   */\n      tag_128\n        /* \"#utility.yul\":3766:3769   */\n      dup5\n        /* \"#utility.yul\":3758:3764   */\n      dup3\n        /* \"#utility.yul\":3751:3755   */\n      0x20\n        /* \"#utility.yul\":3743:3749   */\n      dup7\n        /* \"#utility.yul\":3739:3756   */\n      add\n        /* \"#utility.yul\":3676:3770   */\n      tag_75\n      jump\t// in\n    tag_128:\n        /* \"#utility.yul\":3667:3770   */\n      swap2\n      pop\n        /* \"#utility.yul\":3483:3776   */\n      pop\n        /* \"#utility.yul\":3406:3776   */\n      swap3\n      swap2\n      pop\n      pop\n      jump\t// out\n        /* \"#utility.yul\":3782:4321   */\n    tag_22:\n        /* \"#utility.yul\":3866:3872   */\n      0x00\n        /* \"#utility.yul\":3915:3917   */\n      0x20\n        /* \"#utility.yul\":3903:3912   */\n      dup3\n        /* \"#utility.yul\":3894:3901   */\n      dup5\n        /* \"#utility.yul\":3890:3913   */\n      sub\n        /* \"#utility.yul\":3886:3918   */\n      slt\n        /* \"#utility.yul\":3883:4002   */\n      iszero\n      tag_130\n      jumpi\n        /* \"#utility.yul\":3921:4000   */\n      tag_131\n      tag_62\n      jump\t// in\n    tag_131:\n        /* \"#utility.yul\":3883:4002   */\n    tag_130:\n        /* \"#utility.yul\":4069:4070   */\n      0x00\n        /* \"#utility.yul\":4058:4067   */\n      dup3\n        /* \"#utility.yul\":4054:4071   */\n      add\n        /* \"#utility.yul\":4041:4072   */\n      calldataload\n        /* \"#utility.yul\":4099:4117   */\n      0xffffffffffffffff\n        /* \"#utility.yul\":4091:4097   */\n      dup2\n        /* \"#utility.yul\":4088:4118   */\n      gt\n        /* \"#utility.yul\":4085:4202   */\n      iszero\n      tag_132\n      jumpi\n        /* \"#utility.yul\":4121:4200   */\n      tag_133\n      tag_63\n      jump\t// in\n    tag_133:\n        /* \"#utility.yul\":4085:4202   */\n    tag_132:\n        /* \"#utility.yul\":4226:4304   */\n      tag_134\n        /* \"#utility.yul\":4296:4303   */\n      dup5\n        /* \"#utility.yul\":4287:4293   */\n      dup3\n        /* \"#utility.yul\":4276:4285   */\n      dup6\n        /* \"#utility.yul\":4272:4294   */\n      add\n        /* \"#utility.yul\":4226:4304   */\n      tag_76\n      jump\t// in\n    tag_134:\n        /* \"#utility.yul\":4216:4304   */\n      swap2\n      pop\n        /* \"#utility.yul\":4012:4314   */\n      pop\n        /* \"#utility.yul\":3782:4321   */\n      swap3\n      swap2\n      pop\n      pop\n      jump\t// out\n        /* \"#utility.yul\":4327:4417   */\n    tag_77:\n        /* \"#utility.yul\":4361:4368   */\n      0x00\n        /* \"#utility.yul\":4404:4409   */\n      dup2\n        /* \"#utility.yul\":4397:4410   */\n      iszero\n        /* \"#utility.yul\":4390:4411   */\n      iszero\n        /* \"#utility.yul\":4379:4411   */\n      swap1\n      pop\n        /* \"#utility.yul\":4327:4417   */\n      swap2\n      swap1\n      pop\n      jump\t// out\n        /* \"#utility.yul\":4423:4532   */\n    tag_78:\n        /* \"#utility.yul\":4504:4525   */\n      tag_137\n        /* \"#utility.yul\":4519:4524   */\n      dup2\n        /* \"#utility.yul\":4504:4525   */\n      tag_77\n      jump\t// in\n    tag_137:\n        /* \"#utility.yul\":4499:4502   */\n      dup3\n        /* \"#utility.yul\":4492:4526   */\n      mstore\n        /* \"#utility.yul\":4423:4532   */\n      pop\n      pop\n      jump\t// out\n        /* \"#utility.yul\":4538:4748   */\n    tag_27:\n        /* \"#utility.yul\":4625:4629   */\n      0x00\n        /* \"#utility.yul\":4663:4665   */\n      0x20\n        /* \"#utility.yul\":4652:4661   */\n      dup3\n        /* \"#utility.yul\":4648:4666   */\n      add\n        /* \"#utility.yul\":4640:4666   */\n      swap1\n      pop\n        /* \"#utility.yul\":4676:4741   */\n      tag_139\n        /* \"#utility.yul\":4738:4739   */\n      0x00\n        /* \"#utility.yul\":4727:4736   */\n      dup4\n        /* \"#utility.yul\":4723:4740   */\n      add\n        /* \"#utility.yul\":4714:4720   */\n      dup5\n        /* \"#utility.yul\":4676:4741   */\n      tag_78\n      jump\t// in\n    tag_139:\n        /* \"#utility.yul\":4538:4748   */\n      swap3\n      swap2\n      pop\n      pop\n      jump\t// out\n        /* \"#utility.yul\":4754:4923   */\n    tag_79:\n        /* \"#utility.yul\":4838:4849   */\n      0x00\n        /* \"#utility.yul\":4872:4878   */\n      dup3\n        /* \"#utility.yul\":4867:4870   */\n      dup3\n        /* \"#utility.yul\":4860:4879   */\n      mstore\n        /* \"#utility.yul\":4912:4916   */\n      0x20\n        /* \"#utility.yul\":4907:4910   */\n      dup3\n        /* \"#utility.yul\":4903:4917   */\n      add\n        /* \"#utility.yul\":4888:4917   */\n      swap1\n      pop\n        /* \"#utility.yul\":4754:4923   */\n      swap3\n      swap2\n      pop\n      pop\n      jump\t// out\n        /* \"#utility.yul\":4929:5101   */\n    tag_80:\n        /* \"#utility.yul\":5069:5093   */\n      0x5468697320636f6d706172652069732066616c73652100000000000000000000\n        /* \"#utility.yul\":5065:5066   */\n      0x00\n        /* \"#utility.yul\":5057:5063   */\n      dup3\n        /* \"#utility.yul\":5053:5067   */\n      add\n        /* \"#utility.yul\":5046:5094   */\n      mstore\n        /* \"#utility.yul\":4929:5101   */\n      pop\n      jump\t// out\n        /* \"#utility.yul\":5107:5473   */\n    tag_81:\n        /* \"#utility.yul\":5249:5252   */\n      0x00\n        /* \"#utility.yul\":5270:5337   */\n      tag_143\n        /* \"#utility.yul\":5334:5336   */\n      0x16\n        /* \"#utility.yul\":5329:5332   */\n      dup4\n        /* \"#utility.yul\":5270:5337   */\n      tag_79\n      jump\t// in\n    tag_143:\n        /* \"#utility.yul\":5263:5337   */\n      swap2\n      pop\n        /* \"#utility.yul\":5346:5439   */\n      tag_144\n        /* \"#utility.yul\":5435:5438   */\n      dup3\n        /* \"#utility.yul\":5346:5439   */\n      tag_80\n      jump\t// in\n    tag_144:\n        /* \"#utility.yul\":5464:5466   */\n      0x20\n        /* \"#utility.yul\":5459:5462   */\n      dup3\n        /* \"#utility.yul\":5455:5467   */\n      add\n        /* \"#utility.yul\":5448:5467   */\n      swap1\n      pop\n        /* \"#utility.yul\":5107:5473   */\n      swap2\n      swap1\n      pop\n      jump\t// out\n        /* \"#utility.yul\":5479:5898   */\n    tag_33:\n        /* \"#utility.yul\":5645:5649   */\n      0x00\n        /* \"#utility.yul\":5683:5685   */\n      0x20\n        /* \"#utility.yul\":5672:5681   */\n      dup3\n        /* \"#utility.yul\":5668:5686   */\n      add\n        /* \"#utility.yul\":5660:5686   */\n      swap1\n      pop\n        /* \"#utility.yul\":5732:5741   */\n      dup2\n        /* \"#utility.yul\":5726:5730   */\n      dup2\n        /* \"#utility.yul\":5722:5742   */\n      sub\n        /* \"#utility.yul\":5718:5719   */\n      0x00\n        /* \"#utility.yul\":5707:5716   */\n      dup4\n        /* \"#utility.yul\":5703:5720   */\n      add\n        /* \"#utility.yul\":5696:5743   */\n      mstore\n        /* \"#utility.yul\":5760:5891   */\n      tag_146\n        /* \"#utility.yul\":5886:5890   */\n      dup2\n        /* \"#utility.yul\":5760:5891   */\n      tag_81\n      jump\t// in\n    tag_146:\n        /* \"#utility.yul\":5752:5891   */\n      swap1\n      pop\n        /* \"#utility.yul\":5479:5898   */\n      swap2\n      swap1\n      pop\n      jump\t// out\n        /* \"#utility.yul\":5904:6084   */\n    tag_40:\n        /* \"#utility.yul\":5952:6029   */\n      0x4e487b7100000000000000000000000000000000000000000000000000000000\n        /* \"#utility.yul\":5949:5950   */\n      0x00\n        /* \"#utility.yul\":5942:6030   */\n      mstore\n        /* \"#utility.yul\":6049:6053   */\n      0x32\n        /* \"#utility.yul\":6046:6047   */\n      0x04\n        /* \"#utility.yul\":6039:6054   */\n      mstore\n        /* \"#utility.yul\":6073:6077   */\n      0x24\n        /* \"#utility.yul\":6070:6071   */\n      0x00\n        /* \"#utility.yul\":6063:6078   */\n      revert\n        /* \"#utility.yul\":6090:6270   */\n    tag_82:\n        /* \"#utility.yul\":6138:6215   */\n      0x4e487b7100000000000000000000000000000000000000000000000000000000\n        /* \"#utility.yul\":6135:6136   */\n      0x00\n        /* \"#utility.yul\":6128:6216   */\n      mstore\n        /* \"#utility.yul\":6235:6239   */\n      0x12\n        /* \"#utility.yul\":6232:6233   */\n      0x04\n        /* \"#utility.yul\":6225:6240   */\n      mstore\n        /* \"#utility.yul\":6259:6263   */\n      0x24\n        /* \"#utility.yul\":6256:6257   */\n      0x00\n        /* \"#utility.yul\":6249:6264   */\n      revert\n        /* \"#utility.yul\":6276:6452   */\n    tag_43:\n        /* \"#utility.yul\":6308:6309   */\n      0x00\n        /* \"#utility.yul\":6325:6345   */\n      tag_150\n        /* \"#utility.yul\":6343:6344   */\n      dup3\n        /* \"#utility.yul\":6325:6345   */\n      tag_64\n      jump\t// in\n    tag_150:\n        /* \"#utility.yul\":6320:6345   */\n      swap2\n      pop\n        /* \"#utility.yul\":6359:6379   */\n      tag_151\n        /* \"#utility.yul\":6377:6378   */\n      dup4\n        /* \"#utility.yul\":6359:6379   */\n      tag_64\n      jump\t// in\n    tag_151:\n        /* \"#utility.yul\":6354:6379   */\n      swap3\n      pop\n        /* \"#utility.yul\":6398:6399   */\n      dup3\n        /* \"#utility.yul\":6388:6423   */\n      tag_152\n      jumpi\n        /* \"#utility.yul\":6403:6421   */\n      tag_153\n      tag_82\n      jump\t// in\n    tag_153:\n        /* \"#utility.yul\":6388:6423   */\n    tag_152:\n        /* \"#utility.yul\":6444:6445   */\n      dup3\n        /* \"#utility.yul\":6441:6442   */\n      dup3\n        /* \"#utility.yul\":6437:6446   */\n      mod\n        /* \"#utility.yul\":6432:6446   */\n      swap1\n      pop\n        /* \"#utility.yul\":6276:6452   */\n      swap3\n      swap2\n      pop\n      pop\n      jump\t// out\n        /* \"#utility.yul\":6458:6638   */\n    tag_83:\n        /* \"#utility.yul\":6506:6583   */\n      0x4e487b7100000000000000000000000000000000000000000000000000000000\n        /* \"#utility.yul\":6503:6504   */\n      0x00\n        /* \"#utility.yul\":6496:6584   */\n      mstore\n        /* \"#utility.yul\":6603:6607   */\n      0x11\n        /* \"#utility.yul\":6600:6601   */\n      0x04\n        /* \"#utility.yul\":6593:6608   */\n      mstore\n        /* \"#utility.yul\":6627:6631   */\n      0x24\n        /* \"#utility.yul\":6624:6625   */\n      0x00\n        /* \"#utility.yul\":6617:6632   */\n      revert\n        /* \"#utility.yul\":6644:6877   */\n    tag_46:\n        /* \"#utility.yul\":6683:6686   */\n      0x00\n        /* \"#utility.yul\":6706:6730   */\n      tag_156\n        /* \"#utility.yul\":6724:6729   */\n      dup3\n        /* \"#utility.yul\":6706:6730   */\n      tag_64\n      jump\t// in\n    tag_156:\n        /* \"#utility.yul\":6697:6730   */\n      swap2\n      pop\n        /* \"#utility.yul\":6752:6818   */\n      0xffffffffffffffffffffffffffffffffffffffffffffffffffffffffffffffff\n        /* \"#utility.yul\":6745:6750   */\n      dup3\n        /* \"#utility.yul\":6742:6819   */\n      sub\n        /* \"#utility.yul\":6739:6842   */\n      tag_157\n      jumpi\n        /* \"#utility.yul\":6822:6840   */\n      tag_158\n      tag_83\n      jump\t// in\n    tag_158:\n        /* \"#utility.yul\":6739:6842   */\n    tag_157:\n        /* \"#utility.yul\":6869:6870   */\n      0x01\n        /* \"#utility.yul\":6862:6867   */\n      dup3\n        /* \"#utility.yul\":6858:6871   */\n      add\n        /* \"#utility.yul\":6851:6871   */\n      swap1\n      pop\n        /* \"#utility.yul\":6644:6877   */\n      swap2\n      swap1\n      pop\n      jump\t// out\n\n    auxdata: 0xa26469706673582212201e0864c50e7c122fe3c3ead0fc84e9725d5b8e0620fe0974cfd18e550b4d65ad64736f6c63430008110033\n}\n",
				"bytecode": {
					"linkReferences": {},
					"object": "60806040526005600055602c600155601f600255604051806101400160405280600160ff168152602001600260ff168152602001600360ff168152602001600460ff168152602001600560ff168152602001600660ff168152602001600760ff168152602001600860ff168152602001600960ff168152602001600a60ff16815250600390600a6100919291906100a4565b5034801561009e57600080fd5b50610113565b8280548282559060005260206000209081019282156100e5579160200282015b828111156100e4578251829060ff169055916020019190600101906100c4565b5b5090506100f291906100f6565b5090565b5b8082111561010f5760008160009055506001016100f7565b5090565b6106d2806101226000396000f3fe608060405234801561001057600080fd5b50600436106100575760003560e01c8063034340df1461005c5780633da0ac791461008c57806346c0d4d2146100965780636a3273b7146100c6578063b4a4fad8146100e2575b600080fd5b610076600480360381019061007191906102ea565b610100565b6040516100839190610326565b60405180910390f35b610094610124565b005b6100b060048036038101906100ab91906102ea565b61016d565b6040516100bd9190610326565b60405180910390f35b6100e060048036038101906100db919061049a565b6101e1565b005b6100ea610219565b6040516100f791906104fe565b60405180910390f35b6003818154811061011057600080fd5b906000526020600020016000915090505481565b600254600154111561016b576040517f08c379a000000000000000000000000000000000000000000000000000000000815260040161016290610576565b60405180910390fd5b565b6000806000905060005b6003805490508110156101d7576000846003838154811061019b5761019a610596565b5b90600052602060002001546101b091906105f4565b036101c45781806101c090610654565b9250505b80806101cf90610654565b915050610177565b5080915050919050565b80600490805190602001906101f7929190610236565b5060006004905060006004905060008290506000819050600490505050505050565b600060056000540361022e5760019050610233565b600090505b90565b828054828255906000526020600020908101928215610272579160200282015b82811115610271578251825591602001919060010190610256565b5b50905061027f9190610283565b5090565b5b8082111561029c576000816000905550600101610284565b5090565b6000604051905090565b600080fd5b600080fd5b6000819050919050565b6102c7816102b4565b81146102d257600080fd5b50565b6000813590506102e4816102be565b92915050565b600060208284031215610300576102ff6102aa565b5b600061030e848285016102d5565b91505092915050565b610320816102b4565b82525050565b600060208201905061033b6000830184610317565b92915050565b600080fd5b6000601f19601f8301169050919050565b7f4e487b7100000000000000000000000000000000000000000000000000000000600052604160045260246000fd5b61038f82610346565b810181811067ffffffffffffffff821117156103ae576103ad610357565b5b80604052505050565b60006103c16102a0565b90506103cd8282610386565b919050565b600067ffffffffffffffff8211156103ed576103ec610357565b5b602082029050602081019050919050565b600080fd5b6000610416610411846103d2565b6103b7565b90508083825260208201905060208402830185811115610439576104386103fe565b5b835b81811015610462578061044e88826102d5565b84526020840193505060208101905061043b565b5050509392505050565b600082601f83011261048157610480610341565b5b8135610491848260208601610403565b91505092915050565b6000602082840312156104b0576104af6102aa565b5b600082013567ffffffffffffffff8111156104ce576104cd6102af565b5b6104da8482850161046c565b91505092915050565b60008115159050919050565b6104f8816104e3565b82525050565b600060208201905061051360008301846104ef565b92915050565b600082825260208201905092915050565b7f5468697320636f6d706172652069732066616c73652100000000000000000000600082015250565b6000610560601683610519565b915061056b8261052a565b602082019050919050565b6000602082019050818103600083015261058f81610553565b9050919050565b7f4e487b7100000000000000000000000000000000000000000000000000000000600052603260045260246000fd5b7f4e487b7100000000000000000000000000000000000000000000000000000000600052601260045260246000fd5b60006105ff826102b4565b915061060a836102b4565b92508261061a576106196105c5565b5b828206905092915050565b7f4e487b7100000000000000000000000000000000000000000000000000000000600052601160045260246000fd5b600061065f826102b4565b91507fffffffffffffffffffffffffffffffffffffffffffffffffffffffffffffffff820361069157610690610625565b5b60018201905091905056fea26469706673582212201e0864c50e7c122fe3c3ead0fc84e9725d5b8e0620fe0974cfd18e550b4d65ad64736f6c63430008110033",
					"opcodes": "PUSH1 0x80 PUSH1 0x40 MSTORE PUSH1 0x5 PUSH1 0x0 SSTORE PUSH1 0x2C PUSH1 0x1 SSTORE PUSH1 0x1F PUSH1 0x2 SSTORE PUSH1 0x40 MLOAD DUP1 PUSH2 0x140 ADD PUSH1 0x40 MSTORE DUP1 PUSH1 0x1 PUSH1 0xFF AND DUP2 MSTORE PUSH1 0x20 ADD PUSH1 0x2 PUSH1 0xFF AND DUP2 MSTORE PUSH1 0x20 ADD PUSH1 0x3 PUSH1 0xFF AND DUP2 MSTORE PUSH1 0x20 ADD PUSH1 0x4 PUSH1 0xFF AND DUP2 MSTORE PUSH1 0x20 ADD PUSH1 0x5 PUSH1 0xFF AND DUP2 MSTORE PUSH1 0x20 ADD PUSH1 0x6 PUSH1 0xFF AND DUP2 MSTORE PUSH1 0x20 ADD PUSH1 0x7 PUSH1 0xFF AND DUP2 MSTORE PUSH1 0x20 ADD PUSH1 0x8 PUSH1 0xFF AND DUP2 MSTORE PUSH1 0x20 ADD PUSH1 0x9 PUSH1 0xFF AND DUP2 MSTORE PUSH1 0x20 ADD PUSH1 0xA PUSH1 0xFF AND DUP2 MSTORE POP PUSH1 0x3 SWAP1 PUSH1 0xA PUSH2 0x91 SWAP3 SWAP2 SWAP1 PUSH2 0xA4 JUMP JUMPDEST POP CALLVALUE DUP1 ISZERO PUSH2 0x9E JUMPI PUSH1 0x0 DUP1 REVERT JUMPDEST POP PUSH2 0x113 JUMP JUMPDEST DUP3 DUP1 SLOAD DUP3 DUP3 SSTORE SWAP1 PUSH1 0x0 MSTORE PUSH1 0x20 PUSH1 0x0 KECCAK256 SWAP1 DUP2 ADD SWAP3 DUP3 ISZERO PUSH2 0xE5 JUMPI SWAP2 PUSH1 0x20 MUL DUP3 ADD JUMPDEST DUP3 DUP2 GT ISZERO PUSH2 0xE4 JUMPI DUP3 MLOAD DUP3 SWAP1 PUSH1 0xFF AND SWAP1 SSTORE SWAP2 PUSH1 0x20 ADD SWAP2 SWAP1 PUSH1 0x1 ADD SWAP1 PUSH2 0xC4 JUMP JUMPDEST JUMPDEST POP SWAP1 POP PUSH2 0xF2 SWAP2 SWAP1 PUSH2 0xF6 JUMP JUMPDEST POP SWAP1 JUMP JUMPDEST JUMPDEST DUP1 DUP3 GT ISZERO PUSH2 0x10F JUMPI PUSH1 0x0 DUP2 PUSH1 0x0 SWAP1 SSTORE POP PUSH1 0x1 ADD PUSH2 0xF7 JUMP JUMPDEST POP SWAP1 JUMP JUMPDEST PUSH2 0x6D2 DUP1 PUSH2 0x122 PUSH1 0x0 CODECOPY PUSH1 0x0 RETURN INVALID PUSH1 0x80 PUSH1 0x40 MSTORE CALLVALUE DUP1 ISZERO PUSH2 0x10 JUMPI PUSH1 0x0 DUP1 REVERT JUMPDEST POP PUSH1 0x4 CALLDATASIZE LT PUSH2 0x57 JUMPI PUSH1 0x0 CALLDATALOAD PUSH1 0xE0 SHR DUP1 PUSH4 0x34340DF EQ PUSH2 0x5C JUMPI DUP1 PUSH4 0x3DA0AC79 EQ PUSH2 0x8C JUMPI DUP1 PUSH4 0x46C0D4D2 EQ PUSH2 0x96 JUMPI DUP1 PUSH4 0x6A3273B7 EQ PUSH2 0xC6 JUMPI DUP1 PUSH4 0xB4A4FAD8 EQ PUSH2 0xE2 JUMPI JUMPDEST PUSH1 0x0 DUP1 REVERT JUMPDEST PUSH2 0x76 PUSH1 0x4 DUP1 CALLDATASIZE SUB DUP2 ADD SWAP1 PUSH2 0x71 SWAP2 SWAP1 PUSH2 0x2EA JUMP JUMPDEST PUSH2 0x100 JUMP JUMPDEST PUSH1 0x40 MLOAD PUSH2 0x83 SWAP2 SWAP1 PUSH2 0x326 JUMP JUMPDEST PUSH1 0x40 MLOAD DUP1 SWAP2 SUB SWAP1 RETURN JUMPDEST PUSH2 0x94 PUSH2 0x124 JUMP JUMPDEST STOP JUMPDEST PUSH2 0xB0 PUSH1 0x4 DUP1 CALLDATASIZE SUB DUP2 ADD SWAP1 PUSH2 0xAB SWAP2 SWAP1 PUSH2 0x2EA JUMP JUMPDEST PUSH2 0x16D JUMP JUMPDEST PUSH1 0x40 MLOAD PUSH2 0xBD SWAP2 SWAP1 PUSH2 0x326 JUMP JUMPDEST PUSH1 0x40 MLOAD DUP1 SWAP2 SUB SWAP1 RETURN JUMPDEST PUSH2 0xE0 PUSH1 0x4 DUP1 CALLDATASIZE SUB DUP2 ADD SWAP1 PUSH2 0xDB SWAP2 SWAP1 PUSH2 0x49A JUMP JUMPDEST PUSH2 0x1E1 JUMP JUMPDEST STOP JUMPDEST PUSH2 0xEA PUSH2 0x219 JUMP JUMPDEST PUSH1 0x40 MLOAD PUSH2 0xF7 SWAP2 SWAP1 PUSH2 0x4FE JUMP JUMPDEST PUSH1 0x40 MLOAD DUP1 SWAP2 SUB SWAP1 RETURN JUMPDEST PUSH1 0x3 DUP2 DUP2 SLOAD DUP2 LT PUSH2 0x110 JUMPI PUSH1 0x0 DUP1 REVERT JUMPDEST SWAP1 PUSH1 0x0 MSTORE PUSH1 0x20 PUSH1 0x0 KECCAK256 ADD PUSH1 0x0 SWAP2 POP SWAP1 POP SLOAD DUP2 JUMP JUMPDEST PUSH1 0x2 SLOAD PUSH1 0x1 SLOAD GT ISZERO PUSH2 0x16B JUMPI PUSH1 0x40 MLOAD PUSH32 0x8C379A000000000000000000000000000000000000000000000000000000000 DUP2 MSTORE PUSH1 0x4 ADD PUSH2 0x162 SWAP1 PUSH2 0x576 JUMP JUMPDEST PUSH1 0x40 MLOAD DUP1 SWAP2 SUB SWAP1 REVERT JUMPDEST JUMP JUMPDEST PUSH1 0x0 DUP1 PUSH1 0x0 SWAP1 POP PUSH1 0x0 JUMPDEST PUSH1 0x3 DUP1 SLOAD SWAP1 POP DUP2 LT ISZERO PUSH2 0x1D7 JUMPI PUSH1 0x0 DUP5 PUSH1 0x3 DUP4 DUP2 SLOAD DUP2 LT PUSH2 0x19B JUMPI PUSH2 0x19A PUSH2 0x596 JUMP JUMPDEST JUMPDEST SWAP1 PUSH1 0x0 MSTORE PUSH1 0x20 PUSH1 0x0 KECCAK256 ADD SLOAD PUSH2 0x1B0 SWAP2 SWAP1 PUSH2 0x5F4 JUMP JUMPDEST SUB PUSH2 0x1C4 JUMPI DUP2 DUP1 PUSH2 0x1C0 SWAP1 PUSH2 0x654 JUMP JUMPDEST SWAP3 POP POP JUMPDEST DUP1 DUP1 PUSH2 0x1CF SWAP1 PUSH2 0x654 JUMP JUMPDEST SWAP2 POP POP PUSH2 0x177 JUMP JUMPDEST POP DUP1 SWAP2 POP POP SWAP2 SWAP1 POP JUMP JUMPDEST DUP1 PUSH1 0x4 SWAP1 DUP1 MLOAD SWAP1 PUSH1 0x20 ADD SWAP1 PUSH2 0x1F7 SWAP3 SWAP2 SWAP1 PUSH2 0x236 JUMP JUMPDEST POP PUSH1 0x0 PUSH1 0x4 SWAP1 POP PUSH1 0x0 PUSH1 0x4 SWAP1 POP PUSH1 0x0 DUP3 SWAP1 POP PUSH1 0x0 DUP2 SWAP1 POP PUSH1 0x4 SWAP1 POP POP POP POP POP POP JUMP JUMPDEST PUSH1 0x0 PUSH1 0x5 PUSH1 0x0 SLOAD SUB PUSH2 0x22E JUMPI PUSH1 0x1 SWAP1 POP PUSH2 0x233 JUMP JUMPDEST PUSH1 0x0 SWAP1 POP JUMPDEST SWAP1 JUMP JUMPDEST DUP3 DUP1 SLOAD DUP3 DUP3 SSTORE SWAP1 PUSH1 0x0 MSTORE PUSH1 0x20 PUSH1 0x0 KECCAK256 SWAP1 DUP2 ADD SWAP3 DUP3 ISZERO PUSH2 0x272 JUMPI SWAP2 PUSH1 0x20 MUL DUP3 ADD JUMPDEST DUP3 DUP2 GT ISZERO PUSH2 0x271 JUMPI DUP3 MLOAD DUP3 SSTORE SWAP2 PUSH1 0x20 ADD SWAP2 SWAP1 PUSH1 0x1 ADD SWAP1 PUSH2 0x256 JUMP JUMPDEST JUMPDEST POP SWAP1 POP PUSH2 0x27F SWAP2 SWAP1 PUSH2 0x283 JUMP JUMPDEST POP SWAP1 JUMP JUMPDEST JUMPDEST DUP1 DUP3 GT ISZERO PUSH2 0x29C JUMPI PUSH1 0x0 DUP2 PUSH1 0x0 SWAP1 SSTORE POP PUSH1 0x1 ADD PUSH2 0x284 JUMP JUMPDEST POP SWAP1 JUMP JUMPDEST PUSH1 0x0 PUSH1 0x40 MLOAD SWAP1 POP SWAP1 JUMP JUMPDEST PUSH1 0x0 DUP1 REVERT JUMPDEST PUSH1 0x0 DUP1 REVERT JUMPDEST PUSH1 0x0 DUP2 SWAP1 POP SWAP2 SWAP1 POP JUMP JUMPDEST PUSH2 0x2C7 DUP2 PUSH2 0x2B4 JUMP JUMPDEST DUP2 EQ PUSH2 0x2D2 JUMPI PUSH1 0x0 DUP1 REVERT JUMPDEST POP JUMP JUMPDEST PUSH1 0x0 DUP2 CALLDATALOAD SWAP1 POP PUSH2 0x2E4 DUP2 PUSH2 0x2BE JUMP JUMPDEST SWAP3 SWAP2 POP POP JUMP JUMPDEST PUSH1 0x0 PUSH1 0x20 DUP3 DUP5 SUB SLT ISZERO PUSH2 0x300 JUMPI PUSH2 0x2FF PUSH2 0x2AA JUMP JUMPDEST JUMPDEST PUSH1 0x0 PUSH2 0x30E DUP5 DUP3 DUP6 ADD PUSH2 0x2D5 JUMP JUMPDEST SWAP2 POP POP SWAP3 SWAP2 POP POP JUMP JUMPDEST PUSH2 0x320 DUP2 PUSH2 0x2B4 JUMP JUMPDEST DUP3 MSTORE POP POP JUMP JUMPDEST PUSH1 0x0 PUSH1 0x20 DUP3 ADD SWAP1 POP PUSH2 0x33B PUSH1 0x0 DUP4 ADD DUP5 PUSH2 0x317 JUMP JUMPDEST SWAP3 SWAP2 POP POP JUMP JUMPDEST PUSH1 0x0 DUP1 REVERT JUMPDEST PUSH1 0x0 PUSH1 0x1F NOT PUSH1 0x1F DUP4 ADD AND SWAP1 POP SWAP2 SWAP1 POP JUMP JUMPDEST PUSH32 0x4E487B7100000000000000000000000000000000000000000000000000000000 PUSH1 0x0 MSTORE PUSH1 0x41 PUSH1 0x4 MSTORE PUSH1 0x24 PUSH1 0x0 REVERT JUMPDEST PUSH2 0x38F DUP3 PUSH2 0x346 JUMP JUMPDEST DUP2 ADD DUP2 DUP2 LT PUSH8 0xFFFFFFFFFFFFFFFF DUP3 GT OR ISZERO PUSH2 0x3AE JUMPI PUSH2 0x3AD PUSH2 0x357 JUMP JUMPDEST JUMPDEST DUP1 PUSH1 0x40 MSTORE POP POP POP JUMP JUMPDEST PUSH1 0x0 PUSH2 0x3C1 PUSH2 0x2A0 JUMP JUMPDEST SWAP1 POP PUSH2 0x3CD DUP3 DUP3 PUSH2 0x386 JUMP JUMPDEST SWAP2 SWAP1 POP JUMP JUMPDEST PUSH1 0x0 PUSH8 0xFFFFFFFFFFFFFFFF DUP3 GT ISZERO PUSH2 0x3ED JUMPI PUSH2 0x3EC PUSH2 0x357 JUMP JUMPDEST JUMPDEST PUSH1 0x20 DUP3 MUL SWAP1 POP PUSH1 0x20 DUP2 ADD SWAP1 POP SWAP2 SWAP1 POP JUMP JUMPDEST PUSH1 0x0 DUP1 REVERT JUMPDEST PUSH1 0x0 PUSH2 0x416 PUSH2 0x411 DUP5 PUSH2 0x3D2 JUMP JUMPDEST PUSH2 0x3B7 JUMP JUMPDEST SWAP1 POP DUP1 DUP4 DUP3 MSTORE PUSH1 0x20 DUP3 ADD SWAP1 POP PUSH1 0x20 DUP5 MUL DUP4 ADD DUP6 DUP2 GT ISZERO PUSH2 0x439 JUMPI PUSH2 0x438 PUSH2 0x3FE JUMP JUMPDEST JUMPDEST DUP4 JUMPDEST DUP2 DUP2 LT ISZERO PUSH2 0x462 JUMPI DUP1 PUSH2 0x44E DUP9 DUP3 PUSH2 0x2D5 JUMP JUMPDEST DUP5 MSTORE PUSH1 0x20 DUP5 ADD SWAP4 POP POP PUSH1 0x20 DUP2 ADD SWAP1 POP PUSH2 0x43B JUMP JUMPDEST POP POP POP SWAP4 SWAP3 POP POP POP JUMP JUMPDEST PUSH1 0x0 DUP3 PUSH1 0x1F DUP4 ADD SLT PUSH2 0x481 JUMPI PUSH2 0x480 PUSH2 0x341 JUMP JUMPDEST JUMPDEST DUP2 CALLDATALOAD PUSH2 0x491 DUP5 DUP3 PUSH1 0x20 DUP7 ADD PUSH2 0x403 JUMP JUMPDEST SWAP2 POP POP SWAP3 SWAP2 POP POP JUMP JUMPDEST PUSH1 0x0 PUSH1 0x20 DUP3 DUP5 SUB SLT ISZERO PUSH2 0x4B0 JUMPI PUSH2 0x4AF PUSH2 0x2AA JUMP JUMPDEST JUMPDEST PUSH1 0x0 DUP3 ADD CALLDATALOAD PUSH8 0xFFFFFFFFFFFFFFFF DUP2 GT ISZERO PUSH2 0x4CE JUMPI PUSH2 0x4CD PUSH2 0x2AF JUMP JUMPDEST JUMPDEST PUSH2 0x4DA DUP5 DUP3 DUP6 ADD PUSH2 0x46C JUMP JUMPDEST SWAP2 POP POP SWAP3 SWAP2 POP POP JUMP JUMPDEST PUSH1 0x0 DUP2 ISZERO ISZERO SWAP1 POP SWAP2 SWAP1 POP JUMP JUMPDEST PUSH2 0x4F8 DUP2 PUSH2 0x4E3 JUMP JUMPDEST DUP3 MSTORE POP POP JUMP JUMPDEST PUSH1 0x0 PUSH1 0x20 DUP3 ADD SWAP1 POP PUSH2 0x513 PUSH1 0x0 DUP4 ADD DUP5 PUSH2 0x4EF JUMP JUMPDEST SWAP3 SWAP2 POP POP JUMP JUMPDEST PUSH1 0x0 DUP3 DUP3 MSTORE PUSH1 0x20 DUP3 ADD SWAP1 POP SWAP3 SWAP2 POP POP JUMP JUMPDEST PUSH32 0x5468697320636F6D706172652069732066616C73652100000000000000000000 PUSH1 0x0 DUP3 ADD MSTORE POP JUMP JUMPDEST PUSH1 0x0 PUSH2 0x560 PUSH1 0x16 DUP4 PUSH2 0x519 JUMP JUMPDEST SWAP2 POP PUSH2 0x56B DUP3 PUSH2 0x52A JUMP JUMPDEST PUSH1 0x20 DUP3 ADD SWAP1 POP SWAP2 SWAP1 POP JUMP JUMPDEST PUSH1 0x0 PUSH1 0x20 DUP3 ADD SWAP1 POP DUP2 DUP2 SUB PUSH1 0x0 DUP4 ADD MSTORE PUSH2 0x58F DUP2 PUSH2 0x553 JUMP JUMPDEST SWAP1 POP SWAP2 SWAP1 POP JUMP JUMPDEST PUSH32 0x4E487B7100000000000000000000000000000000000000000000000000000000 PUSH1 0x0 MSTORE PUSH1 0x32 PUSH1 0x4 MSTORE PUSH1 0x24 PUSH1 0x0 REVERT JUMPDEST PUSH32 0x4E487B7100000000000000000000000000000000000000000000000000000000 PUSH1 0x0 MSTORE PUSH1 0x12 PUSH1 0x4 MSTORE PUSH1 0x24 PUSH1 0x0 REVERT JUMPDEST PUSH1 0x0 PUSH2 0x5FF DUP3 PUSH2 0x2B4 JUMP JUMPDEST SWAP2 POP PUSH2 0x60A DUP4 PUSH2 0x2B4 JUMP JUMPDEST SWAP3 POP DUP3 PUSH2 0x61A JUMPI PUSH2 0x619 PUSH2 0x5C5 JUMP JUMPDEST JUMPDEST DUP3 DUP3 MOD SWAP1 POP SWAP3 SWAP2 POP POP JUMP JUMPDEST PUSH32 0x4E487B7100000000000000000000000000000000000000000000000000000000 PUSH1 0x0 MSTORE PUSH1 0x11 PUSH1 0x4 MSTORE PUSH1 0x24 PUSH1 0x0 REVERT JUMPDEST PUSH1 0x0 PUSH2 0x65F DUP3 PUSH2 0x2B4 JUMP JUMPDEST SWAP2 POP PUSH32 0xFFFFFFFFFFFFFFFFFFFFFFFFFFFFFFFFFFFFFFFFFFFFFFFFFFFFFFFFFFFFFFFF DUP3 SUB PUSH2 0x691 JUMPI PUSH2 0x690 PUSH2 0x625 JUMP JUMPDEST JUMPDEST PUSH1 0x1 DUP3 ADD SWAP1 POP SWAP2 SWAP1 POP JUMP INVALID LOG2 PUSH5 0x6970667358 0x22 SLT KECCAK256 0x1E ADDMOD PUSH5 0xC50E7C122F 0xE3 0xC3 0xEA 0xD0 0xFC DUP5 0xE9 PUSH19 0x5D5B8E0620FE0974CFD18E550B4D65AD64736F PUSH13 0x63430008110033000000000000 "
				},
				"gasEstimates": {
					"creation": {
						"codeDepositCost": "349200",
						"executionCost": "infinite",
						"totalCost": "infinite"
					},
					"external": {
						"checkMultiples(uint256)": "infinite",
						"compare()": "4659",
						"numberslist(uint256)": "infinite",
						"test1(uint256[])": "infinite",
						"validateOranges()": "2543"
					}
				},
				"methodIdentifiers": {
					"checkMultiples(uint256)": "46c0d4d2",
					"compare()": "3da0ac79",
					"numberslist(uint256)": "034340df",
					"test1(uint256[])": "6a3273b7",
					"validateOranges()": "b4a4fad8"
				}
			},
			"storageLayout": {
				"storage": [
					{
						"astId": 4,
						"contract": "hello.sol:hello",
						"label": "oranges",
						"offset": 0,
						"slot": "0",
						"type": "t_uint256"
					},
					{
						"astId": 23,
						"contract": "hello.sol:hello",
						"label": "a",
						"offset": 0,
						"slot": "1",
						"type": "t_uint256"
					},
					{
						"astId": 26,
						"contract": "hello.sol:hello",
						"label": "b",
						"offset": 0,
						"slot": "2",
						"type": "t_uint256"
					},
					{
						"astId": 51,
						"contract": "hello.sol:hello",
						"label": "numberslist",
						"offset": 0,
						"slot": "3",
						"type": "t_array(t_uint256)dyn_storage"
					},
					{
						"astId": 93,
						"contract": "hello.sol:hello",
						"label": "x",
						"offset": 0,
						"slot": "4",
						"type": "t_array(t_uint256)dyn_storage"
					}
				],
				"types": {
					"t_array(t_uint256)dyn_storage": {
						"base": "t_uint256",
						"encoding": "dynamic_array",
						"label": "uint256[]",
						"numberOfBytes": "32"
					},
					"t_uint256": {
						"encoding": "inplace",
						"label": "uint256",
						"numberOfBytes": "32"
					}
				}
			},
			"userdoc": {
				"kind": "user",
				"methods": {},
				"version": 1
			}
		}
	}
}