{
	"solidity_learn/Mapping.sol": {
		"practice": {
			"abi": [
				{
					"inputs": [
						{
							"internalType": "uint256",
							"name": "movie_id",
							"type": "uint256"
						},
						{
							"internalType": "string",
							"name": "title",
							"type": "string"
						},
						{
							"internalType": "string",
							"name": "director",
							"type": "string"
						}
					],
					"name": "addMovie",
					"outputs": [],
					"stateMutability": "nonpayable",
					"type": "function"
				},
				{
					"inputs": [
						{
							"internalType": "uint256",
							"name": "movie_id",
							"type": "uint256"
						},
						{
							"internalType": "string",
							"name": "title",
							"type": "string"
						},
						{
							"internalType": "string",
							"name": "director",
							"type": "string"
						}
					],
					"name": "addMyMovie",
					"outputs": [],
					"stateMutability": "nonpayable",
					"type": "function"
				},
				{
					"inputs": [
						{
							"internalType": "uint256",
							"name": "movie_id",
							"type": "uint256"
						}
					],
					"name": "getMovieTitleById",
					"outputs": [
						{
							"internalType": "string",
							"name": "",
							"type": "string"
						}
					],
					"stateMutability": "view",
					"type": "function"
				},
				{
					"inputs": [
						{
							"internalType": "address",
							"name": "_addr",
							"type": "address"
						},
						{
							"internalType": "uint256",
							"name": "movie_id",
							"type": "uint256"
						}
					],
					"name": "getMymovieTitleByAddressId",
					"outputs": [
						{
							"internalType": "string",
							"name": "",
							"type": "string"
						}
					],
					"stateMutability": "view",
					"type": "function"
				},
				{
					"inputs": [
						{
							"internalType": "uint256",
							"name": "",
							"type": "uint256"
						}
					],
					"name": "movie",
					"outputs": [
						{
							"internalType": "string",
							"name": "title",
							"type": "string"
						},
						{
							"internalType": "string",
							"name": "director",
							"type": "string"
						}
					],
					"stateMutability": "view",
					"type": "function"
				},
				{
					"inputs": [
						{
							"internalType": "address",
							"name": "",
							"type": "address"
						},
						{
							"internalType": "uint256",
							"name": "",
							"type": "uint256"
						}
					],
					"name": "myMovie",
					"outputs": [
						{
							"internalType": "string",
							"name": "title",
							"type": "string"
						},
						{
							"internalType": "string",
							"name": "director",
							"type": "string"
						}
					],
					"stateMutability": "view",
					"type": "function"
				}
			],
			"devdoc": {
				"kind": "dev",
				"methods": {},
				"version": 1
			},
			"evm": {
				"assembly": "    /* \"solidity_learn/Mapping.sol\":406:1239  contract practice {... */\n  mstore(0x40, 0x80)\n  callvalue\n  dup1\n  iszero\n  tag_1\n  jumpi\n  0x00\n  dup1\n  revert\ntag_1:\n  pop\n  dataSize(sub_0)\n  dup1\n  dataOffset(sub_0)\n  0x00\n  codecopy\n  0x00\n  return\nstop\n\nsub_0: assembly {\n        /* \"solidity_learn/Mapping.sol\":406:1239  contract practice {... */\n      mstore(0x40, 0x80)\n      callvalue\n      dup1\n      iszero\n      tag_1\n      jumpi\n      0x00\n      dup1\n      revert\n    tag_1:\n      pop\n      jumpi(tag_2, lt(calldatasize, 0x04))\n      shr(0xe0, calldataload(0x00))\n      dup1\n      0x0f08580f\n      eq\n      tag_3\n      jumpi\n      dup1\n      0x11f72990\n      eq\n      tag_4\n      jumpi\n      dup1\n      0x87eb54fe\n      eq\n      tag_5\n      jumpi\n      dup1\n      0xb97da67b\n      eq\n      tag_6\n      jumpi\n      dup1\n      0xd87ec417\n      eq\n      tag_7\n      jumpi\n      dup1\n      0xf40f48c9\n      eq\n      tag_8\n      jumpi\n    tag_2:\n      0x00\n      dup1\n      revert\n        /* \"solidity_learn/Mapping.sol\":1077:1234  function getMymovieTitleByAddressId(address _addr, uint movie_id) public view returns(string memory) {... */\n    tag_3:\n      tag_9\n      0x04\n      dup1\n      calldatasize\n      sub\n      dup2\n      add\n      swap1\n      tag_10\n      swap2\n      swap1\n      tag_11\n      jump\t// in\n    tag_10:\n      tag_12\n      jump\t// in\n    tag_9:\n      mload(0x40)\n      tag_13\n      swap2\n      swap1\n      tag_14\n      jump\t// in\n    tag_13:\n      mload(0x40)\n      dup1\n      swap2\n      sub\n      swap1\n      return\n        /* \"solidity_learn/Mapping.sol\":551:608  mapping(address => mapping(uint => Movie)) public myMovie */\n    tag_4:\n      tag_15\n      0x04\n      dup1\n      calldatasize\n      sub\n      dup2\n      add\n      swap1\n      tag_16\n      swap2\n      swap1\n      tag_11\n      jump\t// in\n    tag_16:\n      tag_17\n      jump\t// in\n    tag_15:\n      mload(0x40)\n      tag_18\n      swap3\n      swap2\n      swap1\n      tag_19\n      jump\t// in\n    tag_18:\n      mload(0x40)\n      dup1\n      swap2\n      sub\n      swap1\n      return\n        /* \"solidity_learn/Mapping.sol\":773:937  function addMyMovie(uint movie_id, string calldata title, string calldata director) public {... */\n    tag_5:\n      tag_20\n      0x04\n      dup1\n      calldatasize\n      sub\n      dup2\n      add\n      swap1\n      tag_21\n      swap2\n      swap1\n      tag_22\n      jump\t// in\n    tag_21:\n      tag_23\n      jump\t// in\n    tag_20:\n      stop\n        /* \"solidity_learn/Mapping.sol\":945:1069  function getMovieTitleById(uint movie_id) public view returns(string memory) {... */\n    tag_6:\n      tag_24\n      0x04\n      dup1\n      calldatasize\n      sub\n      dup2\n      add\n      swap1\n      tag_25\n      swap2\n      swap1\n      tag_26\n      jump\t// in\n    tag_25:\n      tag_27\n      jump\t// in\n    tag_24:\n      mload(0x40)\n      tag_28\n      swap2\n      swap1\n      tag_14\n      jump\t// in\n    tag_28:\n      mload(0x40)\n      dup1\n      swap2\n      sub\n      swap1\n      return\n        /* \"solidity_learn/Mapping.sol\":509:544  mapping(uint => Movie) public movie */\n    tag_7:\n      tag_29\n      0x04\n      dup1\n      calldatasize\n      sub\n      dup2\n      add\n      swap1\n      tag_30\n      swap2\n      swap1\n      tag_26\n      jump\t// in\n    tag_30:\n      tag_31\n      jump\t// in\n    tag_29:\n      mload(0x40)\n      tag_32\n      swap3\n      swap2\n      swap1\n      tag_19\n      jump\t// in\n    tag_32:\n      mload(0x40)\n      dup1\n      swap2\n      sub\n      swap1\n      return\n        /* \"solidity_learn/Mapping.sol\":617:765  function addMovie(uint movie_id, string calldata title, string calldata director) public {... */\n    tag_8:\n      tag_33\n      0x04\n      dup1\n      calldatasize\n      sub\n      dup2\n      add\n      swap1\n      tag_34\n      swap2\n      swap1\n      tag_22\n      jump\t// in\n    tag_34:\n      tag_35\n      jump\t// in\n    tag_33:\n      stop\n        /* \"solidity_learn/Mapping.sol\":1077:1234  function getMymovieTitleByAddressId(address _addr, uint movie_id) public view returns(string memory) {... */\n    tag_12:\n        /* \"solidity_learn/Mapping.sol\":1163:1176  string memory */\n      0x60\n        /* \"solidity_learn/Mapping.sol\":1196:1203  myMovie */\n      0x01\n        /* \"solidity_learn/Mapping.sol\":1196:1210  myMovie[_addr] */\n      0x00\n        /* \"solidity_learn/Mapping.sol\":1204:1209  _addr */\n      dup5\n        /* \"solidity_learn/Mapping.sol\":1196:1210  myMovie[_addr] */\n      0xffffffffffffffffffffffffffffffffffffffff\n      and\n      0xffffffffffffffffffffffffffffffffffffffff\n      and\n      dup2\n      mstore\n      0x20\n      add\n      swap1\n      dup2\n      mstore\n      0x20\n      add\n      0x00\n      keccak256\n        /* \"solidity_learn/Mapping.sol\":1196:1220  myMovie[_addr][movie_id] */\n      0x00\n        /* \"solidity_learn/Mapping.sol\":1211:1219  movie_id */\n      dup4\n        /* \"solidity_learn/Mapping.sol\":1196:1220  myMovie[_addr][movie_id] */\n      dup2\n      mstore\n      0x20\n      add\n      swap1\n      dup2\n      mstore\n      0x20\n      add\n      0x00\n      keccak256\n        /* \"solidity_learn/Mapping.sol\":1196:1226  myMovie[_addr][movie_id].title */\n      0x00\n      add\n        /* \"solidity_learn/Mapping.sol\":1189:1226  return myMovie[_addr][movie_id].title */\n      dup1\n      sload\n      tag_37\n      swap1\n      tag_38\n      jump\t// in\n    tag_37:\n      dup1\n      0x1f\n      add\n      0x20\n      dup1\n      swap2\n      div\n      mul\n      0x20\n      add\n      mload(0x40)\n      swap1\n      dup2\n      add\n      0x40\n      mstore\n      dup1\n      swap3\n      swap2\n      swap1\n      dup2\n      dup2\n      mstore\n      0x20\n      add\n      dup3\n      dup1\n      sload\n      tag_39\n      swap1\n      tag_38\n      jump\t// in\n    tag_39:\n      dup1\n      iszero\n      tag_40\n      jumpi\n      dup1\n      0x1f\n      lt\n      tag_41\n      jumpi\n      0x0100\n      dup1\n      dup4\n      sload\n      div\n      mul\n      dup4\n      mstore\n      swap2\n      0x20\n      add\n      swap2\n      jump(tag_40)\n    tag_41:\n      dup3\n      add\n      swap2\n      swap1\n      0x00\n      mstore\n      keccak256(0x00, 0x20)\n      swap1\n    tag_42:\n      dup2\n      sload\n      dup2\n      mstore\n      swap1\n      0x01\n      add\n      swap1\n      0x20\n      add\n      dup1\n      dup4\n      gt\n      tag_42\n      jumpi\n      dup3\n      swap1\n      sub\n      0x1f\n      and\n      dup3\n      add\n      swap2\n    tag_40:\n      pop\n      pop\n      pop\n      pop\n      pop\n      swap1\n      pop\n        /* \"solidity_learn/Mapping.sol\":1077:1234  function getMymovieTitleByAddressId(address _addr, uint movie_id) public view returns(string memory) {... */\n      swap3\n      swap2\n      pop\n      pop\n      jump\t// out\n        /* \"solidity_learn/Mapping.sol\":551:608  mapping(address => mapping(uint => Movie)) public myMovie */\n    tag_17:\n      mstore(0x20, 0x01)\n      dup2\n      0x00\n      mstore\n      mstore(0x20, keccak256(0x00, 0x40))\n      dup1\n      0x00\n      mstore\n      keccak256(0x00, 0x40)\n      0x00\n      swap2\n      pop\n      swap2\n      pop\n      pop\n      dup1\n      0x00\n      add\n      dup1\n      sload\n      tag_43\n      swap1\n      tag_38\n      jump\t// in\n    tag_43:\n      dup1\n      0x1f\n      add\n      0x20\n      dup1\n      swap2\n      div\n      mul\n      0x20\n      add\n      mload(0x40)\n      swap1\n      dup2\n      add\n      0x40\n      mstore\n      dup1\n      swap3\n      swap2\n      swap1\n      dup2\n      dup2\n      mstore\n      0x20\n      add\n      dup3\n      dup1\n      sload\n      tag_44\n      swap1\n      tag_38\n      jump\t// in\n    tag_44:\n      dup1\n      iszero\n      tag_45\n      jumpi\n      dup1\n      0x1f\n      lt\n      tag_46\n      jumpi\n      0x0100\n      dup1\n      dup4\n      sload\n      div\n      mul\n      dup4\n      mstore\n      swap2\n      0x20\n      add\n      swap2\n      jump(tag_45)\n    tag_46:\n      dup3\n      add\n      swap2\n      swap1\n      0x00\n      mstore\n      keccak256(0x00, 0x20)\n      swap1\n    tag_47:\n      dup2\n      sload\n      dup2\n      mstore\n      swap1\n      0x01\n      add\n      swap1\n      0x20\n      add\n      dup1\n      dup4\n      gt\n      tag_47\n      jumpi\n      dup3\n      swap1\n      sub\n      0x1f\n      and\n      dup3\n      add\n      swap2\n    tag_45:\n      pop\n      pop\n      pop\n      pop\n      pop\n      swap1\n      dup1\n      0x01\n      add\n      dup1\n      sload\n      tag_48\n      swap1\n      tag_38\n      jump\t// in\n    tag_48:\n      dup1\n      0x1f\n      add\n      0x20\n      dup1\n      swap2\n      div\n      mul\n      0x20\n      add\n      mload(0x40)\n      swap1\n      dup2\n      add\n      0x40\n      mstore\n      dup1\n      swap3\n      swap2\n      swap1\n      dup2\n      dup2\n      mstore\n      0x20\n      add\n      dup3\n      dup1\n      sload\n      tag_49\n      swap1\n      tag_38\n      jump\t// in\n    tag_49:\n      dup1\n      iszero\n      tag_50\n      jumpi\n      dup1\n      0x1f\n      lt\n      tag_51\n      jumpi\n      0x0100\n      dup1\n      dup4\n      sload\n      div\n      mul\n      dup4\n      mstore\n      swap2\n      0x20\n      add\n      swap2\n      jump(tag_50)\n    tag_51:\n      dup3\n      add\n      swap2\n      swap1\n      0x00\n      mstore\n      keccak256(0x00, 0x20)\n      swap1\n    tag_52:\n      dup2\n      sload\n      dup2\n      mstore\n      swap1\n      0x01\n      add\n      swap1\n      0x20\n      add\n      dup1\n      dup4\n      gt\n      tag_52\n      jumpi\n      dup3\n      swap1\n      sub\n      0x1f\n      and\n      dup3\n      add\n      swap2\n    tag_50:\n      pop\n      pop\n      pop\n      pop\n      pop\n      swap1\n      pop\n      dup3\n      jump\t// out\n        /* \"solidity_learn/Mapping.sol\":773:937  function addMyMovie(uint movie_id, string calldata title, string calldata director) public {... */\n    tag_23:\n        /* \"solidity_learn/Mapping.sol\":907:929  Movie(title, director) */\n      mload(0x40)\n      dup1\n      0x40\n      add\n      0x40\n      mstore\n      dup1\n        /* \"solidity_learn/Mapping.sol\":913:918  title */\n      dup6\n      dup6\n        /* \"solidity_learn/Mapping.sol\":907:929  Movie(title, director) */\n      dup1\n      dup1\n      0x1f\n      add\n      0x20\n      dup1\n      swap2\n      div\n      mul\n      0x20\n      add\n      mload(0x40)\n      swap1\n      dup2\n      add\n      0x40\n      mstore\n      dup1\n      swap4\n      swap3\n      swap2\n      swap1\n      dup2\n      dup2\n      mstore\n      0x20\n      add\n      dup4\n      dup4\n      dup1\n      dup3\n      dup5\n      calldatacopy\n      0x00\n      dup2\n      dup5\n      add\n      mstore\n      not(0x1f)\n      0x1f\n      dup3\n      add\n      and\n      swap1\n      pop\n      dup1\n      dup4\n      add\n      swap3\n      pop\n      pop\n      pop\n      pop\n      pop\n      pop\n      pop\n      dup2\n      mstore\n      0x20\n      add\n        /* \"solidity_learn/Mapping.sol\":920:928  director */\n      dup4\n      dup4\n        /* \"solidity_learn/Mapping.sol\":907:929  Movie(title, director) */\n      dup1\n      dup1\n      0x1f\n      add\n      0x20\n      dup1\n      swap2\n      div\n      mul\n      0x20\n      add\n      mload(0x40)\n      swap1\n      dup2\n      add\n      0x40\n      mstore\n      dup1\n      swap4\n      swap3\n      swap2\n      swap1\n      dup2\n      dup2\n      mstore\n      0x20\n      add\n      dup4\n      dup4\n      dup1\n      dup3\n      dup5\n      calldatacopy\n      0x00\n      dup2\n      dup5\n      add\n      mstore\n      not(0x1f)\n      0x1f\n      dup3\n      add\n      and\n      swap1\n      pop\n      dup1\n      dup4\n      add\n      swap3\n      pop\n      pop\n      pop\n      pop\n      pop\n      pop\n      pop\n      dup2\n      mstore\n      pop\n        /* \"solidity_learn/Mapping.sol\":875:882  myMovie */\n      0x01\n        /* \"solidity_learn/Mapping.sol\":875:894  myMovie[msg.sender] */\n      0x00\n        /* \"solidity_learn/Mapping.sol\":883:893  msg.sender */\n      caller\n        /* \"solidity_learn/Mapping.sol\":875:894  myMovie[msg.sender] */\n      0xffffffffffffffffffffffffffffffffffffffff\n      and\n      0xffffffffffffffffffffffffffffffffffffffff\n      and\n      dup2\n      mstore\n      0x20\n      add\n      swap1\n      dup2\n      mstore\n      0x20\n      add\n      0x00\n      keccak256\n        /* \"solidity_learn/Mapping.sol\":875:904  myMovie[msg.sender][movie_id] */\n      0x00\n        /* \"solidity_learn/Mapping.sol\":895:903  movie_id */\n      dup8\n        /* \"solidity_learn/Mapping.sol\":875:904  myMovie[msg.sender][movie_id] */\n      dup2\n      mstore\n      0x20\n      add\n      swap1\n      dup2\n      mstore\n      0x20\n      add\n      0x00\n      keccak256\n        /* \"solidity_learn/Mapping.sol\":875:929  myMovie[msg.sender][movie_id] = Movie(title, director) */\n      0x00\n      dup3\n      add\n      mload\n      dup2\n      0x00\n      add\n      swap1\n      dup2\n      tag_54\n      swap2\n      swap1\n      tag_55\n      jump\t// in\n    tag_54:\n      pop\n      0x20\n      dup3\n      add\n      mload\n      dup2\n      0x01\n      add\n      swap1\n      dup2\n      tag_56\n      swap2\n      swap1\n      tag_55\n      jump\t// in\n    tag_56:\n      pop\n      swap1\n      pop\n      pop\n        /* \"solidity_learn/Mapping.sol\":773:937  function addMyMovie(uint movie_id, string calldata title, string calldata director) public {... */\n      pop\n      pop\n      pop\n      pop\n      pop\n      jump\t// out\n        /* \"solidity_learn/Mapping.sol\":945:1069  function getMovieTitleById(uint movie_id) public view returns(string memory) {... */\n    tag_27:\n        /* \"solidity_learn/Mapping.sol\":1007:1020  string memory */\n      0x60\n        /* \"solidity_learn/Mapping.sol\":1040:1045  movie */\n      0x00\n        /* \"solidity_learn/Mapping.sol\":1040:1055  movie[movie_id] */\n      dup1\n        /* \"solidity_learn/Mapping.sol\":1046:1054  movie_id */\n      dup4\n        /* \"solidity_learn/Mapping.sol\":1040:1055  movie[movie_id] */\n      dup2\n      mstore\n      0x20\n      add\n      swap1\n      dup2\n      mstore\n      0x20\n      add\n      0x00\n      keccak256\n        /* \"solidity_learn/Mapping.sol\":1040:1061  movie[movie_id].title */\n      0x00\n      add\n        /* \"solidity_learn/Mapping.sol\":1033:1061  return movie[movie_id].title */\n      dup1\n      sload\n      tag_58\n      swap1\n      tag_38\n      jump\t// in\n    tag_58:\n      dup1\n      0x1f\n      add\n      0x20\n      dup1\n      swap2\n      div\n      mul\n      0x20\n      add\n      mload(0x40)\n      swap1\n      dup2\n      add\n      0x40\n      mstore\n      dup1\n      swap3\n      swap2\n      swap1\n      dup2\n      dup2\n      mstore\n      0x20\n      add\n      dup3\n      dup1\n      sload\n      tag_59\n      swap1\n      tag_38\n      jump\t// in\n    tag_59:\n      dup1\n      iszero\n      tag_60\n      jumpi\n      dup1\n      0x1f\n      lt\n      tag_61\n      jumpi\n      0x0100\n      dup1\n      dup4\n      sload\n      div\n      mul\n      dup4\n      mstore\n      swap2\n      0x20\n      add\n      swap2\n      jump(tag_60)\n    tag_61:\n      dup3\n      add\n      swap2\n      swap1\n      0x00\n      mstore\n      keccak256(0x00, 0x20)\n      swap1\n    tag_62:\n      dup2\n      sload\n      dup2\n      mstore\n      swap1\n      0x01\n      add\n      swap1\n      0x20\n      add\n      dup1\n      dup4\n      gt\n      tag_62\n      jumpi\n      dup3\n      swap1\n      sub\n      0x1f\n      and\n      dup3\n      add\n      swap2\n    tag_60:\n      pop\n      pop\n      pop\n      pop\n      pop\n      swap1\n      pop\n        /* \"solidity_learn/Mapping.sol\":945:1069  function getMovieTitleById(uint movie_id) public view returns(string memory) {... */\n      swap2\n      swap1\n      pop\n      jump\t// out\n        /* \"solidity_learn/Mapping.sol\":509:544  mapping(uint => Movie) public movie */\n    tag_31:\n      mstore(0x20, 0x00)\n      dup1\n      0x00\n      mstore\n      keccak256(0x00, 0x40)\n      0x00\n      swap2\n      pop\n      swap1\n      pop\n      dup1\n      0x00\n      add\n      dup1\n      sload\n      tag_63\n      swap1\n      tag_38\n      jump\t// in\n    tag_63:\n      dup1\n      0x1f\n      add\n      0x20\n      dup1\n      swap2\n      div\n      mul\n      0x20\n      add\n      mload(0x40)\n      swap1\n      dup2\n      add\n      0x40\n      mstore\n      dup1\n      swap3\n      swap2\n      swap1\n      dup2\n      dup2\n      mstore\n      0x20\n      add\n      dup3\n      dup1\n      sload\n      tag_64\n      swap1\n      tag_38\n      jump\t// in\n    tag_64:\n      dup1\n      iszero\n      tag_65\n      jumpi\n      dup1\n      0x1f\n      lt\n      tag_66\n      jumpi\n      0x0100\n      dup1\n      dup4\n      sload\n      div\n      mul\n      dup4\n      mstore\n      swap2\n      0x20\n      add\n      swap2\n      jump(tag_65)\n    tag_66:\n      dup3\n      add\n      swap2\n      swap1\n      0x00\n      mstore\n      keccak256(0x00, 0x20)\n      swap1\n    tag_67:\n      dup2\n      sload\n      dup2\n      mstore\n      swap1\n      0x01\n      add\n      swap1\n      0x20\n      add\n      dup1\n      dup4\n      gt\n      tag_67\n      jumpi\n      dup3\n      swap1\n      sub\n      0x1f\n      and\n      dup3\n      add\n      swap2\n    tag_65:\n      pop\n      pop\n      pop\n      pop\n      pop\n      swap1\n      dup1\n      0x01\n      add\n      dup1\n      sload\n      tag_68\n      swap1\n      tag_38\n      jump\t// in\n    tag_68:\n      dup1\n      0x1f\n      add\n      0x20\n      dup1\n      swap2\n      div\n      mul\n      0x20\n      add\n      mload(0x40)\n      swap1\n      dup2\n      add\n      0x40\n      mstore\n      dup1\n      swap3\n      swap2\n      swap1\n      dup2\n      dup2\n      mstore\n      0x20\n      add\n      dup3\n      dup1\n      sload\n      tag_69\n      swap1\n      tag_38\n      jump\t// in\n    tag_69:\n      dup1\n      iszero\n      tag_70\n      jumpi\n      dup1\n      0x1f\n      lt\n      tag_71\n      jumpi\n      0x0100\n      dup1\n      dup4\n      sload\n      div\n      mul\n      dup4\n      mstore\n      swap2\n      0x20\n      add\n      swap2\n      jump(tag_70)\n    tag_71:\n      dup3\n      add\n      swap2\n      swap1\n      0x00\n      mstore\n      keccak256(0x00, 0x20)\n      swap1\n    tag_72:\n      dup2\n      sload\n      dup2\n      mstore\n      swap1\n      0x01\n      add\n      swap1\n      0x20\n      add\n      dup1\n      dup4\n      gt\n      tag_72\n      jumpi\n      dup3\n      swap1\n      sub\n      0x1f\n      and\n      dup3\n      add\n      swap2\n    tag_70:\n      pop\n      pop\n      pop\n      pop\n      pop\n      swap1\n      pop\n      dup3\n      jump\t// out\n        /* \"solidity_learn/Mapping.sol\":617:765  function addMovie(uint movie_id, string calldata title, string calldata director) public {... */\n    tag_35:\n        /* \"solidity_learn/Mapping.sol\":735:757  Movie(title, director) */\n      mload(0x40)\n      dup1\n      0x40\n      add\n      0x40\n      mstore\n      dup1\n        /* \"solidity_learn/Mapping.sol\":741:746  title */\n      dup6\n      dup6\n        /* \"solidity_learn/Mapping.sol\":735:757  Movie(title, director) */\n      dup1\n      dup1\n      0x1f\n      add\n      0x20\n      dup1\n      swap2\n      div\n      mul\n      0x20\n      add\n      mload(0x40)\n      swap1\n      dup2\n      add\n      0x40\n      mstore\n      dup1\n      swap4\n      swap3\n      swap2\n      swap1\n      dup2\n      dup2\n      mstore\n      0x20\n      add\n      dup4\n      dup4\n      dup1\n      dup3\n      dup5\n      calldatacopy\n      0x00\n      dup2\n      dup5\n      add\n      mstore\n      not(0x1f)\n      0x1f\n      dup3\n      add\n      and\n      swap1\n      pop\n      dup1\n      dup4\n      add\n      swap3\n      pop\n      pop\n      pop\n      pop\n      pop\n      pop\n      pop\n      dup2\n      mstore\n      0x20\n      add\n        /* \"solidity_learn/Mapping.sol\":748:756  director */\n      dup4\n      dup4\n        /* \"solidity_learn/Mapping.sol\":735:757  Movie(title, director) */\n      dup1\n      dup1\n      0x1f\n      add\n      0x20\n      dup1\n      swap2\n      div\n      mul\n      0x20\n      add\n      mload(0x40)\n      swap1\n      dup2\n      add\n      0x40\n      mstore\n      dup1\n      swap4\n      swap3\n      swap2\n      swap1\n      dup2\n      dup2\n      mstore\n      0x20\n      add\n      dup4\n      dup4\n      dup1\n      dup3\n      dup5\n      calldatacopy\n      0x00\n      dup2\n      dup5\n      add\n      mstore\n      not(0x1f)\n      0x1f\n      dup3\n      add\n      and\n      swap1\n      pop\n      dup1\n      dup4\n      add\n      swap3\n      pop\n      pop\n      pop\n      pop\n      pop\n      pop\n      pop\n      dup2\n      mstore\n      pop\n        /* \"solidity_learn/Mapping.sol\":717:722  movie */\n      0x00\n        /* \"solidity_learn/Mapping.sol\":717:732  movie[movie_id] */\n      dup1\n        /* \"solidity_learn/Mapping.sol\":723:731  movie_id */\n      dup8\n        /* \"solidity_learn/Mapping.sol\":717:732  movie[movie_id] */\n      dup2\n      mstore\n      0x20\n      add\n      swap1\n      dup2\n      mstore\n      0x20\n      add\n      0x00\n      keccak256\n        /* \"solidity_learn/Mapping.sol\":717:757  movie[movie_id] = Movie(title, director) */\n      0x00\n      dup3\n      add\n      mload\n      dup2\n      0x00\n      add\n      swap1\n      dup2\n      tag_74\n      swap2\n      swap1\n      tag_55\n      jump\t// in\n    tag_74:\n      pop\n      0x20\n      dup3\n      add\n      mload\n      dup2\n      0x01\n      add\n      swap1\n      dup2\n      tag_75\n      swap2\n      swap1\n      tag_55\n      jump\t// in\n    tag_75:\n      pop\n      swap1\n      pop\n      pop\n        /* \"solidity_learn/Mapping.sol\":617:765  function addMovie(uint movie_id, string calldata title, string calldata director) public {... */\n      pop\n      pop\n      pop\n      pop\n      pop\n      jump\t// out\n        /* \"#utility.yul\":88:205   */\n    tag_77:\n        /* \"#utility.yul\":197:198   */\n      0x00\n        /* \"#utility.yul\":194:195   */\n      dup1\n        /* \"#utility.yul\":187:199   */\n      revert\n        /* \"#utility.yul\":211:328   */\n    tag_78:\n        /* \"#utility.yul\":320:321   */\n      0x00\n        /* \"#utility.yul\":317:318   */\n      dup1\n        /* \"#utility.yul\":310:322   */\n      revert\n        /* \"#utility.yul\":334:460   */\n    tag_79:\n        /* \"#utility.yul\":371:378   */\n      0x00\n        /* \"#utility.yul\":411:453   */\n      0xffffffffffffffffffffffffffffffffffffffff\n        /* \"#utility.yul\":404:409   */\n      dup3\n        /* \"#utility.yul\":400:454   */\n      and\n        /* \"#utility.yul\":389:454   */\n      swap1\n      pop\n        /* \"#utility.yul\":334:460   */\n      swap2\n      swap1\n      pop\n      jump\t// out\n        /* \"#utility.yul\":466:562   */\n    tag_80:\n        /* \"#utility.yul\":503:510   */\n      0x00\n        /* \"#utility.yul\":532:556   */\n      tag_118\n        /* \"#utility.yul\":550:555   */\n      dup3\n        /* \"#utility.yul\":532:556   */\n      tag_79\n      jump\t// in\n    tag_118:\n        /* \"#utility.yul\":521:556   */\n      swap1\n      pop\n        /* \"#utility.yul\":466:562   */\n      swap2\n      swap1\n      pop\n      jump\t// out\n        /* \"#utility.yul\":568:690   */\n    tag_81:\n        /* \"#utility.yul\":641:665   */\n      tag_120\n        /* \"#utility.yul\":659:664   */\n      dup2\n        /* \"#utility.yul\":641:665   */\n      tag_80\n      jump\t// in\n    tag_120:\n        /* \"#utility.yul\":634:639   */\n      dup2\n        /* \"#utility.yul\":631:666   */\n      eq\n        /* \"#utility.yul\":621:684   */\n      tag_121\n      jumpi\n        /* \"#utility.yul\":680:681   */\n      0x00\n        /* \"#utility.yul\":677:678   */\n      dup1\n        /* \"#utility.yul\":670:682   */\n      revert\n        /* \"#utility.yul\":621:684   */\n    tag_121:\n        /* \"#utility.yul\":568:690   */\n      pop\n      jump\t// out\n        /* \"#utility.yul\":696:835   */\n    tag_82:\n        /* \"#utility.yul\":742:747   */\n      0x00\n        /* \"#utility.yul\":780:786   */\n      dup2\n        /* \"#utility.yul\":767:787   */\n      calldataload\n        /* \"#utility.yul\":758:787   */\n      swap1\n      pop\n        /* \"#utility.yul\":796:829   */\n      tag_123\n        /* \"#utility.yul\":823:828   */\n      dup2\n        /* \"#utility.yul\":796:829   */\n      tag_81\n      jump\t// in\n    tag_123:\n        /* \"#utility.yul\":696:835   */\n      swap3\n      swap2\n      pop\n      pop\n      jump\t// out\n        /* \"#utility.yul\":841:918   */\n    tag_83:\n        /* \"#utility.yul\":878:885   */\n      0x00\n        /* \"#utility.yul\":907:912   */\n      dup2\n        /* \"#utility.yul\":896:912   */\n      swap1\n      pop\n        /* \"#utility.yul\":841:918   */\n      swap2\n      swap1\n      pop\n      jump\t// out\n        /* \"#utility.yul\":924:1046   */\n    tag_84:\n        /* \"#utility.yul\":997:1021   */\n      tag_126\n        /* \"#utility.yul\":1015:1020   */\n      dup2\n        /* \"#utility.yul\":997:1021   */\n      tag_83\n      jump\t// in\n    tag_126:\n        /* \"#utility.yul\":990:995   */\n      dup2\n        /* \"#utility.yul\":987:1022   */\n      eq\n        /* \"#utility.yul\":977:1040   */\n      tag_127\n      jumpi\n        /* \"#utility.yul\":1036:1037   */\n      0x00\n        /* \"#utility.yul\":1033:1034   */\n      dup1\n        /* \"#utility.yul\":1026:1038   */\n      revert\n        /* \"#utility.yul\":977:1040   */\n    tag_127:\n        /* \"#utility.yul\":924:1046   */\n      pop\n      jump\t// out\n        /* \"#utility.yul\":1052:1191   */\n    tag_85:\n        /* \"#utility.yul\":1098:1103   */\n      0x00\n        /* \"#utility.yul\":1136:1142   */\n      dup2\n        /* \"#utility.yul\":1123:1143   */\n      calldataload\n        /* \"#utility.yul\":1114:1143   */\n      swap1\n      pop\n        /* \"#utility.yul\":1152:1185   */\n      tag_129\n        /* \"#utility.yul\":1179:1184   */\n      dup2\n        /* \"#utility.yul\":1152:1185   */\n      tag_84\n      jump\t// in\n    tag_129:\n        /* \"#utility.yul\":1052:1191   */\n      swap3\n      swap2\n      pop\n      pop\n      jump\t// out\n        /* \"#utility.yul\":1197:1671   */\n    tag_11:\n        /* \"#utility.yul\":1265:1271   */\n      0x00\n        /* \"#utility.yul\":1273:1279   */\n      dup1\n        /* \"#utility.yul\":1322:1324   */\n      0x40\n        /* \"#utility.yul\":1310:1319   */\n      dup4\n        /* \"#utility.yul\":1301:1308   */\n      dup6\n        /* \"#utility.yul\":1297:1320   */\n      sub\n        /* \"#utility.yul\":1293:1325   */\n      slt\n        /* \"#utility.yul\":1290:1409   */\n      iszero\n      tag_131\n      jumpi\n        /* \"#utility.yul\":1328:1407   */\n      tag_132\n      tag_77\n      jump\t// in\n    tag_132:\n        /* \"#utility.yul\":1290:1409   */\n    tag_131:\n        /* \"#utility.yul\":1448:1449   */\n      0x00\n        /* \"#utility.yul\":1473:1526   */\n      tag_133\n        /* \"#utility.yul\":1518:1525   */\n      dup6\n        /* \"#utility.yul\":1509:1515   */\n      dup3\n        /* \"#utility.yul\":1498:1507   */\n      dup7\n        /* \"#utility.yul\":1494:1516   */\n      add\n        /* \"#utility.yul\":1473:1526   */\n      tag_82\n      jump\t// in\n    tag_133:\n        /* \"#utility.yul\":1463:1526   */\n      swap3\n      pop\n        /* \"#utility.yul\":1419:1536   */\n      pop\n        /* \"#utility.yul\":1575:1577   */\n      0x20\n        /* \"#utility.yul\":1601:1654   */\n      tag_134\n        /* \"#utility.yul\":1646:1653   */\n      dup6\n        /* \"#utility.yul\":1637:1643   */\n      dup3\n        /* \"#utility.yul\":1626:1635   */\n      dup7\n        /* \"#utility.yul\":1622:1644   */\n      add\n        /* \"#utility.yul\":1601:1654   */\n      tag_85\n      jump\t// in\n    tag_134:\n        /* \"#utility.yul\":1591:1654   */\n      swap2\n      pop\n        /* \"#utility.yul\":1546:1664   */\n      pop\n        /* \"#utility.yul\":1197:1671   */\n      swap3\n      pop\n      swap3\n      swap1\n      pop\n      jump\t// out\n        /* \"#utility.yul\":1677:1776   */\n    tag_86:\n        /* \"#utility.yul\":1729:1735   */\n      0x00\n        /* \"#utility.yul\":1763:1768   */\n      dup2\n        /* \"#utility.yul\":1757:1769   */\n      mload\n        /* \"#utility.yul\":1747:1769   */\n      swap1\n      pop\n        /* \"#utility.yul\":1677:1776   */\n      swap2\n      swap1\n      pop\n      jump\t// out\n        /* \"#utility.yul\":1782:1951   */\n    tag_87:\n        /* \"#utility.yul\":1866:1877   */\n      0x00\n        /* \"#utility.yul\":1900:1906   */\n      dup3\n        /* \"#utility.yul\":1895:1898   */\n      dup3\n        /* \"#utility.yul\":1888:1907   */\n      mstore\n        /* \"#utility.yul\":1940:1944   */\n      0x20\n        /* \"#utility.yul\":1935:1938   */\n      dup3\n        /* \"#utility.yul\":1931:1945   */\n      add\n        /* \"#utility.yul\":1916:1945   */\n      swap1\n      pop\n        /* \"#utility.yul\":1782:1951   */\n      swap3\n      swap2\n      pop\n      pop\n      jump\t// out\n        /* \"#utility.yul\":1957:2203   */\n    tag_88:\n        /* \"#utility.yul\":2038:2039   */\n      0x00\n        /* \"#utility.yul\":2048:2161   */\n    tag_138:\n        /* \"#utility.yul\":2062:2068   */\n      dup4\n        /* \"#utility.yul\":2059:2060   */\n      dup2\n        /* \"#utility.yul\":2056:2069   */\n      lt\n        /* \"#utility.yul\":2048:2161   */\n      iszero\n      tag_140\n      jumpi\n        /* \"#utility.yul\":2147:2148   */\n      dup1\n        /* \"#utility.yul\":2142:2145   */\n      dup3\n        /* \"#utility.yul\":2138:2149   */\n      add\n        /* \"#utility.yul\":2132:2150   */\n      mload\n        /* \"#utility.yul\":2128:2129   */\n      dup2\n        /* \"#utility.yul\":2123:2126   */\n      dup5\n        /* \"#utility.yul\":2119:2130   */\n      add\n        /* \"#utility.yul\":2112:2151   */\n      mstore\n        /* \"#utility.yul\":2084:2086   */\n      0x20\n        /* \"#utility.yul\":2081:2082   */\n      dup2\n        /* \"#utility.yul\":2077:2087   */\n      add\n        /* \"#utility.yul\":2072:2087   */\n      swap1\n      pop\n        /* \"#utility.yul\":2048:2161   */\n      jump(tag_138)\n    tag_140:\n        /* \"#utility.yul\":2195:2196   */\n      0x00\n        /* \"#utility.yul\":2186:2192   */\n      dup5\n        /* \"#utility.yul\":2181:2184   */\n      dup5\n        /* \"#utility.yul\":2177:2193   */\n      add\n        /* \"#utility.yul\":2170:2197   */\n      mstore\n        /* \"#utility.yul\":2019:2203   */\n      pop\n        /* \"#utility.yul\":1957:2203   */\n      pop\n      pop\n      pop\n      jump\t// out\n        /* \"#utility.yul\":2209:2311   */\n    tag_89:\n        /* \"#utility.yul\":2250:2256   */\n      0x00\n        /* \"#utility.yul\":2301:2303   */\n      0x1f\n        /* \"#utility.yul\":2297:2304   */\n      not\n        /* \"#utility.yul\":2292:2294   */\n      0x1f\n        /* \"#utility.yul\":2285:2290   */\n      dup4\n        /* \"#utility.yul\":2281:2295   */\n      add\n        /* \"#utility.yul\":2277:2305   */\n      and\n        /* \"#utility.yul\":2267:2305   */\n      swap1\n      pop\n        /* \"#utility.yul\":2209:2311   */\n      swap2\n      swap1\n      pop\n      jump\t// out\n        /* \"#utility.yul\":2317:2694   */\n    tag_90:\n        /* \"#utility.yul\":2405:2408   */\n      0x00\n        /* \"#utility.yul\":2433:2472   */\n      tag_143\n        /* \"#utility.yul\":2466:2471   */\n      dup3\n        /* \"#utility.yul\":2433:2472   */\n      tag_86\n      jump\t// in\n    tag_143:\n        /* \"#utility.yul\":2488:2559   */\n      tag_144\n        /* \"#utility.yul\":2552:2558   */\n      dup2\n        /* \"#utility.yul\":2547:2550   */\n      dup6\n        /* \"#utility.yul\":2488:2559   */\n      tag_87\n      jump\t// in\n    tag_144:\n        /* \"#utility.yul\":2481:2559   */\n      swap4\n      pop\n        /* \"#utility.yul\":2568:2633   */\n      tag_145\n        /* \"#utility.yul\":2626:2632   */\n      dup2\n        /* \"#utility.yul\":2621:2624   */\n      dup6\n        /* \"#utility.yul\":2614:2618   */\n      0x20\n        /* \"#utility.yul\":2607:2612   */\n      dup7\n        /* \"#utility.yul\":2603:2619   */\n      add\n        /* \"#utility.yul\":2568:2633   */\n      tag_88\n      jump\t// in\n    tag_145:\n        /* \"#utility.yul\":2658:2687   */\n      tag_146\n        /* \"#utility.yul\":2680:2686   */\n      dup2\n        /* \"#utility.yul\":2658:2687   */\n      tag_89\n      jump\t// in\n    tag_146:\n        /* \"#utility.yul\":2653:2656   */\n      dup5\n        /* \"#utility.yul\":2649:2688   */\n      add\n        /* \"#utility.yul\":2642:2688   */\n      swap2\n      pop\n        /* \"#utility.yul\":2409:2694   */\n      pop\n        /* \"#utility.yul\":2317:2694   */\n      swap3\n      swap2\n      pop\n      pop\n      jump\t// out\n        /* \"#utility.yul\":2700:3013   */\n    tag_14:\n        /* \"#utility.yul\":2813:2817   */\n      0x00\n        /* \"#utility.yul\":2851:2853   */\n      0x20\n        /* \"#utility.yul\":2840:2849   */\n      dup3\n        /* \"#utility.yul\":2836:2854   */\n      add\n        /* \"#utility.yul\":2828:2854   */\n      swap1\n      pop\n        /* \"#utility.yul\":2900:2909   */\n      dup2\n        /* \"#utility.yul\":2894:2898   */\n      dup2\n        /* \"#utility.yul\":2890:2910   */\n      sub\n        /* \"#utility.yul\":2886:2887   */\n      0x00\n        /* \"#utility.yul\":2875:2884   */\n      dup4\n        /* \"#utility.yul\":2871:2888   */\n      add\n        /* \"#utility.yul\":2864:2911   */\n      mstore\n        /* \"#utility.yul\":2928:3006   */\n      tag_148\n        /* \"#utility.yul\":3001:3005   */\n      dup2\n        /* \"#utility.yul\":2992:2998   */\n      dup5\n        /* \"#utility.yul\":2928:3006   */\n      tag_90\n      jump\t// in\n    tag_148:\n        /* \"#utility.yul\":2920:3006   */\n      swap1\n      pop\n        /* \"#utility.yul\":2700:3013   */\n      swap3\n      swap2\n      pop\n      pop\n      jump\t// out\n        /* \"#utility.yul\":3019:3533   */\n    tag_19:\n        /* \"#utility.yul\":3180:3184   */\n      0x00\n        /* \"#utility.yul\":3218:3220   */\n      0x40\n        /* \"#utility.yul\":3207:3216   */\n      dup3\n        /* \"#utility.yul\":3203:3221   */\n      add\n        /* \"#utility.yul\":3195:3221   */\n      swap1\n      pop\n        /* \"#utility.yul\":3267:3276   */\n      dup2\n        /* \"#utility.yul\":3261:3265   */\n      dup2\n        /* \"#utility.yul\":3257:3277   */\n      sub\n        /* \"#utility.yul\":3253:3254   */\n      0x00\n        /* \"#utility.yul\":3242:3251   */\n      dup4\n        /* \"#utility.yul\":3238:3255   */\n      add\n        /* \"#utility.yul\":3231:3278   */\n      mstore\n        /* \"#utility.yul\":3295:3373   */\n      tag_150\n        /* \"#utility.yul\":3368:3372   */\n      dup2\n        /* \"#utility.yul\":3359:3365   */\n      dup6\n        /* \"#utility.yul\":3295:3373   */\n      tag_90\n      jump\t// in\n    tag_150:\n        /* \"#utility.yul\":3287:3373   */\n      swap1\n      pop\n        /* \"#utility.yul\":3420:3429   */\n      dup2\n        /* \"#utility.yul\":3414:3418   */\n      dup2\n        /* \"#utility.yul\":3410:3430   */\n      sub\n        /* \"#utility.yul\":3405:3407   */\n      0x20\n        /* \"#utility.yul\":3394:3403   */\n      dup4\n        /* \"#utility.yul\":3390:3408   */\n      add\n        /* \"#utility.yul\":3383:3431   */\n      mstore\n        /* \"#utility.yul\":3448:3526   */\n      tag_151\n        /* \"#utility.yul\":3521:3525   */\n      dup2\n        /* \"#utility.yul\":3512:3518   */\n      dup5\n        /* \"#utility.yul\":3448:3526   */\n      tag_90\n      jump\t// in\n    tag_151:\n        /* \"#utility.yul\":3440:3526   */\n      swap1\n      pop\n        /* \"#utility.yul\":3019:3533   */\n      swap4\n      swap3\n      pop\n      pop\n      pop\n      jump\t// out\n        /* \"#utility.yul\":3539:3656   */\n    tag_91:\n        /* \"#utility.yul\":3648:3649   */\n      0x00\n        /* \"#utility.yul\":3645:3646   */\n      dup1\n        /* \"#utility.yul\":3638:3650   */\n      revert\n        /* \"#utility.yul\":3662:3779   */\n    tag_92:\n        /* \"#utility.yul\":3771:3772   */\n      0x00\n        /* \"#utility.yul\":3768:3769   */\n      dup1\n        /* \"#utility.yul\":3761:3773   */\n      revert\n        /* \"#utility.yul\":3785:3902   */\n    tag_93:\n        /* \"#utility.yul\":3894:3895   */\n      0x00\n        /* \"#utility.yul\":3891:3892   */\n      dup1\n        /* \"#utility.yul\":3884:3896   */\n      revert\n        /* \"#utility.yul\":3922:4475   */\n    tag_94:\n        /* \"#utility.yul\":3980:3988   */\n      0x00\n        /* \"#utility.yul\":3990:3996   */\n      dup1\n        /* \"#utility.yul\":4040:4043   */\n      dup4\n        /* \"#utility.yul\":4033:4037   */\n      0x1f\n        /* \"#utility.yul\":4025:4031   */\n      dup5\n        /* \"#utility.yul\":4021:4038   */\n      add\n        /* \"#utility.yul\":4017:4044   */\n      slt\n        /* \"#utility.yul\":4007:4129   */\n      tag_156\n      jumpi\n        /* \"#utility.yul\":4048:4127   */\n      tag_157\n      tag_91\n      jump\t// in\n    tag_157:\n        /* \"#utility.yul\":4007:4129   */\n    tag_156:\n        /* \"#utility.yul\":4161:4167   */\n      dup3\n        /* \"#utility.yul\":4148:4168   */\n      calldataload\n        /* \"#utility.yul\":4138:4168   */\n      swap1\n      pop\n        /* \"#utility.yul\":4191:4209   */\n      0xffffffffffffffff\n        /* \"#utility.yul\":4183:4189   */\n      dup2\n        /* \"#utility.yul\":4180:4210   */\n      gt\n        /* \"#utility.yul\":4177:4294   */\n      iszero\n      tag_158\n      jumpi\n        /* \"#utility.yul\":4213:4292   */\n      tag_159\n      tag_92\n      jump\t// in\n    tag_159:\n        /* \"#utility.yul\":4177:4294   */\n    tag_158:\n        /* \"#utility.yul\":4327:4331   */\n      0x20\n        /* \"#utility.yul\":4319:4325   */\n      dup4\n        /* \"#utility.yul\":4315:4332   */\n      add\n        /* \"#utility.yul\":4303:4332   */\n      swap2\n      pop\n        /* \"#utility.yul\":4381:4384   */\n      dup4\n        /* \"#utility.yul\":4373:4377   */\n      0x01\n        /* \"#utility.yul\":4365:4371   */\n      dup3\n        /* \"#utility.yul\":4361:4378   */\n      mul\n        /* \"#utility.yul\":4351:4359   */\n      dup4\n        /* \"#utility.yul\":4347:4379   */\n      add\n        /* \"#utility.yul\":4344:4385   */\n      gt\n        /* \"#utility.yul\":4341:4469   */\n      iszero\n      tag_160\n      jumpi\n        /* \"#utility.yul\":4388:4467   */\n      tag_161\n      tag_93\n      jump\t// in\n    tag_161:\n        /* \"#utility.yul\":4341:4469   */\n    tag_160:\n        /* \"#utility.yul\":3922:4475   */\n      swap3\n      pop\n      swap3\n      swap1\n      pop\n      jump\t// out\n        /* \"#utility.yul\":4481:5500   */\n    tag_22:\n        /* \"#utility.yul\":4582:4588   */\n      0x00\n        /* \"#utility.yul\":4590:4596   */\n      dup1\n        /* \"#utility.yul\":4598:4604   */\n      0x00\n        /* \"#utility.yul\":4606:4612   */\n      dup1\n        /* \"#utility.yul\":4614:4620   */\n      0x00\n        /* \"#utility.yul\":4663:4665   */\n      0x60\n        /* \"#utility.yul\":4651:4660   */\n      dup7\n        /* \"#utility.yul\":4642:4649   */\n      dup9\n        /* \"#utility.yul\":4638:4661   */\n      sub\n        /* \"#utility.yul\":4634:4666   */\n      slt\n        /* \"#utility.yul\":4631:4750   */\n      iszero\n      tag_163\n      jumpi\n        /* \"#utility.yul\":4669:4748   */\n      tag_164\n      tag_77\n      jump\t// in\n    tag_164:\n        /* \"#utility.yul\":4631:4750   */\n    tag_163:\n        /* \"#utility.yul\":4789:4790   */\n      0x00\n        /* \"#utility.yul\":4814:4867   */\n      tag_165\n        /* \"#utility.yul\":4859:4866   */\n      dup9\n        /* \"#utility.yul\":4850:4856   */\n      dup3\n        /* \"#utility.yul\":4839:4848   */\n      dup10\n        /* \"#utility.yul\":4835:4857   */\n      add\n        /* \"#utility.yul\":4814:4867   */\n      tag_85\n      jump\t// in\n    tag_165:\n        /* \"#utility.yul\":4804:4867   */\n      swap6\n      pop\n        /* \"#utility.yul\":4760:4877   */\n      pop\n        /* \"#utility.yul\":4944:4946   */\n      0x20\n        /* \"#utility.yul\":4933:4942   */\n      dup7\n        /* \"#utility.yul\":4929:4947   */\n      add\n        /* \"#utility.yul\":4916:4948   */\n      calldataload\n        /* \"#utility.yul\":4975:4993   */\n      0xffffffffffffffff\n        /* \"#utility.yul\":4967:4973   */\n      dup2\n        /* \"#utility.yul\":4964:4994   */\n      gt\n        /* \"#utility.yul\":4961:5078   */\n      iszero\n      tag_166\n      jumpi\n        /* \"#utility.yul\":4997:5076   */\n      tag_167\n      tag_78\n      jump\t// in\n    tag_167:\n        /* \"#utility.yul\":4961:5078   */\n    tag_166:\n        /* \"#utility.yul\":5110:5175   */\n      tag_168\n        /* \"#utility.yul\":5167:5174   */\n      dup9\n        /* \"#utility.yul\":5158:5164   */\n      dup3\n        /* \"#utility.yul\":5147:5156   */\n      dup10\n        /* \"#utility.yul\":5143:5165   */\n      add\n        /* \"#utility.yul\":5110:5175   */\n      tag_94\n      jump\t// in\n    tag_168:\n        /* \"#utility.yul\":5092:5175   */\n      swap5\n      pop\n      swap5\n      pop\n        /* \"#utility.yul\":4887:5185   */\n      pop\n        /* \"#utility.yul\":5252:5254   */\n      0x40\n        /* \"#utility.yul\":5241:5250   */\n      dup7\n        /* \"#utility.yul\":5237:5255   */\n      add\n        /* \"#utility.yul\":5224:5256   */\n      calldataload\n        /* \"#utility.yul\":5283:5301   */\n      0xffffffffffffffff\n        /* \"#utility.yul\":5275:5281   */\n      dup2\n        /* \"#utility.yul\":5272:5302   */\n      gt\n        /* \"#utility.yul\":5269:5386   */\n      iszero\n      tag_169\n      jumpi\n        /* \"#utility.yul\":5305:5384   */\n      tag_170\n      tag_78\n      jump\t// in\n    tag_170:\n        /* \"#utility.yul\":5269:5386   */\n    tag_169:\n        /* \"#utility.yul\":5418:5483   */\n      tag_171\n        /* \"#utility.yul\":5475:5482   */\n      dup9\n        /* \"#utility.yul\":5466:5472   */\n      dup3\n        /* \"#utility.yul\":5455:5464   */\n      dup10\n        /* \"#utility.yul\":5451:5473   */\n      add\n        /* \"#utility.yul\":5418:5483   */\n      tag_94\n      jump\t// in\n    tag_171:\n        /* \"#utility.yul\":5400:5483   */\n      swap3\n      pop\n      swap3\n      pop\n        /* \"#utility.yul\":5195:5493   */\n      pop\n        /* \"#utility.yul\":4481:5500   */\n      swap3\n      swap6\n      pop\n      swap3\n      swap6\n      swap1\n      swap4\n      pop\n      jump\t// out\n        /* \"#utility.yul\":5506:5835   */\n    tag_26:\n        /* \"#utility.yul\":5565:5571   */\n      0x00\n        /* \"#utility.yul\":5614:5616   */\n      0x20\n        /* \"#utility.yul\":5602:5611   */\n      dup3\n        /* \"#utility.yul\":5593:5600   */\n      dup5\n        /* \"#utility.yul\":5589:5612   */\n      sub\n        /* \"#utility.yul\":5585:5617   */\n      slt\n        /* \"#utility.yul\":5582:5701   */\n      iszero\n      tag_173\n      jumpi\n        /* \"#utility.yul\":5620:5699   */\n      tag_174\n      tag_77\n      jump\t// in\n    tag_174:\n        /* \"#utility.yul\":5582:5701   */\n    tag_173:\n        /* \"#utility.yul\":5740:5741   */\n      0x00\n        /* \"#utility.yul\":5765:5818   */\n      tag_175\n        /* \"#utility.yul\":5810:5817   */\n      dup5\n        /* \"#utility.yul\":5801:5807   */\n      dup3\n        /* \"#utility.yul\":5790:5799   */\n      dup6\n        /* \"#utility.yul\":5786:5808   */\n      add\n        /* \"#utility.yul\":5765:5818   */\n      tag_85\n      jump\t// in\n    tag_175:\n        /* \"#utility.yul\":5755:5818   */\n      swap2\n      pop\n        /* \"#utility.yul\":5711:5828   */\n      pop\n        /* \"#utility.yul\":5506:5835   */\n      swap3\n      swap2\n      pop\n      pop\n      jump\t// out\n        /* \"#utility.yul\":5841:6021   */\n    tag_95:\n        /* \"#utility.yul\":5889:5966   */\n      0x4e487b7100000000000000000000000000000000000000000000000000000000\n        /* \"#utility.yul\":5886:5887   */\n      0x00\n        /* \"#utility.yul\":5879:5967   */\n      mstore\n        /* \"#utility.yul\":5986:5990   */\n      0x22\n        /* \"#utility.yul\":5983:5984   */\n      0x04\n        /* \"#utility.yul\":5976:5991   */\n      mstore\n        /* \"#utility.yul\":6010:6014   */\n      0x24\n        /* \"#utility.yul\":6007:6008   */\n      0x00\n        /* \"#utility.yul\":6000:6015   */\n      revert\n        /* \"#utility.yul\":6027:6347   */\n    tag_38:\n        /* \"#utility.yul\":6071:6077   */\n      0x00\n        /* \"#utility.yul\":6108:6109   */\n      0x02\n        /* \"#utility.yul\":6102:6106   */\n      dup3\n        /* \"#utility.yul\":6098:6110   */\n      div\n        /* \"#utility.yul\":6088:6110   */\n      swap1\n      pop\n        /* \"#utility.yul\":6155:6156   */\n      0x01\n        /* \"#utility.yul\":6149:6153   */\n      dup3\n        /* \"#utility.yul\":6145:6157   */\n      and\n        /* \"#utility.yul\":6176:6194   */\n      dup1\n        /* \"#utility.yul\":6166:6247   */\n      tag_178\n      jumpi\n        /* \"#utility.yul\":6232:6236   */\n      0x7f\n        /* \"#utility.yul\":6224:6230   */\n      dup3\n        /* \"#utility.yul\":6220:6237   */\n      and\n        /* \"#utility.yul\":6210:6237   */\n      swap2\n      pop\n        /* \"#utility.yul\":6166:6247   */\n    tag_178:\n        /* \"#utility.yul\":6294:6296   */\n      0x20\n        /* \"#utility.yul\":6286:6292   */\n      dup3\n        /* \"#utility.yul\":6283:6297   */\n      lt\n        /* \"#utility.yul\":6263:6281   */\n      dup2\n        /* \"#utility.yul\":6260:6298   */\n      sub\n        /* \"#utility.yul\":6257:6341   */\n      tag_179\n      jumpi\n        /* \"#utility.yul\":6313:6331   */\n      tag_180\n      tag_95\n      jump\t// in\n    tag_180:\n        /* \"#utility.yul\":6257:6341   */\n    tag_179:\n        /* \"#utility.yul\":6078:6347   */\n      pop\n        /* \"#utility.yul\":6027:6347   */\n      swap2\n      swap1\n      pop\n      jump\t// out\n        /* \"#utility.yul\":6353:6533   */\n    tag_96:\n        /* \"#utility.yul\":6401:6478   */\n      0x4e487b7100000000000000000000000000000000000000000000000000000000\n        /* \"#utility.yul\":6398:6399   */\n      0x00\n        /* \"#utility.yul\":6391:6479   */\n      mstore\n        /* \"#utility.yul\":6498:6502   */\n      0x41\n        /* \"#utility.yul\":6495:6496   */\n      0x04\n        /* \"#utility.yul\":6488:6503   */\n      mstore\n        /* \"#utility.yul\":6522:6526   */\n      0x24\n        /* \"#utility.yul\":6519:6520   */\n      0x00\n        /* \"#utility.yul\":6512:6527   */\n      revert\n        /* \"#utility.yul\":6539:6680   */\n    tag_97:\n        /* \"#utility.yul\":6588:6592   */\n      0x00\n        /* \"#utility.yul\":6611:6614   */\n      dup2\n        /* \"#utility.yul\":6603:6614   */\n      swap1\n      pop\n        /* \"#utility.yul\":6634:6637   */\n      dup2\n        /* \"#utility.yul\":6631:6632   */\n      0x00\n        /* \"#utility.yul\":6624:6638   */\n      mstore\n        /* \"#utility.yul\":6668:6672   */\n      0x20\n        /* \"#utility.yul\":6665:6666   */\n      0x00\n        /* \"#utility.yul\":6655:6673   */\n      keccak256\n        /* \"#utility.yul\":6647:6673   */\n      swap1\n      pop\n        /* \"#utility.yul\":6539:6680   */\n      swap2\n      swap1\n      pop\n      jump\t// out\n        /* \"#utility.yul\":6686:6779   */\n    tag_98:\n        /* \"#utility.yul\":6723:6729   */\n      0x00\n        /* \"#utility.yul\":6770:6772   */\n      0x20\n        /* \"#utility.yul\":6765:6767   */\n      0x1f\n        /* \"#utility.yul\":6758:6763   */\n      dup4\n        /* \"#utility.yul\":6754:6768   */\n      add\n        /* \"#utility.yul\":6750:6773   */\n      div\n        /* \"#utility.yul\":6740:6773   */\n      swap1\n      pop\n        /* \"#utility.yul\":6686:6779   */\n      swap2\n      swap1\n      pop\n      jump\t// out\n        /* \"#utility.yul\":6785:6892   */\n    tag_99:\n        /* \"#utility.yul\":6829:6837   */\n      0x00\n        /* \"#utility.yul\":6879:6884   */\n      dup3\n        /* \"#utility.yul\":6873:6877   */\n      dup3\n        /* \"#utility.yul\":6869:6885   */\n      shl\n        /* \"#utility.yul\":6848:6885   */\n      swap1\n      pop\n        /* \"#utility.yul\":6785:6892   */\n      swap3\n      swap2\n      pop\n      pop\n      jump\t// out\n        /* \"#utility.yul\":6898:7291   */\n    tag_100:\n        /* \"#utility.yul\":6967:6973   */\n      0x00\n        /* \"#utility.yul\":7017:7018   */\n      0x08\n        /* \"#utility.yul\":7005:7015   */\n      dup4\n        /* \"#utility.yul\":7001:7019   */\n      mul\n        /* \"#utility.yul\":7040:7137   */\n      tag_186\n        /* \"#utility.yul\":7070:7136   */\n      0xffffffffffffffffffffffffffffffffffffffffffffffffffffffffffffffff\n        /* \"#utility.yul\":7059:7068   */\n      dup3\n        /* \"#utility.yul\":7040:7137   */\n      tag_99\n      jump\t// in\n    tag_186:\n        /* \"#utility.yul\":7158:7197   */\n      tag_187\n        /* \"#utility.yul\":7188:7196   */\n      dup7\n        /* \"#utility.yul\":7177:7186   */\n      dup4\n        /* \"#utility.yul\":7158:7197   */\n      tag_99\n      jump\t// in\n    tag_187:\n        /* \"#utility.yul\":7146:7197   */\n      swap6\n      pop\n        /* \"#utility.yul\":7230:7234   */\n      dup1\n        /* \"#utility.yul\":7226:7235   */\n      not\n        /* \"#utility.yul\":7219:7224   */\n      dup5\n        /* \"#utility.yul\":7215:7236   */\n      and\n        /* \"#utility.yul\":7206:7236   */\n      swap4\n      pop\n        /* \"#utility.yul\":7279:7283   */\n      dup1\n        /* \"#utility.yul\":7269:7277   */\n      dup7\n        /* \"#utility.yul\":7265:7284   */\n      and\n        /* \"#utility.yul\":7258:7263   */\n      dup5\n        /* \"#utility.yul\":7255:7285   */\n      or\n        /* \"#utility.yul\":7245:7285   */\n      swap3\n      pop\n        /* \"#utility.yul\":6974:7291   */\n      pop\n      pop\n        /* \"#utility.yul\":6898:7291   */\n      swap4\n      swap3\n      pop\n      pop\n      pop\n      jump\t// out\n        /* \"#utility.yul\":7297:7357   */\n    tag_101:\n        /* \"#utility.yul\":7325:7328   */\n      0x00\n        /* \"#utility.yul\":7346:7351   */\n      dup2\n        /* \"#utility.yul\":7339:7351   */\n      swap1\n      pop\n        /* \"#utility.yul\":7297:7357   */\n      swap2\n      swap1\n      pop\n      jump\t// out\n        /* \"#utility.yul\":7363:7505   */\n    tag_102:\n        /* \"#utility.yul\":7413:7422   */\n      0x00\n        /* \"#utility.yul\":7446:7499   */\n      tag_190\n        /* \"#utility.yul\":7464:7498   */\n      tag_191\n        /* \"#utility.yul\":7473:7497   */\n      tag_192\n        /* \"#utility.yul\":7491:7496   */\n      dup5\n        /* \"#utility.yul\":7473:7497   */\n      tag_83\n      jump\t// in\n    tag_192:\n        /* \"#utility.yul\":7464:7498   */\n      tag_101\n      jump\t// in\n    tag_191:\n        /* \"#utility.yul\":7446:7499   */\n      tag_83\n      jump\t// in\n    tag_190:\n        /* \"#utility.yul\":7433:7499   */\n      swap1\n      pop\n        /* \"#utility.yul\":7363:7505   */\n      swap2\n      swap1\n      pop\n      jump\t// out\n        /* \"#utility.yul\":7511:7586   */\n    tag_103:\n        /* \"#utility.yul\":7554:7557   */\n      0x00\n        /* \"#utility.yul\":7575:7580   */\n      dup2\n        /* \"#utility.yul\":7568:7580   */\n      swap1\n      pop\n        /* \"#utility.yul\":7511:7586   */\n      swap2\n      swap1\n      pop\n      jump\t// out\n        /* \"#utility.yul\":7592:7861   */\n    tag_104:\n        /* \"#utility.yul\":7702:7741   */\n      tag_195\n        /* \"#utility.yul\":7733:7740   */\n      dup4\n        /* \"#utility.yul\":7702:7741   */\n      tag_102\n      jump\t// in\n    tag_195:\n        /* \"#utility.yul\":7763:7854   */\n      tag_196\n        /* \"#utility.yul\":7812:7853   */\n      tag_197\n        /* \"#utility.yul\":7836:7852   */\n      dup3\n        /* \"#utility.yul\":7812:7853   */\n      tag_103\n      jump\t// in\n    tag_197:\n        /* \"#utility.yul\":7804:7810   */\n      dup5\n        /* \"#utility.yul\":7797:7801   */\n      dup5\n        /* \"#utility.yul\":7791:7802   */\n      sload\n        /* \"#utility.yul\":7763:7854   */\n      tag_100\n      jump\t// in\n    tag_196:\n        /* \"#utility.yul\":7757:7761   */\n      dup3\n        /* \"#utility.yul\":7750:7855   */\n      sstore\n        /* \"#utility.yul\":7668:7861   */\n      pop\n        /* \"#utility.yul\":7592:7861   */\n      pop\n      pop\n      pop\n      jump\t// out\n        /* \"#utility.yul\":7867:7940   */\n    tag_105:\n        /* \"#utility.yul\":7912:7915   */\n      0x00\n        /* \"#utility.yul\":7867:7940   */\n      swap1\n      jump\t// out\n        /* \"#utility.yul\":7946:8135   */\n    tag_106:\n        /* \"#utility.yul\":8023:8055   */\n      tag_200\n      tag_105\n      jump\t// in\n    tag_200:\n        /* \"#utility.yul\":8064:8129   */\n      tag_201\n        /* \"#utility.yul\":8122:8128   */\n      dup2\n        /* \"#utility.yul\":8114:8120   */\n      dup5\n        /* \"#utility.yul\":8108:8112   */\n      dup5\n        /* \"#utility.yul\":8064:8129   */\n      tag_104\n      jump\t// in\n    tag_201:\n        /* \"#utility.yul\":7999:8135   */\n      pop\n        /* \"#utility.yul\":7946:8135   */\n      pop\n      pop\n      jump\t// out\n        /* \"#utility.yul\":8141:8327   */\n    tag_107:\n        /* \"#utility.yul\":8201:8321   */\n    tag_203:\n        /* \"#utility.yul\":8218:8221   */\n      dup2\n        /* \"#utility.yul\":8211:8216   */\n      dup2\n        /* \"#utility.yul\":8208:8222   */\n      lt\n        /* \"#utility.yul\":8201:8321   */\n      iszero\n      tag_205\n      jumpi\n        /* \"#utility.yul\":8272:8311   */\n      tag_206\n        /* \"#utility.yul\":8309:8310   */\n      0x00\n        /* \"#utility.yul\":8302:8307   */\n      dup3\n        /* \"#utility.yul\":8272:8311   */\n      tag_106\n      jump\t// in\n    tag_206:\n        /* \"#utility.yul\":8245:8246   */\n      0x01\n        /* \"#utility.yul\":8238:8243   */\n      dup2\n        /* \"#utility.yul\":8234:8247   */\n      add\n        /* \"#utility.yul\":8225:8247   */\n      swap1\n      pop\n        /* \"#utility.yul\":8201:8321   */\n      jump(tag_203)\n    tag_205:\n        /* \"#utility.yul\":8141:8327   */\n      pop\n      pop\n      jump\t// out\n        /* \"#utility.yul\":8333:8876   */\n    tag_108:\n        /* \"#utility.yul\":8434:8436   */\n      0x1f\n        /* \"#utility.yul\":8429:8432   */\n      dup3\n        /* \"#utility.yul\":8426:8437   */\n      gt\n        /* \"#utility.yul\":8423:8869   */\n      iszero\n      tag_208\n      jumpi\n        /* \"#utility.yul\":8468:8506   */\n      tag_209\n        /* \"#utility.yul\":8500:8505   */\n      dup2\n        /* \"#utility.yul\":8468:8506   */\n      tag_97\n      jump\t// in\n    tag_209:\n        /* \"#utility.yul\":8552:8581   */\n      tag_210\n        /* \"#utility.yul\":8570:8580   */\n      dup5\n        /* \"#utility.yul\":8552:8581   */\n      tag_98\n      jump\t// in\n    tag_210:\n        /* \"#utility.yul\":8542:8550   */\n      dup2\n        /* \"#utility.yul\":8538:8582   */\n      add\n        /* \"#utility.yul\":8735:8737   */\n      0x20\n        /* \"#utility.yul\":8723:8733   */\n      dup6\n        /* \"#utility.yul\":8720:8738   */\n      lt\n        /* \"#utility.yul\":8717:8766   */\n      iszero\n      tag_211\n      jumpi\n        /* \"#utility.yul\":8756:8764   */\n      dup2\n        /* \"#utility.yul\":8741:8764   */\n      swap1\n      pop\n        /* \"#utility.yul\":8717:8766   */\n    tag_211:\n        /* \"#utility.yul\":8779:8859   */\n      tag_212\n        /* \"#utility.yul\":8835:8857   */\n      tag_213\n        /* \"#utility.yul\":8853:8856   */\n      dup6\n        /* \"#utility.yul\":8835:8857   */\n      tag_98\n      jump\t// in\n    tag_213:\n        /* \"#utility.yul\":8825:8833   */\n      dup4\n        /* \"#utility.yul\":8821:8858   */\n      add\n        /* \"#utility.yul\":8808:8819   */\n      dup3\n        /* \"#utility.yul\":8779:8859   */\n      tag_107\n      jump\t// in\n    tag_212:\n        /* \"#utility.yul\":8438:8869   */\n      pop\n      pop\n        /* \"#utility.yul\":8423:8869   */\n    tag_208:\n        /* \"#utility.yul\":8333:8876   */\n      pop\n      pop\n      pop\n      jump\t// out\n        /* \"#utility.yul\":8882:8999   */\n    tag_109:\n        /* \"#utility.yul\":8936:8944   */\n      0x00\n        /* \"#utility.yul\":8986:8991   */\n      dup3\n        /* \"#utility.yul\":8980:8984   */\n      dup3\n        /* \"#utility.yul\":8976:8992   */\n      shr\n        /* \"#utility.yul\":8955:8992   */\n      swap1\n      pop\n        /* \"#utility.yul\":8882:8999   */\n      swap3\n      swap2\n      pop\n      pop\n      jump\t// out\n        /* \"#utility.yul\":9005:9174   */\n    tag_110:\n        /* \"#utility.yul\":9049:9055   */\n      0x00\n        /* \"#utility.yul\":9082:9133   */\n      tag_216\n        /* \"#utility.yul\":9130:9131   */\n      0x00\n        /* \"#utility.yul\":9126:9132   */\n      not\n        /* \"#utility.yul\":9118:9123   */\n      dup5\n        /* \"#utility.yul\":9115:9116   */\n      0x08\n        /* \"#utility.yul\":9111:9124   */\n      mul\n        /* \"#utility.yul\":9082:9133   */\n      tag_109\n      jump\t// in\n    tag_216:\n        /* \"#utility.yul\":9078:9134   */\n      not\n        /* \"#utility.yul\":9163:9167   */\n      dup1\n        /* \"#utility.yul\":9157:9161   */\n      dup4\n        /* \"#utility.yul\":9153:9168   */\n      and\n        /* \"#utility.yul\":9143:9168   */\n      swap2\n      pop\n        /* \"#utility.yul\":9056:9174   */\n      pop\n        /* \"#utility.yul\":9005:9174   */\n      swap3\n      swap2\n      pop\n      pop\n      jump\t// out\n        /* \"#utility.yul\":9179:9474   */\n    tag_111:\n        /* \"#utility.yul\":9255:9259   */\n      0x00\n        /* \"#utility.yul\":9401:9430   */\n      tag_218\n        /* \"#utility.yul\":9426:9429   */\n      dup4\n        /* \"#utility.yul\":9420:9424   */\n      dup4\n        /* \"#utility.yul\":9401:9430   */\n      tag_110\n      jump\t// in\n    tag_218:\n        /* \"#utility.yul\":9393:9430   */\n      swap2\n      pop\n        /* \"#utility.yul\":9463:9466   */\n      dup3\n        /* \"#utility.yul\":9460:9461   */\n      0x02\n        /* \"#utility.yul\":9456:9467   */\n      mul\n        /* \"#utility.yul\":9450:9454   */\n      dup3\n        /* \"#utility.yul\":9447:9468   */\n      or\n        /* \"#utility.yul\":9439:9468   */\n      swap1\n      pop\n        /* \"#utility.yul\":9179:9474   */\n      swap3\n      swap2\n      pop\n      pop\n      jump\t// out\n        /* \"#utility.yul\":9479:10874   */\n    tag_55:\n        /* \"#utility.yul\":9596:9633   */\n      tag_220\n        /* \"#utility.yul\":9629:9632   */\n      dup3\n        /* \"#utility.yul\":9596:9633   */\n      tag_86\n      jump\t// in\n    tag_220:\n        /* \"#utility.yul\":9698:9716   */\n      0xffffffffffffffff\n        /* \"#utility.yul\":9690:9696   */\n      dup2\n        /* \"#utility.yul\":9687:9717   */\n      gt\n        /* \"#utility.yul\":9684:9740   */\n      iszero\n      tag_221\n      jumpi\n        /* \"#utility.yul\":9720:9738   */\n      tag_222\n      tag_96\n      jump\t// in\n    tag_222:\n        /* \"#utility.yul\":9684:9740   */\n    tag_221:\n        /* \"#utility.yul\":9764:9802   */\n      tag_223\n        /* \"#utility.yul\":9796:9800   */\n      dup3\n        /* \"#utility.yul\":9790:9801   */\n      sload\n        /* \"#utility.yul\":9764:9802   */\n      tag_38\n      jump\t// in\n    tag_223:\n        /* \"#utility.yul\":9849:9916   */\n      tag_224\n        /* \"#utility.yul\":9909:9915   */\n      dup3\n        /* \"#utility.yul\":9901:9907   */\n      dup3\n        /* \"#utility.yul\":9895:9899   */\n      dup6\n        /* \"#utility.yul\":9849:9916   */\n      tag_108\n      jump\t// in\n    tag_224:\n        /* \"#utility.yul\":9943:9944   */\n      0x00\n        /* \"#utility.yul\":9967:9971   */\n      0x20\n        /* \"#utility.yul\":9954:9971   */\n      swap1\n      pop\n        /* \"#utility.yul\":9999:10001   */\n      0x1f\n        /* \"#utility.yul\":9991:9997   */\n      dup4\n        /* \"#utility.yul\":9988:10002   */\n      gt\n        /* \"#utility.yul\":10016:10017   */\n      0x01\n        /* \"#utility.yul\":10011:10629   */\n      dup2\n      eq\n      tag_226\n      jumpi\n        /* \"#utility.yul\":10673:10674   */\n      0x00\n        /* \"#utility.yul\":10690:10696   */\n      dup5\n        /* \"#utility.yul\":10687:10764   */\n      iszero\n      tag_227\n      jumpi\n        /* \"#utility.yul\":10739:10748   */\n      dup3\n        /* \"#utility.yul\":10734:10737   */\n      dup8\n        /* \"#utility.yul\":10730:10749   */\n      add\n        /* \"#utility.yul\":10724:10750   */\n      mload\n        /* \"#utility.yul\":10715:10750   */\n      swap1\n      pop\n        /* \"#utility.yul\":10687:10764   */\n    tag_227:\n        /* \"#utility.yul\":10790:10857   */\n      tag_228\n        /* \"#utility.yul\":10850:10856   */\n      dup6\n        /* \"#utility.yul\":10843:10848   */\n      dup3\n        /* \"#utility.yul\":10790:10857   */\n      tag_111\n      jump\t// in\n    tag_228:\n        /* \"#utility.yul\":10784:10788   */\n      dup7\n        /* \"#utility.yul\":10777:10858   */\n      sstore\n        /* \"#utility.yul\":10646:10868   */\n      pop\n        /* \"#utility.yul\":9981:10868   */\n      jump(tag_225)\n        /* \"#utility.yul\":10011:10629   */\n    tag_226:\n        /* \"#utility.yul\":10063:10067   */\n      0x1f\n        /* \"#utility.yul\":10059:10068   */\n      not\n        /* \"#utility.yul\":10051:10057   */\n      dup5\n        /* \"#utility.yul\":10047:10069   */\n      and\n        /* \"#utility.yul\":10097:10134   */\n      tag_229\n        /* \"#utility.yul\":10129:10133   */\n      dup7\n        /* \"#utility.yul\":10097:10134   */\n      tag_97\n      jump\t// in\n    tag_229:\n        /* \"#utility.yul\":10156:10157   */\n      0x00\n        /* \"#utility.yul\":10170:10378   */\n    tag_230:\n        /* \"#utility.yul\":10184:10191   */\n      dup3\n        /* \"#utility.yul\":10181:10182   */\n      dup2\n        /* \"#utility.yul\":10178:10192   */\n      lt\n        /* \"#utility.yul\":10170:10378   */\n      iszero\n      tag_232\n      jumpi\n        /* \"#utility.yul\":10263:10272   */\n      dup5\n        /* \"#utility.yul\":10258:10261   */\n      dup10\n        /* \"#utility.yul\":10254:10273   */\n      add\n        /* \"#utility.yul\":10248:10274   */\n      mload\n        /* \"#utility.yul\":10240:10246   */\n      dup3\n        /* \"#utility.yul\":10233:10275   */\n      sstore\n        /* \"#utility.yul\":10314:10315   */\n      0x01\n        /* \"#utility.yul\":10306:10312   */\n      dup3\n        /* \"#utility.yul\":10302:10316   */\n      add\n        /* \"#utility.yul\":10292:10316   */\n      swap2\n      pop\n        /* \"#utility.yul\":10361:10363   */\n      0x20\n        /* \"#utility.yul\":10350:10359   */\n      dup6\n        /* \"#utility.yul\":10346:10364   */\n      add\n        /* \"#utility.yul\":10333:10364   */\n      swap5\n      pop\n        /* \"#utility.yul\":10207:10211   */\n      0x20\n        /* \"#utility.yul\":10204:10205   */\n      dup2\n        /* \"#utility.yul\":10200:10212   */\n      add\n        /* \"#utility.yul\":10195:10212   */\n      swap1\n      pop\n        /* \"#utility.yul\":10170:10378   */\n      jump(tag_230)\n    tag_232:\n        /* \"#utility.yul\":10406:10412   */\n      dup7\n        /* \"#utility.yul\":10397:10404   */\n      dup4\n        /* \"#utility.yul\":10394:10413   */\n      lt\n        /* \"#utility.yul\":10391:10570   */\n      iszero\n      tag_233\n      jumpi\n        /* \"#utility.yul\":10464:10473   */\n      dup5\n        /* \"#utility.yul\":10459:10462   */\n      dup10\n        /* \"#utility.yul\":10455:10474   */\n      add\n        /* \"#utility.yul\":10449:10475   */\n      mload\n        /* \"#utility.yul\":10507:10555   */\n      tag_234\n        /* \"#utility.yul\":10549:10553   */\n      0x1f\n        /* \"#utility.yul\":10541:10547   */\n      dup10\n        /* \"#utility.yul\":10537:10554   */\n      and\n        /* \"#utility.yul\":10526:10535   */\n      dup3\n        /* \"#utility.yul\":10507:10555   */\n      tag_110\n      jump\t// in\n    tag_234:\n        /* \"#utility.yul\":10499:10505   */\n      dup4\n        /* \"#utility.yul\":10492:10556   */\n      sstore\n        /* \"#utility.yul\":10414:10570   */\n      pop\n        /* \"#utility.yul\":10391:10570   */\n    tag_233:\n        /* \"#utility.yul\":10616:10617   */\n      0x01\n        /* \"#utility.yul\":10612:10613   */\n      0x02\n        /* \"#utility.yul\":10604:10610   */\n      dup9\n        /* \"#utility.yul\":10600:10614   */\n      mul\n        /* \"#utility.yul\":10596:10618   */\n      add\n        /* \"#utility.yul\":10590:10594   */\n      dup9\n        /* \"#utility.yul\":10583:10619   */\n      sstore\n        /* \"#utility.yul\":10018:10629   */\n      pop\n      pop\n      pop\n        /* \"#utility.yul\":9981:10868   */\n    tag_225:\n      pop\n        /* \"#utility.yul\":9571:10874   */\n      pop\n      pop\n      pop\n        /* \"#utility.yul\":9479:10874   */\n      pop\n      pop\n      jump\t// out\n\n    auxdata: 0xa2646970667358221220953146199e02a8389f7d04744c0d7163906af00454d9a0afb29ab5812aebc84764736f6c63430008110033\n}\n",
				"bytecode": {
					"linkReferences": {},
					"object": "608060405234801561001057600080fd5b50610d9c806100206000396000f3fe608060405234801561001057600080fd5b50600436106100625760003560e01c80630f08580f1461006757806311f729901461009757806387eb54fe146100c8578063b97da67b146100e4578063d87ec41714610114578063f40f48c914610145575b600080fd5b610081600480360381019061007c9190610809565b610161565b60405161008e91906108d9565b60405180910390f35b6100b160048036038101906100ac9190610809565b610247565b6040516100bf9291906108fb565b60405180910390f35b6100e260048036038101906100dd9190610997565b610388565b005b6100fe60048036038101906100f99190610a2c565b6104ab565b60405161010b91906108d9565b60405180910390f35b61012e60048036038101906101299190610a2c565b610552565b60405161013c9291906108fb565b60405180910390f35b61015f600480360381019061015a9190610997565b610686565b005b6060600160008473ffffffffffffffffffffffffffffffffffffffff1673ffffffffffffffffffffffffffffffffffffffff168152602001908152602001600020600083815260200190815260200160002060000180546101c190610a88565b80601f01602080910402602001604051908101604052809291908181526020018280546101ed90610a88565b801561023a5780601f1061020f5761010080835404028352916020019161023a565b820191906000526020600020905b81548152906001019060200180831161021d57829003601f168201915b5050505050905092915050565b60016020528160005260406000206020528060005260406000206000915091505080600001805461027790610a88565b80601f01602080910402602001604051908101604052809291908181526020018280546102a390610a88565b80156102f05780601f106102c5576101008083540402835291602001916102f0565b820191906000526020600020905b8154815290600101906020018083116102d357829003601f168201915b50505050509080600101805461030590610a88565b80601f016020809104026020016040519081016040528092919081815260200182805461033190610a88565b801561037e5780601f106103535761010080835404028352916020019161037e565b820191906000526020600020905b81548152906001019060200180831161036157829003601f168201915b5050505050905082565b604051806040016040528085858080601f016020809104026020016040519081016040528093929190818152602001838380828437600081840152601f19601f82011690508083019250505050505050815260200183838080601f016020809104026020016040519081016040528093929190818152602001838380828437600081840152601f19601f82011690508083019250505050505050815250600160003373ffffffffffffffffffffffffffffffffffffffff1673ffffffffffffffffffffffffffffffffffffffff1681526020019081526020016000206000878152602001908152602001600020600082015181600001908161048a9190610c94565b5060208201518160010190816104a09190610c94565b509050505050505050565b606060008083815260200190815260200160002060000180546104cd90610a88565b80601f01602080910402602001604051908101604052809291908181526020018280546104f990610a88565b80156105465780601f1061051b57610100808354040283529160200191610546565b820191906000526020600020905b81548152906001019060200180831161052957829003601f168201915b50505050509050919050565b600060205280600052604060002060009150905080600001805461057590610a88565b80601f01602080910402602001604051908101604052809291908181526020018280546105a190610a88565b80156105ee5780601f106105c3576101008083540402835291602001916105ee565b820191906000526020600020905b8154815290600101906020018083116105d157829003601f168201915b50505050509080600101805461060390610a88565b80601f016020809104026020016040519081016040528092919081815260200182805461062f90610a88565b801561067c5780601f106106515761010080835404028352916020019161067c565b820191906000526020600020905b81548152906001019060200180831161065f57829003601f168201915b5050505050905082565b604051806040016040528085858080601f016020809104026020016040519081016040528093929190818152602001838380828437600081840152601f19601f82011690508083019250505050505050815260200183838080601f016020809104026020016040519081016040528093929190818152602001838380828437600081840152601f19601f82011690508083019250505050505050815250600080878152602001908152602001600020600082015181600001908161074a9190610c94565b5060208201518160010190816107609190610c94565b509050505050505050565b600080fd5b600080fd5b600073ffffffffffffffffffffffffffffffffffffffff82169050919050565b60006107a082610775565b9050919050565b6107b081610795565b81146107bb57600080fd5b50565b6000813590506107cd816107a7565b92915050565b6000819050919050565b6107e6816107d3565b81146107f157600080fd5b50565b600081359050610803816107dd565b92915050565b600080604083850312156108205761081f61076b565b5b600061082e858286016107be565b925050602061083f858286016107f4565b9150509250929050565b600081519050919050565b600082825260208201905092915050565b60005b83811015610883578082015181840152602081019050610868565b60008484015250505050565b6000601f19601f8301169050919050565b60006108ab82610849565b6108b58185610854565b93506108c5818560208601610865565b6108ce8161088f565b840191505092915050565b600060208201905081810360008301526108f381846108a0565b905092915050565b6000604082019050818103600083015261091581856108a0565b9050818103602083015261092981846108a0565b90509392505050565b600080fd5b600080fd5b600080fd5b60008083601f84011261095757610956610932565b5b8235905067ffffffffffffffff81111561097457610973610937565b5b6020830191508360018202830111156109905761098f61093c565b5b9250929050565b6000806000806000606086880312156109b3576109b261076b565b5b60006109c1888289016107f4565b955050602086013567ffffffffffffffff8111156109e2576109e1610770565b5b6109ee88828901610941565b9450945050604086013567ffffffffffffffff811115610a1157610a10610770565b5b610a1d88828901610941565b92509250509295509295909350565b600060208284031215610a4257610a4161076b565b5b6000610a50848285016107f4565b91505092915050565b7f4e487b7100000000000000000000000000000000000000000000000000000000600052602260045260246000fd5b60006002820490506001821680610aa057607f821691505b602082108103610ab357610ab2610a59565b5b50919050565b7f4e487b7100000000000000000000000000000000000000000000000000000000600052604160045260246000fd5b60008190508160005260206000209050919050565b60006020601f8301049050919050565b600082821b905092915050565b600060088302610b4a7fffffffffffffffffffffffffffffffffffffffffffffffffffffffffffffffff82610b0d565b610b548683610b0d565b95508019841693508086168417925050509392505050565b6000819050919050565b6000610b91610b8c610b87846107d3565b610b6c565b6107d3565b9050919050565b6000819050919050565b610bab83610b76565b610bbf610bb782610b98565b848454610b1a565b825550505050565b600090565b610bd4610bc7565b610bdf818484610ba2565b505050565b5b81811015610c0357610bf8600082610bcc565b600181019050610be5565b5050565b601f821115610c4857610c1981610ae8565b610c2284610afd565b81016020851015610c31578190505b610c45610c3d85610afd565b830182610be4565b50505b505050565b600082821c905092915050565b6000610c6b60001984600802610c4d565b1980831691505092915050565b6000610c848383610c5a565b9150826002028217905092915050565b610c9d82610849565b67ffffffffffffffff811115610cb657610cb5610ab9565b5b610cc08254610a88565b610ccb828285610c07565b600060209050601f831160018114610cfe5760008415610cec578287015190505b610cf68582610c78565b865550610d5e565b601f198416610d0c86610ae8565b60005b82811015610d3457848901518255600182019150602085019450602081019050610d0f565b86831015610d515784890151610d4d601f891682610c5a565b8355505b6001600288020188555050505b50505050505056fea2646970667358221220953146199e02a8389f7d04744c0d7163906af00454d9a0afb29ab5812aebc84764736f6c63430008110033",
					"opcodes": "PUSH1 0x80 PUSH1 0x40 MSTORE CALLVALUE DUP1 ISZERO PUSH2 0x10 JUMPI PUSH1 0x0 DUP1 REVERT JUMPDEST POP PUSH2 0xD9C DUP1 PUSH2 0x20 PUSH1 0x0 CODECOPY PUSH1 0x0 RETURN INVALID PUSH1 0x80 PUSH1 0x40 MSTORE CALLVALUE DUP1 ISZERO PUSH2 0x10 JUMPI PUSH1 0x0 DUP1 REVERT JUMPDEST POP PUSH1 0x4 CALLDATASIZE LT PUSH2 0x62 JUMPI PUSH1 0x0 CALLDATALOAD PUSH1 0xE0 SHR DUP1 PUSH4 0xF08580F EQ PUSH2 0x67 JUMPI DUP1 PUSH4 0x11F72990 EQ PUSH2 0x97 JUMPI DUP1 PUSH4 0x87EB54FE EQ PUSH2 0xC8 JUMPI DUP1 PUSH4 0xB97DA67B EQ PUSH2 0xE4 JUMPI DUP1 PUSH4 0xD87EC417 EQ PUSH2 0x114 JUMPI DUP1 PUSH4 0xF40F48C9 EQ PUSH2 0x145 JUMPI JUMPDEST PUSH1 0x0 DUP1 REVERT JUMPDEST PUSH2 0x81 PUSH1 0x4 DUP1 CALLDATASIZE SUB DUP2 ADD SWAP1 PUSH2 0x7C SWAP2 SWAP1 PUSH2 0x809 JUMP JUMPDEST PUSH2 0x161 JUMP JUMPDEST PUSH1 0x40 MLOAD PUSH2 0x8E SWAP2 SWAP1 PUSH2 0x8D9 JUMP JUMPDEST PUSH1 0x40 MLOAD DUP1 SWAP2 SUB SWAP1 RETURN JUMPDEST PUSH2 0xB1 PUSH1 0x4 DUP1 CALLDATASIZE SUB DUP2 ADD SWAP1 PUSH2 0xAC SWAP2 SWAP1 PUSH2 0x809 JUMP JUMPDEST PUSH2 0x247 JUMP JUMPDEST PUSH1 0x40 MLOAD PUSH2 0xBF SWAP3 SWAP2 SWAP1 PUSH2 0x8FB JUMP JUMPDEST PUSH1 0x40 MLOAD DUP1 SWAP2 SUB SWAP1 RETURN JUMPDEST PUSH2 0xE2 PUSH1 0x4 DUP1 CALLDATASIZE SUB DUP2 ADD SWAP1 PUSH2 0xDD SWAP2 SWAP1 PUSH2 0x997 JUMP JUMPDEST PUSH2 0x388 JUMP JUMPDEST STOP JUMPDEST PUSH2 0xFE PUSH1 0x4 DUP1 CALLDATASIZE SUB DUP2 ADD SWAP1 PUSH2 0xF9 SWAP2 SWAP1 PUSH2 0xA2C JUMP JUMPDEST PUSH2 0x4AB JUMP JUMPDEST PUSH1 0x40 MLOAD PUSH2 0x10B SWAP2 SWAP1 PUSH2 0x8D9 JUMP JUMPDEST PUSH1 0x40 MLOAD DUP1 SWAP2 SUB SWAP1 RETURN JUMPDEST PUSH2 0x12E PUSH1 0x4 DUP1 CALLDATASIZE SUB DUP2 ADD SWAP1 PUSH2 0x129 SWAP2 SWAP1 PUSH2 0xA2C JUMP JUMPDEST PUSH2 0x552 JUMP JUMPDEST PUSH1 0x40 MLOAD PUSH2 0x13C SWAP3 SWAP2 SWAP1 PUSH2 0x8FB JUMP JUMPDEST PUSH1 0x40 MLOAD DUP1 SWAP2 SUB SWAP1 RETURN JUMPDEST PUSH2 0x15F PUSH1 0x4 DUP1 CALLDATASIZE SUB DUP2 ADD SWAP1 PUSH2 0x15A SWAP2 SWAP1 PUSH2 0x997 JUMP JUMPDEST PUSH2 0x686 JUMP JUMPDEST STOP JUMPDEST PUSH1 0x60 PUSH1 0x1 PUSH1 0x0 DUP5 PUSH20 0xFFFFFFFFFFFFFFFFFFFFFFFFFFFFFFFFFFFFFFFF AND PUSH20 0xFFFFFFFFFFFFFFFFFFFFFFFFFFFFFFFFFFFFFFFF AND DUP2 MSTORE PUSH1 0x20 ADD SWAP1 DUP2 MSTORE PUSH1 0x20 ADD PUSH1 0x0 KECCAK256 PUSH1 0x0 DUP4 DUP2 MSTORE PUSH1 0x20 ADD SWAP1 DUP2 MSTORE PUSH1 0x20 ADD PUSH1 0x0 KECCAK256 PUSH1 0x0 ADD DUP1 SLOAD PUSH2 0x1C1 SWAP1 PUSH2 0xA88 JUMP JUMPDEST DUP1 PUSH1 0x1F ADD PUSH1 0x20 DUP1 SWAP2 DIV MUL PUSH1 0x20 ADD PUSH1 0x40 MLOAD SWAP1 DUP2 ADD PUSH1 0x40 MSTORE DUP1 SWAP3 SWAP2 SWAP1 DUP2 DUP2 MSTORE PUSH1 0x20 ADD DUP3 DUP1 SLOAD PUSH2 0x1ED SWAP1 PUSH2 0xA88 JUMP JUMPDEST DUP1 ISZERO PUSH2 0x23A JUMPI DUP1 PUSH1 0x1F LT PUSH2 0x20F JUMPI PUSH2 0x100 DUP1 DUP4 SLOAD DIV MUL DUP4 MSTORE SWAP2 PUSH1 0x20 ADD SWAP2 PUSH2 0x23A JUMP JUMPDEST DUP3 ADD SWAP2 SWAP1 PUSH1 0x0 MSTORE PUSH1 0x20 PUSH1 0x0 KECCAK256 SWAP1 JUMPDEST DUP2 SLOAD DUP2 MSTORE SWAP1 PUSH1 0x1 ADD SWAP1 PUSH1 0x20 ADD DUP1 DUP4 GT PUSH2 0x21D JUMPI DUP3 SWAP1 SUB PUSH1 0x1F AND DUP3 ADD SWAP2 JUMPDEST POP POP POP POP POP SWAP1 POP SWAP3 SWAP2 POP POP JUMP JUMPDEST PUSH1 0x1 PUSH1 0x20 MSTORE DUP2 PUSH1 0x0 MSTORE PUSH1 0x40 PUSH1 0x0 KECCAK256 PUSH1 0x20 MSTORE DUP1 PUSH1 0x0 MSTORE PUSH1 0x40 PUSH1 0x0 KECCAK256 PUSH1 0x0 SWAP2 POP SWAP2 POP POP DUP1 PUSH1 0x0 ADD DUP1 SLOAD PUSH2 0x277 SWAP1 PUSH2 0xA88 JUMP JUMPDEST DUP1 PUSH1 0x1F ADD PUSH1 0x20 DUP1 SWAP2 DIV MUL PUSH1 0x20 ADD PUSH1 0x40 MLOAD SWAP1 DUP2 ADD PUSH1 0x40 MSTORE DUP1 SWAP3 SWAP2 SWAP1 DUP2 DUP2 MSTORE PUSH1 0x20 ADD DUP3 DUP1 SLOAD PUSH2 0x2A3 SWAP1 PUSH2 0xA88 JUMP JUMPDEST DUP1 ISZERO PUSH2 0x2F0 JUMPI DUP1 PUSH1 0x1F LT PUSH2 0x2C5 JUMPI PUSH2 0x100 DUP1 DUP4 SLOAD DIV MUL DUP4 MSTORE SWAP2 PUSH1 0x20 ADD SWAP2 PUSH2 0x2F0 JUMP JUMPDEST DUP3 ADD SWAP2 SWAP1 PUSH1 0x0 MSTORE PUSH1 0x20 PUSH1 0x0 KECCAK256 SWAP1 JUMPDEST DUP2 SLOAD DUP2 MSTORE SWAP1 PUSH1 0x1 ADD SWAP1 PUSH1 0x20 ADD DUP1 DUP4 GT PUSH2 0x2D3 JUMPI DUP3 SWAP1 SUB PUSH1 0x1F AND DUP3 ADD SWAP2 JUMPDEST POP POP POP POP POP SWAP1 DUP1 PUSH1 0x1 ADD DUP1 SLOAD PUSH2 0x305 SWAP1 PUSH2 0xA88 JUMP JUMPDEST DUP1 PUSH1 0x1F ADD PUSH1 0x20 DUP1 SWAP2 DIV MUL PUSH1 0x20 ADD PUSH1 0x40 MLOAD SWAP1 DUP2 ADD PUSH1 0x40 MSTORE DUP1 SWAP3 SWAP2 SWAP1 DUP2 DUP2 MSTORE PUSH1 0x20 ADD DUP3 DUP1 SLOAD PUSH2 0x331 SWAP1 PUSH2 0xA88 JUMP JUMPDEST DUP1 ISZERO PUSH2 0x37E JUMPI DUP1 PUSH1 0x1F LT PUSH2 0x353 JUMPI PUSH2 0x100 DUP1 DUP4 SLOAD DIV MUL DUP4 MSTORE SWAP2 PUSH1 0x20 ADD SWAP2 PUSH2 0x37E JUMP JUMPDEST DUP3 ADD SWAP2 SWAP1 PUSH1 0x0 MSTORE PUSH1 0x20 PUSH1 0x0 KECCAK256 SWAP1 JUMPDEST DUP2 SLOAD DUP2 MSTORE SWAP1 PUSH1 0x1 ADD SWAP1 PUSH1 0x20 ADD DUP1 DUP4 GT PUSH2 0x361 JUMPI DUP3 SWAP1 SUB PUSH1 0x1F AND DUP3 ADD SWAP2 JUMPDEST POP POP POP POP POP SWAP1 POP DUP3 JUMP JUMPDEST PUSH1 0x40 MLOAD DUP1 PUSH1 0x40 ADD PUSH1 0x40 MSTORE DUP1 DUP6 DUP6 DUP1 DUP1 PUSH1 0x1F ADD PUSH1 0x20 DUP1 SWAP2 DIV MUL PUSH1 0x20 ADD PUSH1 0x40 MLOAD SWAP1 DUP2 ADD PUSH1 0x40 MSTORE DUP1 SWAP4 SWAP3 SWAP2 SWAP1 DUP2 DUP2 MSTORE PUSH1 0x20 ADD DUP4 DUP4 DUP1 DUP3 DUP5 CALLDATACOPY PUSH1 0x0 DUP2 DUP5 ADD MSTORE PUSH1 0x1F NOT PUSH1 0x1F DUP3 ADD AND SWAP1 POP DUP1 DUP4 ADD SWAP3 POP POP POP POP POP POP POP DUP2 MSTORE PUSH1 0x20 ADD DUP4 DUP4 DUP1 DUP1 PUSH1 0x1F ADD PUSH1 0x20 DUP1 SWAP2 DIV MUL PUSH1 0x20 ADD PUSH1 0x40 MLOAD SWAP1 DUP2 ADD PUSH1 0x40 MSTORE DUP1 SWAP4 SWAP3 SWAP2 SWAP1 DUP2 DUP2 MSTORE PUSH1 0x20 ADD DUP4 DUP4 DUP1 DUP3 DUP5 CALLDATACOPY PUSH1 0x0 DUP2 DUP5 ADD MSTORE PUSH1 0x1F NOT PUSH1 0x1F DUP3 ADD AND SWAP1 POP DUP1 DUP4 ADD SWAP3 POP POP POP POP POP POP POP DUP2 MSTORE POP PUSH1 0x1 PUSH1 0x0 CALLER PUSH20 0xFFFFFFFFFFFFFFFFFFFFFFFFFFFFFFFFFFFFFFFF AND PUSH20 0xFFFFFFFFFFFFFFFFFFFFFFFFFFFFFFFFFFFFFFFF AND DUP2 MSTORE PUSH1 0x20 ADD SWAP1 DUP2 MSTORE PUSH1 0x20 ADD PUSH1 0x0 KECCAK256 PUSH1 0x0 DUP8 DUP2 MSTORE PUSH1 0x20 ADD SWAP1 DUP2 MSTORE PUSH1 0x20 ADD PUSH1 0x0 KECCAK256 PUSH1 0x0 DUP3 ADD MLOAD DUP2 PUSH1 0x0 ADD SWAP1 DUP2 PUSH2 0x48A SWAP2 SWAP1 PUSH2 0xC94 JUMP JUMPDEST POP PUSH1 0x20 DUP3 ADD MLOAD DUP2 PUSH1 0x1 ADD SWAP1 DUP2 PUSH2 0x4A0 SWAP2 SWAP1 PUSH2 0xC94 JUMP JUMPDEST POP SWAP1 POP POP POP POP POP POP POP JUMP JUMPDEST PUSH1 0x60 PUSH1 0x0 DUP1 DUP4 DUP2 MSTORE PUSH1 0x20 ADD SWAP1 DUP2 MSTORE PUSH1 0x20 ADD PUSH1 0x0 KECCAK256 PUSH1 0x0 ADD DUP1 SLOAD PUSH2 0x4CD SWAP1 PUSH2 0xA88 JUMP JUMPDEST DUP1 PUSH1 0x1F ADD PUSH1 0x20 DUP1 SWAP2 DIV MUL PUSH1 0x20 ADD PUSH1 0x40 MLOAD SWAP1 DUP2 ADD PUSH1 0x40 MSTORE DUP1 SWAP3 SWAP2 SWAP1 DUP2 DUP2 MSTORE PUSH1 0x20 ADD DUP3 DUP1 SLOAD PUSH2 0x4F9 SWAP1 PUSH2 0xA88 JUMP JUMPDEST DUP1 ISZERO PUSH2 0x546 JUMPI DUP1 PUSH1 0x1F LT PUSH2 0x51B JUMPI PUSH2 0x100 DUP1 DUP4 SLOAD DIV MUL DUP4 MSTORE SWAP2 PUSH1 0x20 ADD SWAP2 PUSH2 0x546 JUMP JUMPDEST DUP3 ADD SWAP2 SWAP1 PUSH1 0x0 MSTORE PUSH1 0x20 PUSH1 0x0 KECCAK256 SWAP1 JUMPDEST DUP2 SLOAD DUP2 MSTORE SWAP1 PUSH1 0x1 ADD SWAP1 PUSH1 0x20 ADD DUP1 DUP4 GT PUSH2 0x529 JUMPI DUP3 SWAP1 SUB PUSH1 0x1F AND DUP3 ADD SWAP2 JUMPDEST POP POP POP POP POP SWAP1 POP SWAP2 SWAP1 POP JUMP JUMPDEST PUSH1 0x0 PUSH1 0x20 MSTORE DUP1 PUSH1 0x0 MSTORE PUSH1 0x40 PUSH1 0x0 KECCAK256 PUSH1 0x0 SWAP2 POP SWAP1 POP DUP1 PUSH1 0x0 ADD DUP1 SLOAD PUSH2 0x575 SWAP1 PUSH2 0xA88 JUMP JUMPDEST DUP1 PUSH1 0x1F ADD PUSH1 0x20 DUP1 SWAP2 DIV MUL PUSH1 0x20 ADD PUSH1 0x40 MLOAD SWAP1 DUP2 ADD PUSH1 0x40 MSTORE DUP1 SWAP3 SWAP2 SWAP1 DUP2 DUP2 MSTORE PUSH1 0x20 ADD DUP3 DUP1 SLOAD PUSH2 0x5A1 SWAP1 PUSH2 0xA88 JUMP JUMPDEST DUP1 ISZERO PUSH2 0x5EE JUMPI DUP1 PUSH1 0x1F LT PUSH2 0x5C3 JUMPI PUSH2 0x100 DUP1 DUP4 SLOAD DIV MUL DUP4 MSTORE SWAP2 PUSH1 0x20 ADD SWAP2 PUSH2 0x5EE JUMP JUMPDEST DUP3 ADD SWAP2 SWAP1 PUSH1 0x0 MSTORE PUSH1 0x20 PUSH1 0x0 KECCAK256 SWAP1 JUMPDEST DUP2 SLOAD DUP2 MSTORE SWAP1 PUSH1 0x1 ADD SWAP1 PUSH1 0x20 ADD DUP1 DUP4 GT PUSH2 0x5D1 JUMPI DUP3 SWAP1 SUB PUSH1 0x1F AND DUP3 ADD SWAP2 JUMPDEST POP POP POP POP POP SWAP1 DUP1 PUSH1 0x1 ADD DUP1 SLOAD PUSH2 0x603 SWAP1 PUSH2 0xA88 JUMP JUMPDEST DUP1 PUSH1 0x1F ADD PUSH1 0x20 DUP1 SWAP2 DIV MUL PUSH1 0x20 ADD PUSH1 0x40 MLOAD SWAP1 DUP2 ADD PUSH1 0x40 MSTORE DUP1 SWAP3 SWAP2 SWAP1 DUP2 DUP2 MSTORE PUSH1 0x20 ADD DUP3 DUP1 SLOAD PUSH2 0x62F SWAP1 PUSH2 0xA88 JUMP JUMPDEST DUP1 ISZERO PUSH2 0x67C JUMPI DUP1 PUSH1 0x1F LT PUSH2 0x651 JUMPI PUSH2 0x100 DUP1 DUP4 SLOAD DIV MUL DUP4 MSTORE SWAP2 PUSH1 0x20 ADD SWAP2 PUSH2 0x67C JUMP JUMPDEST DUP3 ADD SWAP2 SWAP1 PUSH1 0x0 MSTORE PUSH1 0x20 PUSH1 0x0 KECCAK256 SWAP1 JUMPDEST DUP2 SLOAD DUP2 MSTORE SWAP1 PUSH1 0x1 ADD SWAP1 PUSH1 0x20 ADD DUP1 DUP4 GT PUSH2 0x65F JUMPI DUP3 SWAP1 SUB PUSH1 0x1F AND DUP3 ADD SWAP2 JUMPDEST POP POP POP POP POP SWAP1 POP DUP3 JUMP JUMPDEST PUSH1 0x40 MLOAD DUP1 PUSH1 0x40 ADD PUSH1 0x40 MSTORE DUP1 DUP6 DUP6 DUP1 DUP1 PUSH1 0x1F ADD PUSH1 0x20 DUP1 SWAP2 DIV MUL PUSH1 0x20 ADD PUSH1 0x40 MLOAD SWAP1 DUP2 ADD PUSH1 0x40 MSTORE DUP1 SWAP4 SWAP3 SWAP2 SWAP1 DUP2 DUP2 MSTORE PUSH1 0x20 ADD DUP4 DUP4 DUP1 DUP3 DUP5 CALLDATACOPY PUSH1 0x0 DUP2 DUP5 ADD MSTORE PUSH1 0x1F NOT PUSH1 0x1F DUP3 ADD AND SWAP1 POP DUP1 DUP4 ADD SWAP3 POP POP POP POP POP POP POP DUP2 MSTORE PUSH1 0x20 ADD DUP4 DUP4 DUP1 DUP1 PUSH1 0x1F ADD PUSH1 0x20 DUP1 SWAP2 DIV MUL PUSH1 0x20 ADD PUSH1 0x40 MLOAD SWAP1 DUP2 ADD PUSH1 0x40 MSTORE DUP1 SWAP4 SWAP3 SWAP2 SWAP1 DUP2 DUP2 MSTORE PUSH1 0x20 ADD DUP4 DUP4 DUP1 DUP3 DUP5 CALLDATACOPY PUSH1 0x0 DUP2 DUP5 ADD MSTORE PUSH1 0x1F NOT PUSH1 0x1F DUP3 ADD AND SWAP1 POP DUP1 DUP4 ADD SWAP3 POP POP POP POP POP POP POP DUP2 MSTORE POP PUSH1 0x0 DUP1 DUP8 DUP2 MSTORE PUSH1 0x20 ADD SWAP1 DUP2 MSTORE PUSH1 0x20 ADD PUSH1 0x0 KECCAK256 PUSH1 0x0 DUP3 ADD MLOAD DUP2 PUSH1 0x0 ADD SWAP1 DUP2 PUSH2 0x74A SWAP2 SWAP1 PUSH2 0xC94 JUMP JUMPDEST POP PUSH1 0x20 DUP3 ADD MLOAD DUP2 PUSH1 0x1 ADD SWAP1 DUP2 PUSH2 0x760 SWAP2 SWAP1 PUSH2 0xC94 JUMP JUMPDEST POP SWAP1 POP POP POP POP POP POP POP JUMP JUMPDEST PUSH1 0x0 DUP1 REVERT JUMPDEST PUSH1 0x0 DUP1 REVERT JUMPDEST PUSH1 0x0 PUSH20 0xFFFFFFFFFFFFFFFFFFFFFFFFFFFFFFFFFFFFFFFF DUP3 AND SWAP1 POP SWAP2 SWAP1 POP JUMP JUMPDEST PUSH1 0x0 PUSH2 0x7A0 DUP3 PUSH2 0x775 JUMP JUMPDEST SWAP1 POP SWAP2 SWAP1 POP JUMP JUMPDEST PUSH2 0x7B0 DUP2 PUSH2 0x795 JUMP JUMPDEST DUP2 EQ PUSH2 0x7BB JUMPI PUSH1 0x0 DUP1 REVERT JUMPDEST POP JUMP JUMPDEST PUSH1 0x0 DUP2 CALLDATALOAD SWAP1 POP PUSH2 0x7CD DUP2 PUSH2 0x7A7 JUMP JUMPDEST SWAP3 SWAP2 POP POP JUMP JUMPDEST PUSH1 0x0 DUP2 SWAP1 POP SWAP2 SWAP1 POP JUMP JUMPDEST PUSH2 0x7E6 DUP2 PUSH2 0x7D3 JUMP JUMPDEST DUP2 EQ PUSH2 0x7F1 JUMPI PUSH1 0x0 DUP1 REVERT JUMPDEST POP JUMP JUMPDEST PUSH1 0x0 DUP2 CALLDATALOAD SWAP1 POP PUSH2 0x803 DUP2 PUSH2 0x7DD JUMP JUMPDEST SWAP3 SWAP2 POP POP JUMP JUMPDEST PUSH1 0x0 DUP1 PUSH1 0x40 DUP4 DUP6 SUB SLT ISZERO PUSH2 0x820 JUMPI PUSH2 0x81F PUSH2 0x76B JUMP JUMPDEST JUMPDEST PUSH1 0x0 PUSH2 0x82E DUP6 DUP3 DUP7 ADD PUSH2 0x7BE JUMP JUMPDEST SWAP3 POP POP PUSH1 0x20 PUSH2 0x83F DUP6 DUP3 DUP7 ADD PUSH2 0x7F4 JUMP JUMPDEST SWAP2 POP POP SWAP3 POP SWAP3 SWAP1 POP JUMP JUMPDEST PUSH1 0x0 DUP2 MLOAD SWAP1 POP SWAP2 SWAP1 POP JUMP JUMPDEST PUSH1 0x0 DUP3 DUP3 MSTORE PUSH1 0x20 DUP3 ADD SWAP1 POP SWAP3 SWAP2 POP POP JUMP JUMPDEST PUSH1 0x0 JUMPDEST DUP4 DUP2 LT ISZERO PUSH2 0x883 JUMPI DUP1 DUP3 ADD MLOAD DUP2 DUP5 ADD MSTORE PUSH1 0x20 DUP2 ADD SWAP1 POP PUSH2 0x868 JUMP JUMPDEST PUSH1 0x0 DUP5 DUP5 ADD MSTORE POP POP POP POP JUMP JUMPDEST PUSH1 0x0 PUSH1 0x1F NOT PUSH1 0x1F DUP4 ADD AND SWAP1 POP SWAP2 SWAP1 POP JUMP JUMPDEST PUSH1 0x0 PUSH2 0x8AB DUP3 PUSH2 0x849 JUMP JUMPDEST PUSH2 0x8B5 DUP2 DUP6 PUSH2 0x854 JUMP JUMPDEST SWAP4 POP PUSH2 0x8C5 DUP2 DUP6 PUSH1 0x20 DUP7 ADD PUSH2 0x865 JUMP JUMPDEST PUSH2 0x8CE DUP2 PUSH2 0x88F JUMP JUMPDEST DUP5 ADD SWAP2 POP POP SWAP3 SWAP2 POP POP JUMP JUMPDEST PUSH1 0x0 PUSH1 0x20 DUP3 ADD SWAP1 POP DUP2 DUP2 SUB PUSH1 0x0 DUP4 ADD MSTORE PUSH2 0x8F3 DUP2 DUP5 PUSH2 0x8A0 JUMP JUMPDEST SWAP1 POP SWAP3 SWAP2 POP POP JUMP JUMPDEST PUSH1 0x0 PUSH1 0x40 DUP3 ADD SWAP1 POP DUP2 DUP2 SUB PUSH1 0x0 DUP4 ADD MSTORE PUSH2 0x915 DUP2 DUP6 PUSH2 0x8A0 JUMP JUMPDEST SWAP1 POP DUP2 DUP2 SUB PUSH1 0x20 DUP4 ADD MSTORE PUSH2 0x929 DUP2 DUP5 PUSH2 0x8A0 JUMP JUMPDEST SWAP1 POP SWAP4 SWAP3 POP POP POP JUMP JUMPDEST PUSH1 0x0 DUP1 REVERT JUMPDEST PUSH1 0x0 DUP1 REVERT JUMPDEST PUSH1 0x0 DUP1 REVERT JUMPDEST PUSH1 0x0 DUP1 DUP4 PUSH1 0x1F DUP5 ADD SLT PUSH2 0x957 JUMPI PUSH2 0x956 PUSH2 0x932 JUMP JUMPDEST JUMPDEST DUP3 CALLDATALOAD SWAP1 POP PUSH8 0xFFFFFFFFFFFFFFFF DUP2 GT ISZERO PUSH2 0x974 JUMPI PUSH2 0x973 PUSH2 0x937 JUMP JUMPDEST JUMPDEST PUSH1 0x20 DUP4 ADD SWAP2 POP DUP4 PUSH1 0x1 DUP3 MUL DUP4 ADD GT ISZERO PUSH2 0x990 JUMPI PUSH2 0x98F PUSH2 0x93C JUMP JUMPDEST JUMPDEST SWAP3 POP SWAP3 SWAP1 POP JUMP JUMPDEST PUSH1 0x0 DUP1 PUSH1 0x0 DUP1 PUSH1 0x0 PUSH1 0x60 DUP7 DUP9 SUB SLT ISZERO PUSH2 0x9B3 JUMPI PUSH2 0x9B2 PUSH2 0x76B JUMP JUMPDEST JUMPDEST PUSH1 0x0 PUSH2 0x9C1 DUP9 DUP3 DUP10 ADD PUSH2 0x7F4 JUMP JUMPDEST SWAP6 POP POP PUSH1 0x20 DUP7 ADD CALLDATALOAD PUSH8 0xFFFFFFFFFFFFFFFF DUP2 GT ISZERO PUSH2 0x9E2 JUMPI PUSH2 0x9E1 PUSH2 0x770 JUMP JUMPDEST JUMPDEST PUSH2 0x9EE DUP9 DUP3 DUP10 ADD PUSH2 0x941 JUMP JUMPDEST SWAP5 POP SWAP5 POP POP PUSH1 0x40 DUP7 ADD CALLDATALOAD PUSH8 0xFFFFFFFFFFFFFFFF DUP2 GT ISZERO PUSH2 0xA11 JUMPI PUSH2 0xA10 PUSH2 0x770 JUMP JUMPDEST JUMPDEST PUSH2 0xA1D DUP9 DUP3 DUP10 ADD PUSH2 0x941 JUMP JUMPDEST SWAP3 POP SWAP3 POP POP SWAP3 SWAP6 POP SWAP3 SWAP6 SWAP1 SWAP4 POP JUMP JUMPDEST PUSH1 0x0 PUSH1 0x20 DUP3 DUP5 SUB SLT ISZERO PUSH2 0xA42 JUMPI PUSH2 0xA41 PUSH2 0x76B JUMP JUMPDEST JUMPDEST PUSH1 0x0 PUSH2 0xA50 DUP5 DUP3 DUP6 ADD PUSH2 0x7F4 JUMP JUMPDEST SWAP2 POP POP SWAP3 SWAP2 POP POP JUMP JUMPDEST PUSH32 0x4E487B7100000000000000000000000000000000000000000000000000000000 PUSH1 0x0 MSTORE PUSH1 0x22 PUSH1 0x4 MSTORE PUSH1 0x24 PUSH1 0x0 REVERT JUMPDEST PUSH1 0x0 PUSH1 0x2 DUP3 DIV SWAP1 POP PUSH1 0x1 DUP3 AND DUP1 PUSH2 0xAA0 JUMPI PUSH1 0x7F DUP3 AND SWAP2 POP JUMPDEST PUSH1 0x20 DUP3 LT DUP2 SUB PUSH2 0xAB3 JUMPI PUSH2 0xAB2 PUSH2 0xA59 JUMP JUMPDEST JUMPDEST POP SWAP2 SWAP1 POP JUMP JUMPDEST PUSH32 0x4E487B7100000000000000000000000000000000000000000000000000000000 PUSH1 0x0 MSTORE PUSH1 0x41 PUSH1 0x4 MSTORE PUSH1 0x24 PUSH1 0x0 REVERT JUMPDEST PUSH1 0x0 DUP2 SWAP1 POP DUP2 PUSH1 0x0 MSTORE PUSH1 0x20 PUSH1 0x0 KECCAK256 SWAP1 POP SWAP2 SWAP1 POP JUMP JUMPDEST PUSH1 0x0 PUSH1 0x20 PUSH1 0x1F DUP4 ADD DIV SWAP1 POP SWAP2 SWAP1 POP JUMP JUMPDEST PUSH1 0x0 DUP3 DUP3 SHL SWAP1 POP SWAP3 SWAP2 POP POP JUMP JUMPDEST PUSH1 0x0 PUSH1 0x8 DUP4 MUL PUSH2 0xB4A PUSH32 0xFFFFFFFFFFFFFFFFFFFFFFFFFFFFFFFFFFFFFFFFFFFFFFFFFFFFFFFFFFFFFFFF DUP3 PUSH2 0xB0D JUMP JUMPDEST PUSH2 0xB54 DUP7 DUP4 PUSH2 0xB0D JUMP JUMPDEST SWAP6 POP DUP1 NOT DUP5 AND SWAP4 POP DUP1 DUP7 AND DUP5 OR SWAP3 POP POP POP SWAP4 SWAP3 POP POP POP JUMP JUMPDEST PUSH1 0x0 DUP2 SWAP1 POP SWAP2 SWAP1 POP JUMP JUMPDEST PUSH1 0x0 PUSH2 0xB91 PUSH2 0xB8C PUSH2 0xB87 DUP5 PUSH2 0x7D3 JUMP JUMPDEST PUSH2 0xB6C JUMP JUMPDEST PUSH2 0x7D3 JUMP JUMPDEST SWAP1 POP SWAP2 SWAP1 POP JUMP JUMPDEST PUSH1 0x0 DUP2 SWAP1 POP SWAP2 SWAP1 POP JUMP JUMPDEST PUSH2 0xBAB DUP4 PUSH2 0xB76 JUMP JUMPDEST PUSH2 0xBBF PUSH2 0xBB7 DUP3 PUSH2 0xB98 JUMP JUMPDEST DUP5 DUP5 SLOAD PUSH2 0xB1A JUMP JUMPDEST DUP3 SSTORE POP POP POP POP JUMP JUMPDEST PUSH1 0x0 SWAP1 JUMP JUMPDEST PUSH2 0xBD4 PUSH2 0xBC7 JUMP JUMPDEST PUSH2 0xBDF DUP2 DUP5 DUP5 PUSH2 0xBA2 JUMP JUMPDEST POP POP POP JUMP JUMPDEST JUMPDEST DUP2 DUP2 LT ISZERO PUSH2 0xC03 JUMPI PUSH2 0xBF8 PUSH1 0x0 DUP3 PUSH2 0xBCC JUMP JUMPDEST PUSH1 0x1 DUP2 ADD SWAP1 POP PUSH2 0xBE5 JUMP JUMPDEST POP POP JUMP JUMPDEST PUSH1 0x1F DUP3 GT ISZERO PUSH2 0xC48 JUMPI PUSH2 0xC19 DUP2 PUSH2 0xAE8 JUMP JUMPDEST PUSH2 0xC22 DUP5 PUSH2 0xAFD JUMP JUMPDEST DUP2 ADD PUSH1 0x20 DUP6 LT ISZERO PUSH2 0xC31 JUMPI DUP2 SWAP1 POP JUMPDEST PUSH2 0xC45 PUSH2 0xC3D DUP6 PUSH2 0xAFD JUMP JUMPDEST DUP4 ADD DUP3 PUSH2 0xBE4 JUMP JUMPDEST POP POP JUMPDEST POP POP POP JUMP JUMPDEST PUSH1 0x0 DUP3 DUP3 SHR SWAP1 POP SWAP3 SWAP2 POP POP JUMP JUMPDEST PUSH1 0x0 PUSH2 0xC6B PUSH1 0x0 NOT DUP5 PUSH1 0x8 MUL PUSH2 0xC4D JUMP JUMPDEST NOT DUP1 DUP4 AND SWAP2 POP POP SWAP3 SWAP2 POP POP JUMP JUMPDEST PUSH1 0x0 PUSH2 0xC84 DUP4 DUP4 PUSH2 0xC5A JUMP JUMPDEST SWAP2 POP DUP3 PUSH1 0x2 MUL DUP3 OR SWAP1 POP SWAP3 SWAP2 POP POP JUMP JUMPDEST PUSH2 0xC9D DUP3 PUSH2 0x849 JUMP JUMPDEST PUSH8 0xFFFFFFFFFFFFFFFF DUP2 GT ISZERO PUSH2 0xCB6 JUMPI PUSH2 0xCB5 PUSH2 0xAB9 JUMP JUMPDEST JUMPDEST PUSH2 0xCC0 DUP3 SLOAD PUSH2 0xA88 JUMP JUMPDEST PUSH2 0xCCB DUP3 DUP3 DUP6 PUSH2 0xC07 JUMP JUMPDEST PUSH1 0x0 PUSH1 0x20 SWAP1 POP PUSH1 0x1F DUP4 GT PUSH1 0x1 DUP2 EQ PUSH2 0xCFE JUMPI PUSH1 0x0 DUP5 ISZERO PUSH2 0xCEC JUMPI DUP3 DUP8 ADD MLOAD SWAP1 POP JUMPDEST PUSH2 0xCF6 DUP6 DUP3 PUSH2 0xC78 JUMP JUMPDEST DUP7 SSTORE POP PUSH2 0xD5E JUMP JUMPDEST PUSH1 0x1F NOT DUP5 AND PUSH2 0xD0C DUP7 PUSH2 0xAE8 JUMP JUMPDEST PUSH1 0x0 JUMPDEST DUP3 DUP2 LT ISZERO PUSH2 0xD34 JUMPI DUP5 DUP10 ADD MLOAD DUP3 SSTORE PUSH1 0x1 DUP3 ADD SWAP2 POP PUSH1 0x20 DUP6 ADD SWAP5 POP PUSH1 0x20 DUP2 ADD SWAP1 POP PUSH2 0xD0F JUMP JUMPDEST DUP7 DUP4 LT ISZERO PUSH2 0xD51 JUMPI DUP5 DUP10 ADD MLOAD PUSH2 0xD4D PUSH1 0x1F DUP10 AND DUP3 PUSH2 0xC5A JUMP JUMPDEST DUP4 SSTORE POP JUMPDEST PUSH1 0x1 PUSH1 0x2 DUP9 MUL ADD DUP9 SSTORE POP POP POP JUMPDEST POP POP POP POP POP POP JUMP INVALID LOG2 PUSH5 0x6970667358 0x22 SLT KECCAK256 SWAP6 BALANCE CHAINID NOT SWAP15 MUL 0xA8 CODESIZE SWAP16 PUSH30 0x4744C0D7163906AF00454D9A0AFB29AB5812AEBC84764736F6C63430008 GT STOP CALLER "
				},
				"gasEstimates": {
					"creation": {
						"codeDepositCost": "696800",
						"executionCost": "728",
						"totalCost": "697528"
					},
					"external": {
						"addMovie(uint256,string,string)": "infinite",
						"addMyMovie(uint256,string,string)": "infinite",
						"getMovieTitleById(uint256)": "infinite",
						"getMymovieTitleByAddressId(address,uint256)": "infinite",
						"movie(uint256)": "infinite",
						"myMovie(address,uint256)": "infinite"
					}
				},
				"methodIdentifiers": {
					"addMovie(uint256,string,string)": "f40f48c9",
					"addMyMovie(uint256,string,string)": "87eb54fe",
					"getMovieTitleById(uint256)": "b97da67b",
					"getMymovieTitleByAddressId(address,uint256)": "0f08580f",
					"movie(uint256)": "d87ec417",
					"myMovie(address,uint256)": "11f72990"
				}
			},
			"storageLayout": {
				"storage": [
					{
						"astId": 53,
						"contract": "solidity_learn/Mapping.sol:practice",
						"label": "movie",
						"offset": 0,
						"slot": "0",
						"type": "t_mapping(t_uint256,t_struct(Movie)48_storage)"
					},
					{
						"astId": 60,
						"contract": "solidity_learn/Mapping.sol:practice",
						"label": "myMovie",
						"offset": 0,
						"slot": "1",
						"type": "t_mapping(t_address,t_mapping(t_uint256,t_struct(Movie)48_storage))"
					}
				],
				"types": {
					"t_address": {
						"encoding": "inplace",
						"label": "address",
						"numberOfBytes": "20"
					},
					"t_mapping(t_address,t_mapping(t_uint256,t_struct(Movie)48_storage))": {
						"encoding": "mapping",
						"key": "t_address",
						"label": "mapping(address => mapping(uint256 => struct practice.Movie))",
						"numberOfBytes": "32",
						"value": "t_mapping(t_uint256,t_struct(Movie)48_storage)"
					},
					"t_mapping(t_uint256,t_struct(Movie)48_storage)": {
						"encoding": "mapping",
						"key": "t_uint256",
						"label": "mapping(uint256 => struct practice.Movie)",
						"numberOfBytes": "32",
						"value": "t_struct(Movie)48_storage"
					},
					"t_string_storage": {
						"encoding": "bytes",
						"label": "string",
						"numberOfBytes": "32"
					},
					"t_struct(Movie)48_storage": {
						"encoding": "inplace",
						"label": "struct practice.Movie",
						"members": [
							{
								"astId": 45,
								"contract": "solidity_learn/Mapping.sol:practice",
								"label": "title",
								"offset": 0,
								"slot": "0",
								"type": "t_string_storage"
							},
							{
								"astId": 47,
								"contract": "solidity_learn/Mapping.sol:practice",
								"label": "director",
								"offset": 0,
								"slot": "1",
								"type": "t_string_storage"
							}
						],
						"numberOfBytes": "64"
					},
					"t_uint256": {
						"encoding": "inplace",
						"label": "uint256",
						"numberOfBytes": "32"
					}
				}
			},
			"userdoc": {
				"kind": "user",
				"methods": {},
				"version": 1
			}
		}
	}
}