{
	"solidity_learn/cryptographic-function.sol": {
		"GenerateRandomNumber": {
			"abi": [
				{
					"inputs": [
						{
							"internalType": "uint256",
							"name": "range",
							"type": "uint256"
						}
					],
					"name": "randMod",
					"outputs": [
						{
							"internalType": "uint256",
							"name": "",
							"type": "uint256"
						}
					],
					"stateMutability": "view",
					"type": "function"
				}
			],
			"devdoc": {
				"kind": "dev",
				"methods": {},
				"version": 1
			},
			"evm": {
				"assembly": "    /* \"solidity_learn/cryptographic-function.sol\":70:286  contract GenerateRandomNumber {... */\n  mstore(0x40, 0x80)\n  callvalue\n  dup1\n  iszero\n  tag_1\n  jumpi\n  0x00\n  dup1\n  revert\ntag_1:\n  pop\n  dataSize(sub_0)\n  dup1\n  dataOffset(sub_0)\n  0x00\n  codecopy\n  0x00\n  return\nstop\n\nsub_0: assembly {\n        /* \"solidity_learn/cryptographic-function.sol\":70:286  contract GenerateRandomNumber {... */\n      mstore(0x40, 0x80)\n      callvalue\n      dup1\n      iszero\n      tag_1\n      jumpi\n      0x00\n      dup1\n      revert\n    tag_1:\n      pop\n      jumpi(tag_2, lt(calldatasize, 0x04))\n      shr(0xe0, calldataload(0x00))\n      dup1\n      0x805553e8\n      eq\n      tag_3\n      jumpi\n    tag_2:\n      0x00\n      dup1\n      revert\n        /* \"solidity_learn/cryptographic-function.sol\":109:281  function randMod(uint range) external view returns (uint) {... */\n    tag_3:\n      tag_4\n      0x04\n      dup1\n      calldatasize\n      sub\n      dup2\n      add\n      swap1\n      tag_5\n      swap2\n      swap1\n      tag_6\n      jump\t// in\n    tag_5:\n      tag_7\n      jump\t// in\n    tag_4:\n      mload(0x40)\n      tag_8\n      swap2\n      swap1\n      tag_9\n      jump\t// in\n    tag_8:\n      mload(0x40)\n      dup1\n      swap2\n      sub\n      swap1\n      return\n    tag_7:\n        /* \"solidity_learn/cryptographic-function.sol\":161:165  uint */\n      0x00\n        /* \"solidity_learn/cryptographic-function.sol\":268:273  range */\n      dup2\n        /* \"solidity_learn/cryptographic-function.sol\":217:232  block.timestamp */\n      timestamp\n        /* \"solidity_learn/cryptographic-function.sol\":234:250  block.difficulty */\n      difficulty\n        /* \"solidity_learn/cryptographic-function.sol\":252:262  msg.sender */\n      caller\n        /* \"solidity_learn/cryptographic-function.sol\":200:263  abi.encodePacked(block.timestamp, block.difficulty, msg.sender) */\n      add(0x20, mload(0x40))\n      tag_11\n      swap4\n      swap3\n      swap2\n      swap1\n      tag_12\n      jump\t// in\n    tag_11:\n      mload(0x40)\n      0x20\n      dup2\n      dup4\n      sub\n      sub\n      dup2\n      mstore\n      swap1\n      0x40\n      mstore\n        /* \"solidity_learn/cryptographic-function.sol\":190:264  keccak256(abi.encodePacked(block.timestamp, block.difficulty, msg.sender)) */\n      dup1\n      mload\n      swap1\n      0x20\n      add\n      keccak256\n        /* \"solidity_learn/cryptographic-function.sol\":185:265  uint(keccak256(abi.encodePacked(block.timestamp, block.difficulty, msg.sender))) */\n      0x00\n      shr\n        /* \"solidity_learn/cryptographic-function.sol\":185:273  uint(keccak256(abi.encodePacked(block.timestamp, block.difficulty, msg.sender))) % range */\n      tag_13\n      swap2\n      swap1\n      tag_14\n      jump\t// in\n    tag_13:\n        /* \"solidity_learn/cryptographic-function.sol\":178:273  return uint(keccak256(abi.encodePacked(block.timestamp, block.difficulty, msg.sender))) % range */\n      swap1\n      pop\n        /* \"solidity_learn/cryptographic-function.sol\":109:281  function randMod(uint range) external view returns (uint) {... */\n      swap2\n      swap1\n      pop\n      jump\t// out\n        /* \"#utility.yul\":88:205   */\n    tag_16:\n        /* \"#utility.yul\":197:198   */\n      0x00\n        /* \"#utility.yul\":194:195   */\n      dup1\n        /* \"#utility.yul\":187:199   */\n      revert\n        /* \"#utility.yul\":334:411   */\n    tag_18:\n        /* \"#utility.yul\":371:378   */\n      0x00\n        /* \"#utility.yul\":400:405   */\n      dup2\n        /* \"#utility.yul\":389:405   */\n      swap1\n      pop\n        /* \"#utility.yul\":334:411   */\n      swap2\n      swap1\n      pop\n      jump\t// out\n        /* \"#utility.yul\":417:539   */\n    tag_19:\n        /* \"#utility.yul\":490:514   */\n      tag_37\n        /* \"#utility.yul\":508:513   */\n      dup2\n        /* \"#utility.yul\":490:514   */\n      tag_18\n      jump\t// in\n    tag_37:\n        /* \"#utility.yul\":483:488   */\n      dup2\n        /* \"#utility.yul\":480:515   */\n      eq\n        /* \"#utility.yul\":470:533   */\n      tag_38\n      jumpi\n        /* \"#utility.yul\":529:530   */\n      0x00\n        /* \"#utility.yul\":526:527   */\n      dup1\n        /* \"#utility.yul\":519:531   */\n      revert\n        /* \"#utility.yul\":470:533   */\n    tag_38:\n        /* \"#utility.yul\":417:539   */\n      pop\n      jump\t// out\n        /* \"#utility.yul\":545:684   */\n    tag_20:\n        /* \"#utility.yul\":591:596   */\n      0x00\n        /* \"#utility.yul\":629:635   */\n      dup2\n        /* \"#utility.yul\":616:636   */\n      calldataload\n        /* \"#utility.yul\":607:636   */\n      swap1\n      pop\n        /* \"#utility.yul\":645:678   */\n      tag_40\n        /* \"#utility.yul\":672:677   */\n      dup2\n        /* \"#utility.yul\":645:678   */\n      tag_19\n      jump\t// in\n    tag_40:\n        /* \"#utility.yul\":545:684   */\n      swap3\n      swap2\n      pop\n      pop\n      jump\t// out\n        /* \"#utility.yul\":690:1019   */\n    tag_6:\n        /* \"#utility.yul\":749:755   */\n      0x00\n        /* \"#utility.yul\":798:800   */\n      0x20\n        /* \"#utility.yul\":786:795   */\n      dup3\n        /* \"#utility.yul\":777:784   */\n      dup5\n        /* \"#utility.yul\":773:796   */\n      sub\n        /* \"#utility.yul\":769:801   */\n      slt\n        /* \"#utility.yul\":766:885   */\n      iszero\n      tag_42\n      jumpi\n        /* \"#utility.yul\":804:883   */\n      tag_43\n      tag_16\n      jump\t// in\n    tag_43:\n        /* \"#utility.yul\":766:885   */\n    tag_42:\n        /* \"#utility.yul\":924:925   */\n      0x00\n        /* \"#utility.yul\":949:1002   */\n      tag_44\n        /* \"#utility.yul\":994:1001   */\n      dup5\n        /* \"#utility.yul\":985:991   */\n      dup3\n        /* \"#utility.yul\":974:983   */\n      dup6\n        /* \"#utility.yul\":970:992   */\n      add\n        /* \"#utility.yul\":949:1002   */\n      tag_20\n      jump\t// in\n    tag_44:\n        /* \"#utility.yul\":939:1002   */\n      swap2\n      pop\n        /* \"#utility.yul\":895:1012   */\n      pop\n        /* \"#utility.yul\":690:1019   */\n      swap3\n      swap2\n      pop\n      pop\n      jump\t// out\n        /* \"#utility.yul\":1025:1143   */\n    tag_21:\n        /* \"#utility.yul\":1112:1136   */\n      tag_46\n        /* \"#utility.yul\":1130:1135   */\n      dup2\n        /* \"#utility.yul\":1112:1136   */\n      tag_18\n      jump\t// in\n    tag_46:\n        /* \"#utility.yul\":1107:1110   */\n      dup3\n        /* \"#utility.yul\":1100:1137   */\n      mstore\n        /* \"#utility.yul\":1025:1143   */\n      pop\n      pop\n      jump\t// out\n        /* \"#utility.yul\":1149:1371   */\n    tag_9:\n        /* \"#utility.yul\":1242:1246   */\n      0x00\n        /* \"#utility.yul\":1280:1282   */\n      0x20\n        /* \"#utility.yul\":1269:1278   */\n      dup3\n        /* \"#utility.yul\":1265:1283   */\n      add\n        /* \"#utility.yul\":1257:1283   */\n      swap1\n      pop\n        /* \"#utility.yul\":1293:1364   */\n      tag_48\n        /* \"#utility.yul\":1361:1362   */\n      0x00\n        /* \"#utility.yul\":1350:1359   */\n      dup4\n        /* \"#utility.yul\":1346:1363   */\n      add\n        /* \"#utility.yul\":1337:1343   */\n      dup5\n        /* \"#utility.yul\":1293:1364   */\n      tag_21\n      jump\t// in\n    tag_48:\n        /* \"#utility.yul\":1149:1371   */\n      swap3\n      swap2\n      pop\n      pop\n      jump\t// out\n        /* \"#utility.yul\":1377:1456   */\n    tag_22:\n        /* \"#utility.yul\":1416:1423   */\n      0x00\n        /* \"#utility.yul\":1445:1450   */\n      dup2\n        /* \"#utility.yul\":1434:1450   */\n      swap1\n      pop\n        /* \"#utility.yul\":1377:1456   */\n      swap2\n      swap1\n      pop\n      jump\t// out\n        /* \"#utility.yul\":1462:1619   */\n    tag_23:\n        /* \"#utility.yul\":1567:1612   */\n      tag_51\n        /* \"#utility.yul\":1587:1611   */\n      tag_52\n        /* \"#utility.yul\":1605:1610   */\n      dup3\n        /* \"#utility.yul\":1587:1611   */\n      tag_18\n      jump\t// in\n    tag_52:\n        /* \"#utility.yul\":1567:1612   */\n      tag_22\n      jump\t// in\n    tag_51:\n        /* \"#utility.yul\":1562:1565   */\n      dup3\n        /* \"#utility.yul\":1555:1613   */\n      mstore\n        /* \"#utility.yul\":1462:1619   */\n      pop\n      pop\n      jump\t// out\n        /* \"#utility.yul\":1625:1751   */\n    tag_24:\n        /* \"#utility.yul\":1662:1669   */\n      0x00\n        /* \"#utility.yul\":1702:1744   */\n      0xffffffffffffffffffffffffffffffffffffffff\n        /* \"#utility.yul\":1695:1700   */\n      dup3\n        /* \"#utility.yul\":1691:1745   */\n      and\n        /* \"#utility.yul\":1680:1745   */\n      swap1\n      pop\n        /* \"#utility.yul\":1625:1751   */\n      swap2\n      swap1\n      pop\n      jump\t// out\n        /* \"#utility.yul\":1757:1853   */\n    tag_25:\n        /* \"#utility.yul\":1794:1801   */\n      0x00\n        /* \"#utility.yul\":1823:1847   */\n      tag_55\n        /* \"#utility.yul\":1841:1846   */\n      dup3\n        /* \"#utility.yul\":1823:1847   */\n      tag_24\n      jump\t// in\n    tag_55:\n        /* \"#utility.yul\":1812:1847   */\n      swap1\n      pop\n        /* \"#utility.yul\":1757:1853   */\n      swap2\n      swap1\n      pop\n      jump\t// out\n        /* \"#utility.yul\":1859:1953   */\n    tag_26:\n        /* \"#utility.yul\":1892:1900   */\n      0x00\n        /* \"#utility.yul\":1940:1945   */\n      dup2\n        /* \"#utility.yul\":1936:1938   */\n      0x60\n        /* \"#utility.yul\":1932:1946   */\n      shl\n        /* \"#utility.yul\":1911:1946   */\n      swap1\n      pop\n        /* \"#utility.yul\":1859:1953   */\n      swap2\n      swap1\n      pop\n      jump\t// out\n        /* \"#utility.yul\":1959:2053   */\n    tag_27:\n        /* \"#utility.yul\":1998:2005   */\n      0x00\n        /* \"#utility.yul\":2027:2047   */\n      tag_58\n        /* \"#utility.yul\":2041:2046   */\n      dup3\n        /* \"#utility.yul\":2027:2047   */\n      tag_26\n      jump\t// in\n    tag_58:\n        /* \"#utility.yul\":2016:2047   */\n      swap1\n      pop\n        /* \"#utility.yul\":1959:2053   */\n      swap2\n      swap1\n      pop\n      jump\t// out\n        /* \"#utility.yul\":2059:2159   */\n    tag_28:\n        /* \"#utility.yul\":2098:2105   */\n      0x00\n        /* \"#utility.yul\":2127:2153   */\n      tag_60\n        /* \"#utility.yul\":2147:2152   */\n      dup3\n        /* \"#utility.yul\":2127:2153   */\n      tag_27\n      jump\t// in\n    tag_60:\n        /* \"#utility.yul\":2116:2153   */\n      swap1\n      pop\n        /* \"#utility.yul\":2059:2159   */\n      swap2\n      swap1\n      pop\n      jump\t// out\n        /* \"#utility.yul\":2165:2322   */\n    tag_29:\n        /* \"#utility.yul\":2270:2315   */\n      tag_62\n        /* \"#utility.yul\":2290:2314   */\n      tag_63\n        /* \"#utility.yul\":2308:2313   */\n      dup3\n        /* \"#utility.yul\":2290:2314   */\n      tag_25\n      jump\t// in\n    tag_63:\n        /* \"#utility.yul\":2270:2315   */\n      tag_28\n      jump\t// in\n    tag_62:\n        /* \"#utility.yul\":2265:2268   */\n      dup3\n        /* \"#utility.yul\":2258:2316   */\n      mstore\n        /* \"#utility.yul\":2165:2322   */\n      pop\n      pop\n      jump\t// out\n        /* \"#utility.yul\":2328:2866   */\n    tag_12:\n        /* \"#utility.yul\":2496:2499   */\n      0x00\n        /* \"#utility.yul\":2511:2586   */\n      tag_65\n        /* \"#utility.yul\":2582:2585   */\n      dup3\n        /* \"#utility.yul\":2573:2579   */\n      dup7\n        /* \"#utility.yul\":2511:2586   */\n      tag_23\n      jump\t// in\n    tag_65:\n        /* \"#utility.yul\":2611:2613   */\n      0x20\n        /* \"#utility.yul\":2606:2609   */\n      dup3\n        /* \"#utility.yul\":2602:2614   */\n      add\n        /* \"#utility.yul\":2595:2614   */\n      swap2\n      pop\n        /* \"#utility.yul\":2624:2699   */\n      tag_66\n        /* \"#utility.yul\":2695:2698   */\n      dup3\n        /* \"#utility.yul\":2686:2692   */\n      dup6\n        /* \"#utility.yul\":2624:2699   */\n      tag_23\n      jump\t// in\n    tag_66:\n        /* \"#utility.yul\":2724:2726   */\n      0x20\n        /* \"#utility.yul\":2719:2722   */\n      dup3\n        /* \"#utility.yul\":2715:2727   */\n      add\n        /* \"#utility.yul\":2708:2727   */\n      swap2\n      pop\n        /* \"#utility.yul\":2737:2812   */\n      tag_67\n        /* \"#utility.yul\":2808:2811   */\n      dup3\n        /* \"#utility.yul\":2799:2805   */\n      dup5\n        /* \"#utility.yul\":2737:2812   */\n      tag_29\n      jump\t// in\n    tag_67:\n        /* \"#utility.yul\":2837:2839   */\n      0x14\n        /* \"#utility.yul\":2832:2835   */\n      dup3\n        /* \"#utility.yul\":2828:2840   */\n      add\n        /* \"#utility.yul\":2821:2840   */\n      swap2\n      pop\n        /* \"#utility.yul\":2857:2860   */\n      dup2\n        /* \"#utility.yul\":2850:2860   */\n      swap1\n      pop\n        /* \"#utility.yul\":2328:2866   */\n      swap5\n      swap4\n      pop\n      pop\n      pop\n      pop\n      jump\t// out\n        /* \"#utility.yul\":2872:3052   */\n    tag_30:\n        /* \"#utility.yul\":2920:2997   */\n      0x4e487b7100000000000000000000000000000000000000000000000000000000\n        /* \"#utility.yul\":2917:2918   */\n      0x00\n        /* \"#utility.yul\":2910:2998   */\n      mstore\n        /* \"#utility.yul\":3017:3021   */\n      0x12\n        /* \"#utility.yul\":3014:3015   */\n      0x04\n        /* \"#utility.yul\":3007:3022   */\n      mstore\n        /* \"#utility.yul\":3041:3045   */\n      0x24\n        /* \"#utility.yul\":3038:3039   */\n      0x00\n        /* \"#utility.yul\":3031:3046   */\n      revert\n        /* \"#utility.yul\":3058:3234   */\n    tag_14:\n        /* \"#utility.yul\":3090:3091   */\n      0x00\n        /* \"#utility.yul\":3107:3127   */\n      tag_70\n        /* \"#utility.yul\":3125:3126   */\n      dup3\n        /* \"#utility.yul\":3107:3127   */\n      tag_18\n      jump\t// in\n    tag_70:\n        /* \"#utility.yul\":3102:3127   */\n      swap2\n      pop\n        /* \"#utility.yul\":3141:3161   */\n      tag_71\n        /* \"#utility.yul\":3159:3160   */\n      dup4\n        /* \"#utility.yul\":3141:3161   */\n      tag_18\n      jump\t// in\n    tag_71:\n        /* \"#utility.yul\":3136:3161   */\n      swap3\n      pop\n        /* \"#utility.yul\":3180:3181   */\n      dup3\n        /* \"#utility.yul\":3170:3205   */\n      tag_72\n      jumpi\n        /* \"#utility.yul\":3185:3203   */\n      tag_73\n      tag_30\n      jump\t// in\n    tag_73:\n        /* \"#utility.yul\":3170:3205   */\n    tag_72:\n        /* \"#utility.yul\":3226:3227   */\n      dup3\n        /* \"#utility.yul\":3223:3224   */\n      dup3\n        /* \"#utility.yul\":3219:3228   */\n      mod\n        /* \"#utility.yul\":3214:3228   */\n      swap1\n      pop\n        /* \"#utility.yul\":3058:3234   */\n      swap3\n      swap2\n      pop\n      pop\n      jump\t// out\n\n    auxdata: 0xa264697066735822122040d5598e14142fc52dc35870165484c34a646b434a97d7eae89d4cdbf165139164736f6c63430008110033\n}\n",
				"bytecode": {
					"linkReferences": {},
					"object": "608060405234801561001057600080fd5b506102a2806100206000396000f3fe608060405234801561001057600080fd5b506004361061002b5760003560e01c8063805553e814610030575b600080fd5b61004a600480360381019061004591906100dd565b610060565b6040516100579190610119565b60405180910390f35b600081424433604051602001610078939291906101cf565b6040516020818303038152906040528051906020012060001c61009b919061023b565b9050919050565b600080fd5b6000819050919050565b6100ba816100a7565b81146100c557600080fd5b50565b6000813590506100d7816100b1565b92915050565b6000602082840312156100f3576100f26100a2565b5b6000610101848285016100c8565b91505092915050565b610113816100a7565b82525050565b600060208201905061012e600083018461010a565b92915050565b6000819050919050565b61014f61014a826100a7565b610134565b82525050565b600073ffffffffffffffffffffffffffffffffffffffff82169050919050565b600061018082610155565b9050919050565b60008160601b9050919050565b600061019f82610187565b9050919050565b60006101b182610194565b9050919050565b6101c96101c482610175565b6101a6565b82525050565b60006101db828661013e565b6020820191506101eb828561013e565b6020820191506101fb82846101b8565b601482019150819050949350505050565b7f4e487b7100000000000000000000000000000000000000000000000000000000600052601260045260246000fd5b6000610246826100a7565b9150610251836100a7565b9250826102615761026061020c565b5b82820690509291505056fea264697066735822122040d5598e14142fc52dc35870165484c34a646b434a97d7eae89d4cdbf165139164736f6c63430008110033",
					"opcodes": "PUSH1 0x80 PUSH1 0x40 MSTORE CALLVALUE DUP1 ISZERO PUSH2 0x10 JUMPI PUSH1 0x0 DUP1 REVERT JUMPDEST POP PUSH2 0x2A2 DUP1 PUSH2 0x20 PUSH1 0x0 CODECOPY PUSH1 0x0 RETURN INVALID PUSH1 0x80 PUSH1 0x40 MSTORE CALLVALUE DUP1 ISZERO PUSH2 0x10 JUMPI PUSH1 0x0 DUP1 REVERT JUMPDEST POP PUSH1 0x4 CALLDATASIZE LT PUSH2 0x2B JUMPI PUSH1 0x0 CALLDATALOAD PUSH1 0xE0 SHR DUP1 PUSH4 0x805553E8 EQ PUSH2 0x30 JUMPI JUMPDEST PUSH1 0x0 DUP1 REVERT JUMPDEST PUSH2 0x4A PUSH1 0x4 DUP1 CALLDATASIZE SUB DUP2 ADD SWAP1 PUSH2 0x45 SWAP2 SWAP1 PUSH2 0xDD JUMP JUMPDEST PUSH2 0x60 JUMP JUMPDEST PUSH1 0x40 MLOAD PUSH2 0x57 SWAP2 SWAP1 PUSH2 0x119 JUMP JUMPDEST PUSH1 0x40 MLOAD DUP1 SWAP2 SUB SWAP1 RETURN JUMPDEST PUSH1 0x0 DUP2 TIMESTAMP DIFFICULTY CALLER PUSH1 0x40 MLOAD PUSH1 0x20 ADD PUSH2 0x78 SWAP4 SWAP3 SWAP2 SWAP1 PUSH2 0x1CF JUMP JUMPDEST PUSH1 0x40 MLOAD PUSH1 0x20 DUP2 DUP4 SUB SUB DUP2 MSTORE SWAP1 PUSH1 0x40 MSTORE DUP1 MLOAD SWAP1 PUSH1 0x20 ADD KECCAK256 PUSH1 0x0 SHR PUSH2 0x9B SWAP2 SWAP1 PUSH2 0x23B JUMP JUMPDEST SWAP1 POP SWAP2 SWAP1 POP JUMP JUMPDEST PUSH1 0x0 DUP1 REVERT JUMPDEST PUSH1 0x0 DUP2 SWAP1 POP SWAP2 SWAP1 POP JUMP JUMPDEST PUSH2 0xBA DUP2 PUSH2 0xA7 JUMP JUMPDEST DUP2 EQ PUSH2 0xC5 JUMPI PUSH1 0x0 DUP1 REVERT JUMPDEST POP JUMP JUMPDEST PUSH1 0x0 DUP2 CALLDATALOAD SWAP1 POP PUSH2 0xD7 DUP2 PUSH2 0xB1 JUMP JUMPDEST SWAP3 SWAP2 POP POP JUMP JUMPDEST PUSH1 0x0 PUSH1 0x20 DUP3 DUP5 SUB SLT ISZERO PUSH2 0xF3 JUMPI PUSH2 0xF2 PUSH2 0xA2 JUMP JUMPDEST JUMPDEST PUSH1 0x0 PUSH2 0x101 DUP5 DUP3 DUP6 ADD PUSH2 0xC8 JUMP JUMPDEST SWAP2 POP POP SWAP3 SWAP2 POP POP JUMP JUMPDEST PUSH2 0x113 DUP2 PUSH2 0xA7 JUMP JUMPDEST DUP3 MSTORE POP POP JUMP JUMPDEST PUSH1 0x0 PUSH1 0x20 DUP3 ADD SWAP1 POP PUSH2 0x12E PUSH1 0x0 DUP4 ADD DUP5 PUSH2 0x10A JUMP JUMPDEST SWAP3 SWAP2 POP POP JUMP JUMPDEST PUSH1 0x0 DUP2 SWAP1 POP SWAP2 SWAP1 POP JUMP JUMPDEST PUSH2 0x14F PUSH2 0x14A DUP3 PUSH2 0xA7 JUMP JUMPDEST PUSH2 0x134 JUMP JUMPDEST DUP3 MSTORE POP POP JUMP JUMPDEST PUSH1 0x0 PUSH20 0xFFFFFFFFFFFFFFFFFFFFFFFFFFFFFFFFFFFFFFFF DUP3 AND SWAP1 POP SWAP2 SWAP1 POP JUMP JUMPDEST PUSH1 0x0 PUSH2 0x180 DUP3 PUSH2 0x155 JUMP JUMPDEST SWAP1 POP SWAP2 SWAP1 POP JUMP JUMPDEST PUSH1 0x0 DUP2 PUSH1 0x60 SHL SWAP1 POP SWAP2 SWAP1 POP JUMP JUMPDEST PUSH1 0x0 PUSH2 0x19F DUP3 PUSH2 0x187 JUMP JUMPDEST SWAP1 POP SWAP2 SWAP1 POP JUMP JUMPDEST PUSH1 0x0 PUSH2 0x1B1 DUP3 PUSH2 0x194 JUMP JUMPDEST SWAP1 POP SWAP2 SWAP1 POP JUMP JUMPDEST PUSH2 0x1C9 PUSH2 0x1C4 DUP3 PUSH2 0x175 JUMP JUMPDEST PUSH2 0x1A6 JUMP JUMPDEST DUP3 MSTORE POP POP JUMP JUMPDEST PUSH1 0x0 PUSH2 0x1DB DUP3 DUP7 PUSH2 0x13E JUMP JUMPDEST PUSH1 0x20 DUP3 ADD SWAP2 POP PUSH2 0x1EB DUP3 DUP6 PUSH2 0x13E JUMP JUMPDEST PUSH1 0x20 DUP3 ADD SWAP2 POP PUSH2 0x1FB DUP3 DUP5 PUSH2 0x1B8 JUMP JUMPDEST PUSH1 0x14 DUP3 ADD SWAP2 POP DUP2 SWAP1 POP SWAP5 SWAP4 POP POP POP POP JUMP JUMPDEST PUSH32 0x4E487B7100000000000000000000000000000000000000000000000000000000 PUSH1 0x0 MSTORE PUSH1 0x12 PUSH1 0x4 MSTORE PUSH1 0x24 PUSH1 0x0 REVERT JUMPDEST PUSH1 0x0 PUSH2 0x246 DUP3 PUSH2 0xA7 JUMP JUMPDEST SWAP2 POP PUSH2 0x251 DUP4 PUSH2 0xA7 JUMP JUMPDEST SWAP3 POP DUP3 PUSH2 0x261 JUMPI PUSH2 0x260 PUSH2 0x20C JUMP JUMPDEST JUMPDEST DUP3 DUP3 MOD SWAP1 POP SWAP3 SWAP2 POP POP JUMP INVALID LOG2 PUSH5 0x6970667358 0x22 SLT KECCAK256 BLOCKHASH 0xD5 MSIZE DUP15 EQ EQ 0x2F 0xC5 0x2D 0xC3 PC PUSH17 0x165484C34A646B434A97D7EAE89D4CDBF1 PUSH6 0x139164736F6C PUSH4 0x43000811 STOP CALLER "
				},
				"gasEstimates": {
					"creation": {
						"codeDepositCost": "134800",
						"executionCost": "183",
						"totalCost": "134983"
					},
					"external": {
						"randMod(uint256)": "infinite"
					}
				},
				"methodIdentifiers": {
					"randMod(uint256)": "805553e8"
				}
			},
			"storageLayout": {
				"storage": [],
				"types": null
			},
			"userdoc": {
				"kind": "user",
				"methods": {},
				"version": 1
			}
		}
	}
}